{
  "_format": "hh-sol-artifact-1",
  "contractName": "PlayToEarn",
  "sourceName": "src/contracts/PlayToEarn.sol",
  "abi": [
    {
      "anonymous": false,
      "inputs": [
        {
          "indexed": true,
          "internalType": "address",
          "name": "previousOwner",
          "type": "address"
        },
        {
          "indexed": true,
          "internalType": "address",
          "name": "newOwner",
          "type": "address"
        }
      ],
      "name": "OwnershipTransferred",
      "type": "event"
    },
    {
      "inputs": [
        {
          "internalType": "uint256",
          "name": "gameId",
          "type": "uint256"
        }
      ],
      "name": "acceptInvitation",
      "outputs": [],
      "stateMutability": "payable",
      "type": "function"
    },
    {
      "inputs": [
        {
          "internalType": "string",
          "name": "title",
          "type": "string"
        },
        {
          "internalType": "string",
          "name": "description",
          "type": "string"
        },
        {
          "internalType": "uint256",
          "name": "participants",
          "type": "uint256"
        },
        {
          "internalType": "uint256",
          "name": "numberOfWinners",
          "type": "uint256"
        },
        {
          "internalType": "uint256",
          "name": "challenges",
          "type": "uint256"
        },
        {
          "internalType": "uint256",
          "name": "startDate",
          "type": "uint256"
        },
        {
          "internalType": "uint256",
          "name": "endDate",
          "type": "uint256"
        }
      ],
      "name": "createGame",
      "outputs": [],
      "stateMutability": "payable",
      "type": "function"
    },
    {
      "inputs": [
        {
          "internalType": "uint256",
          "name": "id",
          "type": "uint256"
        }
      ],
      "name": "getGame",
      "outputs": [
        {
          "components": [
            {
              "internalType": "uint256",
              "name": "id",
              "type": "uint256"
            },
            {
              "internalType": "string",
              "name": "title",
              "type": "string"
            },
            {
              "internalType": "string",
              "name": "description",
              "type": "string"
            },
            {
              "internalType": "address",
              "name": "owner",
              "type": "address"
            },
            {
              "internalType": "uint256",
              "name": "participants",
              "type": "uint256"
            },
            {
              "internalType": "uint256",
              "name": "numberOfWinners",
              "type": "uint256"
            },
            {
              "internalType": "uint256",
              "name": "challenges",
              "type": "uint256"
            },
            {
              "internalType": "uint256",
              "name": "plays",
              "type": "uint256"
            },
            {
              "internalType": "uint256",
              "name": "acceptees",
              "type": "uint256"
            },
            {
              "internalType": "uint256",
              "name": "stake",
              "type": "uint256"
            },
            {
              "internalType": "uint256",
              "name": "startDate",
              "type": "uint256"
            },
            {
              "internalType": "uint256",
              "name": "endDate",
              "type": "uint256"
            },
            {
              "internalType": "uint256",
              "name": "timestamp",
              "type": "uint256"
            },
            {
              "internalType": "bool",
              "name": "deleted",
              "type": "bool"
            },
            {
              "internalType": "bool",
              "name": "paidOut",
              "type": "bool"
            }
          ],
          "internalType": "struct PlayToEarn.GameStruct",
          "name": "",
          "type": "tuple"
        }
      ],
      "stateMutability": "view",
      "type": "function"
    },
    {
      "inputs": [],
      "name": "getGames",
      "outputs": [
        {
          "components": [
            {
              "internalType": "uint256",
              "name": "id",
              "type": "uint256"
            },
            {
              "internalType": "string",
              "name": "title",
              "type": "string"
            },
            {
              "internalType": "string",
              "name": "description",
              "type": "string"
            },
            {
              "internalType": "address",
              "name": "owner",
              "type": "address"
            },
            {
              "internalType": "uint256",
              "name": "participants",
              "type": "uint256"
            },
            {
              "internalType": "uint256",
              "name": "numberOfWinners",
              "type": "uint256"
            },
            {
              "internalType": "uint256",
              "name": "challenges",
              "type": "uint256"
            },
            {
              "internalType": "uint256",
              "name": "plays",
              "type": "uint256"
            },
            {
              "internalType": "uint256",
              "name": "acceptees",
              "type": "uint256"
            },
            {
              "internalType": "uint256",
              "name": "stake",
              "type": "uint256"
            },
            {
              "internalType": "uint256",
              "name": "startDate",
              "type": "uint256"
            },
            {
              "internalType": "uint256",
              "name": "endDate",
              "type": "uint256"
            },
            {
              "internalType": "uint256",
              "name": "timestamp",
              "type": "uint256"
            },
            {
              "internalType": "bool",
              "name": "deleted",
              "type": "bool"
            },
            {
              "internalType": "bool",
              "name": "paidOut",
              "type": "bool"
            }
          ],
          "internalType": "struct PlayToEarn.GameStruct[]",
          "name": "ActiveGames",
          "type": "tuple[]"
        }
      ],
      "stateMutability": "view",
      "type": "function"
    },
    {
      "inputs": [],
      "name": "getInvitations",
      "outputs": [
        {
          "components": [
            {
              "internalType": "address",
              "name": "account",
              "type": "address"
            },
            {
              "internalType": "bool",
              "name": "responded",
              "type": "bool"
            },
            {
              "internalType": "string",
              "name": "title",
              "type": "string"
            }
          ],
          "internalType": "struct PlayToEarn.InvitationStruct[]",
          "name": "Invitations",
          "type": "tuple[]"
        }
      ],
      "stateMutability": "view",
      "type": "function"
    },
    {
      "inputs": [],
      "name": "getMyGames",
      "outputs": [
        {
          "components": [
            {
              "internalType": "uint256",
              "name": "id",
              "type": "uint256"
            },
            {
              "internalType": "string",
              "name": "title",
              "type": "string"
            },
            {
              "internalType": "string",
              "name": "description",
              "type": "string"
            },
            {
              "internalType": "address",
              "name": "owner",
              "type": "address"
            },
            {
              "internalType": "uint256",
              "name": "participants",
              "type": "uint256"
            },
            {
              "internalType": "uint256",
              "name": "numberOfWinners",
              "type": "uint256"
            },
            {
              "internalType": "uint256",
              "name": "challenges",
              "type": "uint256"
            },
            {
              "internalType": "uint256",
              "name": "plays",
              "type": "uint256"
            },
            {
              "internalType": "uint256",
              "name": "acceptees",
              "type": "uint256"
            },
            {
              "internalType": "uint256",
              "name": "stake",
              "type": "uint256"
            },
            {
              "internalType": "uint256",
              "name": "startDate",
              "type": "uint256"
            },
            {
              "internalType": "uint256",
              "name": "endDate",
              "type": "uint256"
            },
            {
              "internalType": "uint256",
              "name": "timestamp",
              "type": "uint256"
            },
            {
              "internalType": "bool",
              "name": "deleted",
              "type": "bool"
            },
            {
              "internalType": "bool",
              "name": "paidOut",
              "type": "bool"
            }
          ],
          "internalType": "struct PlayToEarn.GameStruct[]",
          "name": "userGames",
          "type": "tuple[]"
        }
      ],
      "stateMutability": "view",
      "type": "function"
    },
    {
      "inputs": [
        {
          "internalType": "uint256",
          "name": "gameId",
          "type": "uint256"
        }
      ],
      "name": "getScores",
      "outputs": [
        {
          "components": [
            {
              "internalType": "uint256",
              "name": "gameId",
              "type": "uint256"
            },
            {
              "internalType": "address",
              "name": "player",
              "type": "address"
            },
            {
              "internalType": "uint256",
              "name": "score",
              "type": "uint256"
            },
            {
              "internalType": "bool",
              "name": "played",
              "type": "bool"
            }
          ],
          "internalType": "struct PlayToEarn.PlayerScoreSheetStruct[]",
          "name": "Scores",
          "type": "tuple[]"
        }
      ],
      "stateMutability": "view",
      "type": "function"
    },
    {
      "inputs": [
        {
          "internalType": "address",
          "name": "playerAccount",
          "type": "address"
        },
        {
          "internalType": "uint256",
          "name": "gameId",
          "type": "uint256"
        }
      ],
      "name": "invitePlayer",
      "outputs": [],
      "stateMutability": "nonpayable",
      "type": "function"
    },
    {
      "inputs": [
        {
          "internalType": "uint256",
          "name": "gameId",
          "type": "uint256"
        },
        {
          "internalType": "address",
          "name": "player",
          "type": "address"
        }
      ],
      "name": "isPlayerListed",
      "outputs": [
        {
          "internalType": "bool",
          "name": "",
          "type": "bool"
        }
      ],
      "stateMutability": "view",
      "type": "function"
    },
    {
      "inputs": [],
      "name": "owner",
      "outputs": [
        {
          "internalType": "address",
          "name": "",
          "type": "address"
        }
      ],
      "stateMutability": "view",
      "type": "function"
    },
    {
      "inputs": [
        {
          "internalType": "uint256",
          "name": "gameId",
          "type": "uint256"
        }
      ],
      "name": "payout",
      "outputs": [],
      "stateMutability": "nonpayable",
      "type": "function"
    },
    {
      "inputs": [
        {
          "internalType": "uint256",
          "name": "gameId",
          "type": "uint256"
        },
        {
          "internalType": "uint256",
          "name": "score",
          "type": "uint256"
        }
      ],
      "name": "recordScore",
      "outputs": [],
      "stateMutability": "nonpayable",
      "type": "function"
    },
    {
      "inputs": [
        {
          "internalType": "uint256",
          "name": "gameId",
          "type": "uint256"
        }
      ],
      "name": "rejectInvitation",
      "outputs": [],
      "stateMutability": "nonpayable",
      "type": "function"
    },
    {
      "inputs": [],
      "name": "renounceOwnership",
      "outputs": [],
      "stateMutability": "nonpayable",
      "type": "function"
    },
    {
      "inputs": [
        {
          "components": [
            {
              "internalType": "uint256",
              "name": "gameId",
              "type": "uint256"
            },
            {
              "internalType": "address",
              "name": "player",
              "type": "address"
            },
            {
              "internalType": "uint256",
              "name": "score",
              "type": "uint256"
            },
            {
              "internalType": "bool",
              "name": "played",
              "type": "bool"
            }
          ],
          "internalType": "struct PlayToEarn.PlayerScoreSheetStruct[]",
          "name": "playersScores",
          "type": "tuple[]"
        }
      ],
      "name": "sortScores",
      "outputs": [
        {
          "components": [
            {
              "internalType": "uint256",
              "name": "gameId",
              "type": "uint256"
            },
            {
              "internalType": "address",
              "name": "player",
              "type": "address"
            },
            {
              "internalType": "uint256",
              "name": "score",
              "type": "uint256"
            },
            {
              "internalType": "bool",
              "name": "played",
              "type": "bool"
            }
          ],
          "internalType": "struct PlayToEarn.PlayerScoreSheetStruct[]",
          "name": "",
          "type": "tuple[]"
        }
      ],
      "stateMutability": "pure",
      "type": "function"
    },
    {
      "inputs": [
        {
          "internalType": "address",
          "name": "newOwner",
          "type": "address"
        }
      ],
      "name": "transferOwnership",
      "outputs": [],
      "stateMutability": "nonpayable",
      "type": "function"
    }
  ],
  "bytecode": "0x60806040526706f05b59d3b2000060055534801561001c57600080fd5b506100263361002f565b6001805561007f565b600080546001600160a01b038381166001600160a01b0319831681178455604051919092169283917f8be0079c531659141344cd1fd0a4f28419497f9722a3daafe3b4186f6b6457e09190a35050565b612bca806200008f6000396000f3fe6080604052600436106100f35760003560e01c80638da5cb5b1161008a578063d4c33fe911610059578063d4c33fe914610286578063e115234314610299578063f2fde38b146102b9578063f51ba29d146102d957600080fd5b80638da5cb5b146101fc578063a2f77bcc14610224578063a4e1370d14610251578063c04c59471461027157600080fd5b8063464c5b6c116100c6578063464c5b6c146101945780634e56799e146101a75780635aa6bb3b146101c7578063715018a6146101e757600080fd5b80630210d751146100f857806304527d901461012357806316845714146101505780632246fe0b14610172575b600080fd5b34801561010457600080fd5b5061010d610309565b60405161011a91906125d0565b60405180910390f35b34801561012f57600080fd5b5061014361013e366004612632565b6106a6565b60405161011a919061264b565b34801561015c57600080fd5b5061016561082e565b60405161011a91906126ba565b34801561017e57600080fd5b5061019261018d366004612760565b610a43565b005b6101926101a2366004612632565b610c15565b3480156101b357600080fd5b506101926101c236600461278a565b610df3565b3480156101d357600080fd5b506101926101e2366004612632565b610f87565b3480156101f357600080fd5b506101926110c4565b34801561020857600080fd5b506000546040516001600160a01b03909116815260200161011a565b34801561023057600080fd5b5061024461023f366004612632565b6110d8565b60405161011a91906127ac565b34801561025d57600080fd5b5061014361026c366004612836565b6112c8565b34801561027d57600080fd5b5061010d61153d565b61019261029436600461299e565b61186a565b3480156102a557600080fd5b506101926102b4366004612632565b611be3565b3480156102c557600080fd5b506101926102d4366004612a2e565b611f46565b3480156102e557600080fd5b506102f96102f4366004612a49565b611fbf565b604051901515815260200161011a565b6060600060015b60025481116103ac576103238133611fbf565b801561034157506000818152600660205260409020600d015460ff16155b801561036457506000818152600660205260409020600d0154610100900460ff16155b801561038757506000818152600660205260409020600b0154610385611fea565b105b1561039a578161039681612a8b565b9250505b806103a481612a8b565b915050610310565b508067ffffffffffffffff8111156103c6576103c66127c6565b6040519080825280602002602001820160405280156103ff57816020015b6103ec61238e565b8152602001906001900390816103e45790505b509150600060015b60025481116106a05761041a8133611fbf565b801561043857506000818152600660205260409020600d015460ff16155b801561045b57506000818152600660205260409020600d0154610100900460ff16155b801561047e57506000818152600660205260409020600b015461047c611fea565b105b1561068e5760066000828152602001908152602001600020604051806101e0016040529081600082015481526020016001820180546104bc90612aa6565b80601f01602080910402602001604051908101604052809291908181526020018280546104e890612aa6565b80156105355780601f1061050a57610100808354040283529160200191610535565b820191906000526020600020905b81548152906001019060200180831161051857829003601f168201915b5050505050815260200160028201805461054e90612aa6565b80601f016020809104026020016040519081016040528092919081815260200182805461057a90612aa6565b80156105c75780601f1061059c576101008083540402835291602001916105c7565b820191906000526020600020905b8154815290600101906020018083116105aa57829003601f168201915b505050918352505060038201546001600160a01b03166020820152600482015460408201526005820154606082015260068201546080820152600782015460a0820152600882015460c0820152600982015460e0820152600a82015461010080830191909152600b830154610120830152600c830154610140830152600d9092015460ff8082161515610160840152929004909116151561018090910152848361067081612a8b565b94508151811061068257610682612ae1565b60200260200101819052505b8061069881612a8b565b915050610407565b50505090565b6060600060015b60035481116106ef576000818152600760205260409020600101548414156106dd57816106d981612a8b565b9250505b806106e781612a8b565b9150506106ad565b508067ffffffffffffffff811115610709576107096127c6565b60405190808252806020026020018201604052801561075b57816020015b6040805160808101825260008082526020808301829052928201819052606082015282526000199092019101816107275790505b509150600060015b600354811161082657600081815260076020526040902060010154851415610814576000858152600d60209081526040808320848452600783528184206002908101546001600160a01b0390811686529184529382902082516080810184528154815260018201549092169382019390935292820154908301526003015460ff161515606082015284836107f681612a8b565b94508151811061080857610808612ae1565b60200260200101819052505b8061081e81612a8b565b915050610763565b505050919050565b6060600060015b6002548111610888573360008181526008602090815260408083208584529091529020546001600160a01b03161415610876578161087281612a8b565b9250505b8061088081612a8b565b915050610835565b508067ffffffffffffffff8111156108a2576108a26127c6565b6040519080825280602002602001820160405280156108ef57816020015b604080516060808201835260008083526020830152918101919091528152602001906001900390816108c05790505b509150600060015b60025481116106a0573360008181526008602090815260408083208584529091529020546001600160a01b03161415610a3157336000908152600860209081526040808320848452825291829020825160608101845281546001600160a01b0381168252600160a01b900460ff16151592810192909252600181018054929391929184019161098590612aa6565b80601f01602080910402602001604051908101604052809291908181526020018280546109b190612aa6565b80156109fe5780601f106109d3576101008083540402835291602001916109fe565b820191906000526020600020905b8154815290600101906020018083116109e157829003601f168201915b505050505081525050848380610a1390612a8b565b945081518110610a2557610a25612ae1565b60200260200101819052505b80610a3b81612a8b565b9150506108f7565b6000818152600a602052604090205460ff16610a7a5760405162461bcd60e51b8152600401610a7190612af7565b60405180910390fd5b60008181526009602090815260408083206001600160a01b038616845290915290205460ff1615610aed5760405162461bcd60e51b815260206004820152601e60248201527f506c6179657220697320616c726561647920696e20746869732067616d6500006044820152606401610a71565b604080516060810182526001600160a01b0384168152600060208083018290528482526006905282902060010180549192830191610b2a90612aa6565b80601f0160208091040260200160405190810160405280929190818152602001828054610b5690612aa6565b8015610ba35780601f10610b7857610100808354040283529160200191610ba3565b820191906000526020600020905b815481529060010190602001808311610b8657829003601f168201915b5050509190925250506001600160a01b03808416600090815260086020908152604080832086845282529182902084518154868401511515600160a01b026001600160a81b03199091169190951617939093178355908301518051610c0e9260018501920190612411565b5050505050565b6000818152600a602052604090205460ff16610c435760405162461bcd60e51b8152600401610a7190612af7565b600081815260066020526040902060090154341015610ca45760405162461bcd60e51b815260206004820152601c60248201527f496e737566666369656e742066756e647320666f72207374616b6573000000006044820152606401610a71565b3360008181526008602090815260408083208584529091529020546001600160a01b031614610d0b5760405162461bcd60e51b8152602060048201526013602482015272556e617574686f72697a656420656e7469747960681b6044820152606401610a71565b336000908152600860209081526040808320848452909152902054600160a01b900460ff1615610d735760405162461bcd60e51b8152602060048201526013602482015272141c995d9a5bdd5b1e481c995cdc1bdb991959606a1b6044820152606401610a71565b6000610d7e82612009565b905080610dc65760405162461bcd60e51b8152602060048201526016602482015275141b185e595c8818dc99585d1a5bdb8819985a5b195960521b6044820152606401610a71565b5033600090815260086020908152604080832093835292905220805460ff60a01b1916600160a01b179055565b60008281526006602052604090206008810154600590910154610e17906001612b24565b14610e5d5760405162461bcd60e51b8152602060048201526016602482015275139bdd08195b9bdd59da081c1b185e595c9cc81e595d60521b6044820152606401610a71565b6000828152600d6020908152604080832033845290915290206003015460ff1615610eca5760405162461bcd60e51b815260206004820152601760248201527f506c6179657220616c7265616479207265636f726465640000000000000000006044820152606401610a71565b6000828152600660205260409020600a0154610ee4611fea565b10158015610f0957506000828152600660205260409020600b0154610f07611fea565b105b610f555760405162461bcd60e51b815260206004820152601c60248201527f47616d6520706c6179206d75737420626520696e2073657373696f6e000000006044820152606401610a71565b6000918252600d602090815260408084203385529091529091206002810191909155600301805460ff19166001179055565b6000818152600a602052604090205460ff16610fb55760405162461bcd60e51b8152600401610a7190612af7565b3360008181526008602090815260408083208584529091529020546001600160a01b0316146110265760405162461bcd60e51b815260206004820181905260248201527f596f7520617265206e6f7420696e766974656420746f20746869732067616d656044820152606401610a71565b336000908152600860209081526040808320848452909152902054600160a01b900460ff16156110985760405162461bcd60e51b815260206004820152601e60248201527f496e7669746174696f6e20697320616c72656164792072656a656374656400006044820152606401610a71565b33600090815260086020908152604080832093835292905220805460ff60a01b1916600160a01b179055565b6110cc6120f5565b6110d6600061214f565b565b6110e061238e565b60066000838152602001908152602001600020604051806101e00160405290816000820154815260200160018201805461111990612aa6565b80601f016020809104026020016040519081016040528092919081815260200182805461114590612aa6565b80156111925780601f1061116757610100808354040283529160200191611192565b820191906000526020600020905b81548152906001019060200180831161117557829003601f168201915b505050505081526020016002820180546111ab90612aa6565b80601f01602080910402602001604051908101604052809291908181526020018280546111d790612aa6565b80156112245780601f106111f957610100808354040283529160200191611224565b820191906000526020600020905b81548152906001019060200180831161120757829003601f168201915b505050918352505060038201546001600160a01b03166020820152600482015460408201526005820154606082015260068201546080820152600782015460a0820152600882015460c0820152600982015460e0820152600a82015461010080830191909152600b830154610120830152600c830154610140830152600d9092015460ff808216151561016084015292900490911615156101809091015292915050565b805160609060005b6112db600183612b3c565b8110156115355760005b60016112f18385612b3c565b6112fb9190612b3c565b8110156115225784818151811061131457611314612ae1565b6020026020010151606001518015611350575084611333826001612b24565b8151811061134357611343612ae1565b6020026020010151606001515b156114315784611361826001612b24565b8151811061137157611371612ae1565b60200260200101516040015185828151811061138f5761138f612ae1565b602002602001015160400151111561142c5760008582815181106113b5576113b5612ae1565b60200260200101519050858260016113cd9190612b24565b815181106113dd576113dd612ae1565b60200260200101518683815181106113f7576113f7612ae1565b6020908102919091010152808661140f846001612b24565b8151811061141f5761141f612ae1565b6020026020010181905250505b611510565b84818151811061144357611443612ae1565b602002602001015160600151158015611480575084611463826001612b24565b8151811061147357611473612ae1565b6020026020010151606001515b1561151057600085828151811061149957611499612ae1565b60200260200101519050858260016114b19190612b24565b815181106114c1576114c1612ae1565b60200260200101518683815181106114db576114db612ae1565b602090810291909101015280866114f3846001612b24565b8151811061150357611503612ae1565b6020026020010181905250505b8061151a81612a8b565b9150506112e5565b508061152d81612a8b565b9150506112d0565b509192915050565b6060600060015b60025481116115ab576000818152600660205260409020600d015460ff1615801561158657506000818152600660205260409020600d0154610100900460ff16155b15611599578161159581612a8b565b9250505b806115a381612a8b565b915050611544565b508067ffffffffffffffff8111156115c5576115c56127c6565b6040519080825280602002602001820160405280156115fe57816020015b6115eb61238e565b8152602001906001900390816115e35790505b509150600060015b60025481116106a0576000818152600660205260409020600d015460ff1615801561164857506000818152600660205260409020600d0154610100900460ff16155b156118585760066000828152602001908152602001600020604051806101e00160405290816000820154815260200160018201805461168690612aa6565b80601f01602080910402602001604051908101604052809291908181526020018280546116b290612aa6565b80156116ff5780601f106116d4576101008083540402835291602001916116ff565b820191906000526020600020905b8154815290600101906020018083116116e257829003601f168201915b5050505050815260200160028201805461171890612aa6565b80601f016020809104026020016040519081016040528092919081815260200182805461174490612aa6565b80156117915780601f1061176657610100808354040283529160200191611791565b820191906000526020600020905b81548152906001019060200180831161177457829003601f168201915b505050918352505060038201546001600160a01b03166020820152600482015460408201526005820154606082015260068201546080820152600782015460a0820152600882015460c0820152600982015460e0820152600a82015461010080830191909152600b830154610120830152600c830154610140830152600d9092015460ff8082161515610160840152929004909116151561018090910152848361183a81612a8b565b94508151811061184c5761184c612ae1565b60200260200101819052505b8061186281612a8b565b915050611606565b600034116118ba5760405162461bcd60e51b815260206004820152601760248201527f5374616b652066756e64732069732072657175697265640000000000000000006044820152606401610a71565b600185116119165760405162461bcd60e51b8152602060048201526024808201527f506172746974696370616e7473206d7573742062652067726561746572207468604482015263616e203160e01b6064820152608401610a71565b60058310156119725760405162461bcd60e51b815260206004820152602260248201527f4368616c6c656e676573206d757374206e6f74206265206c657373207468616e604482015261203560f01b6064820152608401610a71565b60008751116119b85760405162461bcd60e51b81526020600482015260126024820152715469746c652069732072657175697265642160701b6044820152606401610a71565b6000865111611a095760405162461bcd60e51b815260206004820152601860248201527f4465736372697074696f6e2069732072657175697265642100000000000000006044820152606401610a71565b60008211611a655760405162461bcd60e51b8152602060048201526024808201527f53746172742064617465206d7573742062652067726561746572207468616e206044820152637a65726f60e01b6064820152608401610a71565b818111611ac55760405162461bcd60e51b815260206004820152602860248201527f456e642064617465206d7573742062652067726561746572207468616e207374604482015267617274206461746560c01b6064820152608401610a71565b60008411611b155760405162461bcd60e51b815260206004820152601b60248201527f4e756d626572204f662077696e6e6572732072657175697265642100000000006044820152606401610a71565b611b23600280546001019055565b6000611b2e60025490565b90506000611b41828a8a8a8a8a8a61219f565b905080611b875760405162461bcd60e51b815260206004820152601460248201527311d85b594818dc99585d1a5bdb8819985a5b195960621b6044820152606401610a71565b611b9082612009565b905080611bd85760405162461bcd60e51b8152602060048201526016602482015275141b185e595c8818dc99585d1a5bdb8819985a5b195960521b6044820152606401610a71565b505050505050505050565b6000818152600a602052604090205460ff16611c115760405162461bcd60e51b8152600401610a7190612af7565b6000818152600660205260409020600b0154611c2b611fea565b11611c705760405162461bcd60e51b815260206004820152601560248201527423b0b6b29039ba34b6361034b71039b2b9b9b4b7b760591b6044820152606401610a71565b6000818152600660205260409020600d0154610100900460ff1615611ccf5760405162461bcd60e51b815260206004820152601560248201527411d85b5948185b1c9958591e481c185a59081bdd5d605a1b6044820152606401610a71565b6005546000828152600660205260408120600901549091606491611cf39190612b53565b611cfd9190612b72565b60008381526006602052604081206009015491925090611d1e908390612b3c565b9050611d3b611d356000546001600160a01b031690565b83612329565b600060015b6003548111611d8257600081815260076020526040902060010154851415611d705781611d6c81612a8b565b9250505b80611d7a81612a8b565b915050611d40565b5060008167ffffffffffffffff811115611d9e57611d9e6127c6565b604051908082528060200260200182016040528015611df057816020015b604080516080810182526000808252602080830182905292820181905260608201528252600019909201910181611dbc5790505b509050600060015b6003548111611ebb57600081815260076020526040902060010154871415611ea9576000878152600d60209081526040808320848452600783528184206002908101546001600160a01b0390811686529184529382902082516080810184528154815260018201549092169382019390935292820154908301526003015460ff16151560608201528383611e8b81612a8b565b945081518110611e9d57611e9d612ae1565b60200260200101819052505b80611eb381612a8b565b915050611df8565b50611ec5826112c8565b915060005b600087815260066020526040902060050154811015611f3d57611f2b838281518110611ef857611ef8612ae1565b602002602001015160200151600660008a81526020019081526020016000206005015487611f269190612b72565b612329565b80611f3581612a8b565b915050611eca565b50505050505050565b611f4e6120f5565b6001600160a01b038116611fb35760405162461bcd60e51b815260206004820152602660248201527f4f776e61626c653a206e6577206f776e657220697320746865207a65726f206160448201526564647265737360d01b6064820152608401610a71565b611fbc8161214f565b50565b60009182526009602090815260408084206001600160a01b0393909316845291905290205460ff1690565b6000611ff8426103e8612b53565b612004906103e8612b24565b905090565b6000612019600380546001019055565b600061202460035490565b604080516060810182528281526020808201878152338385018181526000878152600785528681209551865592516001808701919091559051600290950180546001600160a01b0319166001600160a01b0390961695909517909455888252600983528482209082528252838120805460ff199081168517909155858252600b83528482208054909116909317909255868252600690529081206008018054929350906120d083612a8b565b919050555034600460008282546120e79190612b24565b909155506001949350505050565b6000546001600160a01b031633146110d65760405162461bcd60e51b815260206004820181905260248201527f4f776e61626c653a2063616c6c6572206973206e6f7420746865206f776e65726044820152606401610a71565b600080546001600160a01b038381166001600160a01b0319831681178455604051919092169283917f8be0079c531659141344cd1fd0a4f28419497f9722a3daafe3b4186f6b6457e09190a35050565b60006121a961238e565b88815260208101889052604081018790523360608201526080810186905260c0810184905260016101008201523461012082015260a0810185905261016081018390526121f4611fea565b6101808201526000898152600660209081526040909120825181558183015180518493612228926001850192910190612411565b5060408201518051612244916002840191602090910190612411565b5060608201516003820180546001600160a01b0319166001600160a01b039092169190911790556080820151600482015560a0820151600582015560c0820151600682015560e082015160078201556101008083015160088301556101208301516009830155610140830151600a80840191909155610160840151600b840155610180840151600c8401556101a0840151600d90930180546101c09095015161ffff1990951693151561ff001916939093179315159091029290921790556000998a5260205250506040909620805460ff191660019081179091559695505050505050565b6000826001600160a01b03168260405160006040518083038185875af1925050503d8060008114612376576040519150601f19603f3d011682016040523d82523d6000602084013e61237b565b606091505b505090508061238957600080fd5b505050565b604051806101e0016040528060008152602001606081526020016060815260200160006001600160a01b031681526020016000815260200160008152602001600081526020016000815260200160008152602001600081526020016000815260200160008152602001600081526020016000151581526020016000151581525090565b82805461241d90612aa6565b90600052602060002090601f01602090048101928261243f5760008555612485565b82601f1061245857805160ff1916838001178555612485565b82800160010185558215612485579182015b8281111561248557825182559160200191906001019061246a565b50612491929150612495565b5090565b5b808211156124915760008155600101612496565b6000815180845260005b818110156124d0576020818501810151868301820152016124b4565b818111156124e2576000602083870101525b50601f01601f19169290920160200192915050565b60006101e0825184526020830151816020860152612517828601826124aa565b9150506040830151848203604086015261253182826124aa565b915050606083015161254e60608601826001600160a01b03169052565b506080838101519085015260a0808401519085015260c0808401519085015260e08084015190850152610100808401519085015261012080840151908501526101408084015190850152610160808401519085015261018080840151908501526101a0808401511515908501526101c092830151151592909301919091525090565b6000602080830181845280855180835260408601915060408160051b870101925083870160005b8281101561262557603f198886030184526126138583516124f7565b945092850192908501906001016125f7565b5092979650505050505050565b60006020828403121561264457600080fd5b5035919050565b602080825282518282018190526000919060409081850190868401855b828110156126ad57815180518552868101516001600160a01b031687860152858101518686015260609081015115159085015260809093019290850190600101612668565b5091979650505050505050565b60006020808301818452808551808352604092508286019150828160051b87010184880160005b8381101561273657888303603f19018552815180516001600160a01b03168452878101511515888501528601516060878501819052612722818601836124aa565b9689019694505050908601906001016126e1565b509098975050505050505050565b80356001600160a01b038116811461275b57600080fd5b919050565b6000806040838503121561277357600080fd5b61277c83612744565b946020939093013593505050565b6000806040838503121561279d57600080fd5b50508035926020909101359150565b6020815260006127bf60208301846124f7565b9392505050565b634e487b7160e01b600052604160045260246000fd5b6040516080810167ffffffffffffffff811182821017156127ff576127ff6127c6565b60405290565b604051601f8201601f1916810167ffffffffffffffff8111828210171561282e5761282e6127c6565b604052919050565b6000602080838503121561284957600080fd5b823567ffffffffffffffff8082111561286157600080fd5b818501915085601f83011261287557600080fd5b813581811115612887576128876127c6565b612895848260051b01612805565b818152848101925060079190911b8301840190878211156128b557600080fd5b928401925b8184101561292357608084890312156128d35760008081fd5b6128db6127dc565b843581526128ea868601612744565b8187015260408581013590820152606080860135801515811461290d5760008081fd5b90820152835260809390930192918401916128ba565b979650505050505050565b600082601f83011261293f57600080fd5b813567ffffffffffffffff811115612959576129596127c6565b61296c601f8201601f1916602001612805565b81815284602083860101111561298157600080fd5b816020850160208301376000918101602001919091529392505050565b600080600080600080600060e0888a0312156129b957600080fd5b873567ffffffffffffffff808211156129d157600080fd5b6129dd8b838c0161292e565b985060208a01359150808211156129f357600080fd5b50612a008a828b0161292e565b979a9799505050506040860135956060810135956080820135955060a0820135945060c09091013592509050565b600060208284031215612a4057600080fd5b6127bf82612744565b60008060408385031215612a5c57600080fd5b82359150612a6c60208401612744565b90509250929050565b634e487b7160e01b600052601160045260246000fd5b6000600019821415612a9f57612a9f612a75565b5060010190565b600181811c90821680612aba57607f821691505b60208210811415612adb57634e487b7160e01b600052602260045260246000fd5b50919050565b634e487b7160e01b600052603260045260246000fd5b60208082526013908201527211d85b5948191bd95cc81b9bdd08195e1a5cdd606a1b604082015260600190565b60008219821115612b3757612b37612a75565b500190565b600082821015612b4e57612b4e612a75565b500390565b6000816000190483118215151615612b6d57612b6d612a75565b500290565b600082612b8f57634e487b7160e01b600052601260045260246000fd5b50049056fea264697066735822122035597950fd74e5f30a507157b22f609ad343028cb554050fbe6353353f8393cf64736f6c634300080b0033",
  "linkReferences": {},
  "deployedLinkReferences": {}
}