{
  "_format": "hh-sol-artifact-1",
  "contractName": "PlayToEarn",
  "sourceName": "src/contracts/PlayToEarn.sol",
  "abi": [
    {
      "anonymous": false,
      "inputs": [
        {
          "indexed": true,
          "internalType": "address",
          "name": "previousOwner",
          "type": "address"
        },
        {
          "indexed": true,
          "internalType": "address",
          "name": "newOwner",
          "type": "address"
        }
      ],
      "name": "OwnershipTransferred",
      "type": "event"
    },
    {
      "inputs": [
        {
          "internalType": "string",
          "name": "caption",
          "type": "string"
        },
        {
          "internalType": "uint256",
          "name": "participants",
          "type": "uint256"
        },
        {
          "internalType": "uint256",
          "name": "deadline",
          "type": "uint256"
        }
      ],
      "name": "createGame",
      "outputs": [],
      "stateMutability": "nonpayable",
      "type": "function"
    },
    {
      "inputs": [
        {
          "internalType": "uint256",
          "name": "id",
          "type": "uint256"
        }
      ],
      "name": "getGame",
      "outputs": [
        {
          "components": [
            {
              "internalType": "uint256",
              "name": "id",
              "type": "uint256"
            },
            {
              "internalType": "string",
              "name": "caption",
              "type": "string"
            },
            {
              "internalType": "address",
              "name": "owner",
              "type": "address"
            },
            {
              "internalType": "uint256",
              "name": "participants",
              "type": "uint256"
            },
            {
              "internalType": "uint256",
              "name": "deadline",
              "type": "uint256"
            },
            {
              "internalType": "uint256",
              "name": "timestamp",
              "type": "uint256"
            },
            {
              "internalType": "bool",
              "name": "isSingleGame",
              "type": "bool"
            },
            {
              "internalType": "bool",
              "name": "deleted",
              "type": "bool"
            }
          ],
          "internalType": "struct PlayToEarn.GameStruct",
          "name": "",
          "type": "tuple"
        }
      ],
      "stateMutability": "view",
      "type": "function"
    },
    {
      "inputs": [],
      "name": "getGames",
      "outputs": [
        {
          "components": [
            {
              "internalType": "uint256",
              "name": "id",
              "type": "uint256"
            },
            {
              "internalType": "string",
              "name": "caption",
              "type": "string"
            },
            {
              "internalType": "address",
              "name": "owner",
              "type": "address"
            },
            {
              "internalType": "uint256",
              "name": "participants",
              "type": "uint256"
            },
            {
              "internalType": "uint256",
              "name": "deadline",
              "type": "uint256"
            },
            {
              "internalType": "uint256",
              "name": "timestamp",
              "type": "uint256"
            },
            {
              "internalType": "bool",
              "name": "isSingleGame",
              "type": "bool"
            },
            {
              "internalType": "bool",
              "name": "deleted",
              "type": "bool"
            }
          ],
          "internalType": "struct PlayToEarn.GameStruct[]",
          "name": "",
          "type": "tuple[]"
        }
      ],
      "stateMutability": "view",
      "type": "function"
    },
    {
      "inputs": [
        {
          "internalType": "uint256",
          "name": "gameId",
          "type": "uint256"
        }
      ],
      "name": "joinGame",
      "outputs": [],
      "stateMutability": "nonpayable",
      "type": "function"
    },
    {
      "inputs": [],
      "name": "owner",
      "outputs": [
        {
          "internalType": "address",
          "name": "",
          "type": "address"
        }
      ],
      "stateMutability": "view",
      "type": "function"
    },
    {
      "inputs": [],
      "name": "participate",
      "outputs": [],
      "stateMutability": "nonpayable",
      "type": "function"
    },
    {
      "inputs": [],
      "name": "renounceOwnership",
      "outputs": [],
      "stateMutability": "nonpayable",
      "type": "function"
    },
    {
      "inputs": [
        {
          "internalType": "address",
          "name": "newOwner",
          "type": "address"
        }
      ],
      "name": "transferOwnership",
      "outputs": [],
      "stateMutability": "nonpayable",
      "type": "function"
    }
  ],
  "bytecode": "0x60806040526706f05b59d3b2000060065534801561001c57600080fd5b506100263361002f565b6001805561007f565b600080546001600160a01b038381166001600160a01b0319831681178455604051919092169283917f8be0079c531659141344cd1fd0a4f28419497f9722a3daafe3b4186f6b6457e09190a35050565b610de48061008e6000396000f3fe608060405234801561001057600080fd5b50600436106100885760003560e01c8063c04c59471161005b578063c04c5947146100ea578063d11711a2146100ff578063efaa55a014610107578063f2fde38b1461011857600080fd5b80630b6d715b1461008d578063715018a6146100a25780638da5cb5b146100aa578063a2f77bcc146100ca575b600080fd5b6100a061009b366004610aa5565b61012b565b005b6100a061036d565b6000546040516001600160a01b0390911681526020015b60405180910390f35b6100dd6100d8366004610b69565b610381565b6040516100c19190610c50565b6100f261049b565b6040516100c19190610c6a565b6100a061070a565b6100a0610115366004610b69565b50565b6100a0610126366004610ccc565b610808565b61013361087e565b61013c826108d8565b156101985760405162461bcd60e51b815260206004820152602160248201527f417661696c61626c65207061727469636970616e7473206e6f7420656e6f75676044820152600d60fb1b60648201526084015b60405180910390fd5b60008351116101e05760405162461bcd60e51b815260206004820152601460248201527343617074696f6e2069732072657175697265642160601b604482015260640161018f565b6000811161023e5760405162461bcd60e51b815260206004820152602560248201527f4475726174696f6e2073686f756c642062652067726561746572207468616e206044820152647a65726f2160d81b606482015260840161018f565b61024c600280546001019055565b60405180610100016040528061026160025490565b8152602001848152602001336001600160a01b0316815260200183815260200182815260200161028f610933565b8152602001600284116102a35760006102a6565b60015b1515815260200160001515815250600760006102c160025490565b81526020808201929092526040016000208251815582820151805191926102f0926001850192909101906109a4565b5060408201516002820180546001600160a01b039092166001600160a01b0319909216919091179055606082015160038201556080820151600482015560a0820151600582015560c08201516006909101805460e09093015115156101000261ff00199215159290921661ffff1990931692909217179055505050565b61037561087e565b61037f6000610954565b565b610389610a28565b6007600083815260200190815260200160002060405180610100016040529081600082015481526020016001820180546103c290610cf5565b80601f01602080910402602001604051908101604052809291908181526020018280546103ee90610cf5565b801561043b5780601f106104105761010080835404028352916020019161043b565b820191906000526020600020905b81548152906001019060200180831161041e57829003601f168201915b505050918352505060028201546001600160a01b0316602082015260038201546040820152600482015460608201526005820154608082015260069091015460ff808216151560a084015261010090910416151560c09091015292915050565b60606000806104a8610933565b905060015b600254811161051257600081815260076020526040902060060154610100900460ff161580156104ed575060008181526007602052604090206004015482105b1561050057826104fc81610d46565b9350505b8061050a81610d46565b9150506104ad565b5060008267ffffffffffffffff81111561052e5761052e610a8f565b60405190808252806020026020018201604052801561056757816020015b610554610a28565b81526020019060019003908161054c5790505b509050600060015b600254811161070057600081815260076020526040902060060154610100900460ff161580156105af575060008181526007602052604090206004015484105b156106ee576007600082815260200190815260200160002060405180610100016040529081600082015481526020016001820180546105ed90610cf5565b80601f016020809104026020016040519081016040528092919081815260200182805461061990610cf5565b80156106665780601f1061063b57610100808354040283529160200191610666565b820191906000526020600020905b81548152906001019060200180831161064957829003601f168201915b505050918352505060028201546001600160a01b0316602082015260038201546040820152600482015460608201526005820154608082015260069091015460ff808216151560a084015261010090910416151560c09091015283518490849081106106d4576106d4610d61565b602002602001018190525081806106ea90610d46565b9250505b806106f881610d46565b91505061056f565b5090949350505050565b600c600061071760045490565b815260208101919091526040016000205460ff166107775760405162461bcd60e51b815260206004820152601a60248201527f5061727469636970616e7420616c726561647920657869737473000000000000604482015260640161018f565b610785600480546001019055565b604051806060016040528061079960045490565b81523360208201526001604090910152600960006107b660045490565b8152602080820192909252604090810160002083518155918301516001909201805493909101511515600160a01b026001600160a81b03199093166001600160a01b0390921691909117919091179055565b61081061087e565b6001600160a01b0381166108755760405162461bcd60e51b815260206004820152602660248201527f4f776e61626c653a206e6577206f776e657220697320746865207a65726f206160448201526564647265737360d01b606482015260840161018f565b61011581610954565b6000546001600160a01b0316331461037f5760405162461bcd60e51b815260206004820181905260248201527f4f776e61626c653a2063616c6c6572206973206e6f7420746865206f776e6572604482015260640161018f565b60008060015b600454811161092857600081815260096020526040902060010154600160a01b900460ff1615610916578161091281610d46565b9250505b8061092081610d46565b9150506108de565b509190911015919050565b600080610942426103e8610d77565b61094e906103e8610d96565b92915050565b600080546001600160a01b038381166001600160a01b0319831681178455604051919092169283917f8be0079c531659141344cd1fd0a4f28419497f9722a3daafe3b4186f6b6457e09190a35050565b8280546109b090610cf5565b90600052602060002090601f0160209004810192826109d25760008555610a18565b82601f106109eb57805160ff1916838001178555610a18565b82800160010185558215610a18579182015b82811115610a185782518255916020019190600101906109fd565b50610a24929150610a7a565b5090565b604051806101000160405280600081526020016060815260200160006001600160a01b031681526020016000815260200160008152602001600081526020016000151581526020016000151581525090565b5b80821115610a245760008155600101610a7b565b634e487b7160e01b600052604160045260246000fd5b600080600060608486031215610aba57600080fd5b833567ffffffffffffffff80821115610ad257600080fd5b818601915086601f830112610ae657600080fd5b813581811115610af857610af8610a8f565b604051601f8201601f19908116603f01168101908382118183101715610b2057610b20610a8f565b81604052828152896020848701011115610b3957600080fd5b82602086016020830137600060208483010152809750505050505060208401359150604084013590509250925092565b600060208284031215610b7b57600080fd5b5035919050565b600061010082518452602080840151828287015280518084880152600093505b80841015610bc157818401830151878501610120015292820192610ba2565b80841115610bd457600061012082890101525b60408601519350610bf060408801856001600160a01b03169052565b606086015160608801526080860151608088015260a086015160a088015260c08601519350610c2360c088018515159052565b60e08601519350610c3860e088018515159052565b601f01601f1916959095016101200195945050505050565b602081526000610c636020830184610b82565b9392505050565b6000602080830181845280855180835260408601915060408160051b870101925083870160005b82811015610cbf57603f19888603018452610cad858351610b82565b94509285019290850190600101610c91565b5092979650505050505050565b600060208284031215610cde57600080fd5b81356001600160a01b0381168114610c6357600080fd5b600181811c90821680610d0957607f821691505b60208210811415610d2a57634e487b7160e01b600052602260045260246000fd5b50919050565b634e487b7160e01b600052601160045260246000fd5b6000600019821415610d5a57610d5a610d30565b5060010190565b634e487b7160e01b600052603260045260246000fd5b6000816000190483118215151615610d9157610d91610d30565b500290565b60008219821115610da957610da9610d30565b50019056fea26469706673582212209872e4c92e8bca1ab08aa73cfed3af7e210037c6f5d2d96e788210526698dbc964736f6c634300080b0033",
  "linkReferences": {},
  "deployedLinkReferences": {}
}