{
  "_format": "hh-sol-artifact-1",
  "contractName": "PlayToEarn",
  "sourceName": "src/contracts/PlayToEarn.sol",
  "abi": [
    {
      "anonymous": false,
      "inputs": [
        {
          "indexed": true,
          "internalType": "address",
          "name": "previousOwner",
          "type": "address"
        },
        {
          "indexed": true,
          "internalType": "address",
          "name": "newOwner",
          "type": "address"
        }
      ],
      "name": "OwnershipTransferred",
      "type": "event"
    },
    {
      "inputs": [
        {
          "internalType": "uint256",
          "name": "gameId",
          "type": "uint256"
        },
        {
          "internalType": "uint256",
          "name": "participantId",
          "type": "uint256"
        }
      ],
      "name": "acceptInvitation",
      "outputs": [],
      "stateMutability": "nonpayable",
      "type": "function"
    },
    {
      "inputs": [
        {
          "internalType": "string",
          "name": "caption",
          "type": "string"
        },
        {
          "internalType": "uint256",
          "name": "participants",
          "type": "uint256"
        },
        {
          "internalType": "uint256",
          "name": "deadline",
          "type": "uint256"
        }
      ],
      "name": "createGame",
      "outputs": [],
      "stateMutability": "nonpayable",
      "type": "function"
    },
    {
      "inputs": [
        {
          "internalType": "uint256",
          "name": "id",
          "type": "uint256"
        }
      ],
      "name": "getGame",
      "outputs": [
        {
          "components": [
            {
              "internalType": "uint256",
              "name": "id",
              "type": "uint256"
            },
            {
              "internalType": "string",
              "name": "caption",
              "type": "string"
            },
            {
              "internalType": "address",
              "name": "owner",
              "type": "address"
            },
            {
              "internalType": "uint256",
              "name": "participants",
              "type": "uint256"
            },
            {
              "internalType": "uint256",
              "name": "deadline",
              "type": "uint256"
            },
            {
              "internalType": "uint256",
              "name": "timestamp",
              "type": "uint256"
            },
            {
              "internalType": "bool",
              "name": "isSingleGame",
              "type": "bool"
            },
            {
              "internalType": "bool",
              "name": "deleted",
              "type": "bool"
            }
          ],
          "internalType": "struct PlayToEarn.GameStruct",
          "name": "",
          "type": "tuple"
        }
      ],
      "stateMutability": "view",
      "type": "function"
    },
    {
      "inputs": [],
      "name": "getGames",
      "outputs": [
        {
          "components": [
            {
              "internalType": "uint256",
              "name": "id",
              "type": "uint256"
            },
            {
              "internalType": "string",
              "name": "caption",
              "type": "string"
            },
            {
              "internalType": "address",
              "name": "owner",
              "type": "address"
            },
            {
              "internalType": "uint256",
              "name": "participants",
              "type": "uint256"
            },
            {
              "internalType": "uint256",
              "name": "deadline",
              "type": "uint256"
            },
            {
              "internalType": "uint256",
              "name": "timestamp",
              "type": "uint256"
            },
            {
              "internalType": "bool",
              "name": "isSingleGame",
              "type": "bool"
            },
            {
              "internalType": "bool",
              "name": "deleted",
              "type": "bool"
            }
          ],
          "internalType": "struct PlayToEarn.GameStruct[]",
          "name": "",
          "type": "tuple[]"
        }
      ],
      "stateMutability": "view",
      "type": "function"
    },
    {
      "inputs": [
        {
          "internalType": "address",
          "name": "user",
          "type": "address"
        }
      ],
      "name": "getInvitations",
      "outputs": [
        {
          "components": [
            {
              "internalType": "address",
              "name": "invitedPlayer",
              "type": "address"
            },
            {
              "internalType": "bool",
              "name": "accepted",
              "type": "bool"
            }
          ],
          "internalType": "struct PlayToEarn.InvitationStruct[]",
          "name": "",
          "type": "tuple[]"
        }
      ],
      "stateMutability": "view",
      "type": "function"
    },
    {
      "inputs": [
        {
          "internalType": "address",
          "name": "invitedPlayer",
          "type": "address"
        },
        {
          "internalType": "uint256",
          "name": "gameId",
          "type": "uint256"
        }
      ],
      "name": "invitePlayer",
      "outputs": [],
      "stateMutability": "nonpayable",
      "type": "function"
    },
    {
      "inputs": [],
      "name": "owner",
      "outputs": [
        {
          "internalType": "address",
          "name": "",
          "type": "address"
        }
      ],
      "stateMutability": "view",
      "type": "function"
    },
    {
      "inputs": [],
      "name": "participate",
      "outputs": [],
      "stateMutability": "nonpayable",
      "type": "function"
    },
    {
      "inputs": [
        {
          "internalType": "uint256",
          "name": "gameId",
          "type": "uint256"
        }
      ],
      "name": "rejectInvitation",
      "outputs": [],
      "stateMutability": "nonpayable",
      "type": "function"
    },
    {
      "inputs": [],
      "name": "renounceOwnership",
      "outputs": [],
      "stateMutability": "nonpayable",
      "type": "function"
    },
    {
      "inputs": [
        {
          "internalType": "address",
          "name": "newOwner",
          "type": "address"
        }
      ],
      "name": "transferOwnership",
      "outputs": [],
      "stateMutability": "nonpayable",
      "type": "function"
    }
  ],
  "bytecode": "0x60806040526706f05b59d3b2000060065534801561001c57600080fd5b506100263361002f565b6001805561007f565b600080546001600160a01b038381166001600160a01b0319831681178455604051919092169283917f8be0079c531659141344cd1fd0a4f28419497f9722a3daafe3b4186f6b6457e09190a35050565b6116968061008e6000396000f3fe608060405234801561001057600080fd5b50600436106100a95760003560e01c80638da5cb5b116100715780638da5cb5b14610104578063a2f77bcc14610124578063c04c594714610144578063d11711a214610159578063d98b88fa14610161578063f2fde38b1461018157600080fd5b80630b6d715b146100ae5780632246fe0b146100c35780635aa6bb3b146100d6578063715018a6146100e95780637a2f2136146100f1575b600080fd5b6100c16100bc366004611266565b610194565b005b6100c16100d1366004611346565b6103d6565b6100c16100e4366004611370565b610554565b6100c16106bd565b6100c16100ff366004611389565b6106d1565b6000546040516001600160a01b0390911681526020015b60405180910390f35b610137610132366004611370565b61091b565b60405161011b9190611479565b61014c610a35565b60405161011b919061148c565b6100c1610ca4565b61017461016f3660046114ee565b610da2565b60405161011b9190611509565b6100c161018f3660046114ee565b610f62565b61019c610fd8565b6101a582611032565b156102015760405162461bcd60e51b815260206004820152602160248201527f417661696c61626c65207061727469636970616e7473206e6f7420656e6f75676044820152600d60fb1b60648201526084015b60405180910390fd5b60008351116102495760405162461bcd60e51b815260206004820152601460248201527343617074696f6e2069732072657175697265642160601b60448201526064016101f8565b600081116102a75760405162461bcd60e51b815260206004820152602560248201527f4475726174696f6e2073686f756c642062652067726561746572207468616e206044820152647a65726f2160d81b60648201526084016101f8565b6102b5600280546001019055565b6040518061010001604052806102ca60025490565b8152602001848152602001336001600160a01b031681526020018381526020018281526020016102f861108d565b81526020016002841161030c57600061030f565b60015b15158152602001600015158152506007600061032a60025490565b815260208082019290925260400160002082518155828201518051919261035992600185019290910190611165565b5060408201516002820180546001600160a01b039092166001600160a01b0319909216919091179055606082015160038201556080820151600482015560a0820151600582015560c08201516006909101805460e09093015115156101000261ff00199215159290921661ffff1990931692909217179055505050565b600e60006103e360045490565b815260208101919091526040016000205460ff166104435760405162461bcd60e51b815260206004820152601a60248201527f5061727469636970616e7420616c72656164792065786973747300000000000060448201526064016101f8565b6000818152600c602052604090205460ff166104715760405162461bcd60e51b81526004016101f890611563565b61047b81836110ae565b156104d75760405162461bcd60e51b815260206004820152602660248201527f506c6179657220697320616c726561647920696e766974656420746f20746869604482015265732067616d6560d01b60648201526084016101f8565b6000818152600a602052604081208054916104f1836115a6565b90915550506040805180820182526001600160a01b0393841680825260006020808401828152928252600b815284822095825294909452919092209151825491511515600160a01b026001600160a81b0319909216931692909217919091179055565b6000818152600c602052604090205460ff166105825760405162461bcd60e51b81526004016101f890611563565b336000818152600b602090815260408083208584529091529020546001600160a01b0316146105f35760405162461bcd60e51b815260206004820181905260248201527f596f7520617265206e6f7420696e766974656420746f20746869732067616d6560448201526064016101f8565b336000908152600b60209081526040808320848452909152902054600160a01b900460ff16156106655760405162461bcd60e51b815260206004820152601e60248201527f496e7669746174696f6e20697320616c7265616479206163636570746564000060448201526064016101f8565b336000908152600b60209081526040808320848452825280832080546001600160a81b0319169055600a909152902054156106ba576000818152600a602052604081208054916106b4836115c1565b91905055505b50565b6106c5610fd8565b6106cf6000611115565b565b6000828152600c602052604090205460ff166106ff5760405162461bcd60e51b81526004016101f890611563565b336000818152600b602090815260408083208684529091529020546001600160a01b0316146107705760405162461bcd60e51b815260206004820181905260248201527f596f7520617265206e6f7420696e766974656420746f20746869732067616d6560448201526064016101f8565b336000908152600b60209081526040808320858452909152902054600160a01b900460ff16156107e25760405162461bcd60e51b815260206004820152601e60248201527f496e7669746174696f6e20697320616c7265616479206163636570746564000060448201526064016101f8565b600081815260096020526040902060010154600160a01b900460ff1661084a5760405162461bcd60e51b815260206004820152601c60248201527f5061727469636970616e74206973206e6f7420617661696c61626c650000000060448201526064016101f8565b610858600380546001019055565b604051806080016040528061086c60035490565b8152602001828152602001838152602001336001600160a01b03168152506008600061089760035490565b8152602080820192909252604090810160009081208451815584840151600180830191909155858401516002830155606090950151600390910180546001600160a01b0319166001600160a01b03909216919091179055938452600982528084208301805460ff60a01b19169055600e909152909120805460ff1916909117905550565b6109236111e9565b60076000838152602001908152602001600020604051806101000160405290816000820154815260200160018201805461095c906115d8565b80601f0160208091040260200160405190810160405280929190818152602001828054610988906115d8565b80156109d55780601f106109aa576101008083540402835291602001916109d5565b820191906000526020600020905b8154815290600101906020018083116109b857829003601f168201915b505050918352505060028201546001600160a01b0316602082015260038201546040820152600482015460608201526005820154608082015260069091015460ff808216151560a084015261010090910416151560c09091015292915050565b6060600080610a4261108d565b905060015b6002548111610aac57600081815260076020526040902060060154610100900460ff16158015610a87575060008181526007602052604090206004015482105b15610a9a5782610a96816115a6565b9350505b80610aa4816115a6565b915050610a47565b5060008267ffffffffffffffff811115610ac857610ac8611250565b604051908082528060200260200182016040528015610b0157816020015b610aee6111e9565b815260200190600190039081610ae65790505b509050600060015b6002548111610c9a57600081815260076020526040902060060154610100900460ff16158015610b49575060008181526007602052604090206004015484105b15610c8857600760008281526020019081526020016000206040518061010001604052908160008201548152602001600182018054610b87906115d8565b80601f0160208091040260200160405190810160405280929190818152602001828054610bb3906115d8565b8015610c005780601f10610bd557610100808354040283529160200191610c00565b820191906000526020600020905b815481529060010190602001808311610be357829003601f168201915b505050918352505060028201546001600160a01b0316602082015260038201546040820152600482015460608201526005820154608082015260069091015460ff808216151560a084015261010090910416151560c0909101528351849084908110610c6e57610c6e611613565b60200260200101819052508180610c84906115a6565b9250505b80610c92816115a6565b915050610b09565b5090949350505050565b600e6000610cb160045490565b815260208101919091526040016000205460ff16610d115760405162461bcd60e51b815260206004820152601a60248201527f5061727469636970616e7420616c72656164792065786973747300000000000060448201526064016101f8565b610d1f600480546001019055565b6040518060600160405280610d3360045490565b8152336020820152600160409091015260096000610d5060045490565b8152602080820192909252604090810160002083518155918301516001909201805493909101511515600160a01b026001600160a81b03199093166001600160a01b0390921691909117919091179055565b606080600060015b6002548111610e1a576000818152600c602052604090205460ff168015610df557506001600160a01b038581166000908152600b602090815260408083208584529091529020541615155b15610e085781610e04816115a6565b9250505b80610e12816115a6565b915050610daa565b508067ffffffffffffffff811115610e3457610e34611250565b604051908082528060200260200182016040528015610e7957816020015b6040805180820190915260008082526020820152815260200190600190039081610e525790505b509150600060015b6002548111610f58576000818152600c602052604090205460ff168015610ecc57506001600160a01b038681166000908152600b602090815260408083208584529091529020541615155b15610f46576001600160a01b038681166000908152600b602090815260408083208584528252918290208251808401909352549283168252600160a01b90920460ff161515918101919091528451859084908110610f2c57610f2c611613565b60200260200101819052508180610f42906115a6565b9250505b80610f50816115a6565b915050610e81565b5091949350505050565b610f6a610fd8565b6001600160a01b038116610fcf5760405162461bcd60e51b815260206004820152602660248201527f4f776e61626c653a206e6577206f776e657220697320746865207a65726f206160448201526564647265737360d01b60648201526084016101f8565b6106ba81611115565b6000546001600160a01b031633146106cf5760405162461bcd60e51b815260206004820181905260248201527f4f776e61626c653a2063616c6c6572206973206e6f7420746865206f776e657260448201526064016101f8565b60008060015b600454811161108257600081815260096020526040902060010154600160a01b900460ff1615611070578161106c816115a6565b9250505b8061107a816115a6565b915050611038565b509190911015919050565b60008061109c426103e8611629565b6110a8906103e8611648565b92915050565b6001600160a01b038082166000818152600b6020908152604080832087845290915281205490921614801561110e57506001600160a01b0382166000908152600b60209081526040808320868452909152902054600160a01b900460ff16155b9392505050565b600080546001600160a01b038381166001600160a01b0319831681178455604051919092169283917f8be0079c531659141344cd1fd0a4f28419497f9722a3daafe3b4186f6b6457e09190a35050565b828054611171906115d8565b90600052602060002090601f01602090048101928261119357600085556111d9565b82601f106111ac57805160ff19168380011785556111d9565b828001600101855582156111d9579182015b828111156111d95782518255916020019190600101906111be565b506111e592915061123b565b5090565b604051806101000160405280600081526020016060815260200160006001600160a01b031681526020016000815260200160008152602001600081526020016000151581526020016000151581525090565b5b808211156111e5576000815560010161123c565b634e487b7160e01b600052604160045260246000fd5b60008060006060848603121561127b57600080fd5b833567ffffffffffffffff8082111561129357600080fd5b818601915086601f8301126112a757600080fd5b8135818111156112b9576112b9611250565b604051601f8201601f19908116603f011681019083821181831017156112e1576112e1611250565b816040528281528960208487010111156112fa57600080fd5b82602086016020830137600060208483010152809750505050505060208401359150604084013590509250925092565b80356001600160a01b038116811461134157600080fd5b919050565b6000806040838503121561135957600080fd5b6113628361132a565b946020939093013593505050565b60006020828403121561138257600080fd5b5035919050565b6000806040838503121561139c57600080fd5b50508035926020909101359150565b600061010082518452602080840151828287015280518084880152600093505b808410156113ea578184018301518785016101200152928201926113cb565b808411156113fd57600061012082890101525b6040860151935061141960408801856001600160a01b03169052565b606086015160608801526080860151608088015260a086015160a088015260c0860151935061144c60c088018515159052565b60e0860151935061146160e088018515159052565b601f01601f1916959095016101200195945050505050565b60208152600061110e60208301846113ab565b6000602080830181845280855180835260408601915060408160051b870101925083870160005b828110156114e157603f198886030184526114cf8583516113ab565b945092850192908501906001016114b3565b5092979650505050505050565b60006020828403121561150057600080fd5b61110e8261132a565b602080825282518282018190526000919060409081850190868401855b8281101561155657815180516001600160a01b031685528601511515868501529284019290850190600101611526565b5091979650505050505050565b60208082526013908201527211d85b5948191bd95cc81b9bdd08195e1a5cdd606a1b604082015260600190565b634e487b7160e01b600052601160045260246000fd5b60006000198214156115ba576115ba611590565b5060010190565b6000816115d0576115d0611590565b506000190190565b600181811c908216806115ec57607f821691505b6020821081141561160d57634e487b7160e01b600052602260045260246000fd5b50919050565b634e487b7160e01b600052603260045260246000fd5b600081600019048311821515161561164357611643611590565b500290565b6000821982111561165b5761165b611590565b50019056fea2646970667358221220500e51beb9f34bea657a1c2d7b202713b9f36638171110159d48792a1c419f9b64736f6c634300080b0033",
  "linkReferences": {},
  "deployedLinkReferences": {}
}