{
  "_format": "hh-sol-artifact-1",
  "contractName": "PlayToEarn",
  "sourceName": "src/contracts/PlayToEarn.sol",
  "abi": [
    {
      "anonymous": false,
      "inputs": [
        {
          "indexed": true,
          "internalType": "address",
          "name": "previousOwner",
          "type": "address"
        },
        {
          "indexed": true,
          "internalType": "address",
          "name": "newOwner",
          "type": "address"
        }
      ],
      "name": "OwnershipTransferred",
      "type": "event"
    },
    {
      "inputs": [
        {
          "internalType": "uint256",
          "name": "gameId",
          "type": "uint256"
        },
        {
          "internalType": "uint256",
          "name": "participantId",
          "type": "uint256"
        }
      ],
      "name": "acceptInvitation",
      "outputs": [],
      "stateMutability": "payable",
      "type": "function"
    },
    {
      "inputs": [
        {
          "internalType": "uint256",
          "name": "participantId",
          "type": "uint256"
        },
        {
          "internalType": "string",
          "name": "description",
          "type": "string"
        },
        {
          "internalType": "uint256",
          "name": "participants",
          "type": "uint256"
        },
        {
          "internalType": "uint256",
          "name": "numberOfWinners",
          "type": "uint256"
        },
        {
          "internalType": "uint256",
          "name": "startDate",
          "type": "uint256"
        },
        {
          "internalType": "uint256",
          "name": "endDate",
          "type": "uint256"
        }
      ],
      "name": "createGame",
      "outputs": [],
      "stateMutability": "payable",
      "type": "function"
    },
    {
      "inputs": [
        {
          "internalType": "uint256",
          "name": "id",
          "type": "uint256"
        }
      ],
      "name": "getGame",
      "outputs": [
        {
          "components": [
            {
              "internalType": "uint256",
              "name": "id",
              "type": "uint256"
            },
            {
              "internalType": "string",
              "name": "description",
              "type": "string"
            },
            {
              "internalType": "address",
              "name": "owner",
              "type": "address"
            },
            {
              "internalType": "uint256",
              "name": "participants",
              "type": "uint256"
            },
            {
              "internalType": "uint256",
              "name": "numberOfWinners",
              "type": "uint256"
            },
            {
              "internalType": "uint256",
              "name": "plays",
              "type": "uint256"
            },
            {
              "internalType": "uint256",
              "name": "acceptees",
              "type": "uint256"
            },
            {
              "internalType": "uint256",
              "name": "stake",
              "type": "uint256"
            },
            {
              "internalType": "uint256",
              "name": "startDate",
              "type": "uint256"
            },
            {
              "internalType": "uint256",
              "name": "endDate",
              "type": "uint256"
            },
            {
              "internalType": "uint256",
              "name": "timestamp",
              "type": "uint256"
            },
            {
              "internalType": "bool",
              "name": "deleted",
              "type": "bool"
            },
            {
              "internalType": "bool",
              "name": "paidOut",
              "type": "bool"
            }
          ],
          "internalType": "struct PlayToEarn.GameStruct",
          "name": "",
          "type": "tuple"
        }
      ],
      "stateMutability": "view",
      "type": "function"
    },
    {
      "inputs": [],
      "name": "getGames",
      "outputs": [
        {
          "components": [
            {
              "internalType": "uint256",
              "name": "id",
              "type": "uint256"
            },
            {
              "internalType": "string",
              "name": "description",
              "type": "string"
            },
            {
              "internalType": "address",
              "name": "owner",
              "type": "address"
            },
            {
              "internalType": "uint256",
              "name": "participants",
              "type": "uint256"
            },
            {
              "internalType": "uint256",
              "name": "numberOfWinners",
              "type": "uint256"
            },
            {
              "internalType": "uint256",
              "name": "plays",
              "type": "uint256"
            },
            {
              "internalType": "uint256",
              "name": "acceptees",
              "type": "uint256"
            },
            {
              "internalType": "uint256",
              "name": "stake",
              "type": "uint256"
            },
            {
              "internalType": "uint256",
              "name": "startDate",
              "type": "uint256"
            },
            {
              "internalType": "uint256",
              "name": "endDate",
              "type": "uint256"
            },
            {
              "internalType": "uint256",
              "name": "timestamp",
              "type": "uint256"
            },
            {
              "internalType": "bool",
              "name": "deleted",
              "type": "bool"
            },
            {
              "internalType": "bool",
              "name": "paidOut",
              "type": "bool"
            }
          ],
          "internalType": "struct PlayToEarn.GameStruct[]",
          "name": "ActiveGames",
          "type": "tuple[]"
        }
      ],
      "stateMutability": "view",
      "type": "function"
    },
    {
      "inputs": [],
      "name": "getInvitations",
      "outputs": [
        {
          "components": [
            {
              "internalType": "address",
              "name": "account",
              "type": "address"
            },
            {
              "internalType": "bool",
              "name": "responded",
              "type": "bool"
            }
          ],
          "internalType": "struct PlayToEarn.InvitationStruct[]",
          "name": "Invitations",
          "type": "tuple[]"
        }
      ],
      "stateMutability": "view",
      "type": "function"
    },
    {
      "inputs": [
        {
          "internalType": "uint256",
          "name": "gameId",
          "type": "uint256"
        }
      ],
      "name": "getScores",
      "outputs": [
        {
          "components": [
            {
              "internalType": "uint256",
              "name": "gameId",
              "type": "uint256"
            },
            {
              "internalType": "address",
              "name": "player",
              "type": "address"
            },
            {
              "internalType": "uint256",
              "name": "score",
              "type": "uint256"
            },
            {
              "internalType": "bool",
              "name": "played",
              "type": "bool"
            }
          ],
          "internalType": "struct PlayToEarn.PlayerScoreSheetStruct[]",
          "name": "Scores",
          "type": "tuple[]"
        }
      ],
      "stateMutability": "view",
      "type": "function"
    },
    {
      "inputs": [
        {
          "internalType": "address",
          "name": "playerAccount",
          "type": "address"
        },
        {
          "internalType": "uint256",
          "name": "gameId",
          "type": "uint256"
        }
      ],
      "name": "invitePlayer",
      "outputs": [],
      "stateMutability": "nonpayable",
      "type": "function"
    },
    {
      "inputs": [],
      "name": "owner",
      "outputs": [
        {
          "internalType": "address",
          "name": "",
          "type": "address"
        }
      ],
      "stateMutability": "view",
      "type": "function"
    },
    {
      "inputs": [
        {
          "internalType": "uint256",
          "name": "gameId",
          "type": "uint256"
        }
      ],
      "name": "payout",
      "outputs": [],
      "stateMutability": "nonpayable",
      "type": "function"
    },
    {
      "inputs": [
        {
          "internalType": "uint256",
          "name": "gameId",
          "type": "uint256"
        },
        {
          "internalType": "uint256",
          "name": "score",
          "type": "uint256"
        }
      ],
      "name": "recordScore",
      "outputs": [],
      "stateMutability": "nonpayable",
      "type": "function"
    },
    {
      "inputs": [
        {
          "internalType": "uint256",
          "name": "gameId",
          "type": "uint256"
        }
      ],
      "name": "rejectInvitation",
      "outputs": [],
      "stateMutability": "nonpayable",
      "type": "function"
    },
    {
      "inputs": [],
      "name": "renounceOwnership",
      "outputs": [],
      "stateMutability": "nonpayable",
      "type": "function"
    },
    {
      "inputs": [
        {
          "components": [
            {
              "internalType": "uint256",
              "name": "gameId",
              "type": "uint256"
            },
            {
              "internalType": "address",
              "name": "player",
              "type": "address"
            },
            {
              "internalType": "uint256",
              "name": "score",
              "type": "uint256"
            },
            {
              "internalType": "bool",
              "name": "played",
              "type": "bool"
            }
          ],
          "internalType": "struct PlayToEarn.PlayerScoreSheetStruct[]",
          "name": "playersScores",
          "type": "tuple[]"
        }
      ],
      "name": "sortScores",
      "outputs": [
        {
          "components": [
            {
              "internalType": "uint256",
              "name": "gameId",
              "type": "uint256"
            },
            {
              "internalType": "address",
              "name": "player",
              "type": "address"
            },
            {
              "internalType": "uint256",
              "name": "score",
              "type": "uint256"
            },
            {
              "internalType": "bool",
              "name": "played",
              "type": "bool"
            }
          ],
          "internalType": "struct PlayToEarn.PlayerScoreSheetStruct[]",
          "name": "",
          "type": "tuple[]"
        }
      ],
      "stateMutability": "pure",
      "type": "function"
    },
    {
      "inputs": [
        {
          "internalType": "address",
          "name": "newOwner",
          "type": "address"
        }
      ],
      "name": "transferOwnership",
      "outputs": [],
      "stateMutability": "nonpayable",
      "type": "function"
    }
  ],
  "bytecode": "0x60806040526706f05b59d3b2000060055534801561001c57600080fd5b506100263361002f565b6001805561007f565b600080546001600160a01b038381166001600160a01b0319831681178455604051919092169283917f8be0079c531659141344cd1fd0a4f28419497f9722a3daafe3b4186f6b6457e09190a35050565b6123bf8061008e6000396000f3fe6080604052600436106100dd5760003560e01c80638da5cb5b1161007f578063c04c594711610059578063c04c594714610239578063d4adb3181461025b578063e11523431461026e578063f2fde38b1461028e57600080fd5b80638da5cb5b146101c4578063a2f77bcc146101ec578063a4e1370d1461021957600080fd5b80634e56799e116100bb5780634e56799e1461015c5780635aa6bb3b1461017c578063715018a61461019c5780637a2f2136146101b157600080fd5b806304527d90146100e257806316845714146101185780632246fe0b1461013a575b600080fd5b3480156100ee57600080fd5b506101026100fd366004611d60565b6102ae565b60405161010f9190611d79565b60405180910390f35b34801561012457600080fd5b5061012d610439565b60405161010f9190611de8565b34801561014657600080fd5b5061015a610155366004611e51565b6105ae565b005b34801561016857600080fd5b5061015a610177366004611e7b565b6106b6565b34801561018857600080fd5b5061015a610197366004611d60565b61084c565b3480156101a857600080fd5b5061015a610989565b61015a6101bf366004611e7b565b61099d565b3480156101d057600080fd5b506000546040516001600160a01b03909116815260200161010f565b3480156101f857600080fd5b5061020c610207366004611d60565b610b7d565b60405161010f9190611faa565b34801561022557600080fd5b50610102610234366004612034565b610cd0565b34801561024557600080fd5b5061024e610f45565b60405161010f919061212c565b61015a61026936600461218e565b61121b565b34801561027a57600080fd5b5061015a610289366004611d60565b6114f3565b34801561029a57600080fd5b5061015a6102a936600461224f565b611859565b6060600060015b60035481116102f7576000818152600760205260409020600201548414156102e557816102e181612280565b9250505b806102ef81612280565b9150506102b5565b508067ffffffffffffffff81111561031157610311611fc4565b60405190808252806020026020018201604052801561036357816020015b60408051608081018252600080825260208083018290529282018190526060820152825260001990920191018161032f5790505b509150600060015b60035481116104315760008181526007602052604090206002015485141561041f576000858152600d60209081526040808320848452600783528184206003908101546001600160a01b0390811686529184529382902082516080810184528154815260018201549092169382019390935260028301549181019190915291015460ff1615156060820152848361040181612280565b9450815181106104135761041361229b565b60200260200101819052505b8061042981612280565b91505061036b565b505050919050565b6060600060015b6002548111610493573360008181526008602090815260408083208584529091529020546001600160a01b03161415610481578161047d81612280565b9250505b8061048b81612280565b915050610440565b508067ffffffffffffffff8111156104ad576104ad611fc4565b6040519080825280602002602001820160405280156104f257816020015b60408051808201909152600080825260208201528152602001906001900390816104cb5790505b509150600060015b60025481116105a8573360008181526008602090815260408083208584529091529020546001600160a01b03161415610596573360009081526008602090815260408083208484528252918290208251808401909352546001600160a01b0381168352600160a01b900460ff16151590820152848361057881612280565b94508151811061058a5761058a61229b565b60200260200101819052505b806105a081612280565b9150506104fa565b50505090565b6000818152600a602052604090205460ff166105e55760405162461bcd60e51b81526004016105dc906122b1565b60405180910390fd5b60008181526009602090815260408083206001600160a01b038616845290915290205460ff16156106585760405162461bcd60e51b815260206004820152601e60248201527f506c6179657220697320616c726561647920696e20746869732067616d65000060448201526064016105dc565b6040805180820182526001600160a01b03938416808252600060208084018281529282526008815284822095825294909452919092209151825491511515600160a01b026001600160a81b0319909216931692909217919091179055565b6000828152600660208190526040909120908101546004909101546106dc9060016122de565b146107225760405162461bcd60e51b8152602060048201526016602482015275139bdd08195b9bdd59da081c1b185e595c9cc81e595d60521b60448201526064016105dc565b6000828152600d6020908152604080832033845290915290206003015460ff161561078f5760405162461bcd60e51b815260206004820152601760248201527f506c6179657220616c7265616479207265636f7264656400000000000000000060448201526064016105dc565b6000828152600660205260409020600801546107a96118d2565b101580156107ce57506000828152600660205260409020600901546107cc6118d2565b105b61081a5760405162461bcd60e51b815260206004820152601c60248201527f47616d6520706c6179206d75737420626520696e2073657373696f6e0000000060448201526064016105dc565b6000918252600d602090815260408084203385529091529091206002810191909155600301805460ff19166001179055565b6000818152600a602052604090205460ff1661087a5760405162461bcd60e51b81526004016105dc906122b1565b3360008181526008602090815260408083208584529091529020546001600160a01b0316146108eb5760405162461bcd60e51b815260206004820181905260248201527f596f7520617265206e6f7420696e766974656420746f20746869732067616d6560448201526064016105dc565b336000908152600860209081526040808320848452909152902054600160a01b900460ff161561095d5760405162461bcd60e51b815260206004820152601e60248201527f496e7669746174696f6e20697320616c72656164792072656a6563746564000060448201526064016105dc565b33600090815260086020908152604080832093835292905220805460ff60a01b1916600160a01b179055565b6109916118f3565b61099b600061194d565b565b6000828152600a602052604090205460ff166109cb5760405162461bcd60e51b81526004016105dc906122b1565b600082815260066020526040902060070154341015610a2c5760405162461bcd60e51b815260206004820152601c60248201527f496e737566666369656e742066756e647320666f72207374616b65730000000060448201526064016105dc565b3360008181526008602090815260408083208684529091529020546001600160a01b031614610a935760405162461bcd60e51b8152602060048201526013602482015272556e617574686f72697a656420656e7469747960681b60448201526064016105dc565b336000908152600860209081526040808320858452909152902054600160a01b900460ff1615610afb5760405162461bcd60e51b8152602060048201526013602482015272141c995d9a5bdd5b1e481c995cdc1bdb991959606a1b60448201526064016105dc565b6000610b07838361199d565b905080610b4f5760405162461bcd60e51b8152602060048201526016602482015275141b185e595c8818dc99585d1a5bdb8819985a5b195960521b60448201526064016105dc565b505033600090815260086020908152604080832093835292905220805460ff60a01b1916600160a01b179055565b610b85611c52565b60066000838152602001908152602001600020604051806101a001604052908160008201548152602001600182018054610bbe906122f6565b80601f0160208091040260200160405190810160405280929190818152602001828054610bea906122f6565b8015610c375780601f10610c0c57610100808354040283529160200191610c37565b820191906000526020600020905b815481529060010190602001808311610c1a57829003601f168201915b505050918352505060028201546001600160a01b03166020820152600382015460408201526004820154606082015260058201546080820152600682015460a0820152600782015460c0820152600882015460e0820152600982015461010080830191909152600a830154610120830152600b9092015460ff808216151561014084015292900490911615156101609091015292915050565b805160609060005b610ce3600183612331565b811015610f3d5760005b6001610cf98385612331565b610d039190612331565b811015610f2a57848181518110610d1c57610d1c61229b565b6020026020010151606001518015610d58575084610d3b8260016122de565b81518110610d4b57610d4b61229b565b6020026020010151606001515b15610e395784610d698260016122de565b81518110610d7957610d7961229b565b602002602001015160400151858281518110610d9757610d9761229b565b6020026020010151604001511115610e34576000858281518110610dbd57610dbd61229b565b6020026020010151905085826001610dd591906122de565b81518110610de557610de561229b565b6020026020010151868381518110610dff57610dff61229b565b60209081029190910101528086610e178460016122de565b81518110610e2757610e2761229b565b6020026020010181905250505b610f18565b848181518110610e4b57610e4b61229b565b602002602001015160600151158015610e88575084610e6b8260016122de565b81518110610e7b57610e7b61229b565b6020026020010151606001515b15610f18576000858281518110610ea157610ea161229b565b6020026020010151905085826001610eb991906122de565b81518110610ec957610ec961229b565b6020026020010151868381518110610ee357610ee361229b565b60209081029190910101528086610efb8460016122de565b81518110610f0b57610f0b61229b565b6020026020010181905250505b80610f2281612280565b915050610ced565b5080610f3581612280565b915050610cd8565b509192915050565b6060600060015b6002548111610fd6576000818152600660205260409020600b015460ff16158015610f8e57506000818152600660205260409020600b0154610100900460ff16155b8015610fb15750610f9d6118d2565b600082815260066020526040902060090154115b15610fc45781610fc081612280565b9250505b80610fce81612280565b915050610f4c565b508067ffffffffffffffff811115610ff057610ff0611fc4565b60405190808252806020026020018201604052801561102957816020015b611016611c52565b81526020019060019003908161100e5790505b509150600060015b60025481116105a8576000818152600660205260409020600b015460ff1615801561107357506000818152600660205260409020600b0154610100900460ff16155b801561109657506110826118d2565b600082815260066020526040902060090154115b156112095760066000828152602001908152602001600020604051806101a0016040529081600082015481526020016001820180546110d4906122f6565b80601f0160208091040260200160405190810160405280929190818152602001828054611100906122f6565b801561114d5780601f106111225761010080835404028352916020019161114d565b820191906000526020600020905b81548152906001019060200180831161113057829003601f168201915b505050918352505060028201546001600160a01b03166020820152600382015460408201526004820154606082015260058201546080820152600682015460a0820152600782015460c0820152600882015460e0820152600982015461010080830191909152600a830154610120830152600b9092015460ff808216151561014084015292900490911615156101609091015284836111eb81612280565b9450815181106111fd576111fd61229b565b60200260200101819052505b8061121381612280565b915050611031565b6000341161126b5760405162461bcd60e51b815260206004820152601760248201527f5374616b652066756e647320697320726571756972656400000000000000000060448201526064016105dc565b600184116112ca5760405162461bcd60e51b815260206004820152602660248201527f506172746974696370616e7473206d7573742062652067726561746572207468604482015265616e206f6e6560d01b60648201526084016105dc565b600085511161131b5760405162461bcd60e51b815260206004820152601860248201527f4465736372697074696f6e20697320726571756972656421000000000000000060448201526064016105dc565b600082116113775760405162461bcd60e51b8152602060048201526024808201527f53746172742064617465206d7573742062652067726561746572207468616e206044820152637a65726f60e01b60648201526084016105dc565b8181116113d75760405162461bcd60e51b815260206004820152602860248201527f456e642064617465206d7573742062652067726561746572207468616e207374604482015267617274206461746560c01b60648201526084016105dc565b600083116114275760405162461bcd60e51b815260206004820152601b60248201527f4e756d626572204f662077696e6e65727320726571756972656421000000000060448201526064016105dc565b611435600280546001019055565b600061144060025490565b905060006114518288888888611a9a565b9050806114975760405162461bcd60e51b815260206004820152601460248201527311d85b594818dc99585d1a5bdb8819985a5b195960621b60448201526064016105dc565b6114a1828961199d565b9050806114e95760405162461bcd60e51b8152602060048201526016602482015275141b185e595c8818dc99585d1a5bdb8819985a5b195960521b60448201526064016105dc565b5050505050505050565b6000818152600a602052604090205460ff166115215760405162461bcd60e51b81526004016105dc906122b1565b60008181526006602052604090206009015461153b6118d2565b116115805760405162461bcd60e51b815260206004820152601560248201527423b0b6b29039ba34b6361034b71039b2b9b9b4b7b760591b60448201526064016105dc565b6000818152600660205260409020600b0154610100900460ff16156115df5760405162461bcd60e51b815260206004820152601560248201527411d85b5948185b1c9958591e481c185a59081bdd5d605a1b60448201526064016105dc565b60055460008281526006602052604081206007015490916064916116039190612348565b61160d9190612367565b6000838152600660205260408120600701549192509061162e908390612331565b905061164b6116456000546001600160a01b031690565b83611bed565b600060015b600354811161169257600081815260076020526040902060020154851415611680578161167c81612280565b9250505b8061168a81612280565b915050611650565b5060008167ffffffffffffffff8111156116ae576116ae611fc4565b60405190808252806020026020018201604052801561170057816020015b6040805160808101825260008082526020808301829052928201819052606082015282526000199092019101816116cc5790505b509050600060015b60035481116117ce576000818152600760205260409020600201548714156117bc576000878152600d60209081526040808320848452600783528184206003908101546001600160a01b0390811686529184529382902082516080810184528154815260018201549092169382019390935260028301549181019190915291015460ff1615156060820152838361179e81612280565b9450815181106117b0576117b061229b565b60200260200101819052505b806117c681612280565b915050611708565b506117d882610cd0565b915060005b6000878152600660205260409020600401548110156118505761183e83828151811061180b5761180b61229b565b602002602001015160200151600660008a815260200190815260200160002060040154876118399190612367565b611bed565b8061184881612280565b9150506117dd565b50505050505050565b6118616118f3565b6001600160a01b0381166118c65760405162461bcd60e51b815260206004820152602660248201527f4f776e61626c653a206e6577206f776e657220697320746865207a65726f206160448201526564647265737360d01b60648201526084016105dc565b6118cf8161194d565b50565b6000806118e1426103e8612348565b6118ed906103e86122de565b92915050565b6000546001600160a01b0316331461099b5760405162461bcd60e51b815260206004820181905260248201527f4f776e61626c653a2063616c6c6572206973206e6f7420746865206f776e657260448201526064016105dc565b600080546001600160a01b038381166001600160a01b0319831681178455604051919092169283917f8be0079c531659141344cd1fd0a4f28419497f9722a3daafe3b4186f6b6457e09190a35050565b60006119ad600380546001019055565b60006119b860035490565b60408051608081018252828152602080820187815282840189815233606085018181526000888152600786528781209651875593516001808801919091559251600287015551600390950180546001600160a01b0319166001600160a01b039096169590951790945589825260098352848220938252928252838120805460ff199081168517909155858252600b83528482208054909116909317909255878252600690819052918120909101805492935090611a7483612280565b91905055503460046000828254611a8b91906122de565b90915550600195945050505050565b6000611aa4611c52565b8681526020810186905233604082015260608101859052600160c08201523460e0820152608081018490526101208101839052611adf6118d2565b6101408201526000878152600660209081526040909120825181558183015180518493611b13926001850192910190611cc7565b506040828101516002830180546001600160a01b0319166001600160a01b03909216919091179055606083015160038301556080830151600483015560a0830151600583015560c0830151600683015560e083015160078301556101008084015160088401556101208401516009840155610140840151600a80850191909155610160850151600b90940180546101809096015161ffff1990961694151561ff00191694909417941515909102939093179091556000988952602091909152909620805460ff191660019081179091559695505050505050565b6000826001600160a01b03168260405160006040518083038185875af1925050503d8060008114611c3a576040519150601f19603f3d011682016040523d82523d6000602084013e611c3f565b606091505b5050905080611c4d57600080fd5b505050565b604051806101a00160405280600081526020016060815260200160006001600160a01b0316815260200160008152602001600081526020016000815260200160008152602001600081526020016000815260200160008152602001600081526020016000151581526020016000151581525090565b828054611cd3906122f6565b90600052602060002090601f016020900481019282611cf55760008555611d3b565b82601f10611d0e57805160ff1916838001178555611d3b565b82800160010185558215611d3b579182015b82811115611d3b578251825591602001919060010190611d20565b50611d47929150611d4b565b5090565b5b80821115611d475760008155600101611d4c565b600060208284031215611d7257600080fd5b5035919050565b602080825282518282018190526000919060409081850190868401855b82811015611ddb57815180518552868101516001600160a01b031687860152858101518686015260609081015115159085015260809093019290850190600101611d96565b5091979650505050505050565b602080825282518282018190526000919060409081850190868401855b82811015611ddb57815180516001600160a01b031685528601511515868501529284019290850190600101611e05565b80356001600160a01b0381168114611e4c57600080fd5b919050565b60008060408385031215611e6457600080fd5b611e6d83611e35565b946020939093013593505050565b60008060408385031215611e8e57600080fd5b50508035926020909101359150565b6000815180845260005b81811015611ec357602081850181015186830182015201611ea7565b81811115611ed5576000602083870101525b50601f01601f19169290920160200192915050565b60006101a0825184526020830151816020860152611f0a82860182611e9d565b9150506040830151611f2760408601826001600160a01b03169052565b50606083015160608501526080830151608085015260a083015160a085015260c083015160c085015260e083015160e085015261010080840151818601525061012080840151818601525061014080840151818601525061016080840151611f928287018215159052565b50506101809283015115159390920192909252919050565b602081526000611fbd6020830184611eea565b9392505050565b634e487b7160e01b600052604160045260246000fd5b6040516080810167ffffffffffffffff81118282101715611ffd57611ffd611fc4565b60405290565b604051601f8201601f1916810167ffffffffffffffff8111828210171561202c5761202c611fc4565b604052919050565b6000602080838503121561204757600080fd5b823567ffffffffffffffff8082111561205f57600080fd5b818501915085601f83011261207357600080fd5b81358181111561208557612085611fc4565b612093848260051b01612003565b818152848101925060079190911b8301840190878211156120b357600080fd5b928401925b8184101561212157608084890312156120d15760008081fd5b6120d9611fda565b843581526120e8868601611e35565b8187015260408581013590820152606080860135801515811461210b5760008081fd5b90820152835260809390930192918401916120b8565b979650505050505050565b6000602080830181845280855180835260408601915060408160051b870101925083870160005b8281101561218157603f1988860301845261216f858351611eea565b94509285019290850190600101612153565b5092979650505050505050565b60008060008060008060c087890312156121a757600080fd5b8635955060208088013567ffffffffffffffff808211156121c757600080fd5b818a0191508a601f8301126121db57600080fd5b8135818111156121ed576121ed611fc4565b6121ff601f8201601f19168501612003565b91508082528b8482850101111561221557600080fd5b80848401858401376000908201909301929092525095989597505050506040840135936060810135936080820135935060a0909101359150565b60006020828403121561226157600080fd5b611fbd82611e35565b634e487b7160e01b600052601160045260246000fd5b60006000198214156122945761229461226a565b5060010190565b634e487b7160e01b600052603260045260246000fd5b60208082526013908201527211d85b5948191bd95cc81b9bdd08195e1a5cdd606a1b604082015260600190565b600082198211156122f1576122f161226a565b500190565b600181811c9082168061230a57607f821691505b6020821081141561232b57634e487b7160e01b600052602260045260246000fd5b50919050565b6000828210156123435761234361226a565b500390565b60008160001904831182151516156123625761236261226a565b500290565b60008261238457634e487b7160e01b600052601260045260246000fd5b50049056fea26469706673582212208f88a2a67a2b89ae61a550f28f2ff7fb3521df1280f3c997fa6b37b7bbd690fc64736f6c634300080b0033",
  "linkReferences": {},
  "deployedLinkReferences": {}
}