{
  "_format": "hh-sol-artifact-1",
  "contractName": "PlayToEarn",
  "sourceName": "src/contracts/PlayToEarn.sol",
  "abi": [
    {
      "anonymous": false,
      "inputs": [
        {
          "indexed": true,
          "internalType": "address",
          "name": "previousOwner",
          "type": "address"
        },
        {
          "indexed": true,
          "internalType": "address",
          "name": "newOwner",
          "type": "address"
        }
      ],
      "name": "OwnershipTransferred",
      "type": "event"
    },
    {
      "inputs": [
        {
          "internalType": "uint256",
          "name": "gameId",
          "type": "uint256"
        },
        {
          "internalType": "uint256",
          "name": "participantId",
          "type": "uint256"
        }
      ],
      "name": "acceptInvitation",
      "outputs": [],
      "stateMutability": "payable",
      "type": "function"
    },
    {
      "inputs": [
        {
          "internalType": "uint256",
          "name": "participantId",
          "type": "uint256"
        },
        {
          "internalType": "string",
          "name": "caption",
          "type": "string"
        },
        {
          "internalType": "uint256",
          "name": "participants",
          "type": "uint256"
        },
        {
          "internalType": "uint256",
          "name": "numberOfWinners",
          "type": "uint256"
        },
        {
          "internalType": "uint256",
          "name": "deadline",
          "type": "uint256"
        }
      ],
      "name": "createGame",
      "outputs": [],
      "stateMutability": "payable",
      "type": "function"
    },
    {
      "inputs": [
        {
          "internalType": "uint256",
          "name": "id",
          "type": "uint256"
        },
        {
          "internalType": "uint256",
          "name": "gameId",
          "type": "uint256"
        },
        {
          "internalType": "uint256",
          "name": "score",
          "type": "uint256"
        },
        {
          "internalType": "uint256",
          "name": "finishingTime",
          "type": "uint256"
        }
      ],
      "name": "gamePlayUpdate",
      "outputs": [],
      "stateMutability": "nonpayable",
      "type": "function"
    },
    {
      "inputs": [
        {
          "internalType": "uint256",
          "name": "id",
          "type": "uint256"
        }
      ],
      "name": "getGame",
      "outputs": [
        {
          "components": [
            {
              "internalType": "uint256",
              "name": "id",
              "type": "uint256"
            },
            {
              "internalType": "string",
              "name": "caption",
              "type": "string"
            },
            {
              "internalType": "address",
              "name": "owner",
              "type": "address"
            },
            {
              "internalType": "uint256",
              "name": "participants",
              "type": "uint256"
            },
            {
              "internalType": "uint256",
              "name": "numberOfWinners",
              "type": "uint256"
            },
            {
              "internalType": "uint256",
              "name": "stake",
              "type": "uint256"
            },
            {
              "internalType": "uint256",
              "name": "deadline",
              "type": "uint256"
            },
            {
              "internalType": "uint256",
              "name": "timestamp",
              "type": "uint256"
            },
            {
              "internalType": "bool",
              "name": "isSingleGame",
              "type": "bool"
            },
            {
              "internalType": "bool",
              "name": "started",
              "type": "bool"
            },
            {
              "internalType": "bool",
              "name": "deleted",
              "type": "bool"
            },
            {
              "internalType": "bool",
              "name": "paidOut",
              "type": "bool"
            }
          ],
          "internalType": "struct PlayToEarn.GameStruct",
          "name": "",
          "type": "tuple"
        }
      ],
      "stateMutability": "view",
      "type": "function"
    },
    {
      "inputs": [],
      "name": "getGames",
      "outputs": [
        {
          "components": [
            {
              "internalType": "uint256",
              "name": "id",
              "type": "uint256"
            },
            {
              "internalType": "string",
              "name": "caption",
              "type": "string"
            },
            {
              "internalType": "address",
              "name": "owner",
              "type": "address"
            },
            {
              "internalType": "uint256",
              "name": "participants",
              "type": "uint256"
            },
            {
              "internalType": "uint256",
              "name": "numberOfWinners",
              "type": "uint256"
            },
            {
              "internalType": "uint256",
              "name": "stake",
              "type": "uint256"
            },
            {
              "internalType": "uint256",
              "name": "deadline",
              "type": "uint256"
            },
            {
              "internalType": "uint256",
              "name": "timestamp",
              "type": "uint256"
            },
            {
              "internalType": "bool",
              "name": "isSingleGame",
              "type": "bool"
            },
            {
              "internalType": "bool",
              "name": "started",
              "type": "bool"
            },
            {
              "internalType": "bool",
              "name": "deleted",
              "type": "bool"
            },
            {
              "internalType": "bool",
              "name": "paidOut",
              "type": "bool"
            }
          ],
          "internalType": "struct PlayToEarn.GameStruct[]",
          "name": "",
          "type": "tuple[]"
        }
      ],
      "stateMutability": "view",
      "type": "function"
    },
    {
      "inputs": [
        {
          "internalType": "address",
          "name": "user",
          "type": "address"
        }
      ],
      "name": "getInvitations",
      "outputs": [
        {
          "components": [
            {
              "internalType": "address",
              "name": "invitedPlayer",
              "type": "address"
            },
            {
              "internalType": "bool",
              "name": "accepted",
              "type": "bool"
            }
          ],
          "internalType": "struct PlayToEarn.InvitationStruct[]",
          "name": "",
          "type": "tuple[]"
        }
      ],
      "stateMutability": "view",
      "type": "function"
    },
    {
      "inputs": [
        {
          "internalType": "address",
          "name": "invitedPlayer",
          "type": "address"
        },
        {
          "internalType": "uint256",
          "name": "gameId",
          "type": "uint256"
        }
      ],
      "name": "invitePlayer",
      "outputs": [],
      "stateMutability": "nonpayable",
      "type": "function"
    },
    {
      "inputs": [],
      "name": "owner",
      "outputs": [
        {
          "internalType": "address",
          "name": "",
          "type": "address"
        }
      ],
      "stateMutability": "view",
      "type": "function"
    },
    {
      "inputs": [],
      "name": "participate",
      "outputs": [],
      "stateMutability": "nonpayable",
      "type": "function"
    },
    {
      "inputs": [
        {
          "internalType": "uint256",
          "name": "gameId",
          "type": "uint256"
        }
      ],
      "name": "rejectInvitation",
      "outputs": [],
      "stateMutability": "nonpayable",
      "type": "function"
    },
    {
      "inputs": [],
      "name": "renounceOwnership",
      "outputs": [],
      "stateMutability": "nonpayable",
      "type": "function"
    },
    {
      "inputs": [
        {
          "internalType": "uint256",
          "name": "gameId",
          "type": "uint256"
        }
      ],
      "name": "startGame",
      "outputs": [],
      "stateMutability": "nonpayable",
      "type": "function"
    },
    {
      "inputs": [
        {
          "internalType": "address",
          "name": "newOwner",
          "type": "address"
        }
      ],
      "name": "transferOwnership",
      "outputs": [],
      "stateMutability": "nonpayable",
      "type": "function"
    }
  ],
  "bytecode": "0x60806040526706f05b59d3b2000060055534801561001c57600080fd5b506100263361002f565b6001805561007f565b600080546001600160a01b038381166001600160a01b0319831681178455604051919092169283917f8be0079c531659141344cd1fd0a4f28419497f9722a3daafe3b4186f6b6457e09190a35050565b611f6b8061008e6000396000f3fe6080604052600436106100c25760003560e01c80638da5cb5b1161007f578063d11711a211610059578063d11711a2146101e0578063d98b88fa146101f5578063e5ed1d5914610222578063f2fde38b1461024257600080fd5b80638da5cb5b14610164578063a2f77bcc14610191578063c04c5947146101be57600080fd5b80632246fe0b146100c75780633ba32ced146100e95780635aa6bb3b146100fc5780636c4303801461011c578063715018a61461013c5780637a2f213614610151575b600080fd5b3480156100d357600080fd5b506100e76100e2366004611acb565b610262565b005b6100e76100f7366004611b0b565b6103e5565b34801561010857600080fd5b506100e7610117366004611be1565b610767565b34801561012857600080fd5b506100e7610137366004611bfa565b6108d0565b34801561014857600080fd5b506100e761099b565b6100e761015f366004611c2c565b6109af565b34801561017057600080fd5b506000546040516001600160a01b0390911681526020015b60405180910390f35b34801561019d57600080fd5b506101b16101ac366004611be1565b610c81565b6040516101889190611d4e565b3480156101ca57600080fd5b506101d3610dd0565b6040516101889190611d61565b3480156101ec57600080fd5b506100e76110c2565b34801561020157600080fd5b50610215610210366004611dc3565b6111c0565b6040516101889190611dde565b34801561022e57600080fd5b506100e761023d366004611be1565b611380565b34801561024e57600080fd5b506100e761025d366004611dc3565b61157d565b600e600061026f60035490565b815260208101919091526040016000205460ff166102d45760405162461bcd60e51b815260206004820152601a60248201527f5061727469636970616e7420616c72656164792065786973747300000000000060448201526064015b60405180910390fd5b6000818152600c602052604090205460ff166103025760405162461bcd60e51b81526004016102cb90611e38565b61030c81836115f3565b156103685760405162461bcd60e51b815260206004820152602660248201527f506c6179657220697320616c726561647920696e766974656420746f20746869604482015265732067616d6560d01b60648201526084016102cb565b600081815260096020526040812080549161038283611e7b565b90915550506040805180820182526001600160a01b0393841680825260006020808401828152928252600a815284822095825294909452919092209151825491511515600160a01b026001600160a81b0319909216931692909217919091179055565b6000858152600e602052604090205460ff16156104575760405162461bcd60e51b815260206004820152602a60248201527f596f75206d7573742062652061207061727469636970616e7420746f2063726560448201526961746520612067616d6560b01b60648201526084016102cb565b600034116104a75760405162461bcd60e51b815260206004820152601760248201527f7374616b652066756e647320697320726571756972656400000000000000000060448201526064016102cb565b600183116104f75760405162461bcd60e51b815260206004820152601960248201527f696e76616c6964206e756d626572206f6620706c61796572730000000000000060448201526064016102cb565b6105008361165a565b156105575760405162461bcd60e51b815260206004820152602160248201527f417661696c61626c65207061727469636970616e7473206e6f7420656e6f75676044820152600d60fb1b60648201526084016102cb565b600084511161059f5760405162461bcd60e51b815260206004820152601460248201527343617074696f6e2069732072657175697265642160601b60448201526064016102cb565b600081116105fd5760405162461bcd60e51b815260206004820152602560248201527f4475726174696f6e2073686f756c642062652067726561746572207468616e206044820152647a65726f2160d81b60648201526084016102cb565b6000821161064d5760405162461bcd60e51b815260206004820152601b60248201527f4e756d626572204f662077696e6e65727320726571756972656421000000000060448201526064016102cb565b61065b600280546001019055565b600061066660025490565b6000818152600b6020526040812080549293509061068383611e7b565b919050555061069581868686866116b5565b6106e15760405162461bcd60e51b815260206004820152601a60248201527f47616d65206372656174696f6e20756e7375636365737366756c00000000000060448201526064016102cb565b6000818152600b60205260409020546106fc9082883361183a565b6107485760405162461bcd60e51b815260206004820152601c60248201527f506c61796572206372656174696f6e20756e7375636365737366756c0000000060448201526064016102cb565b346004600082825461075a9190611e96565b9091555050505050505050565b6000818152600c602052604090205460ff166107955760405162461bcd60e51b81526004016102cb90611e38565b336000818152600a602090815260408083208584529091529020546001600160a01b0316146108065760405162461bcd60e51b815260206004820181905260248201527f596f7520617265206e6f7420696e766974656420746f20746869732067616d6560448201526064016102cb565b336000908152600a60209081526040808320848452909152902054600160a01b900460ff16156108785760405162461bcd60e51b815260206004820152601e60248201527f496e7669746174696f6e20697320616c7265616479206163636570746564000060448201526064016102cb565b336000908152600a60209081526040808320848452825280832080546001600160a81b03191690556009909152902054156108cd5760008181526009602052604081208054916108c783611eae565b91905055505b50565b6000838152600c602052604090205460ff166109245760405162461bcd60e51b815260206004820152601360248201527219d85b5948191bd95cc81b9bdd08195e1a5cdd606a1b60448201526064016102cb565b6000848152600d602052604090205460ff1661097a5760405162461bcd60e51b81526020600482015260156024820152741c1b185e595c88191bd95cc81b9bdd08195e1a5cdd605a1b60448201526064016102cb565b60009384526007602052604090932060048101919091556005019190915550565b6109a36118d9565b6109ad6000611933565b565b6000828152600c602052604090205460ff166109dd5760405162461bcd60e51b81526004016102cb90611e38565b600082815260066020526040902060050154341015610a3e5760405162461bcd60e51b815260206004820152601c60248201527f496e737566666369656e742066756e647320666f72207374616b65730000000060448201526064016102cb565b336000818152600a602090815260408083208684529091529020546001600160a01b031614610aaf5760405162461bcd60e51b815260206004820181905260248201527f596f7520617265206e6f7420696e766974656420746f20746869732067616d6560448201526064016102cb565b336000908152600a60209081526040808320858452909152902054600160a01b900460ff1615610b215760405162461bcd60e51b815260206004820152601e60248201527f496e7669746174696f6e20697320616c7265616479206163636570746564000060448201526064016102cb565b600081815260086020526040902060010154600160a01b900460ff16610b895760405162461bcd60e51b815260206004820152601c60248201527f5061727469636970616e74206973206e6f7420617661696c61626c650000000060448201526064016102cb565b6000828152600b60205260408120805491610ba383611e7b565b90915550506000828152600b6020526040902054610bc39083833361183a565b610c0f5760405162461bcd60e51b815260206004820152601c60248201527f506c61796572206372656174696f6e20756e7375636365737366756c0000000060448201526064016102cb565b336000908152600a602090815260408083208584528252808320805460ff60a01b19908116600160a01b179091558484526008835281842060019081018054909216909155600e9092528220805460ff1916909117905560048054349290610c78908490611e96565b90915550505050565b610c896119a4565b600660008381526020019081526020016000206040518061018001604052908160008201548152602001600182018054610cc290611ec5565b80601f0160208091040260200160405190810160405280929190818152602001828054610cee90611ec5565b8015610d3b5780601f10610d1057610100808354040283529160200191610d3b565b820191906000526020600020905b815481529060010190602001808311610d1e57829003601f168201915b505050918352505060028201546001600160a01b03166020820152600382015460408201526004820154606082015260058201546080820152600682015460a0820152600782015460c082015260089091015460ff808216151560e084015261010080830482161515908401526201000082048116151561012084015263010000009091041615156101409091015292915050565b6060600080610ddd611983565b905060015b6002548111610e6e5760008181526006602052604090206008015462010000900460ff16158015610e2c57506000818152600660205260409020600801546301000000900460ff16155b8015610e4957506000818152600660208190526040909120015482105b15610e5c5782610e5881611e7b565b9350505b80610e6681611e7b565b915050610de2565b5060008267ffffffffffffffff811115610e8a57610e8a611af5565b604051908082528060200260200182016040528015610ec357816020015b610eb06119a4565b815260200190600190039081610ea85790505b509050600060015b60025481116110b85760008181526006602052604090206008015462010000900460ff16158015610f1557506000818152600660205260409020600801546301000000900460ff16155b8015610f3257506000818152600660208190526040909120015484105b156110a657600660008281526020019081526020016000206040518061018001604052908160008201548152602001600182018054610f7090611ec5565b80601f0160208091040260200160405190810160405280929190818152602001828054610f9c90611ec5565b8015610fe95780601f10610fbe57610100808354040283529160200191610fe9565b820191906000526020600020905b815481529060010190602001808311610fcc57829003601f168201915b505050918352505060028201546001600160a01b03166020820152600382015460408201526004820154606082015260058201546080820152600682015460a0820152600782015460c082015260089091015460ff808216151560e0840152610100808304821615159084015262010000820481161515610120840152630100000090910416151561014090910152835184908490811061108c5761108c611f00565b602002602001018190525081806110a290611e7b565b9250505b806110b081611e7b565b915050610ecb565b5090949350505050565b600e60006110cf60035490565b815260208101919091526040016000205460ff1661112f5760405162461bcd60e51b815260206004820152601a60248201527f5061727469636970616e7420616c72656164792065786973747300000000000060448201526064016102cb565b61113d600380546001019055565b604051806060016040528061115160035490565b815233602082015260016040909101526008600061116e60035490565b8152602080820192909252604090810160002083518155918301516001909201805493909101511515600160a01b026001600160a81b03199093166001600160a01b0390921691909117919091179055565b606080600060015b6002548111611238576000818152600c602052604090205460ff16801561121357506001600160a01b038581166000908152600a602090815260408083208584529091529020541615155b15611226578161122281611e7b565b9250505b8061123081611e7b565b9150506111c8565b508067ffffffffffffffff81111561125257611252611af5565b60405190808252806020026020018201604052801561129757816020015b60408051808201909152600080825260208201528152602001906001900390816112705790505b509150600060015b6002548111611376576000818152600c602052604090205460ff1680156112ea57506001600160a01b038681166000908152600a602090815260408083208584529091529020541615155b15611364576001600160a01b038681166000908152600a602090815260408083208584528252918290208251808401909352549283168252600160a01b90920460ff16151591810191909152845185908490811061134a5761134a611f00565b6020026020010181905250818061136090611e7b565b9250505b8061136e81611e7b565b91505061129f565b5091949350505050565b6000818152600c6020526040902054819060ff166113d75760405162461bcd60e51b815260206004820152601460248201527347616d6520646f6573206e6f742065786973742160601b60448201526064016102cb565b6000818152600660205260409020600201546001600160a01b031633146114545760405162461bcd60e51b815260206004820152602b60248201527f4f6e6c79207468652067616d65206f776e65722063616e2063616c6c2074686960448201526a732066756e6374696f6e2160a81b60648201526084016102cb565b600082815260096020908152604080832054600690925290912060030154146114f55760405162461bcd60e51b815260206004820152604760248201527f416c6c207061727469636970616e7473206d757374206163636570742074686560448201527f697220696e7669746174696f6e73206265666f7265207374617274696e67207460648201526668652067616d6560c81b608482015260a4016102cb565b600082815260066020526040902060080154610100900460ff161561155c5760405162461bcd60e51b815260206004820152601c60248201527f5468652067616d652068617320616c726561647920737461727465640000000060448201526064016102cb565b506000908152600660205260409020600801805461ff001916610100179055565b6115856118d9565b6001600160a01b0381166115ea5760405162461bcd60e51b815260206004820152602660248201527f4f776e61626c653a206e6577206f776e657220697320746865207a65726f206160448201526564647265737360d01b60648201526084016102cb565b6108cd81611933565b6001600160a01b038082166000818152600a6020908152604080832087845290915281205490921614801561165357506001600160a01b0382166000908152600a60209081526040808320868452909152902054600160a01b900460ff16155b9392505050565b60008060015b60035481116116aa57600081815260086020526040902060010154600160a01b900460ff1615611698578161169481611e7b565b9250505b806116a281611e7b565b915050611660565b509190911015919050565b6000604051806101800160405280878152602001868152602001336001600160a01b031681526020018581526020018481526020013481526020018381526020016116fe611983565b81526002861460208083019190915260006040808401829052606084018290526080909301819052898152600682529190912082518155828201518051919261174f92600185019290910190611a16565b506040828101516002830180546001600160a01b0319166001600160a01b03909216919091179055606083015160038301556080830151600483015560a0830151600583015560c0830151600683015560e0830151600783015561010080840151600890930180546101208601516101408701516101609097015161ffff1990921695151561ff001916959095179415159092029390931763ffff00001916620100009415159490940263ff0000001916939093176301000000931515939093029290921790556000968752600c602052909520805460ff1916600190811790915595945050505050565b6040805160c08101825285815260208082019485528183019586526001600160a01b039384166060830190815260006080840181815260a08501828152998252600784528582209451855596516001808601919091559751600285015590516003840180546001600160a01b0319169190961617909455935160048201559451600590950194909455600d90915291909120805460ff19168217905590565b6000546001600160a01b031633146109ad5760405162461bcd60e51b815260206004820181905260248201527f4f776e61626c653a2063616c6c6572206973206e6f7420746865206f776e657260448201526064016102cb565b600080546001600160a01b038381166001600160a01b0319831681178455604051919092169283917f8be0079c531659141344cd1fd0a4f28419497f9722a3daafe3b4186f6b6457e09190a35050565b600080611992426103e8611f16565b61199e906103e8611e96565b92915050565b604051806101800160405280600081526020016060815260200160006001600160a01b0316815260200160008152602001600081526020016000815260200160008152602001600081526020016000151581526020016000151581526020016000151581526020016000151581525090565b828054611a2290611ec5565b90600052602060002090601f016020900481019282611a445760008555611a8a565b82601f10611a5d57805160ff1916838001178555611a8a565b82800160010185558215611a8a579182015b82811115611a8a578251825591602001919060010190611a6f565b50611a96929150611a9a565b5090565b5b80821115611a965760008155600101611a9b565b80356001600160a01b0381168114611ac657600080fd5b919050565b60008060408385031215611ade57600080fd5b611ae783611aaf565b946020939093013593505050565b634e487b7160e01b600052604160045260246000fd5b600080600080600060a08688031215611b2357600080fd5b85359450602086013567ffffffffffffffff80821115611b4257600080fd5b818801915088601f830112611b5657600080fd5b813581811115611b6857611b68611af5565b604051601f8201601f19908116603f01168101908382118183101715611b9057611b90611af5565b816040528281528b6020848701011115611ba957600080fd5b826020860160208301376000928101602001929092525096999698505050506040850135946060810135946080909101359350915050565b600060208284031215611bf357600080fd5b5035919050565b60008060008060808587031215611c1057600080fd5b5050823594602084013594506040840135936060013592509050565b60008060408385031215611c3f57600080fd5b50508035926020909101359150565b6000815180845260005b81811015611c7457602081850181015186830182015201611c58565b81811115611c86576000602083870101525b50601f01601f19169290920160200192915050565b6000610180825184526020830151816020860152611cbb82860182611c4e565b9150506040830151611cd860408601826001600160a01b03169052565b50606083015160608501526080830151608085015260a083015160a085015260c083015160c085015260e083015160e085015261010080840151611d1f8287018215159052565b5050610120838101511515908501526101408084015115159085015261016080840151801515828701526110b8565b6020815260006116536020830184611c9b565b6000602080830181845280855180835260408601915060408160051b870101925083870160005b82811015611db657603f19888603018452611da4858351611c9b565b94509285019290850190600101611d88565b5092979650505050505050565b600060208284031215611dd557600080fd5b61165382611aaf565b602080825282518282018190526000919060409081850190868401855b82811015611e2b57815180516001600160a01b031685528601511515868501529284019290850190600101611dfb565b5091979650505050505050565b60208082526013908201527211d85b5948191bd95cc81b9bdd08195e1a5cdd606a1b604082015260600190565b634e487b7160e01b600052601160045260246000fd5b6000600019821415611e8f57611e8f611e65565b5060010190565b60008219821115611ea957611ea9611e65565b500190565b600081611ebd57611ebd611e65565b506000190190565b600181811c90821680611ed957607f821691505b60208210811415611efa57634e487b7160e01b600052602260045260246000fd5b50919050565b634e487b7160e01b600052603260045260246000fd5b6000816000190483118215151615611f3057611f30611e65565b50029056fea26469706673582212202dc15e30af1beb9646880d46a65859db53b73c9b425b931f6a485c53fe7b608964736f6c634300080b0033",
  "linkReferences": {},
  "deployedLinkReferences": {}
}