{
  "_format": "hh-sol-artifact-1",
  "contractName": "PlayToEarn",
  "sourceName": "src/contracts/PlayToEarn.sol",
  "abi": [
    {
      "anonymous": false,
      "inputs": [
        {
          "indexed": true,
          "internalType": "address",
          "name": "previousOwner",
          "type": "address"
        },
        {
          "indexed": true,
          "internalType": "address",
          "name": "newOwner",
          "type": "address"
        }
      ],
      "name": "OwnershipTransferred",
      "type": "event"
    },
    {
      "inputs": [
        {
          "internalType": "uint256",
          "name": "gameId",
          "type": "uint256"
        }
      ],
      "name": "acceptInvitation",
      "outputs": [],
      "stateMutability": "payable",
      "type": "function"
    },
    {
      "inputs": [
        {
          "internalType": "string",
          "name": "description",
          "type": "string"
        },
        {
          "internalType": "uint256",
          "name": "participants",
          "type": "uint256"
        },
        {
          "internalType": "uint256",
          "name": "numberOfWinners",
          "type": "uint256"
        },
        {
          "internalType": "uint256",
          "name": "startDate",
          "type": "uint256"
        },
        {
          "internalType": "uint256",
          "name": "endDate",
          "type": "uint256"
        }
      ],
      "name": "createGame",
      "outputs": [],
      "stateMutability": "payable",
      "type": "function"
    },
    {
      "inputs": [
        {
          "internalType": "uint256",
          "name": "id",
          "type": "uint256"
        }
      ],
      "name": "getGame",
      "outputs": [
        {
          "components": [
            {
              "internalType": "uint256",
              "name": "id",
              "type": "uint256"
            },
            {
              "internalType": "string",
              "name": "description",
              "type": "string"
            },
            {
              "internalType": "address",
              "name": "owner",
              "type": "address"
            },
            {
              "internalType": "uint256",
              "name": "participants",
              "type": "uint256"
            },
            {
              "internalType": "uint256",
              "name": "numberOfWinners",
              "type": "uint256"
            },
            {
              "internalType": "uint256",
              "name": "plays",
              "type": "uint256"
            },
            {
              "internalType": "uint256",
              "name": "acceptees",
              "type": "uint256"
            },
            {
              "internalType": "uint256",
              "name": "stake",
              "type": "uint256"
            },
            {
              "internalType": "uint256",
              "name": "startDate",
              "type": "uint256"
            },
            {
              "internalType": "uint256",
              "name": "endDate",
              "type": "uint256"
            },
            {
              "internalType": "uint256",
              "name": "timestamp",
              "type": "uint256"
            },
            {
              "internalType": "bool",
              "name": "deleted",
              "type": "bool"
            },
            {
              "internalType": "bool",
              "name": "paidOut",
              "type": "bool"
            }
          ],
          "internalType": "struct PlayToEarn.GameStruct",
          "name": "",
          "type": "tuple"
        }
      ],
      "stateMutability": "view",
      "type": "function"
    },
    {
      "inputs": [],
      "name": "getGames",
      "outputs": [
        {
          "components": [
            {
              "internalType": "uint256",
              "name": "id",
              "type": "uint256"
            },
            {
              "internalType": "string",
              "name": "description",
              "type": "string"
            },
            {
              "internalType": "address",
              "name": "owner",
              "type": "address"
            },
            {
              "internalType": "uint256",
              "name": "participants",
              "type": "uint256"
            },
            {
              "internalType": "uint256",
              "name": "numberOfWinners",
              "type": "uint256"
            },
            {
              "internalType": "uint256",
              "name": "plays",
              "type": "uint256"
            },
            {
              "internalType": "uint256",
              "name": "acceptees",
              "type": "uint256"
            },
            {
              "internalType": "uint256",
              "name": "stake",
              "type": "uint256"
            },
            {
              "internalType": "uint256",
              "name": "startDate",
              "type": "uint256"
            },
            {
              "internalType": "uint256",
              "name": "endDate",
              "type": "uint256"
            },
            {
              "internalType": "uint256",
              "name": "timestamp",
              "type": "uint256"
            },
            {
              "internalType": "bool",
              "name": "deleted",
              "type": "bool"
            },
            {
              "internalType": "bool",
              "name": "paidOut",
              "type": "bool"
            }
          ],
          "internalType": "struct PlayToEarn.GameStruct[]",
          "name": "ActiveGames",
          "type": "tuple[]"
        }
      ],
      "stateMutability": "view",
      "type": "function"
    },
    {
      "inputs": [],
      "name": "getInvitations",
      "outputs": [
        {
          "components": [
            {
              "internalType": "address",
              "name": "account",
              "type": "address"
            },
            {
              "internalType": "bool",
              "name": "responded",
              "type": "bool"
            }
          ],
          "internalType": "struct PlayToEarn.InvitationStruct[]",
          "name": "Invitations",
          "type": "tuple[]"
        }
      ],
      "stateMutability": "view",
      "type": "function"
    },
    {
      "inputs": [
        {
          "internalType": "uint256",
          "name": "gameId",
          "type": "uint256"
        }
      ],
      "name": "getScores",
      "outputs": [
        {
          "components": [
            {
              "internalType": "uint256",
              "name": "gameId",
              "type": "uint256"
            },
            {
              "internalType": "address",
              "name": "player",
              "type": "address"
            },
            {
              "internalType": "uint256",
              "name": "score",
              "type": "uint256"
            },
            {
              "internalType": "bool",
              "name": "played",
              "type": "bool"
            }
          ],
          "internalType": "struct PlayToEarn.PlayerScoreSheetStruct[]",
          "name": "Scores",
          "type": "tuple[]"
        }
      ],
      "stateMutability": "view",
      "type": "function"
    },
    {
      "inputs": [
        {
          "internalType": "address",
          "name": "playerAccount",
          "type": "address"
        },
        {
          "internalType": "uint256",
          "name": "gameId",
          "type": "uint256"
        }
      ],
      "name": "invitePlayer",
      "outputs": [],
      "stateMutability": "nonpayable",
      "type": "function"
    },
    {
      "inputs": [
        {
          "internalType": "uint256",
          "name": "gameId",
          "type": "uint256"
        },
        {
          "internalType": "address",
          "name": "player",
          "type": "address"
        }
      ],
      "name": "isPlayerListed",
      "outputs": [
        {
          "internalType": "bool",
          "name": "",
          "type": "bool"
        }
      ],
      "stateMutability": "view",
      "type": "function"
    },
    {
      "inputs": [],
      "name": "owner",
      "outputs": [
        {
          "internalType": "address",
          "name": "",
          "type": "address"
        }
      ],
      "stateMutability": "view",
      "type": "function"
    },
    {
      "inputs": [
        {
          "internalType": "uint256",
          "name": "gameId",
          "type": "uint256"
        }
      ],
      "name": "payout",
      "outputs": [],
      "stateMutability": "nonpayable",
      "type": "function"
    },
    {
      "inputs": [
        {
          "internalType": "uint256",
          "name": "gameId",
          "type": "uint256"
        },
        {
          "internalType": "uint256",
          "name": "score",
          "type": "uint256"
        }
      ],
      "name": "recordScore",
      "outputs": [],
      "stateMutability": "nonpayable",
      "type": "function"
    },
    {
      "inputs": [
        {
          "internalType": "uint256",
          "name": "gameId",
          "type": "uint256"
        }
      ],
      "name": "rejectInvitation",
      "outputs": [],
      "stateMutability": "nonpayable",
      "type": "function"
    },
    {
      "inputs": [],
      "name": "renounceOwnership",
      "outputs": [],
      "stateMutability": "nonpayable",
      "type": "function"
    },
    {
      "inputs": [
        {
          "components": [
            {
              "internalType": "uint256",
              "name": "gameId",
              "type": "uint256"
            },
            {
              "internalType": "address",
              "name": "player",
              "type": "address"
            },
            {
              "internalType": "uint256",
              "name": "score",
              "type": "uint256"
            },
            {
              "internalType": "bool",
              "name": "played",
              "type": "bool"
            }
          ],
          "internalType": "struct PlayToEarn.PlayerScoreSheetStruct[]",
          "name": "playersScores",
          "type": "tuple[]"
        }
      ],
      "name": "sortScores",
      "outputs": [
        {
          "components": [
            {
              "internalType": "uint256",
              "name": "gameId",
              "type": "uint256"
            },
            {
              "internalType": "address",
              "name": "player",
              "type": "address"
            },
            {
              "internalType": "uint256",
              "name": "score",
              "type": "uint256"
            },
            {
              "internalType": "bool",
              "name": "played",
              "type": "bool"
            }
          ],
          "internalType": "struct PlayToEarn.PlayerScoreSheetStruct[]",
          "name": "",
          "type": "tuple[]"
        }
      ],
      "stateMutability": "pure",
      "type": "function"
    },
    {
      "inputs": [
        {
          "internalType": "address",
          "name": "newOwner",
          "type": "address"
        }
      ],
      "name": "transferOwnership",
      "outputs": [],
      "stateMutability": "nonpayable",
      "type": "function"
    }
  ],
  "bytecode": "0x60806040526706f05b59d3b2000060055534801561001c57600080fd5b506100263361002f565b6001805561007f565b600080546001600160a01b038381166001600160a01b0319831681178455604051919092169283917f8be0079c531659141344cd1fd0a4f28419497f9722a3daafe3b4186f6b6457e09190a35050565b61241e8061008e6000396000f3fe6080604052600436106100e85760003560e01c8063715018a61161008a578063c04c594711610059578063c04c594714610257578063e115234314610279578063f2fde38b14610299578063f51ba29d146102b957600080fd5b8063715018a6146101cd5780638da5cb5b146101e2578063a2f77bcc1461020a578063a4e1370d1461023757600080fd5b806342b52602116100c657806342b5260214610167578063464c5b6c1461017a5780634e56799e1461018d5780635aa6bb3b146101ad57600080fd5b806304527d90146100ed57806316845714146101235780632246fe0b14610145575b600080fd5b3480156100f957600080fd5b5061010d610108366004611d9f565b61030f565b60405161011a9190611db8565b60405180910390f35b34801561012f57600080fd5b50610138610497565b60405161011a9190611e27565b34801561015157600080fd5b50610165610160366004611e90565b61060c565b005b610165610175366004611f2a565b610714565b610165610188366004611d9f565b6109ea565b34801561019957600080fd5b506101656101a8366004611fdf565b610bc8565b3480156101b957600080fd5b506101656101c8366004611d9f565b610d5e565b3480156101d957600080fd5b50610165610e9b565b3480156101ee57600080fd5b506000546040516001600160a01b03909116815260200161011a565b34801561021657600080fd5b5061022a610225366004611d9f565b610eaf565b60405161011a919061210e565b34801561024357600080fd5b5061010d610252366004612128565b611002565b34801561026357600080fd5b5061026c611277565b60405161011a9190612220565b34801561028557600080fd5b50610165610294366004611d9f565b61154d565b3480156102a557600080fd5b506101656102b4366004612282565b6118a7565b3480156102c557600080fd5b506102ff6102d436600461229d565b60009182526009602090815260408084206001600160a01b0393909316845291905290205460ff1690565b604051901515815260200161011a565b6060600060015b6003548111610358576000818152600760205260409020600101548414156103465781610342816122df565b9250505b80610350816122df565b915050610316565b508067ffffffffffffffff81111561037257610372611eba565b6040519080825280602002602001820160405280156103c457816020015b6040805160808101825260008082526020808301829052928201819052606082015282526000199092019101816103905790505b509150600060015b600354811161048f5760008181526007602052604090206001015485141561047d576000858152600d60209081526040808320848452600783528184206002908101546001600160a01b0390811686529184529382902082516080810184528154815260018201549092169382019390935292820154908301526003015460ff1615156060820152848361045f816122df565b945081518110610471576104716122fa565b60200260200101819052505b80610487816122df565b9150506103cc565b505050919050565b6060600060015b60025481116104f1573360008181526008602090815260408083208584529091529020546001600160a01b031614156104df57816104db816122df565b9250505b806104e9816122df565b91505061049e565b508067ffffffffffffffff81111561050b5761050b611eba565b60405190808252806020026020018201604052801561055057816020015b60408051808201909152600080825260208201528152602001906001900390816105295790505b509150600060015b6002548111610606573360008181526008602090815260408083208584529091529020546001600160a01b031614156105f4573360009081526008602090815260408083208484528252918290208251808401909352546001600160a01b0381168352600160a01b900460ff1615159082015284836105d6816122df565b9450815181106105e8576105e86122fa565b60200260200101819052505b806105fe816122df565b915050610558565b50505090565b6000818152600a602052604090205460ff166106435760405162461bcd60e51b815260040161063a90612310565b60405180910390fd5b60008181526009602090815260408083206001600160a01b038616845290915290205460ff16156106b65760405162461bcd60e51b815260206004820152601e60248201527f506c6179657220697320616c726561647920696e20746869732067616d650000604482015260640161063a565b6040805180820182526001600160a01b03938416808252600060208084018281529282526008815284822095825294909452919092209151825491511515600160a01b026001600160a81b0319909216931692909217919091179055565b600034116107645760405162461bcd60e51b815260206004820152601760248201527f5374616b652066756e6473206973207265717569726564000000000000000000604482015260640161063a565b600184116107c35760405162461bcd60e51b815260206004820152602660248201527f506172746974696370616e7473206d7573742062652067726561746572207468604482015265616e206f6e6560d01b606482015260840161063a565b60008551116108145760405162461bcd60e51b815260206004820152601860248201527f4465736372697074696f6e206973207265717569726564210000000000000000604482015260640161063a565b600082116108705760405162461bcd60e51b8152602060048201526024808201527f53746172742064617465206d7573742062652067726561746572207468616e206044820152637a65726f60e01b606482015260840161063a565b8181116108d05760405162461bcd60e51b815260206004820152602860248201527f456e642064617465206d7573742062652067726561746572207468616e207374604482015267617274206461746560c01b606482015260840161063a565b600083116109205760405162461bcd60e51b815260206004820152601b60248201527f4e756d626572204f662077696e6e657273207265717569726564210000000000604482015260640161063a565b61092e600280546001019055565b600061093960025490565b9050600061094a8288888888611920565b9050806109905760405162461bcd60e51b815260206004820152601460248201527311d85b594818dc99585d1a5bdb8819985a5b195960621b604482015260640161063a565b61099982611a73565b9050806109e15760405162461bcd60e51b8152602060048201526016602482015275141b185e595c8818dc99585d1a5bdb8819985a5b195960521b604482015260640161063a565b50505050505050565b6000818152600a602052604090205460ff16610a185760405162461bcd60e51b815260040161063a90612310565b600081815260066020526040902060070154341015610a795760405162461bcd60e51b815260206004820152601c60248201527f496e737566666369656e742066756e647320666f72207374616b657300000000604482015260640161063a565b3360008181526008602090815260408083208584529091529020546001600160a01b031614610ae05760405162461bcd60e51b8152602060048201526013602482015272556e617574686f72697a656420656e7469747960681b604482015260640161063a565b336000908152600860209081526040808320848452909152902054600160a01b900460ff1615610b485760405162461bcd60e51b8152602060048201526013602482015272141c995d9a5bdd5b1e481c995cdc1bdb991959606a1b604482015260640161063a565b6000610b5382611a73565b905080610b9b5760405162461bcd60e51b8152602060048201526016602482015275141b185e595c8818dc99585d1a5bdb8819985a5b195960521b604482015260640161063a565b5033600090815260086020908152604080832093835292905220805460ff60a01b1916600160a01b179055565b600082815260066020819052604090912090810154600490910154610bee90600161233d565b14610c345760405162461bcd60e51b8152602060048201526016602482015275139bdd08195b9bdd59da081c1b185e595c9cc81e595d60521b604482015260640161063a565b6000828152600d6020908152604080832033845290915290206003015460ff1615610ca15760405162461bcd60e51b815260206004820152601760248201527f506c6179657220616c7265616479207265636f72646564000000000000000000604482015260640161063a565b600082815260066020526040902060080154610cbb611b61565b10158015610ce05750600082815260066020526040902060090154610cde611b61565b105b610d2c5760405162461bcd60e51b815260206004820152601c60248201527f47616d6520706c6179206d75737420626520696e2073657373696f6e00000000604482015260640161063a565b6000918252600d602090815260408084203385529091529091206002810191909155600301805460ff19166001179055565b6000818152600a602052604090205460ff16610d8c5760405162461bcd60e51b815260040161063a90612310565b3360008181526008602090815260408083208584529091529020546001600160a01b031614610dfd5760405162461bcd60e51b815260206004820181905260248201527f596f7520617265206e6f7420696e766974656420746f20746869732067616d65604482015260640161063a565b336000908152600860209081526040808320848452909152902054600160a01b900460ff1615610e6f5760405162461bcd60e51b815260206004820152601e60248201527f496e7669746174696f6e20697320616c72656164792072656a65637465640000604482015260640161063a565b33600090815260086020908152604080832093835292905220805460ff60a01b1916600160a01b179055565b610ea3611b82565b610ead6000611bdc565b565b610eb7611c91565b60066000838152602001908152602001600020604051806101a001604052908160008201548152602001600182018054610ef090612355565b80601f0160208091040260200160405190810160405280929190818152602001828054610f1c90612355565b8015610f695780601f10610f3e57610100808354040283529160200191610f69565b820191906000526020600020905b815481529060010190602001808311610f4c57829003601f168201915b505050918352505060028201546001600160a01b03166020820152600382015460408201526004820154606082015260058201546080820152600682015460a0820152600782015460c0820152600882015460e0820152600982015461010080830191909152600a830154610120830152600b9092015460ff808216151561014084015292900490911615156101609091015292915050565b805160609060005b611015600183612390565b81101561126f5760005b600161102b8385612390565b6110359190612390565b81101561125c5784818151811061104e5761104e6122fa565b602002602001015160600151801561108a57508461106d82600161233d565b8151811061107d5761107d6122fa565b6020026020010151606001515b1561116b578461109b82600161233d565b815181106110ab576110ab6122fa565b6020026020010151604001518582815181106110c9576110c96122fa565b60200260200101516040015111156111665760008582815181106110ef576110ef6122fa565b6020026020010151905085826001611107919061233d565b81518110611117576111176122fa565b6020026020010151868381518110611131576111316122fa565b6020908102919091010152808661114984600161233d565b81518110611159576111596122fa565b6020026020010181905250505b61124a565b84818151811061117d5761117d6122fa565b6020026020010151606001511580156111ba57508461119d82600161233d565b815181106111ad576111ad6122fa565b6020026020010151606001515b1561124a5760008582815181106111d3576111d36122fa565b60200260200101519050858260016111eb919061233d565b815181106111fb576111fb6122fa565b6020026020010151868381518110611215576112156122fa565b6020908102919091010152808661122d84600161233d565b8151811061123d5761123d6122fa565b6020026020010181905250505b80611254816122df565b91505061101f565b5080611267816122df565b91505061100a565b509192915050565b6060600060015b6002548111611308576000818152600660205260409020600b015460ff161580156112c057506000818152600660205260409020600b0154610100900460ff16155b80156112e357506112cf611b61565b600082815260066020526040902060090154115b156112f657816112f2816122df565b9250505b80611300816122df565b91505061127e565b508067ffffffffffffffff81111561132257611322611eba565b60405190808252806020026020018201604052801561135b57816020015b611348611c91565b8152602001906001900390816113405790505b509150600060015b6002548111610606576000818152600660205260409020600b015460ff161580156113a557506000818152600660205260409020600b0154610100900460ff16155b80156113c857506113b4611b61565b600082815260066020526040902060090154115b1561153b5760066000828152602001908152602001600020604051806101a00160405290816000820154815260200160018201805461140690612355565b80601f016020809104026020016040519081016040528092919081815260200182805461143290612355565b801561147f5780601f106114545761010080835404028352916020019161147f565b820191906000526020600020905b81548152906001019060200180831161146257829003601f168201915b505050918352505060028201546001600160a01b03166020820152600382015460408201526004820154606082015260058201546080820152600682015460a0820152600782015460c0820152600882015460e0820152600982015461010080830191909152600a830154610120830152600b9092015460ff8082161515610140840152929004909116151561016090910152848361151d816122df565b94508151811061152f5761152f6122fa565b60200260200101819052505b80611545816122df565b915050611363565b6000818152600a602052604090205460ff1661157b5760405162461bcd60e51b815260040161063a90612310565b600081815260066020526040902060090154611595611b61565b116115da5760405162461bcd60e51b815260206004820152601560248201527423b0b6b29039ba34b6361034b71039b2b9b9b4b7b760591b604482015260640161063a565b6000818152600660205260409020600b0154610100900460ff16156116395760405162461bcd60e51b815260206004820152601560248201527411d85b5948185b1c9958591e481c185a59081bdd5d605a1b604482015260640161063a565b600554600082815260066020526040812060070154909160649161165d91906123a7565b61166791906123c6565b60008381526006602052604081206007015491925090611688908390612390565b90506116a561169f6000546001600160a01b031690565b83611c2c565b600060015b60035481116116ec576000818152600760205260409020600101548514156116da57816116d6816122df565b9250505b806116e4816122df565b9150506116aa565b5060008167ffffffffffffffff81111561170857611708611eba565b60405190808252806020026020018201604052801561175a57816020015b6040805160808101825260008082526020808301829052928201819052606082015282526000199092019101816117265790505b509050600060015b600354811161182557600081815260076020526040902060010154871415611813576000878152600d60209081526040808320848452600783528184206002908101546001600160a01b0390811686529184529382902082516080810184528154815260018201549092169382019390935292820154908301526003015460ff161515606082015283836117f5816122df565b945081518110611807576118076122fa565b60200260200101819052505b8061181d816122df565b915050611762565b5061182f82611002565b915060005b6000878152600660205260409020600401548110156109e157611895838281518110611862576118626122fa565b602002602001015160200151600660008a8152602001908152602001600020600401548761189091906123c6565b611c2c565b8061189f816122df565b915050611834565b6118af611b82565b6001600160a01b0381166119145760405162461bcd60e51b815260206004820152602660248201527f4f776e61626c653a206e6577206f776e657220697320746865207a65726f206160448201526564647265737360d01b606482015260840161063a565b61191d81611bdc565b50565b600061192a611c91565b8681526020810186905233604082015260608101859052600160c08201523460e0820152608081018490526101208101839052611965611b61565b6101408201526000878152600660209081526040909120825181558183015180518493611999926001850192910190611d06565b506040828101516002830180546001600160a01b0319166001600160a01b03909216919091179055606083015160038301556080830151600483015560a0830151600583015560c0830151600683015560e083015160078301556101008084015160088401556101208401516009840155610140840151600a80850191909155610160850151600b90940180546101809096015161ffff1990961694151561ff00191694909417941515909102939093179091556000988952602091909152909620805460ff191660019081179091559695505050505050565b6000611a83600380546001019055565b6000611a8e60035490565b604080516060810182528281526020808201878152338385018181526000878152600785528681209551865592516001808701919091559051600290950180546001600160a01b0319166001600160a01b0390961695909517909455888252600983528482209082528252838120805460ff199081168517909155858252600b83528482208054909116909317909255868252600690819052918120909101805492935090611b3c836122df565b91905055503460046000828254611b53919061233d565b909155506001949350505050565b600080611b70426103e86123a7565b611b7c906103e861233d565b92915050565b6000546001600160a01b03163314610ead5760405162461bcd60e51b815260206004820181905260248201527f4f776e61626c653a2063616c6c6572206973206e6f7420746865206f776e6572604482015260640161063a565b600080546001600160a01b038381166001600160a01b0319831681178455604051919092169283917f8be0079c531659141344cd1fd0a4f28419497f9722a3daafe3b4186f6b6457e09190a35050565b6000826001600160a01b03168260405160006040518083038185875af1925050503d8060008114611c79576040519150601f19603f3d011682016040523d82523d6000602084013e611c7e565b606091505b5050905080611c8c57600080fd5b505050565b604051806101a00160405280600081526020016060815260200160006001600160a01b0316815260200160008152602001600081526020016000815260200160008152602001600081526020016000815260200160008152602001600081526020016000151581526020016000151581525090565b828054611d1290612355565b90600052602060002090601f016020900481019282611d345760008555611d7a565b82601f10611d4d57805160ff1916838001178555611d7a565b82800160010185558215611d7a579182015b82811115611d7a578251825591602001919060010190611d5f565b50611d86929150611d8a565b5090565b5b80821115611d865760008155600101611d8b565b600060208284031215611db157600080fd5b5035919050565b602080825282518282018190526000919060409081850190868401855b82811015611e1a57815180518552868101516001600160a01b031687860152858101518686015260609081015115159085015260809093019290850190600101611dd5565b5091979650505050505050565b602080825282518282018190526000919060409081850190868401855b82811015611e1a57815180516001600160a01b031685528601511515868501529284019290850190600101611e44565b80356001600160a01b0381168114611e8b57600080fd5b919050565b60008060408385031215611ea357600080fd5b611eac83611e74565b946020939093013593505050565b634e487b7160e01b600052604160045260246000fd5b6040516080810167ffffffffffffffff81118282101715611ef357611ef3611eba565b60405290565b604051601f8201601f1916810167ffffffffffffffff81118282101715611f2257611f22611eba565b604052919050565b600080600080600060a08688031215611f4257600080fd5b853567ffffffffffffffff80821115611f5a57600080fd5b818801915088601f830112611f6e57600080fd5b8135602082821115611f8257611f82611eba565b611f94601f8301601f19168201611ef9565b92508183528a81838601011115611faa57600080fd5b818185018285013760009183018101919091529099908801359850604088013597606081013597506080013595509350505050565b60008060408385031215611ff257600080fd5b50508035926020909101359150565b6000815180845260005b818110156120275760208185018101518683018201520161200b565b81811115612039576000602083870101525b50601f01601f19169290920160200192915050565b60006101a082518452602083015181602086015261206e82860182612001565b915050604083015161208b60408601826001600160a01b03169052565b50606083015160608501526080830151608085015260a083015160a085015260c083015160c085015260e083015160e0850152610100808401518186015250610120808401518186015250610140808401518186015250610160808401516120f68287018215159052565b50506101809283015115159390920192909252919050565b602081526000612121602083018461204e565b9392505050565b6000602080838503121561213b57600080fd5b823567ffffffffffffffff8082111561215357600080fd5b818501915085601f83011261216757600080fd5b81358181111561217957612179611eba565b612187848260051b01611ef9565b818152848101925060079190911b8301840190878211156121a757600080fd5b928401925b8184101561221557608084890312156121c55760008081fd5b6121cd611ed0565b843581526121dc868601611e74565b818701526040858101359082015260608086013580151581146121ff5760008081fd5b90820152835260809390930192918401916121ac565b979650505050505050565b6000602080830181845280855180835260408601915060408160051b870101925083870160005b8281101561227557603f1988860301845261226385835161204e565b94509285019290850190600101612247565b5092979650505050505050565b60006020828403121561229457600080fd5b61212182611e74565b600080604083850312156122b057600080fd5b823591506122c060208401611e74565b90509250929050565b634e487b7160e01b600052601160045260246000fd5b60006000198214156122f3576122f36122c9565b5060010190565b634e487b7160e01b600052603260045260246000fd5b60208082526013908201527211d85b5948191bd95cc81b9bdd08195e1a5cdd606a1b604082015260600190565b60008219821115612350576123506122c9565b500190565b600181811c9082168061236957607f821691505b6020821081141561238a57634e487b7160e01b600052602260045260246000fd5b50919050565b6000828210156123a2576123a26122c9565b500390565b60008160001904831182151516156123c1576123c16122c9565b500290565b6000826123e357634e487b7160e01b600052601260045260246000fd5b50049056fea2646970667358221220cb3f577bb0f7d9c7e3365a27deb2d94a80ad2bcd7c501eeeb5e13682a451b28064736f6c634300080b0033",
  "linkReferences": {},
  "deployedLinkReferences": {}
}