{
  "_format": "hh-sol-artifact-1",
  "contractName": "PlayToEarn",
  "sourceName": "src/contracts/PlayToEarn.sol",
  "abi": [
    {
      "anonymous": false,
      "inputs": [
        {
          "indexed": true,
          "internalType": "address",
          "name": "previousOwner",
          "type": "address"
        },
        {
          "indexed": true,
          "internalType": "address",
          "name": "newOwner",
          "type": "address"
        }
      ],
      "name": "OwnershipTransferred",
      "type": "event"
    },
    {
      "inputs": [
        {
          "internalType": "uint256",
          "name": "gameId",
          "type": "uint256"
        }
      ],
      "name": "acceptInvitation",
      "outputs": [],
      "stateMutability": "payable",
      "type": "function"
    },
    {
      "inputs": [
        {
          "internalType": "string",
          "name": "title",
          "type": "string"
        },
        {
          "internalType": "string",
          "name": "description",
          "type": "string"
        },
        {
          "internalType": "uint256",
          "name": "participants",
          "type": "uint256"
        },
        {
          "internalType": "uint256",
          "name": "numberOfWinners",
          "type": "uint256"
        },
        {
          "internalType": "uint256",
          "name": "challenges",
          "type": "uint256"
        },
        {
          "internalType": "uint256",
          "name": "startDate",
          "type": "uint256"
        },
        {
          "internalType": "uint256",
          "name": "endDate",
          "type": "uint256"
        }
      ],
      "name": "createGame",
      "outputs": [],
      "stateMutability": "payable",
      "type": "function"
    },
    {
      "inputs": [
        {
          "internalType": "uint256",
          "name": "id",
          "type": "uint256"
        }
      ],
      "name": "getGame",
      "outputs": [
        {
          "components": [
            {
              "internalType": "uint256",
              "name": "id",
              "type": "uint256"
            },
            {
              "internalType": "string",
              "name": "title",
              "type": "string"
            },
            {
              "internalType": "string",
              "name": "description",
              "type": "string"
            },
            {
              "internalType": "address",
              "name": "owner",
              "type": "address"
            },
            {
              "internalType": "uint256",
              "name": "participants",
              "type": "uint256"
            },
            {
              "internalType": "uint256",
              "name": "numberOfWinners",
              "type": "uint256"
            },
            {
              "internalType": "uint256",
              "name": "challenges",
              "type": "uint256"
            },
            {
              "internalType": "uint256",
              "name": "plays",
              "type": "uint256"
            },
            {
              "internalType": "uint256",
              "name": "acceptees",
              "type": "uint256"
            },
            {
              "internalType": "uint256",
              "name": "stake",
              "type": "uint256"
            },
            {
              "internalType": "uint256",
              "name": "startDate",
              "type": "uint256"
            },
            {
              "internalType": "uint256",
              "name": "endDate",
              "type": "uint256"
            },
            {
              "internalType": "uint256",
              "name": "timestamp",
              "type": "uint256"
            },
            {
              "internalType": "bool",
              "name": "deleted",
              "type": "bool"
            },
            {
              "internalType": "bool",
              "name": "paidOut",
              "type": "bool"
            }
          ],
          "internalType": "struct PlayToEarn.GameStruct",
          "name": "",
          "type": "tuple"
        }
      ],
      "stateMutability": "view",
      "type": "function"
    },
    {
      "inputs": [],
      "name": "getGames",
      "outputs": [
        {
          "components": [
            {
              "internalType": "uint256",
              "name": "id",
              "type": "uint256"
            },
            {
              "internalType": "string",
              "name": "title",
              "type": "string"
            },
            {
              "internalType": "string",
              "name": "description",
              "type": "string"
            },
            {
              "internalType": "address",
              "name": "owner",
              "type": "address"
            },
            {
              "internalType": "uint256",
              "name": "participants",
              "type": "uint256"
            },
            {
              "internalType": "uint256",
              "name": "numberOfWinners",
              "type": "uint256"
            },
            {
              "internalType": "uint256",
              "name": "challenges",
              "type": "uint256"
            },
            {
              "internalType": "uint256",
              "name": "plays",
              "type": "uint256"
            },
            {
              "internalType": "uint256",
              "name": "acceptees",
              "type": "uint256"
            },
            {
              "internalType": "uint256",
              "name": "stake",
              "type": "uint256"
            },
            {
              "internalType": "uint256",
              "name": "startDate",
              "type": "uint256"
            },
            {
              "internalType": "uint256",
              "name": "endDate",
              "type": "uint256"
            },
            {
              "internalType": "uint256",
              "name": "timestamp",
              "type": "uint256"
            },
            {
              "internalType": "bool",
              "name": "deleted",
              "type": "bool"
            },
            {
              "internalType": "bool",
              "name": "paidOut",
              "type": "bool"
            }
          ],
          "internalType": "struct PlayToEarn.GameStruct[]",
          "name": "ActiveGames",
          "type": "tuple[]"
        }
      ],
      "stateMutability": "view",
      "type": "function"
    },
    {
      "inputs": [],
      "name": "getInvitations",
      "outputs": [
        {
          "components": [
            {
              "internalType": "uint256",
              "name": "gameId",
              "type": "uint256"
            },
            {
              "internalType": "address",
              "name": "account",
              "type": "address"
            },
            {
              "internalType": "bool",
              "name": "responded",
              "type": "bool"
            },
            {
              "internalType": "bool",
              "name": "accepted",
              "type": "bool"
            },
            {
              "internalType": "string",
              "name": "title",
              "type": "string"
            },
            {
              "internalType": "uint256",
              "name": "stake",
              "type": "uint256"
            }
          ],
          "internalType": "struct PlayToEarn.InvitationStruct[]",
          "name": "Invitations",
          "type": "tuple[]"
        }
      ],
      "stateMutability": "view",
      "type": "function"
    },
    {
      "inputs": [],
      "name": "getMyGames",
      "outputs": [
        {
          "components": [
            {
              "internalType": "uint256",
              "name": "id",
              "type": "uint256"
            },
            {
              "internalType": "string",
              "name": "title",
              "type": "string"
            },
            {
              "internalType": "string",
              "name": "description",
              "type": "string"
            },
            {
              "internalType": "address",
              "name": "owner",
              "type": "address"
            },
            {
              "internalType": "uint256",
              "name": "participants",
              "type": "uint256"
            },
            {
              "internalType": "uint256",
              "name": "numberOfWinners",
              "type": "uint256"
            },
            {
              "internalType": "uint256",
              "name": "challenges",
              "type": "uint256"
            },
            {
              "internalType": "uint256",
              "name": "plays",
              "type": "uint256"
            },
            {
              "internalType": "uint256",
              "name": "acceptees",
              "type": "uint256"
            },
            {
              "internalType": "uint256",
              "name": "stake",
              "type": "uint256"
            },
            {
              "internalType": "uint256",
              "name": "startDate",
              "type": "uint256"
            },
            {
              "internalType": "uint256",
              "name": "endDate",
              "type": "uint256"
            },
            {
              "internalType": "uint256",
              "name": "timestamp",
              "type": "uint256"
            },
            {
              "internalType": "bool",
              "name": "deleted",
              "type": "bool"
            },
            {
              "internalType": "bool",
              "name": "paidOut",
              "type": "bool"
            }
          ],
          "internalType": "struct PlayToEarn.GameStruct[]",
          "name": "userGames",
          "type": "tuple[]"
        }
      ],
      "stateMutability": "view",
      "type": "function"
    },
    {
      "inputs": [
        {
          "internalType": "uint256",
          "name": "gameId",
          "type": "uint256"
        }
      ],
      "name": "getScores",
      "outputs": [
        {
          "components": [
            {
              "internalType": "uint256",
              "name": "gameId",
              "type": "uint256"
            },
            {
              "internalType": "address",
              "name": "player",
              "type": "address"
            },
            {
              "internalType": "uint256",
              "name": "score",
              "type": "uint256"
            },
            {
              "internalType": "bool",
              "name": "played",
              "type": "bool"
            }
          ],
          "internalType": "struct PlayToEarn.PlayerScoreSheetStruct[]",
          "name": "Scores",
          "type": "tuple[]"
        }
      ],
      "stateMutability": "view",
      "type": "function"
    },
    {
      "inputs": [
        {
          "internalType": "address",
          "name": "playerAccount",
          "type": "address"
        },
        {
          "internalType": "uint256",
          "name": "gameId",
          "type": "uint256"
        }
      ],
      "name": "invitePlayer",
      "outputs": [],
      "stateMutability": "nonpayable",
      "type": "function"
    },
    {
      "inputs": [
        {
          "internalType": "uint256",
          "name": "gameId",
          "type": "uint256"
        },
        {
          "internalType": "address",
          "name": "player",
          "type": "address"
        }
      ],
      "name": "isPlayerListed",
      "outputs": [
        {
          "internalType": "bool",
          "name": "",
          "type": "bool"
        }
      ],
      "stateMutability": "view",
      "type": "function"
    },
    {
      "inputs": [],
      "name": "owner",
      "outputs": [
        {
          "internalType": "address",
          "name": "",
          "type": "address"
        }
      ],
      "stateMutability": "view",
      "type": "function"
    },
    {
      "inputs": [
        {
          "internalType": "uint256",
          "name": "gameId",
          "type": "uint256"
        }
      ],
      "name": "payout",
      "outputs": [],
      "stateMutability": "nonpayable",
      "type": "function"
    },
    {
      "inputs": [
        {
          "internalType": "uint256",
          "name": "gameId",
          "type": "uint256"
        },
        {
          "internalType": "uint256",
          "name": "score",
          "type": "uint256"
        }
      ],
      "name": "recordScore",
      "outputs": [],
      "stateMutability": "nonpayable",
      "type": "function"
    },
    {
      "inputs": [
        {
          "internalType": "uint256",
          "name": "gameId",
          "type": "uint256"
        }
      ],
      "name": "rejectInvitation",
      "outputs": [],
      "stateMutability": "nonpayable",
      "type": "function"
    },
    {
      "inputs": [],
      "name": "renounceOwnership",
      "outputs": [],
      "stateMutability": "nonpayable",
      "type": "function"
    },
    {
      "inputs": [
        {
          "components": [
            {
              "internalType": "uint256",
              "name": "gameId",
              "type": "uint256"
            },
            {
              "internalType": "address",
              "name": "player",
              "type": "address"
            },
            {
              "internalType": "uint256",
              "name": "score",
              "type": "uint256"
            },
            {
              "internalType": "bool",
              "name": "played",
              "type": "bool"
            }
          ],
          "internalType": "struct PlayToEarn.PlayerScoreSheetStruct[]",
          "name": "playersScores",
          "type": "tuple[]"
        }
      ],
      "name": "sortScores",
      "outputs": [
        {
          "components": [
            {
              "internalType": "uint256",
              "name": "gameId",
              "type": "uint256"
            },
            {
              "internalType": "address",
              "name": "player",
              "type": "address"
            },
            {
              "internalType": "uint256",
              "name": "score",
              "type": "uint256"
            },
            {
              "internalType": "bool",
              "name": "played",
              "type": "bool"
            }
          ],
          "internalType": "struct PlayToEarn.PlayerScoreSheetStruct[]",
          "name": "",
          "type": "tuple[]"
        }
      ],
      "stateMutability": "pure",
      "type": "function"
    },
    {
      "inputs": [
        {
          "internalType": "address",
          "name": "newOwner",
          "type": "address"
        }
      ],
      "name": "transferOwnership",
      "outputs": [],
      "stateMutability": "nonpayable",
      "type": "function"
    }
  ],
  "bytecode": "0x60806040526706f05b59d3b2000060055534801561001c57600080fd5b506100263361002f565b6001805561007f565b600080546001600160a01b038381166001600160a01b0319831681178455604051919092169283917f8be0079c531659141344cd1fd0a4f28419497f9722a3daafe3b4186f6b6457e09190a35050565b612d14806200008f6000396000f3fe6080604052600436106100f35760003560e01c80638da5cb5b1161008a578063d4c33fe911610059578063d4c33fe914610286578063e115234314610299578063f2fde38b146102b9578063f51ba29d146102d957600080fd5b80638da5cb5b146101fc578063a2f77bcc14610224578063a4e1370d14610251578063c04c59471461027157600080fd5b8063464c5b6c116100c6578063464c5b6c146101945780634e56799e146101a75780635aa6bb3b146101c7578063715018a6146101e757600080fd5b80630210d751146100f857806304527d901461012357806316845714146101505780632246fe0b14610172575b600080fd5b34801561010457600080fd5b5061010d61032f565b60405161011a91906126f3565b60405180910390f35b34801561012f57600080fd5b5061014361013e366004612755565b6106f2565b60405161011a919061276e565b34801561015c57600080fd5b5061016561087a565b60405161011a91906127dd565b34801561017e57600080fd5b5061019261018d3660046128aa565b610ad1565b005b6101926101a2366004612755565b610d03565b3480156101b357600080fd5b506101926101c23660046128d4565b610eec565b3480156101d357600080fd5b506101926101e2366004612755565b611080565b3480156101f357600080fd5b506101926111c6565b34801561020857600080fd5b506000546040516001600160a01b03909116815260200161011a565b34801561023057600080fd5b5061024461023f366004612755565b6111da565b60405161011a91906128f6565b34801561025d57600080fd5b5061014361026c366004612980565b6113ca565b34801561027d57600080fd5b5061010d61163f565b610192610294366004612ae8565b61196c565b3480156102a557600080fd5b506101926102b4366004612755565b611ce6565b3480156102c557600080fd5b506101926102d4366004612b78565b61208b565b3480156102e557600080fd5b5061031f6102f4366004612b93565b60009182526009602090815260408084206001600160a01b0393909316845291905290205460ff1690565b604051901515815260200161011a565b6060600060015b60025481116103e5576000818152600660205260409020600301546001600160a01b03163314801561037a57506000818152600660205260409020600d015460ff16155b801561039d57506000818152600660205260409020600d0154610100900460ff16155b80156103c057506000818152600660205260409020600b01546103be612104565b105b156103d357816103cf81612bd5565b9250505b806103dd81612bd5565b915050610336565b508067ffffffffffffffff8111156103ff576103ff612910565b60405190808252806020026020018201604052801561043857816020015b6104256124b1565b81526020019060019003908161041d5790505b509150600060015b60025481116106ec576000818152600660205260409020600301546001600160a01b03163314801561048457506000818152600660205260409020600d015460ff16155b80156104a757506000818152600660205260409020600d0154610100900460ff16155b80156104ca57506000818152600660205260409020600b01546104c8612104565b105b156106da5760066000828152602001908152602001600020604051806101e00160405290816000820154815260200160018201805461050890612bf0565b80601f016020809104026020016040519081016040528092919081815260200182805461053490612bf0565b80156105815780601f1061055657610100808354040283529160200191610581565b820191906000526020600020905b81548152906001019060200180831161056457829003601f168201915b5050505050815260200160028201805461059a90612bf0565b80601f01602080910402602001604051908101604052809291908181526020018280546105c690612bf0565b80156106135780601f106105e857610100808354040283529160200191610613565b820191906000526020600020905b8154815290600101906020018083116105f657829003601f168201915b505050918352505060038201546001600160a01b03166020820152600482015460408201526005820154606082015260068201546080820152600782015460a0820152600882015460c0820152600982015460e0820152600a82015461010080830191909152600b830154610120830152600c830154610140830152600d9092015460ff808216151561016084015292900490911615156101809091015284836106bc81612bd5565b9450815181106106ce576106ce612c2b565b60200260200101819052505b806106e481612bd5565b915050610440565b50505090565b6060600060015b600354811161073b57600081815260076020526040902060010154841415610729578161072581612bd5565b9250505b8061073381612bd5565b9150506106f9565b508067ffffffffffffffff81111561075557610755612910565b6040519080825280602002602001820160405280156107a757816020015b6040805160808101825260008082526020808301829052928201819052606082015282526000199092019101816107735790505b509150600060015b600354811161087257600081815260076020526040902060010154851415610860576000858152600d60209081526040808320848452600783528184206002908101546001600160a01b0390811686529184529382902082516080810184528154815260018201549092169382019390935292820154908301526003015460ff1615156060820152848361084281612bd5565b94508151811061085457610854612c2b565b60200260200101819052505b8061086a81612bd5565b9150506107af565b505050919050565b6060600060015b60025481116108d7573360008181526008602090815260408083208584529091529020600101546001600160a01b031614156108c557816108c181612bd5565b9250505b806108cf81612bd5565b915050610881565b508067ffffffffffffffff8111156108f1576108f1612910565b60405190808252806020026020018201604052801561095057816020015b6040805160c081018252600080825260208083018290529282018190526060808301829052608083015260a0820152825260001990920191018161090f5790505b509150600060015b60025481116106ec573360008181526008602090815260408083208584529091529020600101546001600160a01b03161415610abf57336000908152600860209081526040808320848452825291829020825160c0810184528154815260018201546001600160a01b0381169382019390935260ff600160a01b84048116151594820194909452600160a81b90920490921615156060820152600282018054919291608084019190610a0990612bf0565b80601f0160208091040260200160405190810160405280929190818152602001828054610a3590612bf0565b8015610a825780601f10610a5757610100808354040283529160200191610a82565b820191906000526020600020905b815481529060010190602001808311610a6557829003601f168201915b50505050508152602001600382015481525050848380610aa190612bd5565b945081518110610ab357610ab3612c2b565b60200260200101819052505b80610ac981612bd5565b915050610958565b6000818152600a602052604090205460ff16610b085760405162461bcd60e51b8152600401610aff90612c41565b60405180910390fd5b60008181526009602090815260408083206001600160a01b038616845290915290205460ff1615610b7b5760405162461bcd60e51b815260206004820152601e60248201527f506c6179657220697320616c726561647920696e20746869732067616d6500006044820152606401610aff565b6040518060c00160405280828152602001836001600160a01b03168152602001600015158152602001600015158152602001600660008481526020019081526020016000206001018054610bce90612bf0565b80601f0160208091040260200160405190810160405280929190818152602001828054610bfa90612bf0565b8015610c475780601f10610c1c57610100808354040283529160200191610c47565b820191906000526020600020905b815481529060010190602001808311610c2a57829003601f168201915b5050509183525050600083815260066020908152604080832060090154938201939093526001600160a01b0380871683526008825283832086845282529183902084518155848201516001820180549587015160608801511515600160a81b0260ff60a81b19911515600160a01b026001600160a81b03199098169390961692909217959095171692909217909255608083015180519192610cf192600285019290910190612534565b5060a082015181600301559050505050565b6000818152600a602052604090205460ff16610d315760405162461bcd60e51b8152600401610aff90612c41565b600081815260066020526040902060090154341015610d925760405162461bcd60e51b815260206004820152601c60248201527f496e737566666369656e742066756e647320666f72207374616b6573000000006044820152606401610aff565b3360008181526008602090815260408083208584529091529020600101546001600160a01b031614610dfc5760405162461bcd60e51b8152602060048201526013602482015272556e617574686f72697a656420656e7469747960681b6044820152606401610aff565b336000908152600860209081526040808320848452909152902060010154600160a01b900460ff1615610e675760405162461bcd60e51b8152602060048201526013602482015272141c995d9a5bdd5b1e481c995cdc1bdb991959606a1b6044820152606401610aff565b6000610e7282612123565b905080610eba5760405162461bcd60e51b8152602060048201526016602482015275141b185e595c8818dc99585d1a5bdb8819985a5b195960521b6044820152606401610aff565b5033600090815260086020908152604080832093835292905220600101805461ffff60a01b191661010160a01b179055565b60008281526006602052604090206008810154600590910154610f10906001612c6e565b14610f565760405162461bcd60e51b8152602060048201526016602482015275139bdd08195b9bdd59da081c1b185e595c9cc81e595d60521b6044820152606401610aff565b6000828152600d6020908152604080832033845290915290206003015460ff1615610fc35760405162461bcd60e51b815260206004820152601760248201527f506c6179657220616c7265616479207265636f726465640000000000000000006044820152606401610aff565b6000828152600660205260409020600a0154610fdd612104565b1015801561100257506000828152600660205260409020600b0154611000612104565b105b61104e5760405162461bcd60e51b815260206004820152601c60248201527f47616d6520706c6179206d75737420626520696e2073657373696f6e000000006044820152606401610aff565b6000918252600d602090815260408084203385529091529091206002810191909155600301805460ff19166001179055565b6000818152600a602052604090205460ff166110ae5760405162461bcd60e51b8152600401610aff90612c41565b3360008181526008602090815260408083208584529091529020600101546001600160a01b0316146111225760405162461bcd60e51b815260206004820181905260248201527f596f7520617265206e6f7420696e766974656420746f20746869732067616d656044820152606401610aff565b336000908152600860209081526040808320848452909152902060010154600160a01b900460ff16156111975760405162461bcd60e51b815260206004820152601e60248201527f496e7669746174696f6e20697320616c72656164792072656a656374656400006044820152606401610aff565b33600090815260086020908152604080832093835292905220600101805460ff60a01b1916600160a01b179055565b6111ce61220f565b6111d86000612269565b565b6111e26124b1565b60066000838152602001908152602001600020604051806101e00160405290816000820154815260200160018201805461121b90612bf0565b80601f016020809104026020016040519081016040528092919081815260200182805461124790612bf0565b80156112945780601f1061126957610100808354040283529160200191611294565b820191906000526020600020905b81548152906001019060200180831161127757829003601f168201915b505050505081526020016002820180546112ad90612bf0565b80601f01602080910402602001604051908101604052809291908181526020018280546112d990612bf0565b80156113265780601f106112fb57610100808354040283529160200191611326565b820191906000526020600020905b81548152906001019060200180831161130957829003601f168201915b505050918352505060038201546001600160a01b03166020820152600482015460408201526005820154606082015260068201546080820152600782015460a0820152600882015460c0820152600982015460e0820152600a82015461010080830191909152600b830154610120830152600c830154610140830152600d9092015460ff808216151561016084015292900490911615156101809091015292915050565b805160609060005b6113dd600183612c86565b8110156116375760005b60016113f38385612c86565b6113fd9190612c86565b8110156116245784818151811061141657611416612c2b565b6020026020010151606001518015611452575084611435826001612c6e565b8151811061144557611445612c2b565b6020026020010151606001515b156115335784611463826001612c6e565b8151811061147357611473612c2b565b60200260200101516040015185828151811061149157611491612c2b565b602002602001015160400151111561152e5760008582815181106114b7576114b7612c2b565b60200260200101519050858260016114cf9190612c6e565b815181106114df576114df612c2b565b60200260200101518683815181106114f9576114f9612c2b565b60209081029190910101528086611511846001612c6e565b8151811061152157611521612c2b565b6020026020010181905250505b611612565b84818151811061154557611545612c2b565b602002602001015160600151158015611582575084611565826001612c6e565b8151811061157557611575612c2b565b6020026020010151606001515b1561161257600085828151811061159b5761159b612c2b565b60200260200101519050858260016115b39190612c6e565b815181106115c3576115c3612c2b565b60200260200101518683815181106115dd576115dd612c2b565b602090810291909101015280866115f5846001612c6e565b8151811061160557611605612c2b565b6020026020010181905250505b8061161c81612bd5565b9150506113e7565b508061162f81612bd5565b9150506113d2565b509192915050565b6060600060015b60025481116116ad576000818152600660205260409020600d015460ff1615801561168857506000818152600660205260409020600d0154610100900460ff16155b1561169b578161169781612bd5565b9250505b806116a581612bd5565b915050611646565b508067ffffffffffffffff8111156116c7576116c7612910565b60405190808252806020026020018201604052801561170057816020015b6116ed6124b1565b8152602001906001900390816116e55790505b509150600060015b60025481116106ec576000818152600660205260409020600d015460ff1615801561174a57506000818152600660205260409020600d0154610100900460ff16155b1561195a5760066000828152602001908152602001600020604051806101e00160405290816000820154815260200160018201805461178890612bf0565b80601f01602080910402602001604051908101604052809291908181526020018280546117b490612bf0565b80156118015780601f106117d657610100808354040283529160200191611801565b820191906000526020600020905b8154815290600101906020018083116117e457829003601f168201915b5050505050815260200160028201805461181a90612bf0565b80601f016020809104026020016040519081016040528092919081815260200182805461184690612bf0565b80156118935780601f1061186857610100808354040283529160200191611893565b820191906000526020600020905b81548152906001019060200180831161187657829003601f168201915b505050918352505060038201546001600160a01b03166020820152600482015460408201526005820154606082015260068201546080820152600782015460a0820152600882015460c0820152600982015460e0820152600a82015461010080830191909152600b830154610120830152600c830154610140830152600d9092015460ff8082161515610160840152929004909116151561018090910152848361193c81612bd5565b94508151811061194e5761194e612c2b565b60200260200101819052505b8061196481612bd5565b915050611708565b600034116119bc5760405162461bcd60e51b815260206004820152601760248201527f5374616b652066756e64732069732072657175697265640000000000000000006044820152606401610aff565b60018511611a185760405162461bcd60e51b8152602060048201526024808201527f506172746974696370616e7473206d7573742062652067726561746572207468604482015263616e203160e01b6064820152608401610aff565b6005831015611a745760405162461bcd60e51b815260206004820152602260248201527f4368616c6c656e676573206d757374206e6f74206265206c657373207468616e604482015261203560f01b6064820152608401610aff565b6000875111611aba5760405162461bcd60e51b81526020600482015260126024820152715469746c652069732072657175697265642160701b6044820152606401610aff565b6000865111611b0b5760405162461bcd60e51b815260206004820152601860248201527f4465736372697074696f6e2069732072657175697265642100000000000000006044820152606401610aff565b60008211611b675760405162461bcd60e51b8152602060048201526024808201527f53746172742064617465206d7573742062652067726561746572207468616e206044820152637a65726f60e01b6064820152608401610aff565b818111611bc75760405162461bcd60e51b815260206004820152602860248201527f456e642064617465206d7573742062652067726561746572207468616e207374604482015267617274206461746560c01b6064820152608401610aff565b60008411611c175760405162461bcd60e51b815260206004820152601b60248201527f4e756d626572204f662077696e6e6572732072657175697265642100000000006044820152606401610aff565b611c25600280546001019055565b6000611c3060025490565b90506000611c44828a8a8a8a8a8a8a6122b9565b905080611c8a5760405162461bcd60e51b815260206004820152601460248201527311d85b594818dc99585d1a5bdb8819985a5b195960621b6044820152606401610aff565b611c9382612123565b905080611cdb5760405162461bcd60e51b8152602060048201526016602482015275141b185e595c8818dc99585d1a5bdb8819985a5b195960521b6044820152606401610aff565b505050505050505050565b6000818152600a602052604090205460ff16611d145760405162461bcd60e51b8152600401610aff90612c41565b6000818152600660205260409020600b0154611d2e612104565b11611d735760405162461bcd60e51b815260206004820152601560248201527423b0b6b29039ba34b6361034b71039b2b9b9b4b7b760591b6044820152606401610aff565b6000818152600660205260409020600d0154610100900460ff1615611dd25760405162461bcd60e51b815260206004820152601560248201527411d85b5948185b1c9958591e481c185a59081bdd5d605a1b6044820152606401610aff565b6005546000828152600660205260408120600901549091606491611df69190612c9d565b611e009190612cbc565b60008381526006602052604081206009015491925090611e21908390612c86565b9050611e3e611e386000546001600160a01b031690565b8361244c565b611e49600283612cbc565b611e539082612c86565b600084815260066020526040902060030154909150611e85906001600160a01b0316611e80600285612cbc565b61244c565b600060015b6003548111611ecc57600081815260076020526040902060010154851415611eba5781611eb681612bd5565b9250505b80611ec481612bd5565b915050611e8a565b5060008167ffffffffffffffff811115611ee857611ee8612910565b604051908082528060200260200182016040528015611f3a57816020015b604080516080810182526000808252602080830182905292820181905260608201528252600019909201910181611f065790505b509050600060015b600354811161200557600081815260076020526040902060010154871415611ff3576000878152600d60209081526040808320848452600783528184206002908101546001600160a01b0390811686529184529382902082516080810184528154815260018201549092169382019390935292820154908301526003015460ff16151560608201528383611fd581612bd5565b945081518110611fe757611fe7612c2b565b60200260200101819052505b80611ffd81612bd5565b915050611f42565b5061200f826113ca565b915060005b6000878152600660205260409020600501548110156120825761207083828151811061204257612042612c2b565b602002602001015160200151600660008a81526020019081526020016000206005015487611e809190612cbc565b8061207a81612bd5565b915050612014565b50505050505050565b61209361220f565b6001600160a01b0381166120f85760405162461bcd60e51b815260206004820152602660248201527f4f776e61626c653a206e6577206f776e657220697320746865207a65726f206160448201526564647265737360d01b6064820152608401610aff565b61210181612269565b50565b6000612112426103e8612c9d565b61211e906103e8612c6e565b905090565b6000612133600380546001019055565b600061213e60035490565b604080516060810182528281526020808201878152338385018181526000878152600785528681209551865592516001808701919091559051600290950180546001600160a01b0319166001600160a01b0390961695909517909455888252600983528482209082528252838120805460ff199081168517909155858252600b83528482208054909116909317909255868252600690529081206008018054929350906121ea83612bd5565b919050555034600460008282546122019190612c6e565b909155506001949350505050565b6000546001600160a01b031633146111d85760405162461bcd60e51b815260206004820181905260248201527f4f776e61626c653a2063616c6c6572206973206e6f7420746865206f776e65726044820152606401610aff565b600080546001600160a01b038381166001600160a01b0319831681178455604051919092169283917f8be0079c531659141344cd1fd0a4f28419497f9722a3daafe3b4186f6b6457e09190a35050565b60006122c36124b1565b89815260208101899052604081018890523360608201526080810187905260c0810185905260016101008201523461012082015260a0810186905261014081018490526101608101839052612316612104565b61018082015260008a815260066020908152604090912082518155818301518051849361234a926001850192910190612534565b5060408201518051612366916002840191602090910190612534565b5060608201516003820180546001600160a01b0319166001600160a01b039092169190911790556080820151600482015560a0820151600582015560c0820151600682015560e082015160078201556101008083015160088301556101208301516009830155610140830151600a80840191909155610160840151600b840155610180840151600c8401556101a0840151600d90930180546101c09095015161ffff1990951693151561ff0019169390931793151590910292909217905560009a8b5260205250506040909720805460ff19166001908117909155979650505050505050565b6000826001600160a01b03168260405160006040518083038185875af1925050503d8060008114612499576040519150601f19603f3d011682016040523d82523d6000602084013e61249e565b606091505b50509050806124ac57600080fd5b505050565b604051806101e0016040528060008152602001606081526020016060815260200160006001600160a01b031681526020016000815260200160008152602001600081526020016000815260200160008152602001600081526020016000815260200160008152602001600081526020016000151581526020016000151581525090565b82805461254090612bf0565b90600052602060002090601f01602090048101928261256257600085556125a8565b82601f1061257b57805160ff19168380011785556125a8565b828001600101855582156125a8579182015b828111156125a857825182559160200191906001019061258d565b506125b49291506125b8565b5090565b5b808211156125b457600081556001016125b9565b6000815180845260005b818110156125f3576020818501810151868301820152016125d7565b81811115612605576000602083870101525b50601f01601f19169290920160200192915050565b60006101e082518452602083015181602086015261263a828601826125cd565b9150506040830151848203604086015261265482826125cd565b915050606083015161267160608601826001600160a01b03169052565b506080838101519085015260a0808401519085015260c0808401519085015260e08084015190850152610100808401519085015261012080840151908501526101408084015190850152610160808401519085015261018080840151908501526101a0808401511515908501526101c092830151151592909301919091525090565b6000602080830181845280855180835260408601915060408160051b870101925083870160005b8281101561274857603f1988860301845261273685835161261a565b9450928501929085019060010161271a565b5092979650505050505050565b60006020828403121561276757600080fd5b5035919050565b602080825282518282018190526000919060409081850190868401855b828110156127d057815180518552868101516001600160a01b03168786015285810151868601526060908101511515908501526080909301929085019060010161278b565b5091979650505050505050565b60006020808301818452808551808352604092508286019150828160051b87010184880160005b8381101561288057888303603f19018552815180518452878101516001600160a01b0316888501528681015115158785015260608082015115159085015260808082015160c0828701819052919061285e838801826125cd565b60a0948501519790940196909652505094870194925090860190600101612804565b509098975050505050505050565b80356001600160a01b03811681146128a557600080fd5b919050565b600080604083850312156128bd57600080fd5b6128c68361288e565b946020939093013593505050565b600080604083850312156128e757600080fd5b50508035926020909101359150565b602081526000612909602083018461261a565b9392505050565b634e487b7160e01b600052604160045260246000fd5b6040516080810167ffffffffffffffff8111828210171561294957612949612910565b60405290565b604051601f8201601f1916810167ffffffffffffffff8111828210171561297857612978612910565b604052919050565b6000602080838503121561299357600080fd5b823567ffffffffffffffff808211156129ab57600080fd5b818501915085601f8301126129bf57600080fd5b8135818111156129d1576129d1612910565b6129df848260051b0161294f565b818152848101925060079190911b8301840190878211156129ff57600080fd5b928401925b81841015612a6d5760808489031215612a1d5760008081fd5b612a25612926565b84358152612a3486860161288e565b81870152604085810135908201526060808601358015158114612a575760008081fd5b9082015283526080939093019291840191612a04565b979650505050505050565b600082601f830112612a8957600080fd5b813567ffffffffffffffff811115612aa357612aa3612910565b612ab6601f8201601f191660200161294f565b818152846020838601011115612acb57600080fd5b816020850160208301376000918101602001919091529392505050565b600080600080600080600060e0888a031215612b0357600080fd5b873567ffffffffffffffff80821115612b1b57600080fd5b612b278b838c01612a78565b985060208a0135915080821115612b3d57600080fd5b50612b4a8a828b01612a78565b979a9799505050506040860135956060810135956080820135955060a0820135945060c09091013592509050565b600060208284031215612b8a57600080fd5b6129098261288e565b60008060408385031215612ba657600080fd5b82359150612bb66020840161288e565b90509250929050565b634e487b7160e01b600052601160045260246000fd5b6000600019821415612be957612be9612bbf565b5060010190565b600181811c90821680612c0457607f821691505b60208210811415612c2557634e487b7160e01b600052602260045260246000fd5b50919050565b634e487b7160e01b600052603260045260246000fd5b60208082526013908201527211d85b5948191bd95cc81b9bdd08195e1a5cdd606a1b604082015260600190565b60008219821115612c8157612c81612bbf565b500190565b600082821015612c9857612c98612bbf565b500390565b6000816000190483118215151615612cb757612cb7612bbf565b500290565b600082612cd957634e487b7160e01b600052601260045260246000fd5b50049056fea2646970667358221220cd47dfcf9708ab60acec91efbf83013235a6bfdcb9f865ca081f35679097c2e564736f6c634300080b0033",
  "linkReferences": {},
  "deployedLinkReferences": {}
}