{
  "_format": "hh-sol-artifact-1",
  "contractName": "PlayToEarn",
  "sourceName": "src/contracts/PlayToEarn.sol",
  "abi": [
    {
      "anonymous": false,
      "inputs": [
        {
          "indexed": true,
          "internalType": "address",
          "name": "previousOwner",
          "type": "address"
        },
        {
          "indexed": true,
          "internalType": "address",
          "name": "newOwner",
          "type": "address"
        }
      ],
      "name": "OwnershipTransferred",
      "type": "event"
    },
    {
      "inputs": [
        {
          "internalType": "uint256",
          "name": "gameId",
          "type": "uint256"
        }
      ],
      "name": "acceptInvitation",
      "outputs": [],
      "stateMutability": "payable",
      "type": "function"
    },
    {
      "inputs": [
        {
          "internalType": "string",
          "name": "title",
          "type": "string"
        },
        {
          "internalType": "string",
          "name": "description",
          "type": "string"
        },
        {
          "internalType": "uint256",
          "name": "participants",
          "type": "uint256"
        },
        {
          "internalType": "uint256",
          "name": "numberOfWinners",
          "type": "uint256"
        },
        {
          "internalType": "uint256",
          "name": "challenges",
          "type": "uint256"
        },
        {
          "internalType": "uint256",
          "name": "startDate",
          "type": "uint256"
        },
        {
          "internalType": "uint256",
          "name": "endDate",
          "type": "uint256"
        }
      ],
      "name": "createGame",
      "outputs": [],
      "stateMutability": "payable",
      "type": "function"
    },
    {
      "inputs": [
        {
          "internalType": "uint256",
          "name": "id",
          "type": "uint256"
        }
      ],
      "name": "getGame",
      "outputs": [
        {
          "components": [
            {
              "internalType": "uint256",
              "name": "id",
              "type": "uint256"
            },
            {
              "internalType": "string",
              "name": "title",
              "type": "string"
            },
            {
              "internalType": "string",
              "name": "description",
              "type": "string"
            },
            {
              "internalType": "address",
              "name": "owner",
              "type": "address"
            },
            {
              "internalType": "uint256",
              "name": "participants",
              "type": "uint256"
            },
            {
              "internalType": "uint256",
              "name": "numberOfWinners",
              "type": "uint256"
            },
            {
              "internalType": "uint256",
              "name": "challenges",
              "type": "uint256"
            },
            {
              "internalType": "uint256",
              "name": "plays",
              "type": "uint256"
            },
            {
              "internalType": "uint256",
              "name": "acceptees",
              "type": "uint256"
            },
            {
              "internalType": "uint256",
              "name": "stake",
              "type": "uint256"
            },
            {
              "internalType": "uint256",
              "name": "startDate",
              "type": "uint256"
            },
            {
              "internalType": "uint256",
              "name": "endDate",
              "type": "uint256"
            },
            {
              "internalType": "uint256",
              "name": "timestamp",
              "type": "uint256"
            },
            {
              "internalType": "bool",
              "name": "deleted",
              "type": "bool"
            },
            {
              "internalType": "bool",
              "name": "paidOut",
              "type": "bool"
            }
          ],
          "internalType": "struct PlayToEarn.GameStruct",
          "name": "",
          "type": "tuple"
        }
      ],
      "stateMutability": "view",
      "type": "function"
    },
    {
      "inputs": [],
      "name": "getGames",
      "outputs": [
        {
          "components": [
            {
              "internalType": "uint256",
              "name": "id",
              "type": "uint256"
            },
            {
              "internalType": "string",
              "name": "title",
              "type": "string"
            },
            {
              "internalType": "string",
              "name": "description",
              "type": "string"
            },
            {
              "internalType": "address",
              "name": "owner",
              "type": "address"
            },
            {
              "internalType": "uint256",
              "name": "participants",
              "type": "uint256"
            },
            {
              "internalType": "uint256",
              "name": "numberOfWinners",
              "type": "uint256"
            },
            {
              "internalType": "uint256",
              "name": "challenges",
              "type": "uint256"
            },
            {
              "internalType": "uint256",
              "name": "plays",
              "type": "uint256"
            },
            {
              "internalType": "uint256",
              "name": "acceptees",
              "type": "uint256"
            },
            {
              "internalType": "uint256",
              "name": "stake",
              "type": "uint256"
            },
            {
              "internalType": "uint256",
              "name": "startDate",
              "type": "uint256"
            },
            {
              "internalType": "uint256",
              "name": "endDate",
              "type": "uint256"
            },
            {
              "internalType": "uint256",
              "name": "timestamp",
              "type": "uint256"
            },
            {
              "internalType": "bool",
              "name": "deleted",
              "type": "bool"
            },
            {
              "internalType": "bool",
              "name": "paidOut",
              "type": "bool"
            }
          ],
          "internalType": "struct PlayToEarn.GameStruct[]",
          "name": "ActiveGames",
          "type": "tuple[]"
        }
      ],
      "stateMutability": "view",
      "type": "function"
    },
    {
      "inputs": [],
      "name": "getInvitations",
      "outputs": [
        {
          "components": [
            {
              "internalType": "address",
              "name": "account",
              "type": "address"
            },
            {
              "internalType": "bool",
              "name": "responded",
              "type": "bool"
            },
            {
              "internalType": "string",
              "name": "title",
              "type": "string"
            }
          ],
          "internalType": "struct PlayToEarn.InvitationStruct[]",
          "name": "Invitations",
          "type": "tuple[]"
        }
      ],
      "stateMutability": "view",
      "type": "function"
    },
    {
      "inputs": [
        {
          "internalType": "uint256",
          "name": "gameId",
          "type": "uint256"
        }
      ],
      "name": "getScores",
      "outputs": [
        {
          "components": [
            {
              "internalType": "uint256",
              "name": "gameId",
              "type": "uint256"
            },
            {
              "internalType": "address",
              "name": "player",
              "type": "address"
            },
            {
              "internalType": "uint256",
              "name": "score",
              "type": "uint256"
            },
            {
              "internalType": "bool",
              "name": "played",
              "type": "bool"
            }
          ],
          "internalType": "struct PlayToEarn.PlayerScoreSheetStruct[]",
          "name": "Scores",
          "type": "tuple[]"
        }
      ],
      "stateMutability": "view",
      "type": "function"
    },
    {
      "inputs": [
        {
          "internalType": "address",
          "name": "playerAccount",
          "type": "address"
        },
        {
          "internalType": "uint256",
          "name": "gameId",
          "type": "uint256"
        }
      ],
      "name": "invitePlayer",
      "outputs": [],
      "stateMutability": "nonpayable",
      "type": "function"
    },
    {
      "inputs": [
        {
          "internalType": "uint256",
          "name": "gameId",
          "type": "uint256"
        },
        {
          "internalType": "address",
          "name": "player",
          "type": "address"
        }
      ],
      "name": "isPlayerListed",
      "outputs": [
        {
          "internalType": "bool",
          "name": "",
          "type": "bool"
        }
      ],
      "stateMutability": "view",
      "type": "function"
    },
    {
      "inputs": [],
      "name": "owner",
      "outputs": [
        {
          "internalType": "address",
          "name": "",
          "type": "address"
        }
      ],
      "stateMutability": "view",
      "type": "function"
    },
    {
      "inputs": [
        {
          "internalType": "uint256",
          "name": "gameId",
          "type": "uint256"
        }
      ],
      "name": "payout",
      "outputs": [],
      "stateMutability": "nonpayable",
      "type": "function"
    },
    {
      "inputs": [
        {
          "internalType": "uint256",
          "name": "gameId",
          "type": "uint256"
        },
        {
          "internalType": "uint256",
          "name": "score",
          "type": "uint256"
        }
      ],
      "name": "recordScore",
      "outputs": [],
      "stateMutability": "nonpayable",
      "type": "function"
    },
    {
      "inputs": [
        {
          "internalType": "uint256",
          "name": "gameId",
          "type": "uint256"
        }
      ],
      "name": "rejectInvitation",
      "outputs": [],
      "stateMutability": "nonpayable",
      "type": "function"
    },
    {
      "inputs": [],
      "name": "renounceOwnership",
      "outputs": [],
      "stateMutability": "nonpayable",
      "type": "function"
    },
    {
      "inputs": [
        {
          "components": [
            {
              "internalType": "uint256",
              "name": "gameId",
              "type": "uint256"
            },
            {
              "internalType": "address",
              "name": "player",
              "type": "address"
            },
            {
              "internalType": "uint256",
              "name": "score",
              "type": "uint256"
            },
            {
              "internalType": "bool",
              "name": "played",
              "type": "bool"
            }
          ],
          "internalType": "struct PlayToEarn.PlayerScoreSheetStruct[]",
          "name": "playersScores",
          "type": "tuple[]"
        }
      ],
      "name": "sortScores",
      "outputs": [
        {
          "components": [
            {
              "internalType": "uint256",
              "name": "gameId",
              "type": "uint256"
            },
            {
              "internalType": "address",
              "name": "player",
              "type": "address"
            },
            {
              "internalType": "uint256",
              "name": "score",
              "type": "uint256"
            },
            {
              "internalType": "bool",
              "name": "played",
              "type": "bool"
            }
          ],
          "internalType": "struct PlayToEarn.PlayerScoreSheetStruct[]",
          "name": "",
          "type": "tuple[]"
        }
      ],
      "stateMutability": "pure",
      "type": "function"
    },
    {
      "inputs": [
        {
          "internalType": "address",
          "name": "newOwner",
          "type": "address"
        }
      ],
      "name": "transferOwnership",
      "outputs": [],
      "stateMutability": "nonpayable",
      "type": "function"
    }
  ],
  "bytecode": "0x60806040526706f05b59d3b2000060055534801561001c57600080fd5b506100263361002f565b6001805561007f565b600080546001600160a01b038381166001600160a01b0319831681178455604051919092169283917f8be0079c531659141344cd1fd0a4f28419497f9722a3daafe3b4186f6b6457e09190a35050565b61285a8061008e6000396000f3fe6080604052600436106100e85760003560e01c80638da5cb5b1161008a578063d4c33fe911610059578063d4c33fe914610266578063e115234314610279578063f2fde38b14610299578063f51ba29d146102b957600080fd5b80638da5cb5b146101cf578063a2f77bcc146101f7578063a4e1370d14610224578063c04c59471461024457600080fd5b8063464c5b6c116100c6578063464c5b6c146101675780634e56799e1461017a5780635aa6bb3b1461019a578063715018a6146101ba57600080fd5b806304527d90146100ed57806316845714146101235780632246fe0b14610145575b600080fd5b3480156100f957600080fd5b5061010d61010836600461213a565b61030f565b60405161011a9190612153565b60405180910390f35b34801561012f57600080fd5b50610138610497565b60405161011a919061220f565b34801561015157600080fd5b506101656101603660046122b5565b6106b2565b005b61016561017536600461213a565b610884565b34801561018657600080fd5b506101656101953660046122df565b610a62565b3480156101a657600080fd5b506101656101b536600461213a565b610bf6565b3480156101c657600080fd5b50610165610d33565b3480156101db57600080fd5b506000546040516001600160a01b03909116815260200161011a565b34801561020357600080fd5b5061021761021236600461213a565b610d47565b60405161011a91906123da565b34801561023057600080fd5b5061010d61023f366004612464565b610f37565b34801561025057600080fd5b506102596111ac565b60405161011a919061255c565b61016561027436600461262e565b6114d9565b34801561028557600080fd5b5061016561029436600461213a565b611853565b3480156102a557600080fd5b506101656102b43660046126be565b611bf8565b3480156102c557600080fd5b506102ff6102d43660046126d9565b60009182526009602090815260408084206001600160a01b0393909316845291905290205460ff1690565b604051901515815260200161011a565b6060600060015b60035481116103585760008181526007602052604090206001015484141561034657816103428161271b565b9250505b806103508161271b565b915050610316565b508067ffffffffffffffff811115610372576103726123f4565b6040519080825280602002602001820160405280156103c457816020015b6040805160808101825260008082526020808301829052928201819052606082015282526000199092019101816103905790505b509150600060015b600354811161048f5760008181526007602052604090206001015485141561047d576000858152600d60209081526040808320848452600783528184206002908101546001600160a01b0390811686529184529382902082516080810184528154815260018201549092169382019390935292820154908301526003015460ff1615156060820152848361045f8161271b565b94508151811061047157610471612736565b60200260200101819052505b806104878161271b565b9150506103cc565b505050919050565b6060600060015b60025481116104f1573360008181526008602090815260408083208584529091529020546001600160a01b031614156104df57816104db8161271b565b9250505b806104e98161271b565b91505061049e565b508067ffffffffffffffff81111561050b5761050b6123f4565b60405190808252806020026020018201604052801561055857816020015b604080516060808201835260008083526020830152918101919091528152602001906001900390816105295790505b509150600060015b60025481116106ac573360008181526008602090815260408083208584529091529020546001600160a01b0316141561069a57336000908152600860209081526040808320848452825291829020825160608101845281546001600160a01b0381168252600160a01b900460ff1615159281019290925260018101805492939192918401916105ee9061274c565b80601f016020809104026020016040519081016040528092919081815260200182805461061a9061274c565b80156106675780601f1061063c57610100808354040283529160200191610667565b820191906000526020600020905b81548152906001019060200180831161064a57829003601f168201915b50505050508152505084838061067c9061271b565b94508151811061068e5761068e612736565b60200260200101819052505b806106a48161271b565b915050610560565b50505090565b6000818152600a602052604090205460ff166106e95760405162461bcd60e51b81526004016106e090612787565b60405180910390fd5b60008181526009602090815260408083206001600160a01b038616845290915290205460ff161561075c5760405162461bcd60e51b815260206004820152601e60248201527f506c6179657220697320616c726561647920696e20746869732067616d65000060448201526064016106e0565b604080516060810182526001600160a01b03841681526000602080830182905284825260069052829020600101805491928301916107999061274c565b80601f01602080910402602001604051908101604052809291908181526020018280546107c59061274c565b80156108125780601f106107e757610100808354040283529160200191610812565b820191906000526020600020905b8154815290600101906020018083116107f557829003601f168201915b5050509190925250506001600160a01b03808416600090815260086020908152604080832086845282529182902084518154868401511515600160a01b026001600160a81b0319909116919095161793909317835590830151805161087d926001850192019061201e565b5050505050565b6000818152600a602052604090205460ff166108b25760405162461bcd60e51b81526004016106e090612787565b6000818152600660205260409020600901543410156109135760405162461bcd60e51b815260206004820152601c60248201527f496e737566666369656e742066756e647320666f72207374616b65730000000060448201526064016106e0565b3360008181526008602090815260408083208584529091529020546001600160a01b03161461097a5760405162461bcd60e51b8152602060048201526013602482015272556e617574686f72697a656420656e7469747960681b60448201526064016106e0565b336000908152600860209081526040808320848452909152902054600160a01b900460ff16156109e25760405162461bcd60e51b8152602060048201526013602482015272141c995d9a5bdd5b1e481c995cdc1bdb991959606a1b60448201526064016106e0565b60006109ed82611c71565b905080610a355760405162461bcd60e51b8152602060048201526016602482015275141b185e595c8818dc99585d1a5bdb8819985a5b195960521b60448201526064016106e0565b5033600090815260086020908152604080832093835292905220805460ff60a01b1916600160a01b179055565b60008281526006602052604090206008810154600590910154610a869060016127b4565b14610acc5760405162461bcd60e51b8152602060048201526016602482015275139bdd08195b9bdd59da081c1b185e595c9cc81e595d60521b60448201526064016106e0565b6000828152600d6020908152604080832033845290915290206003015460ff1615610b395760405162461bcd60e51b815260206004820152601760248201527f506c6179657220616c7265616479207265636f7264656400000000000000000060448201526064016106e0565b6000828152600660205260409020600a0154610b53611d5d565b10158015610b7857506000828152600660205260409020600b0154610b76611d5d565b105b610bc45760405162461bcd60e51b815260206004820152601c60248201527f47616d6520706c6179206d75737420626520696e2073657373696f6e0000000060448201526064016106e0565b6000918252600d602090815260408084203385529091529091206002810191909155600301805460ff19166001179055565b6000818152600a602052604090205460ff16610c245760405162461bcd60e51b81526004016106e090612787565b3360008181526008602090815260408083208584529091529020546001600160a01b031614610c955760405162461bcd60e51b815260206004820181905260248201527f596f7520617265206e6f7420696e766974656420746f20746869732067616d6560448201526064016106e0565b336000908152600860209081526040808320848452909152902054600160a01b900460ff1615610d075760405162461bcd60e51b815260206004820152601e60248201527f496e7669746174696f6e20697320616c72656164792072656a6563746564000060448201526064016106e0565b33600090815260086020908152604080832093835292905220805460ff60a01b1916600160a01b179055565b610d3b611d7c565b610d456000611dd6565b565b610d4f6120a2565b60066000838152602001908152602001600020604051806101e001604052908160008201548152602001600182018054610d889061274c565b80601f0160208091040260200160405190810160405280929190818152602001828054610db49061274c565b8015610e015780601f10610dd657610100808354040283529160200191610e01565b820191906000526020600020905b815481529060010190602001808311610de457829003601f168201915b50505050508152602001600282018054610e1a9061274c565b80601f0160208091040260200160405190810160405280929190818152602001828054610e469061274c565b8015610e935780601f10610e6857610100808354040283529160200191610e93565b820191906000526020600020905b815481529060010190602001808311610e7657829003601f168201915b505050918352505060038201546001600160a01b03166020820152600482015460408201526005820154606082015260068201546080820152600782015460a0820152600882015460c0820152600982015460e0820152600a82015461010080830191909152600b830154610120830152600c830154610140830152600d9092015460ff808216151561016084015292900490911615156101809091015292915050565b805160609060005b610f4a6001836127cc565b8110156111a45760005b6001610f6083856127cc565b610f6a91906127cc565b81101561119157848181518110610f8357610f83612736565b6020026020010151606001518015610fbf575084610fa28260016127b4565b81518110610fb257610fb2612736565b6020026020010151606001515b156110a05784610fd08260016127b4565b81518110610fe057610fe0612736565b602002602001015160400151858281518110610ffe57610ffe612736565b602002602001015160400151111561109b57600085828151811061102457611024612736565b602002602001015190508582600161103c91906127b4565b8151811061104c5761104c612736565b602002602001015186838151811061106657611066612736565b6020908102919091010152808661107e8460016127b4565b8151811061108e5761108e612736565b6020026020010181905250505b61117f565b8481815181106110b2576110b2612736565b6020026020010151606001511580156110ef5750846110d28260016127b4565b815181106110e2576110e2612736565b6020026020010151606001515b1561117f57600085828151811061110857611108612736565b602002602001015190508582600161112091906127b4565b8151811061113057611130612736565b602002602001015186838151811061114a5761114a612736565b602090810291909101015280866111628460016127b4565b8151811061117257611172612736565b6020026020010181905250505b806111898161271b565b915050610f54565b508061119c8161271b565b915050610f3f565b509192915050565b6060600060015b600254811161121a576000818152600660205260409020600d015460ff161580156111f557506000818152600660205260409020600d0154610100900460ff16155b1561120857816112048161271b565b9250505b806112128161271b565b9150506111b3565b508067ffffffffffffffff811115611234576112346123f4565b60405190808252806020026020018201604052801561126d57816020015b61125a6120a2565b8152602001906001900390816112525790505b509150600060015b60025481116106ac576000818152600660205260409020600d015460ff161580156112b757506000818152600660205260409020600d0154610100900460ff16155b156114c75760066000828152602001908152602001600020604051806101e0016040529081600082015481526020016001820180546112f59061274c565b80601f01602080910402602001604051908101604052809291908181526020018280546113219061274c565b801561136e5780601f106113435761010080835404028352916020019161136e565b820191906000526020600020905b81548152906001019060200180831161135157829003601f168201915b505050505081526020016002820180546113879061274c565b80601f01602080910402602001604051908101604052809291908181526020018280546113b39061274c565b80156114005780601f106113d557610100808354040283529160200191611400565b820191906000526020600020905b8154815290600101906020018083116113e357829003601f168201915b505050918352505060038201546001600160a01b03166020820152600482015460408201526005820154606082015260068201546080820152600782015460a0820152600882015460c0820152600982015460e0820152600a82015461010080830191909152600b830154610120830152600c830154610140830152600d9092015460ff808216151561016084015292900490911615156101809091015284836114a98161271b565b9450815181106114bb576114bb612736565b60200260200101819052505b806114d18161271b565b915050611275565b600034116115295760405162461bcd60e51b815260206004820152601760248201527f5374616b652066756e647320697320726571756972656400000000000000000060448201526064016106e0565b600185116115855760405162461bcd60e51b8152602060048201526024808201527f506172746974696370616e7473206d7573742062652067726561746572207468604482015263616e203160e01b60648201526084016106e0565b60058310156115e15760405162461bcd60e51b815260206004820152602260248201527f4368616c6c656e676573206d757374206e6f74206265206c657373207468616e604482015261203560f01b60648201526084016106e0565b60008751116116275760405162461bcd60e51b81526020600482015260126024820152715469746c652069732072657175697265642160701b60448201526064016106e0565b60008651116116785760405162461bcd60e51b815260206004820152601860248201527f4465736372697074696f6e20697320726571756972656421000000000000000060448201526064016106e0565b600082116116d45760405162461bcd60e51b8152602060048201526024808201527f53746172742064617465206d7573742062652067726561746572207468616e206044820152637a65726f60e01b60648201526084016106e0565b8181116117345760405162461bcd60e51b815260206004820152602860248201527f456e642064617465206d7573742062652067726561746572207468616e207374604482015267617274206461746560c01b60648201526084016106e0565b600084116117845760405162461bcd60e51b815260206004820152601b60248201527f4e756d626572204f662077696e6e65727320726571756972656421000000000060448201526064016106e0565b611792600280546001019055565b600061179d60025490565b905060006117b1828a8a8a8a8a8a8a611e26565b9050806117f75760405162461bcd60e51b815260206004820152601460248201527311d85b594818dc99585d1a5bdb8819985a5b195960621b60448201526064016106e0565b61180082611c71565b9050806118485760405162461bcd60e51b8152602060048201526016602482015275141b185e595c8818dc99585d1a5bdb8819985a5b195960521b60448201526064016106e0565b505050505050505050565b6000818152600a602052604090205460ff166118815760405162461bcd60e51b81526004016106e090612787565b6000818152600660205260409020600b015461189b611d5d565b116118e05760405162461bcd60e51b815260206004820152601560248201527423b0b6b29039ba34b6361034b71039b2b9b9b4b7b760591b60448201526064016106e0565b6000818152600660205260409020600d0154610100900460ff161561193f5760405162461bcd60e51b815260206004820152601560248201527411d85b5948185b1c9958591e481c185a59081bdd5d605a1b60448201526064016106e0565b600554600082815260066020526040812060090154909160649161196391906127e3565b61196d9190612802565b6000838152600660205260408120600901549192509061198e9083906127cc565b90506119ab6119a56000546001600160a01b031690565b83611fb9565b6119b6600283612802565b6119c090826127cc565b6000848152600660205260409020600301549091506119f2906001600160a01b03166119ed600285612802565b611fb9565b600060015b6003548111611a3957600081815260076020526040902060010154851415611a275781611a238161271b565b9250505b80611a318161271b565b9150506119f7565b5060008167ffffffffffffffff811115611a5557611a556123f4565b604051908082528060200260200182016040528015611aa757816020015b604080516080810182526000808252602080830182905292820181905260608201528252600019909201910181611a735790505b509050600060015b6003548111611b7257600081815260076020526040902060010154871415611b60576000878152600d60209081526040808320848452600783528184206002908101546001600160a01b0390811686529184529382902082516080810184528154815260018201549092169382019390935292820154908301526003015460ff16151560608201528383611b428161271b565b945081518110611b5457611b54612736565b60200260200101819052505b80611b6a8161271b565b915050611aaf565b50611b7c82610f37565b915060005b600087815260066020526040902060050154811015611bef57611bdd838281518110611baf57611baf612736565b602002602001015160200151600660008a815260200190815260200160002060050154876119ed9190612802565b80611be78161271b565b915050611b81565b50505050505050565b611c00611d7c565b6001600160a01b038116611c655760405162461bcd60e51b815260206004820152602660248201527f4f776e61626c653a206e6577206f776e657220697320746865207a65726f206160448201526564647265737360d01b60648201526084016106e0565b611c6e81611dd6565b50565b6000611c81600380546001019055565b6000611c8c60035490565b604080516060810182528281526020808201878152338385018181526000878152600785528681209551865592516001808701919091559051600290950180546001600160a01b0319166001600160a01b0390961695909517909455888252600983528482209082528252838120805460ff199081168517909155858252600b8352848220805490911690931790925586825260069052908120600801805492935090611d388361271b565b91905055503460046000828254611d4f91906127b4565b909155506001949350505050565b6000611d6b426103e86127e3565b611d77906103e86127b4565b905090565b6000546001600160a01b03163314610d455760405162461bcd60e51b815260206004820181905260248201527f4f776e61626c653a2063616c6c6572206973206e6f7420746865206f776e657260448201526064016106e0565b600080546001600160a01b038381166001600160a01b0319831681178455604051919092169283917f8be0079c531659141344cd1fd0a4f28419497f9722a3daafe3b4186f6b6457e09190a35050565b6000611e306120a2565b89815260208101899052604081018890523360608201526080810187905260c0810185905260016101008201523461012082015260a0810186905261014081018490526101608101839052611e83611d5d565b61018082015260008a8152600660209081526040909120825181558183015180518493611eb792600185019291019061201e565b5060408201518051611ed391600284019160209091019061201e565b5060608201516003820180546001600160a01b0319166001600160a01b039092169190911790556080820151600482015560a0820151600582015560c0820151600682015560e082015160078201556101008083015160088301556101208301516009830155610140830151600a80840191909155610160840151600b840155610180840151600c8401556101a0840151600d90930180546101c09095015161ffff1990951693151561ff0019169390931793151590910292909217905560009a8b5260205250506040909720805460ff19166001908117909155979650505050505050565b6000826001600160a01b03168260405160006040518083038185875af1925050503d8060008114612006576040519150601f19603f3d011682016040523d82523d6000602084013e61200b565b606091505b505090508061201957600080fd5b505050565b82805461202a9061274c565b90600052602060002090601f01602090048101928261204c5760008555612092565b82601f1061206557805160ff1916838001178555612092565b82800160010185558215612092579182015b82811115612092578251825591602001919060010190612077565b5061209e929150612125565b5090565b604051806101e0016040528060008152602001606081526020016060815260200160006001600160a01b031681526020016000815260200160008152602001600081526020016000815260200160008152602001600081526020016000815260200160008152602001600081526020016000151581526020016000151581525090565b5b8082111561209e5760008155600101612126565b60006020828403121561214c57600080fd5b5035919050565b602080825282518282018190526000919060409081850190868401855b828110156121b557815180518552868101516001600160a01b031687860152858101518686015260609081015115159085015260809093019290850190600101612170565b5091979650505050505050565b6000815180845260005b818110156121e8576020818501810151868301820152016121cc565b818111156121fa576000602083870101525b50601f01601f19169290920160200192915050565b60006020808301818452808551808352604092508286019150828160051b87010184880160005b8381101561228b57888303603f19018552815180516001600160a01b03168452878101511515888501528601516060878501819052612277818601836121c2565b968901969450505090860190600101612236565b509098975050505050505050565b80356001600160a01b03811681146122b057600080fd5b919050565b600080604083850312156122c857600080fd5b6122d183612299565b946020939093013593505050565b600080604083850312156122f257600080fd5b50508035926020909101359150565b60006101e0825184526020830151816020860152612321828601826121c2565b9150506040830151848203604086015261233b82826121c2565b915050606083015161235860608601826001600160a01b03169052565b506080838101519085015260a0808401519085015260c0808401519085015260e08084015190850152610100808401519085015261012080840151908501526101408084015190850152610160808401519085015261018080840151908501526101a0808401511515908501526101c092830151151592909301919091525090565b6020815260006123ed6020830184612301565b9392505050565b634e487b7160e01b600052604160045260246000fd5b6040516080810167ffffffffffffffff8111828210171561242d5761242d6123f4565b60405290565b604051601f8201601f1916810167ffffffffffffffff8111828210171561245c5761245c6123f4565b604052919050565b6000602080838503121561247757600080fd5b823567ffffffffffffffff8082111561248f57600080fd5b818501915085601f8301126124a357600080fd5b8135818111156124b5576124b56123f4565b6124c3848260051b01612433565b818152848101925060079190911b8301840190878211156124e357600080fd5b928401925b8184101561255157608084890312156125015760008081fd5b61250961240a565b84358152612518868601612299565b8187015260408581013590820152606080860135801515811461253b5760008081fd5b90820152835260809390930192918401916124e8565b979650505050505050565b6000602080830181845280855180835260408601915060408160051b870101925083870160005b828110156125b157603f1988860301845261259f858351612301565b94509285019290850190600101612583565b5092979650505050505050565b600082601f8301126125cf57600080fd5b813567ffffffffffffffff8111156125e9576125e96123f4565b6125fc601f8201601f1916602001612433565b81815284602083860101111561261157600080fd5b816020850160208301376000918101602001919091529392505050565b600080600080600080600060e0888a03121561264957600080fd5b873567ffffffffffffffff8082111561266157600080fd5b61266d8b838c016125be565b985060208a013591508082111561268357600080fd5b506126908a828b016125be565b979a9799505050506040860135956060810135956080820135955060a0820135945060c09091013592509050565b6000602082840312156126d057600080fd5b6123ed82612299565b600080604083850312156126ec57600080fd5b823591506126fc60208401612299565b90509250929050565b634e487b7160e01b600052601160045260246000fd5b600060001982141561272f5761272f612705565b5060010190565b634e487b7160e01b600052603260045260246000fd5b600181811c9082168061276057607f821691505b6020821081141561278157634e487b7160e01b600052602260045260246000fd5b50919050565b60208082526013908201527211d85b5948191bd95cc81b9bdd08195e1a5cdd606a1b604082015260600190565b600082198211156127c7576127c7612705565b500190565b6000828210156127de576127de612705565b500390565b60008160001904831182151516156127fd576127fd612705565b500290565b60008261281f57634e487b7160e01b600052601260045260246000fd5b50049056fea2646970667358221220d7f5243994ac814b3e25f59fbc499e5ebdee1bd205a7801a1297eb5de63dbadb64736f6c634300080b0033",
  "linkReferences": {},
  "deployedLinkReferences": {}
}