{
  "_format": "hh-sol-artifact-1",
  "contractName": "PlayToEarn",
  "sourceName": "src/contracts/PlayToEarn.sol",
  "abi": [
    {
      "anonymous": false,
      "inputs": [
        {
          "indexed": true,
          "internalType": "address",
          "name": "previousOwner",
          "type": "address"
        },
        {
          "indexed": true,
          "internalType": "address",
          "name": "newOwner",
          "type": "address"
        }
      ],
      "name": "OwnershipTransferred",
      "type": "event"
    },
    {
      "inputs": [
        {
          "internalType": "uint256",
          "name": "gameId",
          "type": "uint256"
        }
      ],
      "name": "acceptInvitation",
      "outputs": [],
      "stateMutability": "payable",
      "type": "function"
    },
    {
      "inputs": [
        {
          "internalType": "string",
          "name": "description",
          "type": "string"
        },
        {
          "internalType": "uint256",
          "name": "participants",
          "type": "uint256"
        },
        {
          "internalType": "uint256",
          "name": "numberOfWinners",
          "type": "uint256"
        },
        {
          "internalType": "uint256",
          "name": "startDate",
          "type": "uint256"
        },
        {
          "internalType": "uint256",
          "name": "endDate",
          "type": "uint256"
        }
      ],
      "name": "createGame",
      "outputs": [],
      "stateMutability": "payable",
      "type": "function"
    },
    {
      "inputs": [
        {
          "internalType": "uint256",
          "name": "id",
          "type": "uint256"
        }
      ],
      "name": "getGame",
      "outputs": [
        {
          "components": [
            {
              "internalType": "uint256",
              "name": "id",
              "type": "uint256"
            },
            {
              "internalType": "string",
              "name": "description",
              "type": "string"
            },
            {
              "internalType": "address",
              "name": "owner",
              "type": "address"
            },
            {
              "internalType": "uint256",
              "name": "participants",
              "type": "uint256"
            },
            {
              "internalType": "uint256",
              "name": "numberOfWinners",
              "type": "uint256"
            },
            {
              "internalType": "uint256",
              "name": "plays",
              "type": "uint256"
            },
            {
              "internalType": "uint256",
              "name": "acceptees",
              "type": "uint256"
            },
            {
              "internalType": "uint256",
              "name": "stake",
              "type": "uint256"
            },
            {
              "internalType": "uint256",
              "name": "startDate",
              "type": "uint256"
            },
            {
              "internalType": "uint256",
              "name": "endDate",
              "type": "uint256"
            },
            {
              "internalType": "uint256",
              "name": "timestamp",
              "type": "uint256"
            },
            {
              "internalType": "bool",
              "name": "deleted",
              "type": "bool"
            },
            {
              "internalType": "bool",
              "name": "paidOut",
              "type": "bool"
            }
          ],
          "internalType": "struct PlayToEarn.GameStruct",
          "name": "",
          "type": "tuple"
        }
      ],
      "stateMutability": "view",
      "type": "function"
    },
    {
      "inputs": [],
      "name": "getGames",
      "outputs": [
        {
          "components": [
            {
              "internalType": "uint256",
              "name": "id",
              "type": "uint256"
            },
            {
              "internalType": "string",
              "name": "description",
              "type": "string"
            },
            {
              "internalType": "address",
              "name": "owner",
              "type": "address"
            },
            {
              "internalType": "uint256",
              "name": "participants",
              "type": "uint256"
            },
            {
              "internalType": "uint256",
              "name": "numberOfWinners",
              "type": "uint256"
            },
            {
              "internalType": "uint256",
              "name": "plays",
              "type": "uint256"
            },
            {
              "internalType": "uint256",
              "name": "acceptees",
              "type": "uint256"
            },
            {
              "internalType": "uint256",
              "name": "stake",
              "type": "uint256"
            },
            {
              "internalType": "uint256",
              "name": "startDate",
              "type": "uint256"
            },
            {
              "internalType": "uint256",
              "name": "endDate",
              "type": "uint256"
            },
            {
              "internalType": "uint256",
              "name": "timestamp",
              "type": "uint256"
            },
            {
              "internalType": "bool",
              "name": "deleted",
              "type": "bool"
            },
            {
              "internalType": "bool",
              "name": "paidOut",
              "type": "bool"
            }
          ],
          "internalType": "struct PlayToEarn.GameStruct[]",
          "name": "ActiveGames",
          "type": "tuple[]"
        }
      ],
      "stateMutability": "view",
      "type": "function"
    },
    {
      "inputs": [],
      "name": "getInvitations",
      "outputs": [
        {
          "components": [
            {
              "internalType": "address",
              "name": "account",
              "type": "address"
            },
            {
              "internalType": "bool",
              "name": "responded",
              "type": "bool"
            }
          ],
          "internalType": "struct PlayToEarn.InvitationStruct[]",
          "name": "Invitations",
          "type": "tuple[]"
        }
      ],
      "stateMutability": "view",
      "type": "function"
    },
    {
      "inputs": [
        {
          "internalType": "uint256",
          "name": "gameId",
          "type": "uint256"
        }
      ],
      "name": "getScores",
      "outputs": [
        {
          "components": [
            {
              "internalType": "uint256",
              "name": "gameId",
              "type": "uint256"
            },
            {
              "internalType": "address",
              "name": "player",
              "type": "address"
            },
            {
              "internalType": "uint256",
              "name": "score",
              "type": "uint256"
            },
            {
              "internalType": "bool",
              "name": "played",
              "type": "bool"
            }
          ],
          "internalType": "struct PlayToEarn.PlayerScoreSheetStruct[]",
          "name": "Scores",
          "type": "tuple[]"
        }
      ],
      "stateMutability": "view",
      "type": "function"
    },
    {
      "inputs": [
        {
          "internalType": "address",
          "name": "playerAccount",
          "type": "address"
        },
        {
          "internalType": "uint256",
          "name": "gameId",
          "type": "uint256"
        }
      ],
      "name": "invitePlayer",
      "outputs": [],
      "stateMutability": "nonpayable",
      "type": "function"
    },
    {
      "inputs": [],
      "name": "owner",
      "outputs": [
        {
          "internalType": "address",
          "name": "",
          "type": "address"
        }
      ],
      "stateMutability": "view",
      "type": "function"
    },
    {
      "inputs": [
        {
          "internalType": "uint256",
          "name": "gameId",
          "type": "uint256"
        }
      ],
      "name": "payout",
      "outputs": [],
      "stateMutability": "nonpayable",
      "type": "function"
    },
    {
      "inputs": [
        {
          "internalType": "uint256",
          "name": "gameId",
          "type": "uint256"
        },
        {
          "internalType": "uint256",
          "name": "score",
          "type": "uint256"
        }
      ],
      "name": "recordScore",
      "outputs": [],
      "stateMutability": "nonpayable",
      "type": "function"
    },
    {
      "inputs": [
        {
          "internalType": "uint256",
          "name": "gameId",
          "type": "uint256"
        }
      ],
      "name": "rejectInvitation",
      "outputs": [],
      "stateMutability": "nonpayable",
      "type": "function"
    },
    {
      "inputs": [],
      "name": "renounceOwnership",
      "outputs": [],
      "stateMutability": "nonpayable",
      "type": "function"
    },
    {
      "inputs": [
        {
          "components": [
            {
              "internalType": "uint256",
              "name": "gameId",
              "type": "uint256"
            },
            {
              "internalType": "address",
              "name": "player",
              "type": "address"
            },
            {
              "internalType": "uint256",
              "name": "score",
              "type": "uint256"
            },
            {
              "internalType": "bool",
              "name": "played",
              "type": "bool"
            }
          ],
          "internalType": "struct PlayToEarn.PlayerScoreSheetStruct[]",
          "name": "playersScores",
          "type": "tuple[]"
        }
      ],
      "name": "sortScores",
      "outputs": [
        {
          "components": [
            {
              "internalType": "uint256",
              "name": "gameId",
              "type": "uint256"
            },
            {
              "internalType": "address",
              "name": "player",
              "type": "address"
            },
            {
              "internalType": "uint256",
              "name": "score",
              "type": "uint256"
            },
            {
              "internalType": "bool",
              "name": "played",
              "type": "bool"
            }
          ],
          "internalType": "struct PlayToEarn.PlayerScoreSheetStruct[]",
          "name": "",
          "type": "tuple[]"
        }
      ],
      "stateMutability": "pure",
      "type": "function"
    },
    {
      "inputs": [
        {
          "internalType": "address",
          "name": "newOwner",
          "type": "address"
        }
      ],
      "name": "transferOwnership",
      "outputs": [],
      "stateMutability": "nonpayable",
      "type": "function"
    }
  ],
  "bytecode": "0x60806040526706f05b59d3b2000060055534801561001c57600080fd5b506100263361002f565b6001805561007f565b600080546001600160a01b038381166001600160a01b0319831681178455604051919092169283917f8be0079c531659141344cd1fd0a4f28419497f9722a3daafe3b4186f6b6457e09190a35050565b6123918061008e6000396000f3fe6080604052600436106100dd5760003560e01c8063715018a61161007f578063a4e1370d11610059578063a4e1370d1461022c578063c04c59471461024c578063e11523431461026e578063f2fde38b1461028e57600080fd5b8063715018a6146101c25780638da5cb5b146101d7578063a2f77bcc146101ff57600080fd5b806342b52602116100bb57806342b526021461015c578063464c5b6c1461016f5780634e56799e146101825780635aa6bb3b146101a257600080fd5b806304527d90146100e257806316845714146101185780632246fe0b1461013a575b600080fd5b3480156100ee57600080fd5b506101026100fd366004611d3e565b6102ae565b60405161010f9190611d57565b60405180910390f35b34801561012457600080fd5b5061012d610436565b60405161010f9190611dc6565b34801561014657600080fd5b5061015a610155366004611e2f565b6105ab565b005b61015a61016a366004611ec9565b6106b3565b61015a61017d366004611d3e565b610989565b34801561018e57600080fd5b5061015a61019d366004611f7e565b610b67565b3480156101ae57600080fd5b5061015a6101bd366004611d3e565b610cfd565b3480156101ce57600080fd5b5061015a610e3a565b3480156101e357600080fd5b506000546040516001600160a01b03909116815260200161010f565b34801561020b57600080fd5b5061021f61021a366004611d3e565b610e4e565b60405161010f91906120ad565b34801561023857600080fd5b506101026102473660046120c7565b610fa1565b34801561025857600080fd5b50610261611216565b60405161010f91906121bf565b34801561027a57600080fd5b5061015a610289366004611d3e565b6114ec565b34801561029a57600080fd5b5061015a6102a9366004612221565b611846565b6060600060015b60035481116102f7576000818152600760205260409020600101548414156102e557816102e181612252565b9250505b806102ef81612252565b9150506102b5565b508067ffffffffffffffff81111561031157610311611e59565b60405190808252806020026020018201604052801561036357816020015b60408051608081018252600080825260208083018290529282018190526060820152825260001990920191018161032f5790505b509150600060015b600354811161042e5760008181526007602052604090206001015485141561041c576000858152600d60209081526040808320848452600783528184206002908101546001600160a01b0390811686529184529382902082516080810184528154815260018201549092169382019390935292820154908301526003015460ff161515606082015284836103fe81612252565b9450815181106104105761041061226d565b60200260200101819052505b8061042681612252565b91505061036b565b505050919050565b6060600060015b6002548111610490573360008181526008602090815260408083208584529091529020546001600160a01b0316141561047e578161047a81612252565b9250505b8061048881612252565b91505061043d565b508067ffffffffffffffff8111156104aa576104aa611e59565b6040519080825280602002602001820160405280156104ef57816020015b60408051808201909152600080825260208201528152602001906001900390816104c85790505b509150600060015b60025481116105a5573360008181526008602090815260408083208584529091529020546001600160a01b03161415610593573360009081526008602090815260408083208484528252918290208251808401909352546001600160a01b0381168352600160a01b900460ff16151590820152848361057581612252565b9450815181106105875761058761226d565b60200260200101819052505b8061059d81612252565b9150506104f7565b50505090565b6000818152600a602052604090205460ff166105e25760405162461bcd60e51b81526004016105d990612283565b60405180910390fd5b60008181526009602090815260408083206001600160a01b038616845290915290205460ff16156106555760405162461bcd60e51b815260206004820152601e60248201527f506c6179657220697320616c726561647920696e20746869732067616d65000060448201526064016105d9565b6040805180820182526001600160a01b03938416808252600060208084018281529282526008815284822095825294909452919092209151825491511515600160a01b026001600160a81b0319909216931692909217919091179055565b600034116107035760405162461bcd60e51b815260206004820152601760248201527f5374616b652066756e647320697320726571756972656400000000000000000060448201526064016105d9565b600184116107625760405162461bcd60e51b815260206004820152602660248201527f506172746974696370616e7473206d7573742062652067726561746572207468604482015265616e206f6e6560d01b60648201526084016105d9565b60008551116107b35760405162461bcd60e51b815260206004820152601860248201527f4465736372697074696f6e20697320726571756972656421000000000000000060448201526064016105d9565b6000821161080f5760405162461bcd60e51b8152602060048201526024808201527f53746172742064617465206d7573742062652067726561746572207468616e206044820152637a65726f60e01b60648201526084016105d9565b81811161086f5760405162461bcd60e51b815260206004820152602860248201527f456e642064617465206d7573742062652067726561746572207468616e207374604482015267617274206461746560c01b60648201526084016105d9565b600083116108bf5760405162461bcd60e51b815260206004820152601b60248201527f4e756d626572204f662077696e6e65727320726571756972656421000000000060448201526064016105d9565b6108cd600280546001019055565b60006108d860025490565b905060006108e982888888886118bf565b90508061092f5760405162461bcd60e51b815260206004820152601460248201527311d85b594818dc99585d1a5bdb8819985a5b195960621b60448201526064016105d9565b61093882611a12565b9050806109805760405162461bcd60e51b8152602060048201526016602482015275141b185e595c8818dc99585d1a5bdb8819985a5b195960521b60448201526064016105d9565b50505050505050565b6000818152600a602052604090205460ff166109b75760405162461bcd60e51b81526004016105d990612283565b600081815260066020526040902060070154341015610a185760405162461bcd60e51b815260206004820152601c60248201527f496e737566666369656e742066756e647320666f72207374616b65730000000060448201526064016105d9565b3360008181526008602090815260408083208584529091529020546001600160a01b031614610a7f5760405162461bcd60e51b8152602060048201526013602482015272556e617574686f72697a656420656e7469747960681b60448201526064016105d9565b336000908152600860209081526040808320848452909152902054600160a01b900460ff1615610ae75760405162461bcd60e51b8152602060048201526013602482015272141c995d9a5bdd5b1e481c995cdc1bdb991959606a1b60448201526064016105d9565b6000610af282611a12565b905080610b3a5760405162461bcd60e51b8152602060048201526016602482015275141b185e595c8818dc99585d1a5bdb8819985a5b195960521b60448201526064016105d9565b5033600090815260086020908152604080832093835292905220805460ff60a01b1916600160a01b179055565b600082815260066020819052604090912090810154600490910154610b8d9060016122b0565b14610bd35760405162461bcd60e51b8152602060048201526016602482015275139bdd08195b9bdd59da081c1b185e595c9cc81e595d60521b60448201526064016105d9565b6000828152600d6020908152604080832033845290915290206003015460ff1615610c405760405162461bcd60e51b815260206004820152601760248201527f506c6179657220616c7265616479207265636f7264656400000000000000000060448201526064016105d9565b600082815260066020526040902060080154610c5a611b00565b10158015610c7f5750600082815260066020526040902060090154610c7d611b00565b105b610ccb5760405162461bcd60e51b815260206004820152601c60248201527f47616d6520706c6179206d75737420626520696e2073657373696f6e0000000060448201526064016105d9565b6000918252600d602090815260408084203385529091529091206002810191909155600301805460ff19166001179055565b6000818152600a602052604090205460ff16610d2b5760405162461bcd60e51b81526004016105d990612283565b3360008181526008602090815260408083208584529091529020546001600160a01b031614610d9c5760405162461bcd60e51b815260206004820181905260248201527f596f7520617265206e6f7420696e766974656420746f20746869732067616d6560448201526064016105d9565b336000908152600860209081526040808320848452909152902054600160a01b900460ff1615610e0e5760405162461bcd60e51b815260206004820152601e60248201527f496e7669746174696f6e20697320616c72656164792072656a6563746564000060448201526064016105d9565b33600090815260086020908152604080832093835292905220805460ff60a01b1916600160a01b179055565b610e42611b21565b610e4c6000611b7b565b565b610e56611c30565b60066000838152602001908152602001600020604051806101a001604052908160008201548152602001600182018054610e8f906122c8565b80601f0160208091040260200160405190810160405280929190818152602001828054610ebb906122c8565b8015610f085780601f10610edd57610100808354040283529160200191610f08565b820191906000526020600020905b815481529060010190602001808311610eeb57829003601f168201915b505050918352505060028201546001600160a01b03166020820152600382015460408201526004820154606082015260058201546080820152600682015460a0820152600782015460c0820152600882015460e0820152600982015461010080830191909152600a830154610120830152600b9092015460ff808216151561014084015292900490911615156101609091015292915050565b805160609060005b610fb4600183612303565b81101561120e5760005b6001610fca8385612303565b610fd49190612303565b8110156111fb57848181518110610fed57610fed61226d565b602002602001015160600151801561102957508461100c8260016122b0565b8151811061101c5761101c61226d565b6020026020010151606001515b1561110a578461103a8260016122b0565b8151811061104a5761104a61226d565b6020026020010151604001518582815181106110685761106861226d565b602002602001015160400151111561110557600085828151811061108e5761108e61226d565b60200260200101519050858260016110a691906122b0565b815181106110b6576110b661226d565b60200260200101518683815181106110d0576110d061226d565b602090810291909101015280866110e88460016122b0565b815181106110f8576110f861226d565b6020026020010181905250505b6111e9565b84818151811061111c5761111c61226d565b60200260200101516060015115801561115957508461113c8260016122b0565b8151811061114c5761114c61226d565b6020026020010151606001515b156111e95760008582815181106111725761117261226d565b602002602001015190508582600161118a91906122b0565b8151811061119a5761119a61226d565b60200260200101518683815181106111b4576111b461226d565b602090810291909101015280866111cc8460016122b0565b815181106111dc576111dc61226d565b6020026020010181905250505b806111f381612252565b915050610fbe565b508061120681612252565b915050610fa9565b509192915050565b6060600060015b60025481116112a7576000818152600660205260409020600b015460ff1615801561125f57506000818152600660205260409020600b0154610100900460ff16155b8015611282575061126e611b00565b600082815260066020526040902060090154115b15611295578161129181612252565b9250505b8061129f81612252565b91505061121d565b508067ffffffffffffffff8111156112c1576112c1611e59565b6040519080825280602002602001820160405280156112fa57816020015b6112e7611c30565b8152602001906001900390816112df5790505b509150600060015b60025481116105a5576000818152600660205260409020600b015460ff1615801561134457506000818152600660205260409020600b0154610100900460ff16155b80156113675750611353611b00565b600082815260066020526040902060090154115b156114da5760066000828152602001908152602001600020604051806101a0016040529081600082015481526020016001820180546113a5906122c8565b80601f01602080910402602001604051908101604052809291908181526020018280546113d1906122c8565b801561141e5780601f106113f35761010080835404028352916020019161141e565b820191906000526020600020905b81548152906001019060200180831161140157829003601f168201915b505050918352505060028201546001600160a01b03166020820152600382015460408201526004820154606082015260058201546080820152600682015460a0820152600782015460c0820152600882015460e0820152600982015461010080830191909152600a830154610120830152600b9092015460ff808216151561014084015292900490911615156101609091015284836114bc81612252565b9450815181106114ce576114ce61226d565b60200260200101819052505b806114e481612252565b915050611302565b6000818152600a602052604090205460ff1661151a5760405162461bcd60e51b81526004016105d990612283565b600081815260066020526040902060090154611534611b00565b116115795760405162461bcd60e51b815260206004820152601560248201527423b0b6b29039ba34b6361034b71039b2b9b9b4b7b760591b60448201526064016105d9565b6000818152600660205260409020600b0154610100900460ff16156115d85760405162461bcd60e51b815260206004820152601560248201527411d85b5948185b1c9958591e481c185a59081bdd5d605a1b60448201526064016105d9565b60055460008281526006602052604081206007015490916064916115fc919061231a565b6116069190612339565b60008381526006602052604081206007015491925090611627908390612303565b905061164461163e6000546001600160a01b031690565b83611bcb565b600060015b600354811161168b57600081815260076020526040902060010154851415611679578161167581612252565b9250505b8061168381612252565b915050611649565b5060008167ffffffffffffffff8111156116a7576116a7611e59565b6040519080825280602002602001820160405280156116f957816020015b6040805160808101825260008082526020808301829052928201819052606082015282526000199092019101816116c55790505b509050600060015b60035481116117c4576000818152600760205260409020600101548714156117b2576000878152600d60209081526040808320848452600783528184206002908101546001600160a01b0390811686529184529382902082516080810184528154815260018201549092169382019390935292820154908301526003015460ff1615156060820152838361179481612252565b9450815181106117a6576117a661226d565b60200260200101819052505b806117bc81612252565b915050611701565b506117ce82610fa1565b915060005b600087815260066020526040902060040154811015610980576118348382815181106118015761180161226d565b602002602001015160200151600660008a8152602001908152602001600020600401548761182f9190612339565b611bcb565b8061183e81612252565b9150506117d3565b61184e611b21565b6001600160a01b0381166118b35760405162461bcd60e51b815260206004820152602660248201527f4f776e61626c653a206e6577206f776e657220697320746865207a65726f206160448201526564647265737360d01b60648201526084016105d9565b6118bc81611b7b565b50565b60006118c9611c30565b8681526020810186905233604082015260608101859052600160c08201523460e0820152608081018490526101208101839052611904611b00565b6101408201526000878152600660209081526040909120825181558183015180518493611938926001850192910190611ca5565b506040828101516002830180546001600160a01b0319166001600160a01b03909216919091179055606083015160038301556080830151600483015560a0830151600583015560c0830151600683015560e083015160078301556101008084015160088401556101208401516009840155610140840151600a80850191909155610160850151600b90940180546101809096015161ffff1990961694151561ff00191694909417941515909102939093179091556000988952602091909152909620805460ff191660019081179091559695505050505050565b6000611a22600380546001019055565b6000611a2d60035490565b604080516060810182528281526020808201878152338385018181526000878152600785528681209551865592516001808701919091559051600290950180546001600160a01b0319166001600160a01b0390961695909517909455888252600983528482209082528252838120805460ff199081168517909155858252600b83528482208054909116909317909255868252600690819052918120909101805492935090611adb83612252565b91905055503460046000828254611af291906122b0565b909155506001949350505050565b600080611b0f426103e861231a565b611b1b906103e86122b0565b92915050565b6000546001600160a01b03163314610e4c5760405162461bcd60e51b815260206004820181905260248201527f4f776e61626c653a2063616c6c6572206973206e6f7420746865206f776e657260448201526064016105d9565b600080546001600160a01b038381166001600160a01b0319831681178455604051919092169283917f8be0079c531659141344cd1fd0a4f28419497f9722a3daafe3b4186f6b6457e09190a35050565b6000826001600160a01b03168260405160006040518083038185875af1925050503d8060008114611c18576040519150601f19603f3d011682016040523d82523d6000602084013e611c1d565b606091505b5050905080611c2b57600080fd5b505050565b604051806101a00160405280600081526020016060815260200160006001600160a01b0316815260200160008152602001600081526020016000815260200160008152602001600081526020016000815260200160008152602001600081526020016000151581526020016000151581525090565b828054611cb1906122c8565b90600052602060002090601f016020900481019282611cd35760008555611d19565b82601f10611cec57805160ff1916838001178555611d19565b82800160010185558215611d19579182015b82811115611d19578251825591602001919060010190611cfe565b50611d25929150611d29565b5090565b5b80821115611d255760008155600101611d2a565b600060208284031215611d5057600080fd5b5035919050565b602080825282518282018190526000919060409081850190868401855b82811015611db957815180518552868101516001600160a01b031687860152858101518686015260609081015115159085015260809093019290850190600101611d74565b5091979650505050505050565b602080825282518282018190526000919060409081850190868401855b82811015611db957815180516001600160a01b031685528601511515868501529284019290850190600101611de3565b80356001600160a01b0381168114611e2a57600080fd5b919050565b60008060408385031215611e4257600080fd5b611e4b83611e13565b946020939093013593505050565b634e487b7160e01b600052604160045260246000fd5b6040516080810167ffffffffffffffff81118282101715611e9257611e92611e59565b60405290565b604051601f8201601f1916810167ffffffffffffffff81118282101715611ec157611ec1611e59565b604052919050565b600080600080600060a08688031215611ee157600080fd5b853567ffffffffffffffff80821115611ef957600080fd5b818801915088601f830112611f0d57600080fd5b8135602082821115611f2157611f21611e59565b611f33601f8301601f19168201611e98565b92508183528a81838601011115611f4957600080fd5b818185018285013760009183018101919091529099908801359850604088013597606081013597506080013595509350505050565b60008060408385031215611f9157600080fd5b50508035926020909101359150565b6000815180845260005b81811015611fc657602081850181015186830182015201611faa565b81811115611fd8576000602083870101525b50601f01601f19169290920160200192915050565b60006101a082518452602083015181602086015261200d82860182611fa0565b915050604083015161202a60408601826001600160a01b03169052565b50606083015160608501526080830151608085015260a083015160a085015260c083015160c085015260e083015160e0850152610100808401518186015250610120808401518186015250610140808401518186015250610160808401516120958287018215159052565b50506101809283015115159390920192909252919050565b6020815260006120c06020830184611fed565b9392505050565b600060208083850312156120da57600080fd5b823567ffffffffffffffff808211156120f257600080fd5b818501915085601f83011261210657600080fd5b81358181111561211857612118611e59565b612126848260051b01611e98565b818152848101925060079190911b83018401908782111561214657600080fd5b928401925b818410156121b457608084890312156121645760008081fd5b61216c611e6f565b8435815261217b868601611e13565b8187015260408581013590820152606080860135801515811461219e5760008081fd5b908201528352608093909301929184019161214b565b979650505050505050565b6000602080830181845280855180835260408601915060408160051b870101925083870160005b8281101561221457603f19888603018452612202858351611fed565b945092850192908501906001016121e6565b5092979650505050505050565b60006020828403121561223357600080fd5b6120c082611e13565b634e487b7160e01b600052601160045260246000fd5b60006000198214156122665761226661223c565b5060010190565b634e487b7160e01b600052603260045260246000fd5b60208082526013908201527211d85b5948191bd95cc81b9bdd08195e1a5cdd606a1b604082015260600190565b600082198211156122c3576122c361223c565b500190565b600181811c908216806122dc57607f821691505b602082108114156122fd57634e487b7160e01b600052602260045260246000fd5b50919050565b6000828210156123155761231561223c565b500390565b60008160001904831182151516156123345761233461223c565b500290565b60008261235657634e487b7160e01b600052601260045260246000fd5b50049056fea26469706673582212204f114ab0c187a633f73ba8dd7fb321032ebce646289036846a350ef0cb4f0ff664736f6c634300080b0033",
  "linkReferences": {},
  "deployedLinkReferences": {}
}