{
  "_format": "hh-sol-artifact-1",
  "contractName": "PlayToEarn",
  "sourceName": "src/contracts/PlayToEarn.sol",
  "abi": [
    {
      "anonymous": false,
      "inputs": [
        {
          "indexed": true,
          "internalType": "address",
          "name": "previousOwner",
          "type": "address"
        },
        {
          "indexed": true,
          "internalType": "address",
          "name": "newOwner",
          "type": "address"
        }
      ],
      "name": "OwnershipTransferred",
      "type": "event"
    },
    {
      "inputs": [
        {
          "internalType": "uint256",
          "name": "gameId",
          "type": "uint256"
        },
        {
          "internalType": "uint256",
          "name": "participantId",
          "type": "uint256"
        }
      ],
      "name": "acceptInvitation",
      "outputs": [],
      "stateMutability": "payable",
      "type": "function"
    },
    {
      "inputs": [
        {
          "internalType": "uint256",
          "name": "participantId",
          "type": "uint256"
        },
        {
          "internalType": "string",
          "name": "description",
          "type": "string"
        },
        {
          "internalType": "uint256",
          "name": "participants",
          "type": "uint256"
        },
        {
          "internalType": "uint256",
          "name": "numberOfWinners",
          "type": "uint256"
        },
        {
          "internalType": "uint256",
          "name": "deadline",
          "type": "uint256"
        }
      ],
      "name": "createGame",
      "outputs": [],
      "stateMutability": "payable",
      "type": "function"
    },
    {
      "inputs": [
        {
          "internalType": "uint256",
          "name": "id",
          "type": "uint256"
        }
      ],
      "name": "getGame",
      "outputs": [
        {
          "components": [
            {
              "internalType": "uint256",
              "name": "id",
              "type": "uint256"
            },
            {
              "internalType": "string",
              "name": "description",
              "type": "string"
            },
            {
              "internalType": "address",
              "name": "owner",
              "type": "address"
            },
            {
              "internalType": "uint256",
              "name": "participants",
              "type": "uint256"
            },
            {
              "internalType": "uint256",
              "name": "numberOfWinners",
              "type": "uint256"
            },
            {
              "internalType": "uint256",
              "name": "plays",
              "type": "uint256"
            },
            {
              "internalType": "uint256",
              "name": "onboards",
              "type": "uint256"
            },
            {
              "internalType": "uint256",
              "name": "stake",
              "type": "uint256"
            },
            {
              "internalType": "uint256",
              "name": "deadline",
              "type": "uint256"
            },
            {
              "internalType": "uint256",
              "name": "timestamp",
              "type": "uint256"
            },
            {
              "internalType": "bool",
              "name": "started",
              "type": "bool"
            },
            {
              "internalType": "bool",
              "name": "deleted",
              "type": "bool"
            },
            {
              "internalType": "bool",
              "name": "paidOut",
              "type": "bool"
            }
          ],
          "internalType": "struct PlayToEarn.GameStruct",
          "name": "",
          "type": "tuple"
        }
      ],
      "stateMutability": "view",
      "type": "function"
    },
    {
      "inputs": [],
      "name": "getGames",
      "outputs": [
        {
          "components": [
            {
              "internalType": "uint256",
              "name": "id",
              "type": "uint256"
            },
            {
              "internalType": "string",
              "name": "description",
              "type": "string"
            },
            {
              "internalType": "address",
              "name": "owner",
              "type": "address"
            },
            {
              "internalType": "uint256",
              "name": "participants",
              "type": "uint256"
            },
            {
              "internalType": "uint256",
              "name": "numberOfWinners",
              "type": "uint256"
            },
            {
              "internalType": "uint256",
              "name": "plays",
              "type": "uint256"
            },
            {
              "internalType": "uint256",
              "name": "onboards",
              "type": "uint256"
            },
            {
              "internalType": "uint256",
              "name": "stake",
              "type": "uint256"
            },
            {
              "internalType": "uint256",
              "name": "deadline",
              "type": "uint256"
            },
            {
              "internalType": "uint256",
              "name": "timestamp",
              "type": "uint256"
            },
            {
              "internalType": "bool",
              "name": "started",
              "type": "bool"
            },
            {
              "internalType": "bool",
              "name": "deleted",
              "type": "bool"
            },
            {
              "internalType": "bool",
              "name": "paidOut",
              "type": "bool"
            }
          ],
          "internalType": "struct PlayToEarn.GameStruct[]",
          "name": "ActiveGames",
          "type": "tuple[]"
        }
      ],
      "stateMutability": "view",
      "type": "function"
    },
    {
      "inputs": [],
      "name": "getInvitations",
      "outputs": [
        {
          "components": [
            {
              "internalType": "address",
              "name": "invitedPlayer",
              "type": "address"
            },
            {
              "internalType": "bool",
              "name": "responded",
              "type": "bool"
            }
          ],
          "internalType": "struct PlayToEarn.InvitationStruct[]",
          "name": "Invitations",
          "type": "tuple[]"
        }
      ],
      "stateMutability": "view",
      "type": "function"
    },
    {
      "inputs": [
        {
          "internalType": "address",
          "name": "invitedPlayer",
          "type": "address"
        },
        {
          "internalType": "uint256",
          "name": "gameId",
          "type": "uint256"
        }
      ],
      "name": "invitePlayer",
      "outputs": [],
      "stateMutability": "nonpayable",
      "type": "function"
    },
    {
      "inputs": [],
      "name": "owner",
      "outputs": [
        {
          "internalType": "address",
          "name": "",
          "type": "address"
        }
      ],
      "stateMutability": "view",
      "type": "function"
    },
    {
      "inputs": [
        {
          "internalType": "uint256",
          "name": "gameId",
          "type": "uint256"
        }
      ],
      "name": "rejectInvitation",
      "outputs": [],
      "stateMutability": "nonpayable",
      "type": "function"
    },
    {
      "inputs": [],
      "name": "renounceOwnership",
      "outputs": [],
      "stateMutability": "nonpayable",
      "type": "function"
    },
    {
      "inputs": [
        {
          "internalType": "uint256",
          "name": "gameId",
          "type": "uint256"
        }
      ],
      "name": "startGame",
      "outputs": [],
      "stateMutability": "nonpayable",
      "type": "function"
    },
    {
      "inputs": [
        {
          "internalType": "address",
          "name": "newOwner",
          "type": "address"
        }
      ],
      "name": "transferOwnership",
      "outputs": [],
      "stateMutability": "nonpayable",
      "type": "function"
    }
  ],
  "bytecode": "0x60806040526706f05b59d3b2000060055534801561001c57600080fd5b506100263361002f565b6001805561007f565b600080546001600160a01b038381166001600160a01b0319831681178455604051919092169283917f8be0079c531659141344cd1fd0a4f28419497f9722a3daafe3b4186f6b6457e09190a35050565b611a828061008e6000396000f3fe60806040526004361061009c5760003560e01c80637a2f2136116100645780637a2f2136146101365780638da5cb5b14610149578063a2f77bcc14610171578063c04c59471461019e578063e5ed1d59146101c0578063f2fde38b146101e057600080fd5b806316845714146100a15780632246fe0b146100cc5780633ba32ced146100ee5780635aa6bb3b14610101578063715018a614610121575b600080fd5b3480156100ad57600080fd5b506100b6610200565b6040516100c391906115fb565b60405180910390f35b3480156100d857600080fd5b506100ec6100e7366004611671565b61036a565b005b6100ec6100fc3660046116b1565b6104ea565b34801561010d57600080fd5b506100ec61011c366004611787565b610814565b34801561012d57600080fd5b506100ec610951565b6100ec6101443660046117a0565b610965565b34801561015557600080fd5b506000546040516001600160a01b0390911681526020016100c3565b34801561017d57600080fd5b5061019161018c366004611787565b610bb7565b6040516100c391906118cf565b3480156101aa57600080fd5b506101b3610d0f565b6040516100c391906118e9565b3480156101cc57600080fd5b506100ec6101db366004611787565b610ff6565b3480156101ec57600080fd5b506100ec6101fb36600461194b565b6111aa565b6060600060015b600254811161025257600081815260096020908152604080832033845290915290205460ff1615610240578161023c8161197c565b9250505b8061024a8161197c565b915050610207565b508067ffffffffffffffff81111561026c5761026c61169b565b6040519080825280602002602001820160405280156102b157816020015b604080518082019091526000808252602082015281526020019060019003908161028a5790505b509150600060015b600254811161036457600081815260096020908152604080832033845290915290205460ff1615610352573360009081526008602090815260408083208484528252918290208251808401909352546001600160a01b0381168352600160a01b900460ff16151590820152845185908490811061033857610338611997565b6020026020010181905250818061034e9061197c565b9250505b8061035c8161197c565b9150506102b9565b50505090565b600d600061037760035490565b815260208101919091526040016000205460ff166103dc5760405162461bcd60e51b815260206004820152601a60248201527f5061727469636970616e7420616c72656164792065786973747300000000000060448201526064015b60405180910390fd5b6000818152600b602052604090205460ff1661040a5760405162461bcd60e51b81526004016103d3906119ad565b60008181526009602090815260408083206001600160a01b038616845290915290205460ff161561048c5760405162461bcd60e51b815260206004820152602660248201527f506c6179657220697320616c726561647920696e766974656420746f20746869604482015265732067616d6560d01b60648201526084016103d3565b6040805180820182526001600160a01b03938416808252600060208084018281529282526008815284822095825294909452919092209151825491511515600160a01b026001600160a81b0319909216931692909217919091179055565b6000858152600d602052604090205460ff161561055c5760405162461bcd60e51b815260206004820152602a60248201527f596f75206d7573742062652061207061727469636970616e7420746f2063726560448201526961746520612067616d6560b01b60648201526084016103d3565b600034116105ac5760405162461bcd60e51b815260206004820152601760248201527f7374616b652066756e647320697320726571756972656400000000000000000060448201526064016103d3565b600183116105fc5760405162461bcd60e51b815260206004820152601960248201527f696e76616c6964206e756d626572206f6620706c61796572730000000000000060448201526064016103d3565b600084511161064d5760405162461bcd60e51b815260206004820152601860248201527f6465736372697074696f6e20697320726571756972656421000000000000000060448201526064016103d3565b600081116106ab5760405162461bcd60e51b815260206004820152602560248201527f4475726174696f6e2073686f756c642062652067726561746572207468616e206044820152647a65726f2160d81b60648201526084016103d3565b600082116106fb5760405162461bcd60e51b815260206004820152601b60248201527f4e756d626572204f662077696e6e65727320726571756972656421000000000060448201526064016103d3565b610709600280546001019055565b600061071460025490565b6000818152600a602052604081208054929350906107318361197c565b91905055506107438186868686611223565b61078f5760405162461bcd60e51b815260206004820152601a60248201527f47616d65206372656174696f6e20756e7375636365737366756c00000000000060448201526064016103d3565b6000818152600a60205260409020546107a9908288611381565b6107f55760405162461bcd60e51b815260206004820152601c60248201527f506c61796572206372656174696f6e20756e7375636365737366756c0000000060448201526064016103d3565b346004600082825461080791906119da565b9091555050505050505050565b6000818152600b602052604090205460ff166108425760405162461bcd60e51b81526004016103d3906119ad565b3360008181526008602090815260408083208584529091529020546001600160a01b0316146108b35760405162461bcd60e51b815260206004820181905260248201527f596f7520617265206e6f7420696e766974656420746f20746869732067616d6560448201526064016103d3565b336000908152600860209081526040808320848452909152902054600160a01b900460ff16156109255760405162461bcd60e51b815260206004820152601e60248201527f496e7669746174696f6e20697320616c72656164792072656a6563746564000060448201526064016103d3565b33600090815260086020908152604080832093835292905220805460ff60a01b1916600160a01b179055565b610959611420565b610963600061147a565b565b6000828152600b602052604090205460ff166109935760405162461bcd60e51b81526004016103d3906119ad565b6000828152600660205260409020600701543410156109f45760405162461bcd60e51b815260206004820152601c60248201527f496e737566666369656e742066756e647320666f72207374616b65730000000060448201526064016103d3565b3360008181526008602090815260408083208684529091529020546001600160a01b031614610a655760405162461bcd60e51b815260206004820181905260248201527f596f7520617265206e6f7420696e766974656420746f20746869732067616d6560448201526064016103d3565b336000908152600860209081526040808320858452909152902054600160a01b900460ff1615610ad75760405162461bcd60e51b815260206004820152601e60248201527f496e7669746174696f6e20697320616c7265616479206163636570746564000060448201526064016103d3565b6000828152600a60205260408120805491610af18361197c565b90915550506000828152600a6020526040902054610b10908383611381565b610b5c5760405162461bcd60e51b815260206004820152601c60248201527f506c61796572206372656174696f6e20756e7375636365737366756c0000000060448201526064016103d3565b3360009081526008602090815260408083208584528252808320805460ff60a01b1916600160a01b179055838352600d9091528120805460ff1916600117905560048054349290610bae9084906119da565b90915550505050565b610bbf6114eb565b60066000838152602001908152602001600020604051806101a001604052908160008201548152602001600182018054610bf8906119f2565b80601f0160208091040260200160405190810160405280929190818152602001828054610c24906119f2565b8015610c715780601f10610c4657610100808354040283529160200191610c71565b820191906000526020600020905b815481529060010190602001808311610c5457829003601f168201915b505050918352505060028201546001600160a01b03166020820152600382015460408201526004820154606082015260058201546080820152600682015460a0820152600782015460c0820152600882015460e0820152600982015461010080830191909152600a9092015460ff80821615156101208401529281048316151561014083015262010000900490911615156101609091015292915050565b6060600060015b6002548111610da6576000818152600660205260409020600a0154610100900460ff16158015610d5e57506000818152600660205260409020600a015462010000900460ff16155b8015610d815750610d6d6114ca565b600082815260066020526040902060080154115b15610d945781610d908161197c565b9250505b80610d9e8161197c565b915050610d16565b508067ffffffffffffffff811115610dc057610dc061169b565b604051908082528060200260200182016040528015610df957816020015b610de66114eb565b815260200190600190039081610dde5790505b509150600060015b6002548111610364576000818152600660205260409020600a0154610100900460ff16158015610e4957506000818152600660205260409020600a015462010000900460ff16155b8015610e6c5750610e586114ca565b600082815260066020526040902060080154115b15610fe45760066000828152602001908152602001600020604051806101a001604052908160008201548152602001600182018054610eaa906119f2565b80601f0160208091040260200160405190810160405280929190818152602001828054610ed6906119f2565b8015610f235780601f10610ef857610100808354040283529160200191610f23565b820191906000526020600020905b815481529060010190602001808311610f0657829003601f168201915b505050918352505060028201546001600160a01b03166020820152600382015460408201526004820154606082015260058201546080820152600682015460a0820152600782015460c0820152600882015460e0820152600982015461010080830191909152600a9092015460ff8082161515610120840152928104831615156101408301526201000090049091161515610160909101528483610fc68161197c565b945081518110610fd857610fd8611997565b60200260200101819052505b80610fee8161197c565b915050610e01565b6000818152600b6020526040902054819060ff1661104d5760405162461bcd60e51b815260206004820152601460248201527347616d6520646f6573206e6f742065786973742160601b60448201526064016103d3565b6000818152600660205260409020600201546001600160a01b031633146110ca5760405162461bcd60e51b815260206004820152602b60248201527f4f6e6c79207468652067616d65206f776e65722063616e2063616c6c2074686960448201526a732066756e6374696f6e2160a81b60648201526084016103d3565b600082815260066020819052604090912090810154600390910154146111295760405162461bcd60e51b8152602060048201526014602482015273506c6179657273206e6f7420636f6d706c65746560601b60448201526064016103d3565b6000828152600660205260409020600a015460ff161561118b5760405162461bcd60e51b815260206004820152601c60248201527f5468652067616d652068617320616c726561647920737461727465640000000060448201526064016103d3565b506000908152600660205260409020600a01805460ff19166001179055565b6111b2611420565b6001600160a01b0381166112175760405162461bcd60e51b815260206004820152602660248201527f4f776e61626c653a206e6577206f776e657220697320746865207a65726f206160448201526564647265737360d01b60648201526084016103d3565b6112208161147a565b50565b600061122d6114eb565b8681526020810186905233604082015260608101859052600160c08201523460e08201526080810184905261010081018390526112686114ca565b610120820152600087815260066020908152604090912082518155818301518051849361129c926001850192910190611562565b506040828101516002830180546001600160a01b039092166001600160a01b0319909216919091179055606083015160038301556080830151600483015560a0830151600583015560c0830151600683015560e083015160078301556101008084015160088401556101208401516009840155610140840151600a9093018054610160860151610180909601511515620100000262ff00001996151590930261ff00199515159590951661ffff199091161793909317939093169290921790556000888152600b60205220805460ff1916600190811790915591505095945050505050565b60408051608081018252848152602080820193845281830185815233606084018181526000898152600785528681209551865596516001808701919091559251600286015551600390940180546001600160a01b0319166001600160a01b039095169490941790935594845260098152828420918452908152818320805460ff199081168617909155948352600c905290208054909216811790915590565b6000546001600160a01b031633146109635760405162461bcd60e51b815260206004820181905260248201527f4f776e61626c653a2063616c6c6572206973206e6f7420746865206f776e657260448201526064016103d3565b600080546001600160a01b038381166001600160a01b0319831681178455604051919092169283917f8be0079c531659141344cd1fd0a4f28419497f9722a3daafe3b4186f6b6457e09190a35050565b6000806114d9426103e8611a2d565b6114e5906103e86119da565b92915050565b604051806101a00160405280600081526020016060815260200160006001600160a01b03168152602001600081526020016000815260200160008152602001600081526020016000815260200160008152602001600081526020016000151581526020016000151581526020016000151581525090565b82805461156e906119f2565b90600052602060002090601f01602090048101928261159057600085556115d6565b82601f106115a957805160ff19168380011785556115d6565b828001600101855582156115d6579182015b828111156115d65782518255916020019190600101906115bb565b506115e29291506115e6565b5090565b5b808211156115e257600081556001016115e7565b602080825282518282018190526000919060409081850190868401855b8281101561164857815180516001600160a01b031685528601511515868501529284019290850190600101611618565b5091979650505050505050565b80356001600160a01b038116811461166c57600080fd5b919050565b6000806040838503121561168457600080fd5b61168d83611655565b946020939093013593505050565b634e487b7160e01b600052604160045260246000fd5b600080600080600060a086880312156116c957600080fd5b85359450602086013567ffffffffffffffff808211156116e857600080fd5b818801915088601f8301126116fc57600080fd5b81358181111561170e5761170e61169b565b604051601f8201601f19908116603f011681019083821181831017156117365761173661169b565b816040528281528b602084870101111561174f57600080fd5b826020860160208301376000928101602001929092525096999698505050506040850135946060810135946080909101359350915050565b60006020828403121561179957600080fd5b5035919050565b600080604083850312156117b357600080fd5b50508035926020909101359150565b6000815180845260005b818110156117e8576020818501810151868301820152016117cc565b818111156117fa576000602083870101525b50601f01601f19169290920160200192915050565b60006101a082518452602083015181602086015261182f828601826117c2565b915050604083015161184c60408601826001600160a01b03169052565b50606083015160608501526080830151608085015260a083015160a085015260c083015160c085015260e083015160e0850152610100808401518186015250610120808401518186015250610140808401516118ab8287018215159052565b50506101608381015115159085015261018092830151151592909301919091525090565b6020815260006118e2602083018461180f565b9392505050565b6000602080830181845280855180835260408601915060408160051b870101925083870160005b8281101561193e57603f1988860301845261192c85835161180f565b94509285019290850190600101611910565b5092979650505050505050565b60006020828403121561195d57600080fd5b6118e282611655565b634e487b7160e01b600052601160045260246000fd5b600060001982141561199057611990611966565b5060010190565b634e487b7160e01b600052603260045260246000fd5b60208082526013908201527211d85b5948191bd95cc81b9bdd08195e1a5cdd606a1b604082015260600190565b600082198211156119ed576119ed611966565b500190565b600181811c90821680611a0657607f821691505b60208210811415611a2757634e487b7160e01b600052602260045260246000fd5b50919050565b6000816000190483118215151615611a4757611a47611966565b50029056fea26469706673582212207413adc4e74460a0a1b7bfcb4b5aa5163f1058843ee32e0e46ab4621ed040bfa64736f6c634300080b0033",
  "linkReferences": {},
  "deployedLinkReferences": {}
}