{
  "_format": "hh-sol-artifact-1",
  "contractName": "PlayToEarn",
  "sourceName": "src/contracts/PlayToEarn.sol",
  "abi": [
    {
      "anonymous": false,
      "inputs": [
        {
          "indexed": true,
          "internalType": "address",
          "name": "previousOwner",
          "type": "address"
        },
        {
          "indexed": true,
          "internalType": "address",
          "name": "newOwner",
          "type": "address"
        }
      ],
      "name": "OwnershipTransferred",
      "type": "event"
    },
    {
      "inputs": [
        {
          "internalType": "uint256",
          "name": "gameId",
          "type": "uint256"
        },
        {
          "internalType": "uint256",
          "name": "participantId",
          "type": "uint256"
        }
      ],
      "name": "acceptInvitation",
      "outputs": [],
      "stateMutability": "payable",
      "type": "function"
    },
    {
      "inputs": [
        {
          "internalType": "uint256",
          "name": "participantId",
          "type": "uint256"
        },
        {
          "internalType": "string",
          "name": "caption",
          "type": "string"
        },
        {
          "internalType": "uint256",
          "name": "participants",
          "type": "uint256"
        },
        {
          "internalType": "uint256",
          "name": "numberOfWinners",
          "type": "uint256"
        },
        {
          "internalType": "uint256",
          "name": "deadline",
          "type": "uint256"
        }
      ],
      "name": "createGame",
      "outputs": [],
      "stateMutability": "payable",
      "type": "function"
    },
    {
      "inputs": [
        {
          "internalType": "uint256",
          "name": "id",
          "type": "uint256"
        }
      ],
      "name": "getGame",
      "outputs": [
        {
          "components": [
            {
              "internalType": "uint256",
              "name": "id",
              "type": "uint256"
            },
            {
              "internalType": "string",
              "name": "caption",
              "type": "string"
            },
            {
              "internalType": "address",
              "name": "owner",
              "type": "address"
            },
            {
              "internalType": "uint256",
              "name": "participants",
              "type": "uint256"
            },
            {
              "internalType": "uint256",
              "name": "numberOfWinners",
              "type": "uint256"
            },
            {
              "internalType": "uint256",
              "name": "stake",
              "type": "uint256"
            },
            {
              "internalType": "uint256",
              "name": "deadline",
              "type": "uint256"
            },
            {
              "internalType": "uint256",
              "name": "timestamp",
              "type": "uint256"
            },
            {
              "internalType": "bool",
              "name": "isSingleGame",
              "type": "bool"
            },
            {
              "internalType": "bool",
              "name": "started",
              "type": "bool"
            },
            {
              "internalType": "bool",
              "name": "deleted",
              "type": "bool"
            },
            {
              "internalType": "bool",
              "name": "paidOut",
              "type": "bool"
            }
          ],
          "internalType": "struct PlayToEarn.GameStruct",
          "name": "",
          "type": "tuple"
        }
      ],
      "stateMutability": "view",
      "type": "function"
    },
    {
      "inputs": [],
      "name": "getGames",
      "outputs": [
        {
          "components": [
            {
              "internalType": "uint256",
              "name": "id",
              "type": "uint256"
            },
            {
              "internalType": "string",
              "name": "caption",
              "type": "string"
            },
            {
              "internalType": "address",
              "name": "owner",
              "type": "address"
            },
            {
              "internalType": "uint256",
              "name": "participants",
              "type": "uint256"
            },
            {
              "internalType": "uint256",
              "name": "numberOfWinners",
              "type": "uint256"
            },
            {
              "internalType": "uint256",
              "name": "stake",
              "type": "uint256"
            },
            {
              "internalType": "uint256",
              "name": "deadline",
              "type": "uint256"
            },
            {
              "internalType": "uint256",
              "name": "timestamp",
              "type": "uint256"
            },
            {
              "internalType": "bool",
              "name": "isSingleGame",
              "type": "bool"
            },
            {
              "internalType": "bool",
              "name": "started",
              "type": "bool"
            },
            {
              "internalType": "bool",
              "name": "deleted",
              "type": "bool"
            },
            {
              "internalType": "bool",
              "name": "paidOut",
              "type": "bool"
            }
          ],
          "internalType": "struct PlayToEarn.GameStruct[]",
          "name": "",
          "type": "tuple[]"
        }
      ],
      "stateMutability": "view",
      "type": "function"
    },
    {
      "inputs": [
        {
          "internalType": "address",
          "name": "user",
          "type": "address"
        }
      ],
      "name": "getInvitations",
      "outputs": [
        {
          "components": [
            {
              "internalType": "address",
              "name": "invitedPlayer",
              "type": "address"
            },
            {
              "internalType": "bool",
              "name": "accepted",
              "type": "bool"
            }
          ],
          "internalType": "struct PlayToEarn.InvitationStruct[]",
          "name": "",
          "type": "tuple[]"
        }
      ],
      "stateMutability": "view",
      "type": "function"
    },
    {
      "inputs": [
        {
          "internalType": "address",
          "name": "invitedPlayer",
          "type": "address"
        },
        {
          "internalType": "uint256",
          "name": "gameId",
          "type": "uint256"
        }
      ],
      "name": "invitePlayer",
      "outputs": [],
      "stateMutability": "nonpayable",
      "type": "function"
    },
    {
      "inputs": [],
      "name": "owner",
      "outputs": [
        {
          "internalType": "address",
          "name": "",
          "type": "address"
        }
      ],
      "stateMutability": "view",
      "type": "function"
    },
    {
      "inputs": [],
      "name": "participate",
      "outputs": [],
      "stateMutability": "nonpayable",
      "type": "function"
    },
    {
      "inputs": [
        {
          "internalType": "uint256",
          "name": "gameId",
          "type": "uint256"
        }
      ],
      "name": "rejectInvitation",
      "outputs": [],
      "stateMutability": "nonpayable",
      "type": "function"
    },
    {
      "inputs": [],
      "name": "renounceOwnership",
      "outputs": [],
      "stateMutability": "nonpayable",
      "type": "function"
    },
    {
      "inputs": [
        {
          "internalType": "uint256",
          "name": "gameId",
          "type": "uint256"
        }
      ],
      "name": "startGame",
      "outputs": [],
      "stateMutability": "nonpayable",
      "type": "function"
    },
    {
      "inputs": [
        {
          "internalType": "address",
          "name": "newOwner",
          "type": "address"
        }
      ],
      "name": "transferOwnership",
      "outputs": [],
      "stateMutability": "nonpayable",
      "type": "function"
    }
  ],
  "bytecode": "0x60806040526706f05b59d3b2000060055534801561001c57600080fd5b506100263361002f565b6001805561007f565b600080546001600160a01b038381166001600160a01b0319831681178455604051919092169283917f8be0079c531659141344cd1fd0a4f28419497f9722a3daafe3b4186f6b6457e09190a35050565b611e138061008e6000396000f3fe6080604052600436106100a75760003560e01c8063a2f77bcc11610064578063a2f77bcc14610156578063c04c594714610183578063d11711a2146101a5578063d98b88fa146101ba578063e5ed1d59146101e7578063f2fde38b1461020757600080fd5b80632246fe0b146100ac5780633ba32ced146100ce5780635aa6bb3b146100e1578063715018a6146101015780637a2f2136146101165780638da5cb5b14610129575b600080fd5b3480156100b857600080fd5b506100cc6100c73660046119a5565b610227565b005b6100cc6100dc3660046119e5565b6103aa565b3480156100ed57600080fd5b506100cc6100fc366004611abb565b61072c565b34801561010d57600080fd5b506100cc610895565b6100cc610124366004611ad4565b6108a9565b34801561013557600080fd5b506000546040516001600160a01b0390911681526020015b60405180910390f35b34801561016257600080fd5b50610176610171366004611abb565b610b7b565b60405161014d9190611bf6565b34801561018f57600080fd5b50610198610cca565b60405161014d9190611c09565b3480156101b157600080fd5b506100cc610fbc565b3480156101c657600080fd5b506101da6101d5366004611c6b565b6110ba565b60405161014d9190611c86565b3480156101f357600080fd5b506100cc610202366004611abb565b61127a565b34801561021357600080fd5b506100cc610222366004611c6b565b611477565b600e600061023460035490565b815260208101919091526040016000205460ff166102995760405162461bcd60e51b815260206004820152601a60248201527f5061727469636970616e7420616c72656164792065786973747300000000000060448201526064015b60405180910390fd5b6000818152600c602052604090205460ff166102c75760405162461bcd60e51b815260040161029090611ce0565b6102d181836114ed565b1561032d5760405162461bcd60e51b815260206004820152602660248201527f506c6179657220697320616c726561647920696e766974656420746f20746869604482015265732067616d6560d01b6064820152608401610290565b600081815260096020526040812080549161034783611d23565b90915550506040805180820182526001600160a01b0393841680825260006020808401828152928252600a815284822095825294909452919092209151825491511515600160a01b026001600160a81b0319909216931692909217919091179055565b6000858152600e602052604090205460ff161561041c5760405162461bcd60e51b815260206004820152602a60248201527f596f75206d7573742062652061207061727469636970616e7420746f2063726560448201526961746520612067616d6560b01b6064820152608401610290565b6000341161046c5760405162461bcd60e51b815260206004820152601760248201527f7374616b652066756e64732069732072657175697265640000000000000000006044820152606401610290565b600183116104bc5760405162461bcd60e51b815260206004820152601960248201527f696e76616c6964206e756d626572206f6620706c6179657273000000000000006044820152606401610290565b6104c583611554565b1561051c5760405162461bcd60e51b815260206004820152602160248201527f417661696c61626c65207061727469636970616e7473206e6f7420656e6f75676044820152600d60fb1b6064820152608401610290565b60008451116105645760405162461bcd60e51b815260206004820152601460248201527343617074696f6e2069732072657175697265642160601b6044820152606401610290565b600081116105c25760405162461bcd60e51b815260206004820152602560248201527f4475726174696f6e2073686f756c642062652067726561746572207468616e206044820152647a65726f2160d81b6064820152608401610290565b600082116106125760405162461bcd60e51b815260206004820152601b60248201527f4e756d626572204f662077696e6e6572732072657175697265642100000000006044820152606401610290565b610620600280546001019055565b600061062b60025490565b6000818152600b6020526040812080549293509061064883611d23565b919050555061065a81868686866115af565b6106a65760405162461bcd60e51b815260206004820152601a60248201527f47616d65206372656174696f6e20756e7375636365737366756c0000000000006044820152606401610290565b6000818152600b60205260409020546106c190828833611734565b61070d5760405162461bcd60e51b815260206004820152601c60248201527f506c61796572206372656174696f6e20756e7375636365737366756c000000006044820152606401610290565b346004600082825461071f9190611d3e565b9091555050505050505050565b6000818152600c602052604090205460ff1661075a5760405162461bcd60e51b815260040161029090611ce0565b336000818152600a602090815260408083208584529091529020546001600160a01b0316146107cb5760405162461bcd60e51b815260206004820181905260248201527f596f7520617265206e6f7420696e766974656420746f20746869732067616d656044820152606401610290565b336000908152600a60209081526040808320848452909152902054600160a01b900460ff161561083d5760405162461bcd60e51b815260206004820152601e60248201527f496e7669746174696f6e20697320616c726561647920616363657074656400006044820152606401610290565b336000908152600a60209081526040808320848452825280832080546001600160a81b031916905560099091529020541561089257600081815260096020526040812080549161088c83611d56565b91905055505b50565b61089d6117b3565b6108a7600061180d565b565b60008281526006602052604090206005015434101561090a5760405162461bcd60e51b815260206004820152601c60248201527f496e737566666369656e742066756e647320666f72207374616b6573000000006044820152606401610290565b6000828152600c602052604090205460ff166109385760405162461bcd60e51b815260040161029090611ce0565b336000818152600a602090815260408083208684529091529020546001600160a01b0316146109a95760405162461bcd60e51b815260206004820181905260248201527f596f7520617265206e6f7420696e766974656420746f20746869732067616d656044820152606401610290565b336000908152600a60209081526040808320858452909152902054600160a01b900460ff1615610a1b5760405162461bcd60e51b815260206004820152601e60248201527f496e7669746174696f6e20697320616c726561647920616363657074656400006044820152606401610290565b600081815260086020526040902060010154600160a01b900460ff16610a835760405162461bcd60e51b815260206004820152601c60248201527f5061727469636970616e74206973206e6f7420617661696c61626c65000000006044820152606401610290565b6000828152600b60205260408120805491610a9d83611d23565b90915550506000828152600b6020526040902054610abd90838333611734565b610b095760405162461bcd60e51b815260206004820152601c60248201527f506c61796572206372656174696f6e20756e7375636365737366756c000000006044820152606401610290565b336000908152600a602090815260408083208584528252808320805460ff60a01b19908116600160a01b179091558484526008835281842060019081018054909216909155600e9092528220805460ff1916909117905560048054349290610b72908490611d3e565b90915550505050565b610b8361187e565b600660008381526020019081526020016000206040518061018001604052908160008201548152602001600182018054610bbc90611d6d565b80601f0160208091040260200160405190810160405280929190818152602001828054610be890611d6d565b8015610c355780601f10610c0a57610100808354040283529160200191610c35565b820191906000526020600020905b815481529060010190602001808311610c1857829003601f168201915b505050918352505060028201546001600160a01b03166020820152600382015460408201526004820154606082015260058201546080820152600682015460a0820152600782015460c082015260089091015460ff808216151560e084015261010080830482161515908401526201000082048116151561012084015263010000009091041615156101409091015292915050565b6060600080610cd761185d565b905060015b6002548111610d685760008181526006602052604090206008015462010000900460ff16158015610d2657506000818152600660205260409020600801546301000000900460ff16155b8015610d4357506000818152600660208190526040909120015482105b15610d565782610d5281611d23565b9350505b80610d6081611d23565b915050610cdc565b5060008267ffffffffffffffff811115610d8457610d846119cf565b604051908082528060200260200182016040528015610dbd57816020015b610daa61187e565b815260200190600190039081610da25790505b509050600060015b6002548111610fb25760008181526006602052604090206008015462010000900460ff16158015610e0f57506000818152600660205260409020600801546301000000900460ff16155b8015610e2c57506000818152600660208190526040909120015484105b15610fa057600660008281526020019081526020016000206040518061018001604052908160008201548152602001600182018054610e6a90611d6d565b80601f0160208091040260200160405190810160405280929190818152602001828054610e9690611d6d565b8015610ee35780601f10610eb857610100808354040283529160200191610ee3565b820191906000526020600020905b815481529060010190602001808311610ec657829003601f168201915b505050918352505060028201546001600160a01b03166020820152600382015460408201526004820154606082015260058201546080820152600682015460a0820152600782015460c082015260089091015460ff808216151560e08401526101008083048216151590840152620100008204811615156101208401526301000000909104161515610140909101528351849084908110610f8657610f86611da8565b60200260200101819052508180610f9c90611d23565b9250505b80610faa81611d23565b915050610dc5565b5090949350505050565b600e6000610fc960035490565b815260208101919091526040016000205460ff166110295760405162461bcd60e51b815260206004820152601a60248201527f5061727469636970616e7420616c7265616479206578697374730000000000006044820152606401610290565b611037600380546001019055565b604051806060016040528061104b60035490565b815233602082015260016040909101526008600061106860035490565b8152602080820192909252604090810160002083518155918301516001909201805493909101511515600160a01b026001600160a81b03199093166001600160a01b0390921691909117919091179055565b606080600060015b6002548111611132576000818152600c602052604090205460ff16801561110d57506001600160a01b038581166000908152600a602090815260408083208584529091529020541615155b15611120578161111c81611d23565b9250505b8061112a81611d23565b9150506110c2565b508067ffffffffffffffff81111561114c5761114c6119cf565b60405190808252806020026020018201604052801561119157816020015b604080518082019091526000808252602082015281526020019060019003908161116a5790505b509150600060015b6002548111611270576000818152600c602052604090205460ff1680156111e457506001600160a01b038681166000908152600a602090815260408083208584529091529020541615155b1561125e576001600160a01b038681166000908152600a602090815260408083208584528252918290208251808401909352549283168252600160a01b90920460ff16151591810191909152845185908490811061124457611244611da8565b6020026020010181905250818061125a90611d23565b9250505b8061126881611d23565b915050611199565b5091949350505050565b6000818152600c6020526040902054819060ff166112d15760405162461bcd60e51b815260206004820152601460248201527347616d6520646f6573206e6f742065786973742160601b6044820152606401610290565b6000818152600660205260409020600201546001600160a01b0316331461134e5760405162461bcd60e51b815260206004820152602b60248201527f4f6e6c79207468652067616d65206f776e65722063616e2063616c6c2074686960448201526a732066756e6374696f6e2160a81b6064820152608401610290565b600082815260096020908152604080832054600690925290912060030154146113ef5760405162461bcd60e51b815260206004820152604760248201527f416c6c207061727469636970616e7473206d757374206163636570742074686560448201527f697220696e7669746174696f6e73206265666f7265207374617274696e67207460648201526668652067616d6560c81b608482015260a401610290565b600082815260066020526040902060080154610100900460ff16156114565760405162461bcd60e51b815260206004820152601c60248201527f5468652067616d652068617320616c72656164792073746172746564000000006044820152606401610290565b506000908152600660205260409020600801805461ff001916610100179055565b61147f6117b3565b6001600160a01b0381166114e45760405162461bcd60e51b815260206004820152602660248201527f4f776e61626c653a206e6577206f776e657220697320746865207a65726f206160448201526564647265737360d01b6064820152608401610290565b6108928161180d565b6001600160a01b038082166000818152600a6020908152604080832087845290915281205490921614801561154d57506001600160a01b0382166000908152600a60209081526040808320868452909152902054600160a01b900460ff16155b9392505050565b60008060015b60035481116115a457600081815260086020526040902060010154600160a01b900460ff1615611592578161158e81611d23565b9250505b8061159c81611d23565b91505061155a565b509190911015919050565b6000604051806101800160405280878152602001868152602001336001600160a01b031681526020018581526020018481526020013481526020018381526020016115f861185d565b815260028614602080830191909152600060408084018290526060840182905260809093018190528981526006825291909120825181558282015180519192611649926001850192909101906118f0565b506040828101516002830180546001600160a01b0319166001600160a01b03909216919091179055606083015160038301556080830151600483015560a0830151600583015560c0830151600683015560e0830151600783015561010080840151600890930180546101208601516101408701516101609097015161ffff1990921695151561ff001916959095179415159092029390931763ffff00001916620100009415159490940263ff0000001916939093176301000000931515939093029290921790556000968752600c602052909520805460ff1916600190811790915595945050505050565b6040805160808101825285815260208082019485528183019586526001600160a01b0393841660608301908152600097885260078252838820925183559451600180840191909155955160028301559351600390910180546001600160a01b0319169190931617909155600d909152909120805460ff19168217905590565b6000546001600160a01b031633146108a75760405162461bcd60e51b815260206004820181905260248201527f4f776e61626c653a2063616c6c6572206973206e6f7420746865206f776e65726044820152606401610290565b600080546001600160a01b038381166001600160a01b0319831681178455604051919092169283917f8be0079c531659141344cd1fd0a4f28419497f9722a3daafe3b4186f6b6457e09190a35050565b60008061186c426103e8611dbe565b611878906103e8611d3e565b92915050565b604051806101800160405280600081526020016060815260200160006001600160a01b0316815260200160008152602001600081526020016000815260200160008152602001600081526020016000151581526020016000151581526020016000151581526020016000151581525090565b8280546118fc90611d6d565b90600052602060002090601f01602090048101928261191e5760008555611964565b82601f1061193757805160ff1916838001178555611964565b82800160010185558215611964579182015b82811115611964578251825591602001919060010190611949565b50611970929150611974565b5090565b5b808211156119705760008155600101611975565b80356001600160a01b03811681146119a057600080fd5b919050565b600080604083850312156119b857600080fd5b6119c183611989565b946020939093013593505050565b634e487b7160e01b600052604160045260246000fd5b600080600080600060a086880312156119fd57600080fd5b85359450602086013567ffffffffffffffff80821115611a1c57600080fd5b818801915088601f830112611a3057600080fd5b813581811115611a4257611a426119cf565b604051601f8201601f19908116603f01168101908382118183101715611a6a57611a6a6119cf565b816040528281528b6020848701011115611a8357600080fd5b826020860160208301376000928101602001929092525096999698505050506040850135946060810135946080909101359350915050565b600060208284031215611acd57600080fd5b5035919050565b60008060408385031215611ae757600080fd5b50508035926020909101359150565b6000815180845260005b81811015611b1c57602081850181015186830182015201611b00565b81811115611b2e576000602083870101525b50601f01601f19169290920160200192915050565b6000610180825184526020830151816020860152611b6382860182611af6565b9150506040830151611b8060408601826001600160a01b03169052565b50606083015160608501526080830151608085015260a083015160a085015260c083015160c085015260e083015160e085015261010080840151611bc78287018215159052565b505061012083810151151590850152610140808401511515908501526101608084015180151582870152610fb2565b60208152600061154d6020830184611b43565b6000602080830181845280855180835260408601915060408160051b870101925083870160005b82811015611c5e57603f19888603018452611c4c858351611b43565b94509285019290850190600101611c30565b5092979650505050505050565b600060208284031215611c7d57600080fd5b61154d82611989565b602080825282518282018190526000919060409081850190868401855b82811015611cd357815180516001600160a01b031685528601511515868501529284019290850190600101611ca3565b5091979650505050505050565b60208082526013908201527211d85b5948191bd95cc81b9bdd08195e1a5cdd606a1b604082015260600190565b634e487b7160e01b600052601160045260246000fd5b6000600019821415611d3757611d37611d0d565b5060010190565b60008219821115611d5157611d51611d0d565b500190565b600081611d6557611d65611d0d565b506000190190565b600181811c90821680611d8157607f821691505b60208210811415611da257634e487b7160e01b600052602260045260246000fd5b50919050565b634e487b7160e01b600052603260045260246000fd5b6000816000190483118215151615611dd857611dd8611d0d565b50029056fea2646970667358221220a033106c8bfe7c4dac04ee3fba15d5d6bdd9cc2bf0959a99ec45a57658d77b1564736f6c634300080b0033",
  "linkReferences": {},
  "deployedLinkReferences": {}
}