{"src/contracts/PlayToEarn.sol":{"PlayToEarn":{"abi":[{"anonymous":false,"inputs":[{"indexed":true,"internalType":"address","name":"previousOwner","type":"address"},{"indexed":true,"internalType":"address","name":"newOwner","type":"address"}],"name":"OwnershipTransferred","type":"event"},{"inputs":[{"internalType":"uint256","name":"gameId","type":"uint256"}],"name":"acceptInvitation","outputs":[],"stateMutability":"payable","type":"function"},{"inputs":[{"internalType":"string","name":"title","type":"string"},{"internalType":"string","name":"description","type":"string"},{"internalType":"uint256","name":"participants","type":"uint256"},{"internalType":"uint256","name":"numberOfWinners","type":"uint256"},{"internalType":"uint256","name":"challenges","type":"uint256"},{"internalType":"uint256","name":"startDate","type":"uint256"},{"internalType":"uint256","name":"endDate","type":"uint256"}],"name":"createGame","outputs":[],"stateMutability":"payable","type":"function"},{"inputs":[{"internalType":"uint256","name":"id","type":"uint256"}],"name":"getGame","outputs":[{"components":[{"internalType":"uint256","name":"id","type":"uint256"},{"internalType":"string","name":"title","type":"string"},{"internalType":"string","name":"description","type":"string"},{"internalType":"address","name":"owner","type":"address"},{"internalType":"uint256","name":"participants","type":"uint256"},{"internalType":"uint256","name":"numberOfWinners","type":"uint256"},{"internalType":"uint256","name":"challenges","type":"uint256"},{"internalType":"uint256","name":"plays","type":"uint256"},{"internalType":"uint256","name":"acceptees","type":"uint256"},{"internalType":"uint256","name":"stake","type":"uint256"},{"internalType":"uint256","name":"startDate","type":"uint256"},{"internalType":"uint256","name":"endDate","type":"uint256"},{"internalType":"uint256","name":"timestamp","type":"uint256"},{"internalType":"bool","name":"deleted","type":"bool"},{"internalType":"bool","name":"paidOut","type":"bool"}],"internalType":"struct PlayToEarn.GameStruct","name":"","type":"tuple"}],"stateMutability":"view","type":"function"},{"inputs":[],"name":"getGames","outputs":[{"components":[{"internalType":"uint256","name":"id","type":"uint256"},{"internalType":"string","name":"title","type":"string"},{"internalType":"string","name":"description","type":"string"},{"internalType":"address","name":"owner","type":"address"},{"internalType":"uint256","name":"participants","type":"uint256"},{"internalType":"uint256","name":"numberOfWinners","type":"uint256"},{"internalType":"uint256","name":"challenges","type":"uint256"},{"internalType":"uint256","name":"plays","type":"uint256"},{"internalType":"uint256","name":"acceptees","type":"uint256"},{"internalType":"uint256","name":"stake","type":"uint256"},{"internalType":"uint256","name":"startDate","type":"uint256"},{"internalType":"uint256","name":"endDate","type":"uint256"},{"internalType":"uint256","name":"timestamp","type":"uint256"},{"internalType":"bool","name":"deleted","type":"bool"},{"internalType":"bool","name":"paidOut","type":"bool"}],"internalType":"struct PlayToEarn.GameStruct[]","name":"ActiveGames","type":"tuple[]"}],"stateMutability":"view","type":"function"},{"inputs":[],"name":"getInvitations","outputs":[{"components":[{"internalType":"address","name":"account","type":"address"},{"internalType":"bool","name":"responded","type":"bool"},{"internalType":"string","name":"title","type":"string"}],"internalType":"struct PlayToEarn.InvitationStruct[]","name":"Invitations","type":"tuple[]"}],"stateMutability":"view","type":"function"},{"inputs":[{"internalType":"uint256","name":"gameId","type":"uint256"}],"name":"getScores","outputs":[{"components":[{"internalType":"uint256","name":"gameId","type":"uint256"},{"internalType":"address","name":"player","type":"address"},{"internalType":"uint256","name":"score","type":"uint256"},{"internalType":"bool","name":"played","type":"bool"}],"internalType":"struct PlayToEarn.PlayerScoreSheetStruct[]","name":"Scores","type":"tuple[]"}],"stateMutability":"view","type":"function"},{"inputs":[{"internalType":"address","name":"playerAccount","type":"address"},{"internalType":"uint256","name":"gameId","type":"uint256"}],"name":"invitePlayer","outputs":[],"stateMutability":"nonpayable","type":"function"},{"inputs":[{"internalType":"uint256","name":"gameId","type":"uint256"},{"internalType":"address","name":"player","type":"address"}],"name":"isPlayerListed","outputs":[{"internalType":"bool","name":"","type":"bool"}],"stateMutability":"view","type":"function"},{"inputs":[],"name":"owner","outputs":[{"internalType":"address","name":"","type":"address"}],"stateMutability":"view","type":"function"},{"inputs":[{"internalType":"uint256","name":"gameId","type":"uint256"}],"name":"payout","outputs":[],"stateMutability":"nonpayable","type":"function"},{"inputs":[{"internalType":"uint256","name":"gameId","type":"uint256"},{"internalType":"uint256","name":"score","type":"uint256"}],"name":"recordScore","outputs":[],"stateMutability":"nonpayable","type":"function"},{"inputs":[{"internalType":"uint256","name":"gameId","type":"uint256"}],"name":"rejectInvitation","outputs":[],"stateMutability":"nonpayable","type":"function"},{"inputs":[],"name":"renounceOwnership","outputs":[],"stateMutability":"nonpayable","type":"function"},{"inputs":[{"components":[{"internalType":"uint256","name":"gameId","type":"uint256"},{"internalType":"address","name":"player","type":"address"},{"internalType":"uint256","name":"score","type":"uint256"},{"internalType":"bool","name":"played","type":"bool"}],"internalType":"struct PlayToEarn.PlayerScoreSheetStruct[]","name":"playersScores","type":"tuple[]"}],"name":"sortScores","outputs":[{"components":[{"internalType":"uint256","name":"gameId","type":"uint256"},{"internalType":"address","name":"player","type":"address"},{"internalType":"uint256","name":"score","type":"uint256"},{"internalType":"bool","name":"played","type":"bool"}],"internalType":"struct PlayToEarn.PlayerScoreSheetStruct[]","name":"","type":"tuple[]"}],"stateMutability":"pure","type":"function"},{"inputs":[{"internalType":"address","name":"newOwner","type":"address"}],"name":"transferOwnership","outputs":[],"stateMutability":"nonpayable","type":"function"}],"evm":{"bytecode":{"linkReferences":{},"object":"60806040526706f05b59d3b2000060055534801561001c57600080fd5b506100263361002f565b6001805561007f565b600080546001600160a01b038381166001600160a01b0319831681178455604051919092169283917f8be0079c531659141344cd1fd0a4f28419497f9722a3daafe3b4186f6b6457e09190a35050565b61285a8061008e6000396000f3fe6080604052600436106100e85760003560e01c80638da5cb5b1161008a578063d4c33fe911610059578063d4c33fe914610266578063e115234314610279578063f2fde38b14610299578063f51ba29d146102b957600080fd5b80638da5cb5b146101cf578063a2f77bcc146101f7578063a4e1370d14610224578063c04c59471461024457600080fd5b8063464c5b6c116100c6578063464c5b6c146101675780634e56799e1461017a5780635aa6bb3b1461019a578063715018a6146101ba57600080fd5b806304527d90146100ed57806316845714146101235780632246fe0b14610145575b600080fd5b3480156100f957600080fd5b5061010d61010836600461213a565b61030f565b60405161011a9190612153565b60405180910390f35b34801561012f57600080fd5b50610138610497565b60405161011a919061220f565b34801561015157600080fd5b506101656101603660046122b5565b6106b2565b005b61016561017536600461213a565b610884565b34801561018657600080fd5b506101656101953660046122df565b610a62565b3480156101a657600080fd5b506101656101b536600461213a565b610bf6565b3480156101c657600080fd5b50610165610d33565b3480156101db57600080fd5b506000546040516001600160a01b03909116815260200161011a565b34801561020357600080fd5b5061021761021236600461213a565b610d47565b60405161011a91906123da565b34801561023057600080fd5b5061010d61023f366004612464565b610f37565b34801561025057600080fd5b506102596111ac565b60405161011a919061255c565b61016561027436600461262e565b6114d9565b34801561028557600080fd5b5061016561029436600461213a565b611853565b3480156102a557600080fd5b506101656102b43660046126be565b611bf8565b3480156102c557600080fd5b506102ff6102d43660046126d9565b60009182526009602090815260408084206001600160a01b0393909316845291905290205460ff1690565b604051901515815260200161011a565b6060600060015b60035481116103585760008181526007602052604090206001015484141561034657816103428161271b565b9250505b806103508161271b565b915050610316565b508067ffffffffffffffff811115610372576103726123f4565b6040519080825280602002602001820160405280156103c457816020015b6040805160808101825260008082526020808301829052928201819052606082015282526000199092019101816103905790505b509150600060015b600354811161048f5760008181526007602052604090206001015485141561047d576000858152600d60209081526040808320848452600783528184206002908101546001600160a01b0390811686529184529382902082516080810184528154815260018201549092169382019390935292820154908301526003015460ff1615156060820152848361045f8161271b565b94508151811061047157610471612736565b60200260200101819052505b806104878161271b565b9150506103cc565b505050919050565b6060600060015b60025481116104f1573360008181526008602090815260408083208584529091529020546001600160a01b031614156104df57816104db8161271b565b9250505b806104e98161271b565b91505061049e565b508067ffffffffffffffff81111561050b5761050b6123f4565b60405190808252806020026020018201604052801561055857816020015b604080516060808201835260008083526020830152918101919091528152602001906001900390816105295790505b509150600060015b60025481116106ac573360008181526008602090815260408083208584529091529020546001600160a01b0316141561069a57336000908152600860209081526040808320848452825291829020825160608101845281546001600160a01b0381168252600160a01b900460ff1615159281019290925260018101805492939192918401916105ee9061274c565b80601f016020809104026020016040519081016040528092919081815260200182805461061a9061274c565b80156106675780601f1061063c57610100808354040283529160200191610667565b820191906000526020600020905b81548152906001019060200180831161064a57829003601f168201915b50505050508152505084838061067c9061271b565b94508151811061068e5761068e612736565b60200260200101819052505b806106a48161271b565b915050610560565b50505090565b6000818152600a602052604090205460ff166106e95760405162461bcd60e51b81526004016106e090612787565b60405180910390fd5b60008181526009602090815260408083206001600160a01b038616845290915290205460ff161561075c5760405162461bcd60e51b815260206004820152601e60248201527f506c6179657220697320616c726561647920696e20746869732067616d65000060448201526064016106e0565b604080516060810182526001600160a01b03841681526000602080830182905284825260069052829020600101805491928301916107999061274c565b80601f01602080910402602001604051908101604052809291908181526020018280546107c59061274c565b80156108125780601f106107e757610100808354040283529160200191610812565b820191906000526020600020905b8154815290600101906020018083116107f557829003601f168201915b5050509190925250506001600160a01b03808416600090815260086020908152604080832086845282529182902084518154868401511515600160a01b026001600160a81b0319909116919095161793909317835590830151805161087d926001850192019061201e565b5050505050565b6000818152600a602052604090205460ff166108b25760405162461bcd60e51b81526004016106e090612787565b6000818152600660205260409020600901543410156109135760405162461bcd60e51b815260206004820152601c60248201527f496e737566666369656e742066756e647320666f72207374616b65730000000060448201526064016106e0565b3360008181526008602090815260408083208584529091529020546001600160a01b03161461097a5760405162461bcd60e51b8152602060048201526013602482015272556e617574686f72697a656420656e7469747960681b60448201526064016106e0565b336000908152600860209081526040808320848452909152902054600160a01b900460ff16156109e25760405162461bcd60e51b8152602060048201526013602482015272141c995d9a5bdd5b1e481c995cdc1bdb991959606a1b60448201526064016106e0565b60006109ed82611c71565b905080610a355760405162461bcd60e51b8152602060048201526016602482015275141b185e595c8818dc99585d1a5bdb8819985a5b195960521b60448201526064016106e0565b5033600090815260086020908152604080832093835292905220805460ff60a01b1916600160a01b179055565b60008281526006602052604090206008810154600590910154610a869060016127b4565b14610acc5760405162461bcd60e51b8152602060048201526016602482015275139bdd08195b9bdd59da081c1b185e595c9cc81e595d60521b60448201526064016106e0565b6000828152600d6020908152604080832033845290915290206003015460ff1615610b395760405162461bcd60e51b815260206004820152601760248201527f506c6179657220616c7265616479207265636f7264656400000000000000000060448201526064016106e0565b6000828152600660205260409020600a0154610b53611d5d565b10158015610b7857506000828152600660205260409020600b0154610b76611d5d565b105b610bc45760405162461bcd60e51b815260206004820152601c60248201527f47616d6520706c6179206d75737420626520696e2073657373696f6e0000000060448201526064016106e0565b6000918252600d602090815260408084203385529091529091206002810191909155600301805460ff19166001179055565b6000818152600a602052604090205460ff16610c245760405162461bcd60e51b81526004016106e090612787565b3360008181526008602090815260408083208584529091529020546001600160a01b031614610c955760405162461bcd60e51b815260206004820181905260248201527f596f7520617265206e6f7420696e766974656420746f20746869732067616d6560448201526064016106e0565b336000908152600860209081526040808320848452909152902054600160a01b900460ff1615610d075760405162461bcd60e51b815260206004820152601e60248201527f496e7669746174696f6e20697320616c72656164792072656a6563746564000060448201526064016106e0565b33600090815260086020908152604080832093835292905220805460ff60a01b1916600160a01b179055565b610d3b611d7c565b610d456000611dd6565b565b610d4f6120a2565b60066000838152602001908152602001600020604051806101e001604052908160008201548152602001600182018054610d889061274c565b80601f0160208091040260200160405190810160405280929190818152602001828054610db49061274c565b8015610e015780601f10610dd657610100808354040283529160200191610e01565b820191906000526020600020905b815481529060010190602001808311610de457829003601f168201915b50505050508152602001600282018054610e1a9061274c565b80601f0160208091040260200160405190810160405280929190818152602001828054610e469061274c565b8015610e935780601f10610e6857610100808354040283529160200191610e93565b820191906000526020600020905b815481529060010190602001808311610e7657829003601f168201915b505050918352505060038201546001600160a01b03166020820152600482015460408201526005820154606082015260068201546080820152600782015460a0820152600882015460c0820152600982015460e0820152600a82015461010080830191909152600b830154610120830152600c830154610140830152600d9092015460ff808216151561016084015292900490911615156101809091015292915050565b805160609060005b610f4a6001836127cc565b8110156111a45760005b6001610f6083856127cc565b610f6a91906127cc565b81101561119157848181518110610f8357610f83612736565b6020026020010151606001518015610fbf575084610fa28260016127b4565b81518110610fb257610fb2612736565b6020026020010151606001515b156110a05784610fd08260016127b4565b81518110610fe057610fe0612736565b602002602001015160400151858281518110610ffe57610ffe612736565b602002602001015160400151111561109b57600085828151811061102457611024612736565b602002602001015190508582600161103c91906127b4565b8151811061104c5761104c612736565b602002602001015186838151811061106657611066612736565b6020908102919091010152808661107e8460016127b4565b8151811061108e5761108e612736565b6020026020010181905250505b61117f565b8481815181106110b2576110b2612736565b6020026020010151606001511580156110ef5750846110d28260016127b4565b815181106110e2576110e2612736565b6020026020010151606001515b1561117f57600085828151811061110857611108612736565b602002602001015190508582600161112091906127b4565b8151811061113057611130612736565b602002602001015186838151811061114a5761114a612736565b602090810291909101015280866111628460016127b4565b8151811061117257611172612736565b6020026020010181905250505b806111898161271b565b915050610f54565b508061119c8161271b565b915050610f3f565b509192915050565b6060600060015b600254811161121a576000818152600660205260409020600d015460ff161580156111f557506000818152600660205260409020600d0154610100900460ff16155b1561120857816112048161271b565b9250505b806112128161271b565b9150506111b3565b508067ffffffffffffffff811115611234576112346123f4565b60405190808252806020026020018201604052801561126d57816020015b61125a6120a2565b8152602001906001900390816112525790505b509150600060015b60025481116106ac576000818152600660205260409020600d015460ff161580156112b757506000818152600660205260409020600d0154610100900460ff16155b156114c75760066000828152602001908152602001600020604051806101e0016040529081600082015481526020016001820180546112f59061274c565b80601f01602080910402602001604051908101604052809291908181526020018280546113219061274c565b801561136e5780601f106113435761010080835404028352916020019161136e565b820191906000526020600020905b81548152906001019060200180831161135157829003601f168201915b505050505081526020016002820180546113879061274c565b80601f01602080910402602001604051908101604052809291908181526020018280546113b39061274c565b80156114005780601f106113d557610100808354040283529160200191611400565b820191906000526020600020905b8154815290600101906020018083116113e357829003601f168201915b505050918352505060038201546001600160a01b03166020820152600482015460408201526005820154606082015260068201546080820152600782015460a0820152600882015460c0820152600982015460e0820152600a82015461010080830191909152600b830154610120830152600c830154610140830152600d9092015460ff808216151561016084015292900490911615156101809091015284836114a98161271b565b9450815181106114bb576114bb612736565b60200260200101819052505b806114d18161271b565b915050611275565b600034116115295760405162461bcd60e51b815260206004820152601760248201527f5374616b652066756e647320697320726571756972656400000000000000000060448201526064016106e0565b600185116115855760405162461bcd60e51b8152602060048201526024808201527f506172746974696370616e7473206d7573742062652067726561746572207468604482015263616e203160e01b60648201526084016106e0565b60058310156115e15760405162461bcd60e51b815260206004820152602260248201527f4368616c6c656e676573206d757374206e6f74206265206c657373207468616e604482015261203560f01b60648201526084016106e0565b60008751116116275760405162461bcd60e51b81526020600482015260126024820152715469746c652069732072657175697265642160701b60448201526064016106e0565b60008651116116785760405162461bcd60e51b815260206004820152601860248201527f4465736372697074696f6e20697320726571756972656421000000000000000060448201526064016106e0565b600082116116d45760405162461bcd60e51b8152602060048201526024808201527f53746172742064617465206d7573742062652067726561746572207468616e206044820152637a65726f60e01b60648201526084016106e0565b8181116117345760405162461bcd60e51b815260206004820152602860248201527f456e642064617465206d7573742062652067726561746572207468616e207374604482015267617274206461746560c01b60648201526084016106e0565b600084116117845760405162461bcd60e51b815260206004820152601b60248201527f4e756d626572204f662077696e6e65727320726571756972656421000000000060448201526064016106e0565b611792600280546001019055565b600061179d60025490565b905060006117b1828a8a8a8a8a8a8a611e26565b9050806117f75760405162461bcd60e51b815260206004820152601460248201527311d85b594818dc99585d1a5bdb8819985a5b195960621b60448201526064016106e0565b61180082611c71565b9050806118485760405162461bcd60e51b8152602060048201526016602482015275141b185e595c8818dc99585d1a5bdb8819985a5b195960521b60448201526064016106e0565b505050505050505050565b6000818152600a602052604090205460ff166118815760405162461bcd60e51b81526004016106e090612787565b6000818152600660205260409020600b015461189b611d5d565b116118e05760405162461bcd60e51b815260206004820152601560248201527423b0b6b29039ba34b6361034b71039b2b9b9b4b7b760591b60448201526064016106e0565b6000818152600660205260409020600d0154610100900460ff161561193f5760405162461bcd60e51b815260206004820152601560248201527411d85b5948185b1c9958591e481c185a59081bdd5d605a1b60448201526064016106e0565b600554600082815260066020526040812060090154909160649161196391906127e3565b61196d9190612802565b6000838152600660205260408120600901549192509061198e9083906127cc565b90506119ab6119a56000546001600160a01b031690565b83611fb9565b6119b6600283612802565b6119c090826127cc565b6000848152600660205260409020600301549091506119f2906001600160a01b03166119ed600285612802565b611fb9565b600060015b6003548111611a3957600081815260076020526040902060010154851415611a275781611a238161271b565b9250505b80611a318161271b565b9150506119f7565b5060008167ffffffffffffffff811115611a5557611a556123f4565b604051908082528060200260200182016040528015611aa757816020015b604080516080810182526000808252602080830182905292820181905260608201528252600019909201910181611a735790505b509050600060015b6003548111611b7257600081815260076020526040902060010154871415611b60576000878152600d60209081526040808320848452600783528184206002908101546001600160a01b0390811686529184529382902082516080810184528154815260018201549092169382019390935292820154908301526003015460ff16151560608201528383611b428161271b565b945081518110611b5457611b54612736565b60200260200101819052505b80611b6a8161271b565b915050611aaf565b50611b7c82610f37565b915060005b600087815260066020526040902060050154811015611bef57611bdd838281518110611baf57611baf612736565b602002602001015160200151600660008a815260200190815260200160002060050154876119ed9190612802565b80611be78161271b565b915050611b81565b50505050505050565b611c00611d7c565b6001600160a01b038116611c655760405162461bcd60e51b815260206004820152602660248201527f4f776e61626c653a206e6577206f776e657220697320746865207a65726f206160448201526564647265737360d01b60648201526084016106e0565b611c6e81611dd6565b50565b6000611c81600380546001019055565b6000611c8c60035490565b604080516060810182528281526020808201878152338385018181526000878152600785528681209551865592516001808701919091559051600290950180546001600160a01b0319166001600160a01b0390961695909517909455888252600983528482209082528252838120805460ff199081168517909155858252600b8352848220805490911690931790925586825260069052908120600801805492935090611d388361271b565b91905055503460046000828254611d4f91906127b4565b909155506001949350505050565b6000611d6b426103e86127e3565b611d77906103e86127b4565b905090565b6000546001600160a01b03163314610d455760405162461bcd60e51b815260206004820181905260248201527f4f776e61626c653a2063616c6c6572206973206e6f7420746865206f776e657260448201526064016106e0565b600080546001600160a01b038381166001600160a01b0319831681178455604051919092169283917f8be0079c531659141344cd1fd0a4f28419497f9722a3daafe3b4186f6b6457e09190a35050565b6000611e306120a2565b89815260208101899052604081018890523360608201526080810187905260c0810185905260016101008201523461012082015260a0810186905261014081018490526101608101839052611e83611d5d565b61018082015260008a8152600660209081526040909120825181558183015180518493611eb792600185019291019061201e565b5060408201518051611ed391600284019160209091019061201e565b5060608201516003820180546001600160a01b0319166001600160a01b039092169190911790556080820151600482015560a0820151600582015560c0820151600682015560e082015160078201556101008083015160088301556101208301516009830155610140830151600a80840191909155610160840151600b840155610180840151600c8401556101a0840151600d90930180546101c09095015161ffff1990951693151561ff0019169390931793151590910292909217905560009a8b5260205250506040909720805460ff19166001908117909155979650505050505050565b6000826001600160a01b03168260405160006040518083038185875af1925050503d8060008114612006576040519150601f19603f3d011682016040523d82523d6000602084013e61200b565b606091505b505090508061201957600080fd5b505050565b82805461202a9061274c565b90600052602060002090601f01602090048101928261204c5760008555612092565b82601f1061206557805160ff1916838001178555612092565b82800160010185558215612092579182015b82811115612092578251825591602001919060010190612077565b5061209e929150612125565b5090565b604051806101e0016040528060008152602001606081526020016060815260200160006001600160a01b031681526020016000815260200160008152602001600081526020016000815260200160008152602001600081526020016000815260200160008152602001600081526020016000151581526020016000151581525090565b5b8082111561209e5760008155600101612126565b60006020828403121561214c57600080fd5b5035919050565b602080825282518282018190526000919060409081850190868401855b828110156121b557815180518552868101516001600160a01b031687860152858101518686015260609081015115159085015260809093019290850190600101612170565b5091979650505050505050565b6000815180845260005b818110156121e8576020818501810151868301820152016121cc565b818111156121fa576000602083870101525b50601f01601f19169290920160200192915050565b60006020808301818452808551808352604092508286019150828160051b87010184880160005b8381101561228b57888303603f19018552815180516001600160a01b03168452878101511515888501528601516060878501819052612277818601836121c2565b968901969450505090860190600101612236565b509098975050505050505050565b80356001600160a01b03811681146122b057600080fd5b919050565b600080604083850312156122c857600080fd5b6122d183612299565b946020939093013593505050565b600080604083850312156122f257600080fd5b50508035926020909101359150565b60006101e0825184526020830151816020860152612321828601826121c2565b9150506040830151848203604086015261233b82826121c2565b915050606083015161235860608601826001600160a01b03169052565b506080838101519085015260a0808401519085015260c0808401519085015260e08084015190850152610100808401519085015261012080840151908501526101408084015190850152610160808401519085015261018080840151908501526101a0808401511515908501526101c092830151151592909301919091525090565b6020815260006123ed6020830184612301565b9392505050565b634e487b7160e01b600052604160045260246000fd5b6040516080810167ffffffffffffffff8111828210171561242d5761242d6123f4565b60405290565b604051601f8201601f1916810167ffffffffffffffff8111828210171561245c5761245c6123f4565b604052919050565b6000602080838503121561247757600080fd5b823567ffffffffffffffff8082111561248f57600080fd5b818501915085601f8301126124a357600080fd5b8135818111156124b5576124b56123f4565b6124c3848260051b01612433565b818152848101925060079190911b8301840190878211156124e357600080fd5b928401925b8184101561255157608084890312156125015760008081fd5b61250961240a565b84358152612518868601612299565b8187015260408581013590820152606080860135801515811461253b5760008081fd5b90820152835260809390930192918401916124e8565b979650505050505050565b6000602080830181845280855180835260408601915060408160051b870101925083870160005b828110156125b157603f1988860301845261259f858351612301565b94509285019290850190600101612583565b5092979650505050505050565b600082601f8301126125cf57600080fd5b813567ffffffffffffffff8111156125e9576125e96123f4565b6125fc601f8201601f1916602001612433565b81815284602083860101111561261157600080fd5b816020850160208301376000918101602001919091529392505050565b600080600080600080600060e0888a03121561264957600080fd5b873567ffffffffffffffff8082111561266157600080fd5b61266d8b838c016125be565b985060208a013591508082111561268357600080fd5b506126908a828b016125be565b979a9799505050506040860135956060810135956080820135955060a0820135945060c09091013592509050565b6000602082840312156126d057600080fd5b6123ed82612299565b600080604083850312156126ec57600080fd5b823591506126fc60208401612299565b90509250929050565b634e487b7160e01b600052601160045260246000fd5b600060001982141561272f5761272f612705565b5060010190565b634e487b7160e01b600052603260045260246000fd5b600181811c9082168061276057607f821691505b6020821081141561278157634e487b7160e01b600052602260045260246000fd5b50919050565b60208082526013908201527211d85b5948191bd95cc81b9bdd08195e1a5cdd606a1b604082015260600190565b600082198211156127c7576127c7612705565b500190565b6000828210156127de576127de612705565b500390565b60008160001904831182151516156127fd576127fd612705565b500290565b60008261281f57634e487b7160e01b600052601260045260246000fd5b50049056fea2646970667358221220d7f5243994ac814b3e25f59fbc499e5ebdee1bd205a7801a1297eb5de63dbadb64736f6c634300080b0033","opcodes":"PUSH1 0x80 PUSH1 0x40 MSTORE PUSH8 0x6F05B59D3B20000 PUSH1 0x5 SSTORE CALLVALUE DUP1 ISZERO PUSH2 0x1C JUMPI PUSH1 0x0 DUP1 REVERT JUMPDEST POP PUSH2 0x26 CALLER PUSH2 0x2F JUMP JUMPDEST PUSH1 0x1 DUP1 SSTORE PUSH2 0x7F JUMP JUMPDEST PUSH1 0x0 DUP1 SLOAD PUSH1 0x1 PUSH1 0x1 PUSH1 0xA0 SHL SUB DUP4 DUP2 AND PUSH1 0x1 PUSH1 0x1 PUSH1 0xA0 SHL SUB NOT DUP4 AND DUP2 OR DUP5 SSTORE PUSH1 0x40 MLOAD SWAP2 SWAP1 SWAP3 AND SWAP3 DUP4 SWAP2 PUSH32 0x8BE0079C531659141344CD1FD0A4F28419497F9722A3DAAFE3B4186F6B6457E0 SWAP2 SWAP1 LOG3 POP POP JUMP JUMPDEST PUSH2 0x285A DUP1 PUSH2 0x8E PUSH1 0x0 CODECOPY PUSH1 0x0 RETURN INVALID PUSH1 0x80 PUSH1 0x40 MSTORE PUSH1 0x4 CALLDATASIZE LT PUSH2 0xE8 JUMPI PUSH1 0x0 CALLDATALOAD PUSH1 0xE0 SHR DUP1 PUSH4 0x8DA5CB5B GT PUSH2 0x8A JUMPI DUP1 PUSH4 0xD4C33FE9 GT PUSH2 0x59 JUMPI DUP1 PUSH4 0xD4C33FE9 EQ PUSH2 0x266 JUMPI DUP1 PUSH4 0xE1152343 EQ PUSH2 0x279 JUMPI DUP1 PUSH4 0xF2FDE38B EQ PUSH2 0x299 JUMPI DUP1 PUSH4 0xF51BA29D EQ PUSH2 0x2B9 JUMPI PUSH1 0x0 DUP1 REVERT JUMPDEST DUP1 PUSH4 0x8DA5CB5B EQ PUSH2 0x1CF JUMPI DUP1 PUSH4 0xA2F77BCC EQ PUSH2 0x1F7 JUMPI DUP1 PUSH4 0xA4E1370D EQ PUSH2 0x224 JUMPI DUP1 PUSH4 0xC04C5947 EQ PUSH2 0x244 JUMPI PUSH1 0x0 DUP1 REVERT JUMPDEST DUP1 PUSH4 0x464C5B6C GT PUSH2 0xC6 JUMPI DUP1 PUSH4 0x464C5B6C EQ PUSH2 0x167 JUMPI DUP1 PUSH4 0x4E56799E EQ PUSH2 0x17A JUMPI DUP1 PUSH4 0x5AA6BB3B EQ PUSH2 0x19A JUMPI DUP1 PUSH4 0x715018A6 EQ PUSH2 0x1BA JUMPI PUSH1 0x0 DUP1 REVERT JUMPDEST DUP1 PUSH4 0x4527D90 EQ PUSH2 0xED JUMPI DUP1 PUSH4 0x16845714 EQ PUSH2 0x123 JUMPI DUP1 PUSH4 0x2246FE0B EQ PUSH2 0x145 JUMPI JUMPDEST PUSH1 0x0 DUP1 REVERT JUMPDEST CALLVALUE DUP1 ISZERO PUSH2 0xF9 JUMPI PUSH1 0x0 DUP1 REVERT JUMPDEST POP PUSH2 0x10D PUSH2 0x108 CALLDATASIZE PUSH1 0x4 PUSH2 0x213A JUMP JUMPDEST PUSH2 0x30F JUMP JUMPDEST PUSH1 0x40 MLOAD PUSH2 0x11A SWAP2 SWAP1 PUSH2 0x2153 JUMP JUMPDEST PUSH1 0x40 MLOAD DUP1 SWAP2 SUB SWAP1 RETURN JUMPDEST CALLVALUE DUP1 ISZERO PUSH2 0x12F JUMPI PUSH1 0x0 DUP1 REVERT JUMPDEST POP PUSH2 0x138 PUSH2 0x497 JUMP JUMPDEST PUSH1 0x40 MLOAD PUSH2 0x11A SWAP2 SWAP1 PUSH2 0x220F JUMP JUMPDEST CALLVALUE DUP1 ISZERO PUSH2 0x151 JUMPI PUSH1 0x0 DUP1 REVERT JUMPDEST POP PUSH2 0x165 PUSH2 0x160 CALLDATASIZE PUSH1 0x4 PUSH2 0x22B5 JUMP JUMPDEST PUSH2 0x6B2 JUMP JUMPDEST STOP JUMPDEST PUSH2 0x165 PUSH2 0x175 CALLDATASIZE PUSH1 0x4 PUSH2 0x213A JUMP JUMPDEST PUSH2 0x884 JUMP JUMPDEST CALLVALUE DUP1 ISZERO PUSH2 0x186 JUMPI PUSH1 0x0 DUP1 REVERT JUMPDEST POP PUSH2 0x165 PUSH2 0x195 CALLDATASIZE PUSH1 0x4 PUSH2 0x22DF JUMP JUMPDEST PUSH2 0xA62 JUMP JUMPDEST CALLVALUE DUP1 ISZERO PUSH2 0x1A6 JUMPI PUSH1 0x0 DUP1 REVERT JUMPDEST POP PUSH2 0x165 PUSH2 0x1B5 CALLDATASIZE PUSH1 0x4 PUSH2 0x213A JUMP JUMPDEST PUSH2 0xBF6 JUMP JUMPDEST CALLVALUE DUP1 ISZERO PUSH2 0x1C6 JUMPI PUSH1 0x0 DUP1 REVERT JUMPDEST POP PUSH2 0x165 PUSH2 0xD33 JUMP JUMPDEST CALLVALUE DUP1 ISZERO PUSH2 0x1DB JUMPI PUSH1 0x0 DUP1 REVERT JUMPDEST POP PUSH1 0x0 SLOAD PUSH1 0x40 MLOAD PUSH1 0x1 PUSH1 0x1 PUSH1 0xA0 SHL SUB SWAP1 SWAP2 AND DUP2 MSTORE PUSH1 0x20 ADD PUSH2 0x11A JUMP JUMPDEST CALLVALUE DUP1 ISZERO PUSH2 0x203 JUMPI PUSH1 0x0 DUP1 REVERT JUMPDEST POP PUSH2 0x217 PUSH2 0x212 CALLDATASIZE PUSH1 0x4 PUSH2 0x213A JUMP JUMPDEST PUSH2 0xD47 JUMP JUMPDEST PUSH1 0x40 MLOAD PUSH2 0x11A SWAP2 SWAP1 PUSH2 0x23DA JUMP JUMPDEST CALLVALUE DUP1 ISZERO PUSH2 0x230 JUMPI PUSH1 0x0 DUP1 REVERT JUMPDEST POP PUSH2 0x10D PUSH2 0x23F CALLDATASIZE PUSH1 0x4 PUSH2 0x2464 JUMP JUMPDEST PUSH2 0xF37 JUMP JUMPDEST CALLVALUE DUP1 ISZERO PUSH2 0x250 JUMPI PUSH1 0x0 DUP1 REVERT JUMPDEST POP PUSH2 0x259 PUSH2 0x11AC JUMP JUMPDEST PUSH1 0x40 MLOAD PUSH2 0x11A SWAP2 SWAP1 PUSH2 0x255C JUMP JUMPDEST PUSH2 0x165 PUSH2 0x274 CALLDATASIZE PUSH1 0x4 PUSH2 0x262E JUMP JUMPDEST PUSH2 0x14D9 JUMP JUMPDEST CALLVALUE DUP1 ISZERO PUSH2 0x285 JUMPI PUSH1 0x0 DUP1 REVERT JUMPDEST POP PUSH2 0x165 PUSH2 0x294 CALLDATASIZE PUSH1 0x4 PUSH2 0x213A JUMP JUMPDEST PUSH2 0x1853 JUMP JUMPDEST CALLVALUE DUP1 ISZERO PUSH2 0x2A5 JUMPI PUSH1 0x0 DUP1 REVERT JUMPDEST POP PUSH2 0x165 PUSH2 0x2B4 CALLDATASIZE PUSH1 0x4 PUSH2 0x26BE JUMP JUMPDEST PUSH2 0x1BF8 JUMP JUMPDEST CALLVALUE DUP1 ISZERO PUSH2 0x2C5 JUMPI PUSH1 0x0 DUP1 REVERT JUMPDEST POP PUSH2 0x2FF PUSH2 0x2D4 CALLDATASIZE PUSH1 0x4 PUSH2 0x26D9 JUMP JUMPDEST PUSH1 0x0 SWAP2 DUP3 MSTORE PUSH1 0x9 PUSH1 0x20 SWAP1 DUP2 MSTORE PUSH1 0x40 DUP1 DUP5 KECCAK256 PUSH1 0x1 PUSH1 0x1 PUSH1 0xA0 SHL SUB SWAP4 SWAP1 SWAP4 AND DUP5 MSTORE SWAP2 SWAP1 MSTORE SWAP1 KECCAK256 SLOAD PUSH1 0xFF AND SWAP1 JUMP JUMPDEST PUSH1 0x40 MLOAD SWAP1 ISZERO ISZERO DUP2 MSTORE PUSH1 0x20 ADD PUSH2 0x11A JUMP JUMPDEST PUSH1 0x60 PUSH1 0x0 PUSH1 0x1 JUMPDEST PUSH1 0x3 SLOAD DUP2 GT PUSH2 0x358 JUMPI PUSH1 0x0 DUP2 DUP2 MSTORE PUSH1 0x7 PUSH1 0x20 MSTORE PUSH1 0x40 SWAP1 KECCAK256 PUSH1 0x1 ADD SLOAD DUP5 EQ ISZERO PUSH2 0x346 JUMPI DUP2 PUSH2 0x342 DUP2 PUSH2 0x271B JUMP JUMPDEST SWAP3 POP POP JUMPDEST DUP1 PUSH2 0x350 DUP2 PUSH2 0x271B JUMP JUMPDEST SWAP2 POP POP PUSH2 0x316 JUMP JUMPDEST POP DUP1 PUSH8 0xFFFFFFFFFFFFFFFF DUP2 GT ISZERO PUSH2 0x372 JUMPI PUSH2 0x372 PUSH2 0x23F4 JUMP JUMPDEST PUSH1 0x40 MLOAD SWAP1 DUP1 DUP3 MSTORE DUP1 PUSH1 0x20 MUL PUSH1 0x20 ADD DUP3 ADD PUSH1 0x40 MSTORE DUP1 ISZERO PUSH2 0x3C4 JUMPI DUP2 PUSH1 0x20 ADD JUMPDEST PUSH1 0x40 DUP1 MLOAD PUSH1 0x80 DUP2 ADD DUP3 MSTORE PUSH1 0x0 DUP1 DUP3 MSTORE PUSH1 0x20 DUP1 DUP4 ADD DUP3 SWAP1 MSTORE SWAP3 DUP3 ADD DUP2 SWAP1 MSTORE PUSH1 0x60 DUP3 ADD MSTORE DUP3 MSTORE PUSH1 0x0 NOT SWAP1 SWAP3 ADD SWAP2 ADD DUP2 PUSH2 0x390 JUMPI SWAP1 POP JUMPDEST POP SWAP2 POP PUSH1 0x0 PUSH1 0x1 JUMPDEST PUSH1 0x3 SLOAD DUP2 GT PUSH2 0x48F JUMPI PUSH1 0x0 DUP2 DUP2 MSTORE PUSH1 0x7 PUSH1 0x20 MSTORE PUSH1 0x40 SWAP1 KECCAK256 PUSH1 0x1 ADD SLOAD DUP6 EQ ISZERO PUSH2 0x47D JUMPI PUSH1 0x0 DUP6 DUP2 MSTORE PUSH1 0xD PUSH1 0x20 SWAP1 DUP2 MSTORE PUSH1 0x40 DUP1 DUP4 KECCAK256 DUP5 DUP5 MSTORE PUSH1 0x7 DUP4 MSTORE DUP2 DUP5 KECCAK256 PUSH1 0x2 SWAP1 DUP2 ADD SLOAD PUSH1 0x1 PUSH1 0x1 PUSH1 0xA0 SHL SUB SWAP1 DUP2 AND DUP7 MSTORE SWAP2 DUP5 MSTORE SWAP4 DUP3 SWAP1 KECCAK256 DUP3 MLOAD PUSH1 0x80 DUP2 ADD DUP5 MSTORE DUP2 SLOAD DUP2 MSTORE PUSH1 0x1 DUP3 ADD SLOAD SWAP1 SWAP3 AND SWAP4 DUP3 ADD SWAP4 SWAP1 SWAP4 MSTORE SWAP3 DUP3 ADD SLOAD SWAP1 DUP4 ADD MSTORE PUSH1 0x3 ADD SLOAD PUSH1 0xFF AND ISZERO ISZERO PUSH1 0x60 DUP3 ADD MSTORE DUP5 DUP4 PUSH2 0x45F DUP2 PUSH2 0x271B JUMP JUMPDEST SWAP5 POP DUP2 MLOAD DUP2 LT PUSH2 0x471 JUMPI PUSH2 0x471 PUSH2 0x2736 JUMP JUMPDEST PUSH1 0x20 MUL PUSH1 0x20 ADD ADD DUP2 SWAP1 MSTORE POP JUMPDEST DUP1 PUSH2 0x487 DUP2 PUSH2 0x271B JUMP JUMPDEST SWAP2 POP POP PUSH2 0x3CC JUMP JUMPDEST POP POP POP SWAP2 SWAP1 POP JUMP JUMPDEST PUSH1 0x60 PUSH1 0x0 PUSH1 0x1 JUMPDEST PUSH1 0x2 SLOAD DUP2 GT PUSH2 0x4F1 JUMPI CALLER PUSH1 0x0 DUP2 DUP2 MSTORE PUSH1 0x8 PUSH1 0x20 SWAP1 DUP2 MSTORE PUSH1 0x40 DUP1 DUP4 KECCAK256 DUP6 DUP5 MSTORE SWAP1 SWAP2 MSTORE SWAP1 KECCAK256 SLOAD PUSH1 0x1 PUSH1 0x1 PUSH1 0xA0 SHL SUB AND EQ ISZERO PUSH2 0x4DF JUMPI DUP2 PUSH2 0x4DB DUP2 PUSH2 0x271B JUMP JUMPDEST SWAP3 POP POP JUMPDEST DUP1 PUSH2 0x4E9 DUP2 PUSH2 0x271B JUMP JUMPDEST SWAP2 POP POP PUSH2 0x49E JUMP JUMPDEST POP DUP1 PUSH8 0xFFFFFFFFFFFFFFFF DUP2 GT ISZERO PUSH2 0x50B JUMPI PUSH2 0x50B PUSH2 0x23F4 JUMP JUMPDEST PUSH1 0x40 MLOAD SWAP1 DUP1 DUP3 MSTORE DUP1 PUSH1 0x20 MUL PUSH1 0x20 ADD DUP3 ADD PUSH1 0x40 MSTORE DUP1 ISZERO PUSH2 0x558 JUMPI DUP2 PUSH1 0x20 ADD JUMPDEST PUSH1 0x40 DUP1 MLOAD PUSH1 0x60 DUP1 DUP3 ADD DUP4 MSTORE PUSH1 0x0 DUP1 DUP4 MSTORE PUSH1 0x20 DUP4 ADD MSTORE SWAP2 DUP2 ADD SWAP2 SWAP1 SWAP2 MSTORE DUP2 MSTORE PUSH1 0x20 ADD SWAP1 PUSH1 0x1 SWAP1 SUB SWAP1 DUP2 PUSH2 0x529 JUMPI SWAP1 POP JUMPDEST POP SWAP2 POP PUSH1 0x0 PUSH1 0x1 JUMPDEST PUSH1 0x2 SLOAD DUP2 GT PUSH2 0x6AC JUMPI CALLER PUSH1 0x0 DUP2 DUP2 MSTORE PUSH1 0x8 PUSH1 0x20 SWAP1 DUP2 MSTORE PUSH1 0x40 DUP1 DUP4 KECCAK256 DUP6 DUP5 MSTORE SWAP1 SWAP2 MSTORE SWAP1 KECCAK256 SLOAD PUSH1 0x1 PUSH1 0x1 PUSH1 0xA0 SHL SUB AND EQ ISZERO PUSH2 0x69A JUMPI CALLER PUSH1 0x0 SWAP1 DUP2 MSTORE PUSH1 0x8 PUSH1 0x20 SWAP1 DUP2 MSTORE PUSH1 0x40 DUP1 DUP4 KECCAK256 DUP5 DUP5 MSTORE DUP3 MSTORE SWAP2 DUP3 SWAP1 KECCAK256 DUP3 MLOAD PUSH1 0x60 DUP2 ADD DUP5 MSTORE DUP2 SLOAD PUSH1 0x1 PUSH1 0x1 PUSH1 0xA0 SHL SUB DUP2 AND DUP3 MSTORE PUSH1 0x1 PUSH1 0xA0 SHL SWAP1 DIV PUSH1 0xFF AND ISZERO ISZERO SWAP3 DUP2 ADD SWAP3 SWAP1 SWAP3 MSTORE PUSH1 0x1 DUP2 ADD DUP1 SLOAD SWAP3 SWAP4 SWAP2 SWAP3 SWAP2 DUP5 ADD SWAP2 PUSH2 0x5EE SWAP1 PUSH2 0x274C JUMP JUMPDEST DUP1 PUSH1 0x1F ADD PUSH1 0x20 DUP1 SWAP2 DIV MUL PUSH1 0x20 ADD PUSH1 0x40 MLOAD SWAP1 DUP2 ADD PUSH1 0x40 MSTORE DUP1 SWAP3 SWAP2 SWAP1 DUP2 DUP2 MSTORE PUSH1 0x20 ADD DUP3 DUP1 SLOAD PUSH2 0x61A SWAP1 PUSH2 0x274C JUMP JUMPDEST DUP1 ISZERO PUSH2 0x667 JUMPI DUP1 PUSH1 0x1F LT PUSH2 0x63C JUMPI PUSH2 0x100 DUP1 DUP4 SLOAD DIV MUL DUP4 MSTORE SWAP2 PUSH1 0x20 ADD SWAP2 PUSH2 0x667 JUMP JUMPDEST DUP3 ADD SWAP2 SWAP1 PUSH1 0x0 MSTORE PUSH1 0x20 PUSH1 0x0 KECCAK256 SWAP1 JUMPDEST DUP2 SLOAD DUP2 MSTORE SWAP1 PUSH1 0x1 ADD SWAP1 PUSH1 0x20 ADD DUP1 DUP4 GT PUSH2 0x64A JUMPI DUP3 SWAP1 SUB PUSH1 0x1F AND DUP3 ADD SWAP2 JUMPDEST POP POP POP POP POP DUP2 MSTORE POP POP DUP5 DUP4 DUP1 PUSH2 0x67C SWAP1 PUSH2 0x271B JUMP JUMPDEST SWAP5 POP DUP2 MLOAD DUP2 LT PUSH2 0x68E JUMPI PUSH2 0x68E PUSH2 0x2736 JUMP JUMPDEST PUSH1 0x20 MUL PUSH1 0x20 ADD ADD DUP2 SWAP1 MSTORE POP JUMPDEST DUP1 PUSH2 0x6A4 DUP2 PUSH2 0x271B JUMP JUMPDEST SWAP2 POP POP PUSH2 0x560 JUMP JUMPDEST POP POP POP SWAP1 JUMP JUMPDEST PUSH1 0x0 DUP2 DUP2 MSTORE PUSH1 0xA PUSH1 0x20 MSTORE PUSH1 0x40 SWAP1 KECCAK256 SLOAD PUSH1 0xFF AND PUSH2 0x6E9 JUMPI PUSH1 0x40 MLOAD PUSH3 0x461BCD PUSH1 0xE5 SHL DUP2 MSTORE PUSH1 0x4 ADD PUSH2 0x6E0 SWAP1 PUSH2 0x2787 JUMP JUMPDEST PUSH1 0x40 MLOAD DUP1 SWAP2 SUB SWAP1 REVERT JUMPDEST PUSH1 0x0 DUP2 DUP2 MSTORE PUSH1 0x9 PUSH1 0x20 SWAP1 DUP2 MSTORE PUSH1 0x40 DUP1 DUP4 KECCAK256 PUSH1 0x1 PUSH1 0x1 PUSH1 0xA0 SHL SUB DUP7 AND DUP5 MSTORE SWAP1 SWAP2 MSTORE SWAP1 KECCAK256 SLOAD PUSH1 0xFF AND ISZERO PUSH2 0x75C JUMPI PUSH1 0x40 MLOAD PUSH3 0x461BCD PUSH1 0xE5 SHL DUP2 MSTORE PUSH1 0x20 PUSH1 0x4 DUP3 ADD MSTORE PUSH1 0x1E PUSH1 0x24 DUP3 ADD MSTORE PUSH32 0x506C6179657220697320616C726561647920696E20746869732067616D650000 PUSH1 0x44 DUP3 ADD MSTORE PUSH1 0x64 ADD PUSH2 0x6E0 JUMP JUMPDEST PUSH1 0x40 DUP1 MLOAD PUSH1 0x60 DUP2 ADD DUP3 MSTORE PUSH1 0x1 PUSH1 0x1 PUSH1 0xA0 SHL SUB DUP5 AND DUP2 MSTORE PUSH1 0x0 PUSH1 0x20 DUP1 DUP4 ADD DUP3 SWAP1 MSTORE DUP5 DUP3 MSTORE PUSH1 0x6 SWAP1 MSTORE DUP3 SWAP1 KECCAK256 PUSH1 0x1 ADD DUP1 SLOAD SWAP2 SWAP3 DUP4 ADD SWAP2 PUSH2 0x799 SWAP1 PUSH2 0x274C JUMP JUMPDEST DUP1 PUSH1 0x1F ADD PUSH1 0x20 DUP1 SWAP2 DIV MUL PUSH1 0x20 ADD PUSH1 0x40 MLOAD SWAP1 DUP2 ADD PUSH1 0x40 MSTORE DUP1 SWAP3 SWAP2 SWAP1 DUP2 DUP2 MSTORE PUSH1 0x20 ADD DUP3 DUP1 SLOAD PUSH2 0x7C5 SWAP1 PUSH2 0x274C JUMP JUMPDEST DUP1 ISZERO PUSH2 0x812 JUMPI DUP1 PUSH1 0x1F LT PUSH2 0x7E7 JUMPI PUSH2 0x100 DUP1 DUP4 SLOAD DIV MUL DUP4 MSTORE SWAP2 PUSH1 0x20 ADD SWAP2 PUSH2 0x812 JUMP JUMPDEST DUP3 ADD SWAP2 SWAP1 PUSH1 0x0 MSTORE PUSH1 0x20 PUSH1 0x0 KECCAK256 SWAP1 JUMPDEST DUP2 SLOAD DUP2 MSTORE SWAP1 PUSH1 0x1 ADD SWAP1 PUSH1 0x20 ADD DUP1 DUP4 GT PUSH2 0x7F5 JUMPI DUP3 SWAP1 SUB PUSH1 0x1F AND DUP3 ADD SWAP2 JUMPDEST POP POP POP SWAP2 SWAP1 SWAP3 MSTORE POP POP PUSH1 0x1 PUSH1 0x1 PUSH1 0xA0 SHL SUB DUP1 DUP5 AND PUSH1 0x0 SWAP1 DUP2 MSTORE PUSH1 0x8 PUSH1 0x20 SWAP1 DUP2 MSTORE PUSH1 0x40 DUP1 DUP4 KECCAK256 DUP7 DUP5 MSTORE DUP3 MSTORE SWAP2 DUP3 SWAP1 KECCAK256 DUP5 MLOAD DUP2 SLOAD DUP7 DUP5 ADD MLOAD ISZERO ISZERO PUSH1 0x1 PUSH1 0xA0 SHL MUL PUSH1 0x1 PUSH1 0x1 PUSH1 0xA8 SHL SUB NOT SWAP1 SWAP2 AND SWAP2 SWAP1 SWAP6 AND OR SWAP4 SWAP1 SWAP4 OR DUP4 SSTORE SWAP1 DUP4 ADD MLOAD DUP1 MLOAD PUSH2 0x87D SWAP3 PUSH1 0x1 DUP6 ADD SWAP3 ADD SWAP1 PUSH2 0x201E JUMP JUMPDEST POP POP POP POP POP JUMP JUMPDEST PUSH1 0x0 DUP2 DUP2 MSTORE PUSH1 0xA PUSH1 0x20 MSTORE PUSH1 0x40 SWAP1 KECCAK256 SLOAD PUSH1 0xFF AND PUSH2 0x8B2 JUMPI PUSH1 0x40 MLOAD PUSH3 0x461BCD PUSH1 0xE5 SHL DUP2 MSTORE PUSH1 0x4 ADD PUSH2 0x6E0 SWAP1 PUSH2 0x2787 JUMP JUMPDEST PUSH1 0x0 DUP2 DUP2 MSTORE PUSH1 0x6 PUSH1 0x20 MSTORE PUSH1 0x40 SWAP1 KECCAK256 PUSH1 0x9 ADD SLOAD CALLVALUE LT ISZERO PUSH2 0x913 JUMPI PUSH1 0x40 MLOAD PUSH3 0x461BCD PUSH1 0xE5 SHL DUP2 MSTORE PUSH1 0x20 PUSH1 0x4 DUP3 ADD MSTORE PUSH1 0x1C PUSH1 0x24 DUP3 ADD MSTORE PUSH32 0x496E737566666369656E742066756E647320666F72207374616B657300000000 PUSH1 0x44 DUP3 ADD MSTORE PUSH1 0x64 ADD PUSH2 0x6E0 JUMP JUMPDEST CALLER PUSH1 0x0 DUP2 DUP2 MSTORE PUSH1 0x8 PUSH1 0x20 SWAP1 DUP2 MSTORE PUSH1 0x40 DUP1 DUP4 KECCAK256 DUP6 DUP5 MSTORE SWAP1 SWAP2 MSTORE SWAP1 KECCAK256 SLOAD PUSH1 0x1 PUSH1 0x1 PUSH1 0xA0 SHL SUB AND EQ PUSH2 0x97A JUMPI PUSH1 0x40 MLOAD PUSH3 0x461BCD PUSH1 0xE5 SHL DUP2 MSTORE PUSH1 0x20 PUSH1 0x4 DUP3 ADD MSTORE PUSH1 0x13 PUSH1 0x24 DUP3 ADD MSTORE PUSH19 0x556E617574686F72697A656420656E74697479 PUSH1 0x68 SHL PUSH1 0x44 DUP3 ADD MSTORE PUSH1 0x64 ADD PUSH2 0x6E0 JUMP JUMPDEST CALLER PUSH1 0x0 SWAP1 DUP2 MSTORE PUSH1 0x8 PUSH1 0x20 SWAP1 DUP2 MSTORE PUSH1 0x40 DUP1 DUP4 KECCAK256 DUP5 DUP5 MSTORE SWAP1 SWAP2 MSTORE SWAP1 KECCAK256 SLOAD PUSH1 0x1 PUSH1 0xA0 SHL SWAP1 DIV PUSH1 0xFF AND ISZERO PUSH2 0x9E2 JUMPI PUSH1 0x40 MLOAD PUSH3 0x461BCD PUSH1 0xE5 SHL DUP2 MSTORE PUSH1 0x20 PUSH1 0x4 DUP3 ADD MSTORE PUSH1 0x13 PUSH1 0x24 DUP3 ADD MSTORE PUSH19 0x141C995D9A5BDD5B1E481C995CDC1BDB991959 PUSH1 0x6A SHL PUSH1 0x44 DUP3 ADD MSTORE PUSH1 0x64 ADD PUSH2 0x6E0 JUMP JUMPDEST PUSH1 0x0 PUSH2 0x9ED DUP3 PUSH2 0x1C71 JUMP JUMPDEST SWAP1 POP DUP1 PUSH2 0xA35 JUMPI PUSH1 0x40 MLOAD PUSH3 0x461BCD PUSH1 0xE5 SHL DUP2 MSTORE PUSH1 0x20 PUSH1 0x4 DUP3 ADD MSTORE PUSH1 0x16 PUSH1 0x24 DUP3 ADD MSTORE PUSH22 0x141B185E595C8818DC99585D1A5BDB8819985A5B1959 PUSH1 0x52 SHL PUSH1 0x44 DUP3 ADD MSTORE PUSH1 0x64 ADD PUSH2 0x6E0 JUMP JUMPDEST POP CALLER PUSH1 0x0 SWAP1 DUP2 MSTORE PUSH1 0x8 PUSH1 0x20 SWAP1 DUP2 MSTORE PUSH1 0x40 DUP1 DUP4 KECCAK256 SWAP4 DUP4 MSTORE SWAP3 SWAP1 MSTORE KECCAK256 DUP1 SLOAD PUSH1 0xFF PUSH1 0xA0 SHL NOT AND PUSH1 0x1 PUSH1 0xA0 SHL OR SWAP1 SSTORE JUMP JUMPDEST PUSH1 0x0 DUP3 DUP2 MSTORE PUSH1 0x6 PUSH1 0x20 MSTORE PUSH1 0x40 SWAP1 KECCAK256 PUSH1 0x8 DUP2 ADD SLOAD PUSH1 0x5 SWAP1 SWAP2 ADD SLOAD PUSH2 0xA86 SWAP1 PUSH1 0x1 PUSH2 0x27B4 JUMP JUMPDEST EQ PUSH2 0xACC JUMPI PUSH1 0x40 MLOAD PUSH3 0x461BCD PUSH1 0xE5 SHL DUP2 MSTORE PUSH1 0x20 PUSH1 0x4 DUP3 ADD MSTORE PUSH1 0x16 PUSH1 0x24 DUP3 ADD MSTORE PUSH22 0x139BDD08195B9BDD59DA081C1B185E595C9CC81E595D PUSH1 0x52 SHL PUSH1 0x44 DUP3 ADD MSTORE PUSH1 0x64 ADD PUSH2 0x6E0 JUMP JUMPDEST PUSH1 0x0 DUP3 DUP2 MSTORE PUSH1 0xD PUSH1 0x20 SWAP1 DUP2 MSTORE PUSH1 0x40 DUP1 DUP4 KECCAK256 CALLER DUP5 MSTORE SWAP1 SWAP2 MSTORE SWAP1 KECCAK256 PUSH1 0x3 ADD SLOAD PUSH1 0xFF AND ISZERO PUSH2 0xB39 JUMPI PUSH1 0x40 MLOAD PUSH3 0x461BCD PUSH1 0xE5 SHL DUP2 MSTORE PUSH1 0x20 PUSH1 0x4 DUP3 ADD MSTORE PUSH1 0x17 PUSH1 0x24 DUP3 ADD MSTORE PUSH32 0x506C6179657220616C7265616479207265636F72646564000000000000000000 PUSH1 0x44 DUP3 ADD MSTORE PUSH1 0x64 ADD PUSH2 0x6E0 JUMP JUMPDEST PUSH1 0x0 DUP3 DUP2 MSTORE PUSH1 0x6 PUSH1 0x20 MSTORE PUSH1 0x40 SWAP1 KECCAK256 PUSH1 0xA ADD SLOAD PUSH2 0xB53 PUSH2 0x1D5D JUMP JUMPDEST LT ISZERO DUP1 ISZERO PUSH2 0xB78 JUMPI POP PUSH1 0x0 DUP3 DUP2 MSTORE PUSH1 0x6 PUSH1 0x20 MSTORE PUSH1 0x40 SWAP1 KECCAK256 PUSH1 0xB ADD SLOAD PUSH2 0xB76 PUSH2 0x1D5D JUMP JUMPDEST LT JUMPDEST PUSH2 0xBC4 JUMPI PUSH1 0x40 MLOAD PUSH3 0x461BCD PUSH1 0xE5 SHL DUP2 MSTORE PUSH1 0x20 PUSH1 0x4 DUP3 ADD MSTORE PUSH1 0x1C PUSH1 0x24 DUP3 ADD MSTORE PUSH32 0x47616D6520706C6179206D75737420626520696E2073657373696F6E00000000 PUSH1 0x44 DUP3 ADD MSTORE PUSH1 0x64 ADD PUSH2 0x6E0 JUMP JUMPDEST PUSH1 0x0 SWAP2 DUP3 MSTORE PUSH1 0xD PUSH1 0x20 SWAP1 DUP2 MSTORE PUSH1 0x40 DUP1 DUP5 KECCAK256 CALLER DUP6 MSTORE SWAP1 SWAP2 MSTORE SWAP1 SWAP2 KECCAK256 PUSH1 0x2 DUP2 ADD SWAP2 SWAP1 SWAP2 SSTORE PUSH1 0x3 ADD DUP1 SLOAD PUSH1 0xFF NOT AND PUSH1 0x1 OR SWAP1 SSTORE JUMP JUMPDEST PUSH1 0x0 DUP2 DUP2 MSTORE PUSH1 0xA PUSH1 0x20 MSTORE PUSH1 0x40 SWAP1 KECCAK256 SLOAD PUSH1 0xFF AND PUSH2 0xC24 JUMPI PUSH1 0x40 MLOAD PUSH3 0x461BCD PUSH1 0xE5 SHL DUP2 MSTORE PUSH1 0x4 ADD PUSH2 0x6E0 SWAP1 PUSH2 0x2787 JUMP JUMPDEST CALLER PUSH1 0x0 DUP2 DUP2 MSTORE PUSH1 0x8 PUSH1 0x20 SWAP1 DUP2 MSTORE PUSH1 0x40 DUP1 DUP4 KECCAK256 DUP6 DUP5 MSTORE SWAP1 SWAP2 MSTORE SWAP1 KECCAK256 SLOAD PUSH1 0x1 PUSH1 0x1 PUSH1 0xA0 SHL SUB AND EQ PUSH2 0xC95 JUMPI PUSH1 0x40 MLOAD PUSH3 0x461BCD PUSH1 0xE5 SHL DUP2 MSTORE PUSH1 0x20 PUSH1 0x4 DUP3 ADD DUP2 SWAP1 MSTORE PUSH1 0x24 DUP3 ADD MSTORE PUSH32 0x596F7520617265206E6F7420696E766974656420746F20746869732067616D65 PUSH1 0x44 DUP3 ADD MSTORE PUSH1 0x64 ADD PUSH2 0x6E0 JUMP JUMPDEST CALLER PUSH1 0x0 SWAP1 DUP2 MSTORE PUSH1 0x8 PUSH1 0x20 SWAP1 DUP2 MSTORE PUSH1 0x40 DUP1 DUP4 KECCAK256 DUP5 DUP5 MSTORE SWAP1 SWAP2 MSTORE SWAP1 KECCAK256 SLOAD PUSH1 0x1 PUSH1 0xA0 SHL SWAP1 DIV PUSH1 0xFF AND ISZERO PUSH2 0xD07 JUMPI PUSH1 0x40 MLOAD PUSH3 0x461BCD PUSH1 0xE5 SHL DUP2 MSTORE PUSH1 0x20 PUSH1 0x4 DUP3 ADD MSTORE PUSH1 0x1E PUSH1 0x24 DUP3 ADD MSTORE PUSH32 0x496E7669746174696F6E20697320616C72656164792072656A65637465640000 PUSH1 0x44 DUP3 ADD MSTORE PUSH1 0x64 ADD PUSH2 0x6E0 JUMP JUMPDEST CALLER PUSH1 0x0 SWAP1 DUP2 MSTORE PUSH1 0x8 PUSH1 0x20 SWAP1 DUP2 MSTORE PUSH1 0x40 DUP1 DUP4 KECCAK256 SWAP4 DUP4 MSTORE SWAP3 SWAP1 MSTORE KECCAK256 DUP1 SLOAD PUSH1 0xFF PUSH1 0xA0 SHL NOT AND PUSH1 0x1 PUSH1 0xA0 SHL OR SWAP1 SSTORE JUMP JUMPDEST PUSH2 0xD3B PUSH2 0x1D7C JUMP JUMPDEST PUSH2 0xD45 PUSH1 0x0 PUSH2 0x1DD6 JUMP JUMPDEST JUMP JUMPDEST PUSH2 0xD4F PUSH2 0x20A2 JUMP JUMPDEST PUSH1 0x6 PUSH1 0x0 DUP4 DUP2 MSTORE PUSH1 0x20 ADD SWAP1 DUP2 MSTORE PUSH1 0x20 ADD PUSH1 0x0 KECCAK256 PUSH1 0x40 MLOAD DUP1 PUSH2 0x1E0 ADD PUSH1 0x40 MSTORE SWAP1 DUP2 PUSH1 0x0 DUP3 ADD SLOAD DUP2 MSTORE PUSH1 0x20 ADD PUSH1 0x1 DUP3 ADD DUP1 SLOAD PUSH2 0xD88 SWAP1 PUSH2 0x274C JUMP JUMPDEST DUP1 PUSH1 0x1F ADD PUSH1 0x20 DUP1 SWAP2 DIV MUL PUSH1 0x20 ADD PUSH1 0x40 MLOAD SWAP1 DUP2 ADD PUSH1 0x40 MSTORE DUP1 SWAP3 SWAP2 SWAP1 DUP2 DUP2 MSTORE PUSH1 0x20 ADD DUP3 DUP1 SLOAD PUSH2 0xDB4 SWAP1 PUSH2 0x274C JUMP JUMPDEST DUP1 ISZERO PUSH2 0xE01 JUMPI DUP1 PUSH1 0x1F LT PUSH2 0xDD6 JUMPI PUSH2 0x100 DUP1 DUP4 SLOAD DIV MUL DUP4 MSTORE SWAP2 PUSH1 0x20 ADD SWAP2 PUSH2 0xE01 JUMP JUMPDEST DUP3 ADD SWAP2 SWAP1 PUSH1 0x0 MSTORE PUSH1 0x20 PUSH1 0x0 KECCAK256 SWAP1 JUMPDEST DUP2 SLOAD DUP2 MSTORE SWAP1 PUSH1 0x1 ADD SWAP1 PUSH1 0x20 ADD DUP1 DUP4 GT PUSH2 0xDE4 JUMPI DUP3 SWAP1 SUB PUSH1 0x1F AND DUP3 ADD SWAP2 JUMPDEST POP POP POP POP POP DUP2 MSTORE PUSH1 0x20 ADD PUSH1 0x2 DUP3 ADD DUP1 SLOAD PUSH2 0xE1A SWAP1 PUSH2 0x274C JUMP JUMPDEST DUP1 PUSH1 0x1F ADD PUSH1 0x20 DUP1 SWAP2 DIV MUL PUSH1 0x20 ADD PUSH1 0x40 MLOAD SWAP1 DUP2 ADD PUSH1 0x40 MSTORE DUP1 SWAP3 SWAP2 SWAP1 DUP2 DUP2 MSTORE PUSH1 0x20 ADD DUP3 DUP1 SLOAD PUSH2 0xE46 SWAP1 PUSH2 0x274C JUMP JUMPDEST DUP1 ISZERO PUSH2 0xE93 JUMPI DUP1 PUSH1 0x1F LT PUSH2 0xE68 JUMPI PUSH2 0x100 DUP1 DUP4 SLOAD DIV MUL DUP4 MSTORE SWAP2 PUSH1 0x20 ADD SWAP2 PUSH2 0xE93 JUMP JUMPDEST DUP3 ADD SWAP2 SWAP1 PUSH1 0x0 MSTORE PUSH1 0x20 PUSH1 0x0 KECCAK256 SWAP1 JUMPDEST DUP2 SLOAD DUP2 MSTORE SWAP1 PUSH1 0x1 ADD SWAP1 PUSH1 0x20 ADD DUP1 DUP4 GT PUSH2 0xE76 JUMPI DUP3 SWAP1 SUB PUSH1 0x1F AND DUP3 ADD SWAP2 JUMPDEST POP POP POP SWAP2 DUP4 MSTORE POP POP PUSH1 0x3 DUP3 ADD SLOAD PUSH1 0x1 PUSH1 0x1 PUSH1 0xA0 SHL SUB AND PUSH1 0x20 DUP3 ADD MSTORE PUSH1 0x4 DUP3 ADD SLOAD PUSH1 0x40 DUP3 ADD MSTORE PUSH1 0x5 DUP3 ADD SLOAD PUSH1 0x60 DUP3 ADD MSTORE PUSH1 0x6 DUP3 ADD SLOAD PUSH1 0x80 DUP3 ADD MSTORE PUSH1 0x7 DUP3 ADD SLOAD PUSH1 0xA0 DUP3 ADD MSTORE PUSH1 0x8 DUP3 ADD SLOAD PUSH1 0xC0 DUP3 ADD MSTORE PUSH1 0x9 DUP3 ADD SLOAD PUSH1 0xE0 DUP3 ADD MSTORE PUSH1 0xA DUP3 ADD SLOAD PUSH2 0x100 DUP1 DUP4 ADD SWAP2 SWAP1 SWAP2 MSTORE PUSH1 0xB DUP4 ADD SLOAD PUSH2 0x120 DUP4 ADD MSTORE PUSH1 0xC DUP4 ADD SLOAD PUSH2 0x140 DUP4 ADD MSTORE PUSH1 0xD SWAP1 SWAP3 ADD SLOAD PUSH1 0xFF DUP1 DUP3 AND ISZERO ISZERO PUSH2 0x160 DUP5 ADD MSTORE SWAP3 SWAP1 DIV SWAP1 SWAP2 AND ISZERO ISZERO PUSH2 0x180 SWAP1 SWAP2 ADD MSTORE SWAP3 SWAP2 POP POP JUMP JUMPDEST DUP1 MLOAD PUSH1 0x60 SWAP1 PUSH1 0x0 JUMPDEST PUSH2 0xF4A PUSH1 0x1 DUP4 PUSH2 0x27CC JUMP JUMPDEST DUP2 LT ISZERO PUSH2 0x11A4 JUMPI PUSH1 0x0 JUMPDEST PUSH1 0x1 PUSH2 0xF60 DUP4 DUP6 PUSH2 0x27CC JUMP JUMPDEST PUSH2 0xF6A SWAP2 SWAP1 PUSH2 0x27CC JUMP JUMPDEST DUP2 LT ISZERO PUSH2 0x1191 JUMPI DUP5 DUP2 DUP2 MLOAD DUP2 LT PUSH2 0xF83 JUMPI PUSH2 0xF83 PUSH2 0x2736 JUMP JUMPDEST PUSH1 0x20 MUL PUSH1 0x20 ADD ADD MLOAD PUSH1 0x60 ADD MLOAD DUP1 ISZERO PUSH2 0xFBF JUMPI POP DUP5 PUSH2 0xFA2 DUP3 PUSH1 0x1 PUSH2 0x27B4 JUMP JUMPDEST DUP2 MLOAD DUP2 LT PUSH2 0xFB2 JUMPI PUSH2 0xFB2 PUSH2 0x2736 JUMP JUMPDEST PUSH1 0x20 MUL PUSH1 0x20 ADD ADD MLOAD PUSH1 0x60 ADD MLOAD JUMPDEST ISZERO PUSH2 0x10A0 JUMPI DUP5 PUSH2 0xFD0 DUP3 PUSH1 0x1 PUSH2 0x27B4 JUMP JUMPDEST DUP2 MLOAD DUP2 LT PUSH2 0xFE0 JUMPI PUSH2 0xFE0 PUSH2 0x2736 JUMP JUMPDEST PUSH1 0x20 MUL PUSH1 0x20 ADD ADD MLOAD PUSH1 0x40 ADD MLOAD DUP6 DUP3 DUP2 MLOAD DUP2 LT PUSH2 0xFFE JUMPI PUSH2 0xFFE PUSH2 0x2736 JUMP JUMPDEST PUSH1 0x20 MUL PUSH1 0x20 ADD ADD MLOAD PUSH1 0x40 ADD MLOAD GT ISZERO PUSH2 0x109B JUMPI PUSH1 0x0 DUP6 DUP3 DUP2 MLOAD DUP2 LT PUSH2 0x1024 JUMPI PUSH2 0x1024 PUSH2 0x2736 JUMP JUMPDEST PUSH1 0x20 MUL PUSH1 0x20 ADD ADD MLOAD SWAP1 POP DUP6 DUP3 PUSH1 0x1 PUSH2 0x103C SWAP2 SWAP1 PUSH2 0x27B4 JUMP JUMPDEST DUP2 MLOAD DUP2 LT PUSH2 0x104C JUMPI PUSH2 0x104C PUSH2 0x2736 JUMP JUMPDEST PUSH1 0x20 MUL PUSH1 0x20 ADD ADD MLOAD DUP7 DUP4 DUP2 MLOAD DUP2 LT PUSH2 0x1066 JUMPI PUSH2 0x1066 PUSH2 0x2736 JUMP JUMPDEST PUSH1 0x20 SWAP1 DUP2 MUL SWAP2 SWAP1 SWAP2 ADD ADD MSTORE DUP1 DUP7 PUSH2 0x107E DUP5 PUSH1 0x1 PUSH2 0x27B4 JUMP JUMPDEST DUP2 MLOAD DUP2 LT PUSH2 0x108E JUMPI PUSH2 0x108E PUSH2 0x2736 JUMP JUMPDEST PUSH1 0x20 MUL PUSH1 0x20 ADD ADD DUP2 SWAP1 MSTORE POP POP JUMPDEST PUSH2 0x117F JUMP JUMPDEST DUP5 DUP2 DUP2 MLOAD DUP2 LT PUSH2 0x10B2 JUMPI PUSH2 0x10B2 PUSH2 0x2736 JUMP JUMPDEST PUSH1 0x20 MUL PUSH1 0x20 ADD ADD MLOAD PUSH1 0x60 ADD MLOAD ISZERO DUP1 ISZERO PUSH2 0x10EF JUMPI POP DUP5 PUSH2 0x10D2 DUP3 PUSH1 0x1 PUSH2 0x27B4 JUMP JUMPDEST DUP2 MLOAD DUP2 LT PUSH2 0x10E2 JUMPI PUSH2 0x10E2 PUSH2 0x2736 JUMP JUMPDEST PUSH1 0x20 MUL PUSH1 0x20 ADD ADD MLOAD PUSH1 0x60 ADD MLOAD JUMPDEST ISZERO PUSH2 0x117F JUMPI PUSH1 0x0 DUP6 DUP3 DUP2 MLOAD DUP2 LT PUSH2 0x1108 JUMPI PUSH2 0x1108 PUSH2 0x2736 JUMP JUMPDEST PUSH1 0x20 MUL PUSH1 0x20 ADD ADD MLOAD SWAP1 POP DUP6 DUP3 PUSH1 0x1 PUSH2 0x1120 SWAP2 SWAP1 PUSH2 0x27B4 JUMP JUMPDEST DUP2 MLOAD DUP2 LT PUSH2 0x1130 JUMPI PUSH2 0x1130 PUSH2 0x2736 JUMP JUMPDEST PUSH1 0x20 MUL PUSH1 0x20 ADD ADD MLOAD DUP7 DUP4 DUP2 MLOAD DUP2 LT PUSH2 0x114A JUMPI PUSH2 0x114A PUSH2 0x2736 JUMP JUMPDEST PUSH1 0x20 SWAP1 DUP2 MUL SWAP2 SWAP1 SWAP2 ADD ADD MSTORE DUP1 DUP7 PUSH2 0x1162 DUP5 PUSH1 0x1 PUSH2 0x27B4 JUMP JUMPDEST DUP2 MLOAD DUP2 LT PUSH2 0x1172 JUMPI PUSH2 0x1172 PUSH2 0x2736 JUMP JUMPDEST PUSH1 0x20 MUL PUSH1 0x20 ADD ADD DUP2 SWAP1 MSTORE POP POP JUMPDEST DUP1 PUSH2 0x1189 DUP2 PUSH2 0x271B JUMP JUMPDEST SWAP2 POP POP PUSH2 0xF54 JUMP JUMPDEST POP DUP1 PUSH2 0x119C DUP2 PUSH2 0x271B JUMP JUMPDEST SWAP2 POP POP PUSH2 0xF3F JUMP JUMPDEST POP SWAP2 SWAP3 SWAP2 POP POP JUMP JUMPDEST PUSH1 0x60 PUSH1 0x0 PUSH1 0x1 JUMPDEST PUSH1 0x2 SLOAD DUP2 GT PUSH2 0x121A JUMPI PUSH1 0x0 DUP2 DUP2 MSTORE PUSH1 0x6 PUSH1 0x20 MSTORE PUSH1 0x40 SWAP1 KECCAK256 PUSH1 0xD ADD SLOAD PUSH1 0xFF AND ISZERO DUP1 ISZERO PUSH2 0x11F5 JUMPI POP PUSH1 0x0 DUP2 DUP2 MSTORE PUSH1 0x6 PUSH1 0x20 MSTORE PUSH1 0x40 SWAP1 KECCAK256 PUSH1 0xD ADD SLOAD PUSH2 0x100 SWAP1 DIV PUSH1 0xFF AND ISZERO JUMPDEST ISZERO PUSH2 0x1208 JUMPI DUP2 PUSH2 0x1204 DUP2 PUSH2 0x271B JUMP JUMPDEST SWAP3 POP POP JUMPDEST DUP1 PUSH2 0x1212 DUP2 PUSH2 0x271B JUMP JUMPDEST SWAP2 POP POP PUSH2 0x11B3 JUMP JUMPDEST POP DUP1 PUSH8 0xFFFFFFFFFFFFFFFF DUP2 GT ISZERO PUSH2 0x1234 JUMPI PUSH2 0x1234 PUSH2 0x23F4 JUMP JUMPDEST PUSH1 0x40 MLOAD SWAP1 DUP1 DUP3 MSTORE DUP1 PUSH1 0x20 MUL PUSH1 0x20 ADD DUP3 ADD PUSH1 0x40 MSTORE DUP1 ISZERO PUSH2 0x126D JUMPI DUP2 PUSH1 0x20 ADD JUMPDEST PUSH2 0x125A PUSH2 0x20A2 JUMP JUMPDEST DUP2 MSTORE PUSH1 0x20 ADD SWAP1 PUSH1 0x1 SWAP1 SUB SWAP1 DUP2 PUSH2 0x1252 JUMPI SWAP1 POP JUMPDEST POP SWAP2 POP PUSH1 0x0 PUSH1 0x1 JUMPDEST PUSH1 0x2 SLOAD DUP2 GT PUSH2 0x6AC JUMPI PUSH1 0x0 DUP2 DUP2 MSTORE PUSH1 0x6 PUSH1 0x20 MSTORE PUSH1 0x40 SWAP1 KECCAK256 PUSH1 0xD ADD SLOAD PUSH1 0xFF AND ISZERO DUP1 ISZERO PUSH2 0x12B7 JUMPI POP PUSH1 0x0 DUP2 DUP2 MSTORE PUSH1 0x6 PUSH1 0x20 MSTORE PUSH1 0x40 SWAP1 KECCAK256 PUSH1 0xD ADD SLOAD PUSH2 0x100 SWAP1 DIV PUSH1 0xFF AND ISZERO JUMPDEST ISZERO PUSH2 0x14C7 JUMPI PUSH1 0x6 PUSH1 0x0 DUP3 DUP2 MSTORE PUSH1 0x20 ADD SWAP1 DUP2 MSTORE PUSH1 0x20 ADD PUSH1 0x0 KECCAK256 PUSH1 0x40 MLOAD DUP1 PUSH2 0x1E0 ADD PUSH1 0x40 MSTORE SWAP1 DUP2 PUSH1 0x0 DUP3 ADD SLOAD DUP2 MSTORE PUSH1 0x20 ADD PUSH1 0x1 DUP3 ADD DUP1 SLOAD PUSH2 0x12F5 SWAP1 PUSH2 0x274C JUMP JUMPDEST DUP1 PUSH1 0x1F ADD PUSH1 0x20 DUP1 SWAP2 DIV MUL PUSH1 0x20 ADD PUSH1 0x40 MLOAD SWAP1 DUP2 ADD PUSH1 0x40 MSTORE DUP1 SWAP3 SWAP2 SWAP1 DUP2 DUP2 MSTORE PUSH1 0x20 ADD DUP3 DUP1 SLOAD PUSH2 0x1321 SWAP1 PUSH2 0x274C JUMP JUMPDEST DUP1 ISZERO PUSH2 0x136E JUMPI DUP1 PUSH1 0x1F LT PUSH2 0x1343 JUMPI PUSH2 0x100 DUP1 DUP4 SLOAD DIV MUL DUP4 MSTORE SWAP2 PUSH1 0x20 ADD SWAP2 PUSH2 0x136E JUMP JUMPDEST DUP3 ADD SWAP2 SWAP1 PUSH1 0x0 MSTORE PUSH1 0x20 PUSH1 0x0 KECCAK256 SWAP1 JUMPDEST DUP2 SLOAD DUP2 MSTORE SWAP1 PUSH1 0x1 ADD SWAP1 PUSH1 0x20 ADD DUP1 DUP4 GT PUSH2 0x1351 JUMPI DUP3 SWAP1 SUB PUSH1 0x1F AND DUP3 ADD SWAP2 JUMPDEST POP POP POP POP POP DUP2 MSTORE PUSH1 0x20 ADD PUSH1 0x2 DUP3 ADD DUP1 SLOAD PUSH2 0x1387 SWAP1 PUSH2 0x274C JUMP JUMPDEST DUP1 PUSH1 0x1F ADD PUSH1 0x20 DUP1 SWAP2 DIV MUL PUSH1 0x20 ADD PUSH1 0x40 MLOAD SWAP1 DUP2 ADD PUSH1 0x40 MSTORE DUP1 SWAP3 SWAP2 SWAP1 DUP2 DUP2 MSTORE PUSH1 0x20 ADD DUP3 DUP1 SLOAD PUSH2 0x13B3 SWAP1 PUSH2 0x274C JUMP JUMPDEST DUP1 ISZERO PUSH2 0x1400 JUMPI DUP1 PUSH1 0x1F LT PUSH2 0x13D5 JUMPI PUSH2 0x100 DUP1 DUP4 SLOAD DIV MUL DUP4 MSTORE SWAP2 PUSH1 0x20 ADD SWAP2 PUSH2 0x1400 JUMP JUMPDEST DUP3 ADD SWAP2 SWAP1 PUSH1 0x0 MSTORE PUSH1 0x20 PUSH1 0x0 KECCAK256 SWAP1 JUMPDEST DUP2 SLOAD DUP2 MSTORE SWAP1 PUSH1 0x1 ADD SWAP1 PUSH1 0x20 ADD DUP1 DUP4 GT PUSH2 0x13E3 JUMPI DUP3 SWAP1 SUB PUSH1 0x1F AND DUP3 ADD SWAP2 JUMPDEST POP POP POP SWAP2 DUP4 MSTORE POP POP PUSH1 0x3 DUP3 ADD SLOAD PUSH1 0x1 PUSH1 0x1 PUSH1 0xA0 SHL SUB AND PUSH1 0x20 DUP3 ADD MSTORE PUSH1 0x4 DUP3 ADD SLOAD PUSH1 0x40 DUP3 ADD MSTORE PUSH1 0x5 DUP3 ADD SLOAD PUSH1 0x60 DUP3 ADD MSTORE PUSH1 0x6 DUP3 ADD SLOAD PUSH1 0x80 DUP3 ADD MSTORE PUSH1 0x7 DUP3 ADD SLOAD PUSH1 0xA0 DUP3 ADD MSTORE PUSH1 0x8 DUP3 ADD SLOAD PUSH1 0xC0 DUP3 ADD MSTORE PUSH1 0x9 DUP3 ADD SLOAD PUSH1 0xE0 DUP3 ADD MSTORE PUSH1 0xA DUP3 ADD SLOAD PUSH2 0x100 DUP1 DUP4 ADD SWAP2 SWAP1 SWAP2 MSTORE PUSH1 0xB DUP4 ADD SLOAD PUSH2 0x120 DUP4 ADD MSTORE PUSH1 0xC DUP4 ADD SLOAD PUSH2 0x140 DUP4 ADD MSTORE PUSH1 0xD SWAP1 SWAP3 ADD SLOAD PUSH1 0xFF DUP1 DUP3 AND ISZERO ISZERO PUSH2 0x160 DUP5 ADD MSTORE SWAP3 SWAP1 DIV SWAP1 SWAP2 AND ISZERO ISZERO PUSH2 0x180 SWAP1 SWAP2 ADD MSTORE DUP5 DUP4 PUSH2 0x14A9 DUP2 PUSH2 0x271B JUMP JUMPDEST SWAP5 POP DUP2 MLOAD DUP2 LT PUSH2 0x14BB JUMPI PUSH2 0x14BB PUSH2 0x2736 JUMP JUMPDEST PUSH1 0x20 MUL PUSH1 0x20 ADD ADD DUP2 SWAP1 MSTORE POP JUMPDEST DUP1 PUSH2 0x14D1 DUP2 PUSH2 0x271B JUMP JUMPDEST SWAP2 POP POP PUSH2 0x1275 JUMP JUMPDEST PUSH1 0x0 CALLVALUE GT PUSH2 0x1529 JUMPI PUSH1 0x40 MLOAD PUSH3 0x461BCD PUSH1 0xE5 SHL DUP2 MSTORE PUSH1 0x20 PUSH1 0x4 DUP3 ADD MSTORE PUSH1 0x17 PUSH1 0x24 DUP3 ADD MSTORE PUSH32 0x5374616B652066756E6473206973207265717569726564000000000000000000 PUSH1 0x44 DUP3 ADD MSTORE PUSH1 0x64 ADD PUSH2 0x6E0 JUMP JUMPDEST PUSH1 0x1 DUP6 GT PUSH2 0x1585 JUMPI PUSH1 0x40 MLOAD PUSH3 0x461BCD PUSH1 0xE5 SHL DUP2 MSTORE PUSH1 0x20 PUSH1 0x4 DUP3 ADD MSTORE PUSH1 0x24 DUP1 DUP3 ADD MSTORE PUSH32 0x506172746974696370616E7473206D7573742062652067726561746572207468 PUSH1 0x44 DUP3 ADD MSTORE PUSH4 0x616E2031 PUSH1 0xE0 SHL PUSH1 0x64 DUP3 ADD MSTORE PUSH1 0x84 ADD PUSH2 0x6E0 JUMP JUMPDEST PUSH1 0x5 DUP4 LT ISZERO PUSH2 0x15E1 JUMPI PUSH1 0x40 MLOAD PUSH3 0x461BCD PUSH1 0xE5 SHL DUP2 MSTORE PUSH1 0x20 PUSH1 0x4 DUP3 ADD MSTORE PUSH1 0x22 PUSH1 0x24 DUP3 ADD MSTORE PUSH32 0x4368616C6C656E676573206D757374206E6F74206265206C657373207468616E PUSH1 0x44 DUP3 ADD MSTORE PUSH2 0x2035 PUSH1 0xF0 SHL PUSH1 0x64 DUP3 ADD MSTORE PUSH1 0x84 ADD PUSH2 0x6E0 JUMP JUMPDEST PUSH1 0x0 DUP8 MLOAD GT PUSH2 0x1627 JUMPI PUSH1 0x40 MLOAD PUSH3 0x461BCD PUSH1 0xE5 SHL DUP2 MSTORE PUSH1 0x20 PUSH1 0x4 DUP3 ADD MSTORE PUSH1 0x12 PUSH1 0x24 DUP3 ADD MSTORE PUSH18 0x5469746C6520697320726571756972656421 PUSH1 0x70 SHL PUSH1 0x44 DUP3 ADD MSTORE PUSH1 0x64 ADD PUSH2 0x6E0 JUMP JUMPDEST PUSH1 0x0 DUP7 MLOAD GT PUSH2 0x1678 JUMPI PUSH1 0x40 MLOAD PUSH3 0x461BCD PUSH1 0xE5 SHL DUP2 MSTORE PUSH1 0x20 PUSH1 0x4 DUP3 ADD MSTORE PUSH1 0x18 PUSH1 0x24 DUP3 ADD MSTORE PUSH32 0x4465736372697074696F6E206973207265717569726564210000000000000000 PUSH1 0x44 DUP3 ADD MSTORE PUSH1 0x64 ADD PUSH2 0x6E0 JUMP JUMPDEST PUSH1 0x0 DUP3 GT PUSH2 0x16D4 JUMPI PUSH1 0x40 MLOAD PUSH3 0x461BCD PUSH1 0xE5 SHL DUP2 MSTORE PUSH1 0x20 PUSH1 0x4 DUP3 ADD MSTORE PUSH1 0x24 DUP1 DUP3 ADD MSTORE PUSH32 0x53746172742064617465206D7573742062652067726561746572207468616E20 PUSH1 0x44 DUP3 ADD MSTORE PUSH4 0x7A65726F PUSH1 0xE0 SHL PUSH1 0x64 DUP3 ADD MSTORE PUSH1 0x84 ADD PUSH2 0x6E0 JUMP JUMPDEST DUP2 DUP2 GT PUSH2 0x1734 JUMPI PUSH1 0x40 MLOAD PUSH3 0x461BCD PUSH1 0xE5 SHL DUP2 MSTORE PUSH1 0x20 PUSH1 0x4 DUP3 ADD MSTORE PUSH1 0x28 PUSH1 0x24 DUP3 ADD MSTORE PUSH32 0x456E642064617465206D7573742062652067726561746572207468616E207374 PUSH1 0x44 DUP3 ADD MSTORE PUSH8 0x6172742064617465 PUSH1 0xC0 SHL PUSH1 0x64 DUP3 ADD MSTORE PUSH1 0x84 ADD PUSH2 0x6E0 JUMP JUMPDEST PUSH1 0x0 DUP5 GT PUSH2 0x1784 JUMPI PUSH1 0x40 MLOAD PUSH3 0x461BCD PUSH1 0xE5 SHL DUP2 MSTORE PUSH1 0x20 PUSH1 0x4 DUP3 ADD MSTORE PUSH1 0x1B PUSH1 0x24 DUP3 ADD MSTORE PUSH32 0x4E756D626572204F662077696E6E657273207265717569726564210000000000 PUSH1 0x44 DUP3 ADD MSTORE PUSH1 0x64 ADD PUSH2 0x6E0 JUMP JUMPDEST PUSH2 0x1792 PUSH1 0x2 DUP1 SLOAD PUSH1 0x1 ADD SWAP1 SSTORE JUMP JUMPDEST PUSH1 0x0 PUSH2 0x179D PUSH1 0x2 SLOAD SWAP1 JUMP JUMPDEST SWAP1 POP PUSH1 0x0 PUSH2 0x17B1 DUP3 DUP11 DUP11 DUP11 DUP11 DUP11 DUP11 DUP11 PUSH2 0x1E26 JUMP JUMPDEST SWAP1 POP DUP1 PUSH2 0x17F7 JUMPI PUSH1 0x40 MLOAD PUSH3 0x461BCD PUSH1 0xE5 SHL DUP2 MSTORE PUSH1 0x20 PUSH1 0x4 DUP3 ADD MSTORE PUSH1 0x14 PUSH1 0x24 DUP3 ADD MSTORE PUSH20 0x11D85B594818DC99585D1A5BDB8819985A5B1959 PUSH1 0x62 SHL PUSH1 0x44 DUP3 ADD MSTORE PUSH1 0x64 ADD PUSH2 0x6E0 JUMP JUMPDEST PUSH2 0x1800 DUP3 PUSH2 0x1C71 JUMP JUMPDEST SWAP1 POP DUP1 PUSH2 0x1848 JUMPI PUSH1 0x40 MLOAD PUSH3 0x461BCD PUSH1 0xE5 SHL DUP2 MSTORE PUSH1 0x20 PUSH1 0x4 DUP3 ADD MSTORE PUSH1 0x16 PUSH1 0x24 DUP3 ADD MSTORE PUSH22 0x141B185E595C8818DC99585D1A5BDB8819985A5B1959 PUSH1 0x52 SHL PUSH1 0x44 DUP3 ADD MSTORE PUSH1 0x64 ADD PUSH2 0x6E0 JUMP JUMPDEST POP POP POP POP POP POP POP POP POP JUMP JUMPDEST PUSH1 0x0 DUP2 DUP2 MSTORE PUSH1 0xA PUSH1 0x20 MSTORE PUSH1 0x40 SWAP1 KECCAK256 SLOAD PUSH1 0xFF AND PUSH2 0x1881 JUMPI PUSH1 0x40 MLOAD PUSH3 0x461BCD PUSH1 0xE5 SHL DUP2 MSTORE PUSH1 0x4 ADD PUSH2 0x6E0 SWAP1 PUSH2 0x2787 JUMP JUMPDEST PUSH1 0x0 DUP2 DUP2 MSTORE PUSH1 0x6 PUSH1 0x20 MSTORE PUSH1 0x40 SWAP1 KECCAK256 PUSH1 0xB ADD SLOAD PUSH2 0x189B PUSH2 0x1D5D JUMP JUMPDEST GT PUSH2 0x18E0 JUMPI PUSH1 0x40 MLOAD PUSH3 0x461BCD PUSH1 0xE5 SHL DUP2 MSTORE PUSH1 0x20 PUSH1 0x4 DUP3 ADD MSTORE PUSH1 0x15 PUSH1 0x24 DUP3 ADD MSTORE PUSH21 0x23B0B6B29039BA34B6361034B71039B2B9B9B4B7B7 PUSH1 0x59 SHL PUSH1 0x44 DUP3 ADD MSTORE PUSH1 0x64 ADD PUSH2 0x6E0 JUMP JUMPDEST PUSH1 0x0 DUP2 DUP2 MSTORE PUSH1 0x6 PUSH1 0x20 MSTORE PUSH1 0x40 SWAP1 KECCAK256 PUSH1 0xD ADD SLOAD PUSH2 0x100 SWAP1 DIV PUSH1 0xFF AND ISZERO PUSH2 0x193F JUMPI PUSH1 0x40 MLOAD PUSH3 0x461BCD PUSH1 0xE5 SHL DUP2 MSTORE PUSH1 0x20 PUSH1 0x4 DUP3 ADD MSTORE PUSH1 0x15 PUSH1 0x24 DUP3 ADD MSTORE PUSH21 0x11D85B5948185B1C9958591E481C185A59081BDD5D PUSH1 0x5A SHL PUSH1 0x44 DUP3 ADD MSTORE PUSH1 0x64 ADD PUSH2 0x6E0 JUMP JUMPDEST PUSH1 0x5 SLOAD PUSH1 0x0 DUP3 DUP2 MSTORE PUSH1 0x6 PUSH1 0x20 MSTORE PUSH1 0x40 DUP2 KECCAK256 PUSH1 0x9 ADD SLOAD SWAP1 SWAP2 PUSH1 0x64 SWAP2 PUSH2 0x1963 SWAP2 SWAP1 PUSH2 0x27E3 JUMP JUMPDEST PUSH2 0x196D SWAP2 SWAP1 PUSH2 0x2802 JUMP JUMPDEST PUSH1 0x0 DUP4 DUP2 MSTORE PUSH1 0x6 PUSH1 0x20 MSTORE PUSH1 0x40 DUP2 KECCAK256 PUSH1 0x9 ADD SLOAD SWAP2 SWAP3 POP SWAP1 PUSH2 0x198E SWAP1 DUP4 SWAP1 PUSH2 0x27CC JUMP JUMPDEST SWAP1 POP PUSH2 0x19AB PUSH2 0x19A5 PUSH1 0x0 SLOAD PUSH1 0x1 PUSH1 0x1 PUSH1 0xA0 SHL SUB AND SWAP1 JUMP JUMPDEST DUP4 PUSH2 0x1FB9 JUMP JUMPDEST PUSH2 0x19B6 PUSH1 0x2 DUP4 PUSH2 0x2802 JUMP JUMPDEST PUSH2 0x19C0 SWAP1 DUP3 PUSH2 0x27CC JUMP JUMPDEST PUSH1 0x0 DUP5 DUP2 MSTORE PUSH1 0x6 PUSH1 0x20 MSTORE PUSH1 0x40 SWAP1 KECCAK256 PUSH1 0x3 ADD SLOAD SWAP1 SWAP2 POP PUSH2 0x19F2 SWAP1 PUSH1 0x1 PUSH1 0x1 PUSH1 0xA0 SHL SUB AND PUSH2 0x19ED PUSH1 0x2 DUP6 PUSH2 0x2802 JUMP JUMPDEST PUSH2 0x1FB9 JUMP JUMPDEST PUSH1 0x0 PUSH1 0x1 JUMPDEST PUSH1 0x3 SLOAD DUP2 GT PUSH2 0x1A39 JUMPI PUSH1 0x0 DUP2 DUP2 MSTORE PUSH1 0x7 PUSH1 0x20 MSTORE PUSH1 0x40 SWAP1 KECCAK256 PUSH1 0x1 ADD SLOAD DUP6 EQ ISZERO PUSH2 0x1A27 JUMPI DUP2 PUSH2 0x1A23 DUP2 PUSH2 0x271B JUMP JUMPDEST SWAP3 POP POP JUMPDEST DUP1 PUSH2 0x1A31 DUP2 PUSH2 0x271B JUMP JUMPDEST SWAP2 POP POP PUSH2 0x19F7 JUMP JUMPDEST POP PUSH1 0x0 DUP2 PUSH8 0xFFFFFFFFFFFFFFFF DUP2 GT ISZERO PUSH2 0x1A55 JUMPI PUSH2 0x1A55 PUSH2 0x23F4 JUMP JUMPDEST PUSH1 0x40 MLOAD SWAP1 DUP1 DUP3 MSTORE DUP1 PUSH1 0x20 MUL PUSH1 0x20 ADD DUP3 ADD PUSH1 0x40 MSTORE DUP1 ISZERO PUSH2 0x1AA7 JUMPI DUP2 PUSH1 0x20 ADD JUMPDEST PUSH1 0x40 DUP1 MLOAD PUSH1 0x80 DUP2 ADD DUP3 MSTORE PUSH1 0x0 DUP1 DUP3 MSTORE PUSH1 0x20 DUP1 DUP4 ADD DUP3 SWAP1 MSTORE SWAP3 DUP3 ADD DUP2 SWAP1 MSTORE PUSH1 0x60 DUP3 ADD MSTORE DUP3 MSTORE PUSH1 0x0 NOT SWAP1 SWAP3 ADD SWAP2 ADD DUP2 PUSH2 0x1A73 JUMPI SWAP1 POP JUMPDEST POP SWAP1 POP PUSH1 0x0 PUSH1 0x1 JUMPDEST PUSH1 0x3 SLOAD DUP2 GT PUSH2 0x1B72 JUMPI PUSH1 0x0 DUP2 DUP2 MSTORE PUSH1 0x7 PUSH1 0x20 MSTORE PUSH1 0x40 SWAP1 KECCAK256 PUSH1 0x1 ADD SLOAD DUP8 EQ ISZERO PUSH2 0x1B60 JUMPI PUSH1 0x0 DUP8 DUP2 MSTORE PUSH1 0xD PUSH1 0x20 SWAP1 DUP2 MSTORE PUSH1 0x40 DUP1 DUP4 KECCAK256 DUP5 DUP5 MSTORE PUSH1 0x7 DUP4 MSTORE DUP2 DUP5 KECCAK256 PUSH1 0x2 SWAP1 DUP2 ADD SLOAD PUSH1 0x1 PUSH1 0x1 PUSH1 0xA0 SHL SUB SWAP1 DUP2 AND DUP7 MSTORE SWAP2 DUP5 MSTORE SWAP4 DUP3 SWAP1 KECCAK256 DUP3 MLOAD PUSH1 0x80 DUP2 ADD DUP5 MSTORE DUP2 SLOAD DUP2 MSTORE PUSH1 0x1 DUP3 ADD SLOAD SWAP1 SWAP3 AND SWAP4 DUP3 ADD SWAP4 SWAP1 SWAP4 MSTORE SWAP3 DUP3 ADD SLOAD SWAP1 DUP4 ADD MSTORE PUSH1 0x3 ADD SLOAD PUSH1 0xFF AND ISZERO ISZERO PUSH1 0x60 DUP3 ADD MSTORE DUP4 DUP4 PUSH2 0x1B42 DUP2 PUSH2 0x271B JUMP JUMPDEST SWAP5 POP DUP2 MLOAD DUP2 LT PUSH2 0x1B54 JUMPI PUSH2 0x1B54 PUSH2 0x2736 JUMP JUMPDEST PUSH1 0x20 MUL PUSH1 0x20 ADD ADD DUP2 SWAP1 MSTORE POP JUMPDEST DUP1 PUSH2 0x1B6A DUP2 PUSH2 0x271B JUMP JUMPDEST SWAP2 POP POP PUSH2 0x1AAF JUMP JUMPDEST POP PUSH2 0x1B7C DUP3 PUSH2 0xF37 JUMP JUMPDEST SWAP2 POP PUSH1 0x0 JUMPDEST PUSH1 0x0 DUP8 DUP2 MSTORE PUSH1 0x6 PUSH1 0x20 MSTORE PUSH1 0x40 SWAP1 KECCAK256 PUSH1 0x5 ADD SLOAD DUP2 LT ISZERO PUSH2 0x1BEF JUMPI PUSH2 0x1BDD DUP4 DUP3 DUP2 MLOAD DUP2 LT PUSH2 0x1BAF JUMPI PUSH2 0x1BAF PUSH2 0x2736 JUMP JUMPDEST PUSH1 0x20 MUL PUSH1 0x20 ADD ADD MLOAD PUSH1 0x20 ADD MLOAD PUSH1 0x6 PUSH1 0x0 DUP11 DUP2 MSTORE PUSH1 0x20 ADD SWAP1 DUP2 MSTORE PUSH1 0x20 ADD PUSH1 0x0 KECCAK256 PUSH1 0x5 ADD SLOAD DUP8 PUSH2 0x19ED SWAP2 SWAP1 PUSH2 0x2802 JUMP JUMPDEST DUP1 PUSH2 0x1BE7 DUP2 PUSH2 0x271B JUMP JUMPDEST SWAP2 POP POP PUSH2 0x1B81 JUMP JUMPDEST POP POP POP POP POP POP POP JUMP JUMPDEST PUSH2 0x1C00 PUSH2 0x1D7C JUMP JUMPDEST PUSH1 0x1 PUSH1 0x1 PUSH1 0xA0 SHL SUB DUP2 AND PUSH2 0x1C65 JUMPI PUSH1 0x40 MLOAD PUSH3 0x461BCD PUSH1 0xE5 SHL DUP2 MSTORE PUSH1 0x20 PUSH1 0x4 DUP3 ADD MSTORE PUSH1 0x26 PUSH1 0x24 DUP3 ADD MSTORE PUSH32 0x4F776E61626C653A206E6577206F776E657220697320746865207A65726F2061 PUSH1 0x44 DUP3 ADD MSTORE PUSH6 0x646472657373 PUSH1 0xD0 SHL PUSH1 0x64 DUP3 ADD MSTORE PUSH1 0x84 ADD PUSH2 0x6E0 JUMP JUMPDEST PUSH2 0x1C6E DUP2 PUSH2 0x1DD6 JUMP JUMPDEST POP JUMP JUMPDEST PUSH1 0x0 PUSH2 0x1C81 PUSH1 0x3 DUP1 SLOAD PUSH1 0x1 ADD SWAP1 SSTORE JUMP JUMPDEST PUSH1 0x0 PUSH2 0x1C8C PUSH1 0x3 SLOAD SWAP1 JUMP JUMPDEST PUSH1 0x40 DUP1 MLOAD PUSH1 0x60 DUP2 ADD DUP3 MSTORE DUP3 DUP2 MSTORE PUSH1 0x20 DUP1 DUP3 ADD DUP8 DUP2 MSTORE CALLER DUP4 DUP6 ADD DUP2 DUP2 MSTORE PUSH1 0x0 DUP8 DUP2 MSTORE PUSH1 0x7 DUP6 MSTORE DUP7 DUP2 KECCAK256 SWAP6 MLOAD DUP7 SSTORE SWAP3 MLOAD PUSH1 0x1 DUP1 DUP8 ADD SWAP2 SWAP1 SWAP2 SSTORE SWAP1 MLOAD PUSH1 0x2 SWAP1 SWAP6 ADD DUP1 SLOAD PUSH1 0x1 PUSH1 0x1 PUSH1 0xA0 SHL SUB NOT AND PUSH1 0x1 PUSH1 0x1 PUSH1 0xA0 SHL SUB SWAP1 SWAP7 AND SWAP6 SWAP1 SWAP6 OR SWAP1 SWAP5 SSTORE DUP9 DUP3 MSTORE PUSH1 0x9 DUP4 MSTORE DUP5 DUP3 KECCAK256 SWAP1 DUP3 MSTORE DUP3 MSTORE DUP4 DUP2 KECCAK256 DUP1 SLOAD PUSH1 0xFF NOT SWAP1 DUP2 AND DUP6 OR SWAP1 SWAP2 SSTORE DUP6 DUP3 MSTORE PUSH1 0xB DUP4 MSTORE DUP5 DUP3 KECCAK256 DUP1 SLOAD SWAP1 SWAP2 AND SWAP1 SWAP4 OR SWAP1 SWAP3 SSTORE DUP7 DUP3 MSTORE PUSH1 0x6 SWAP1 MSTORE SWAP1 DUP2 KECCAK256 PUSH1 0x8 ADD DUP1 SLOAD SWAP3 SWAP4 POP SWAP1 PUSH2 0x1D38 DUP4 PUSH2 0x271B JUMP JUMPDEST SWAP2 SWAP1 POP SSTORE POP CALLVALUE PUSH1 0x4 PUSH1 0x0 DUP3 DUP3 SLOAD PUSH2 0x1D4F SWAP2 SWAP1 PUSH2 0x27B4 JUMP JUMPDEST SWAP1 SWAP2 SSTORE POP PUSH1 0x1 SWAP5 SWAP4 POP POP POP POP JUMP JUMPDEST PUSH1 0x0 PUSH2 0x1D6B TIMESTAMP PUSH2 0x3E8 PUSH2 0x27E3 JUMP JUMPDEST PUSH2 0x1D77 SWAP1 PUSH2 0x3E8 PUSH2 0x27B4 JUMP JUMPDEST SWAP1 POP SWAP1 JUMP JUMPDEST PUSH1 0x0 SLOAD PUSH1 0x1 PUSH1 0x1 PUSH1 0xA0 SHL SUB AND CALLER EQ PUSH2 0xD45 JUMPI PUSH1 0x40 MLOAD PUSH3 0x461BCD PUSH1 0xE5 SHL DUP2 MSTORE PUSH1 0x20 PUSH1 0x4 DUP3 ADD DUP2 SWAP1 MSTORE PUSH1 0x24 DUP3 ADD MSTORE PUSH32 0x4F776E61626C653A2063616C6C6572206973206E6F7420746865206F776E6572 PUSH1 0x44 DUP3 ADD MSTORE PUSH1 0x64 ADD PUSH2 0x6E0 JUMP JUMPDEST PUSH1 0x0 DUP1 SLOAD PUSH1 0x1 PUSH1 0x1 PUSH1 0xA0 SHL SUB DUP4 DUP2 AND PUSH1 0x1 PUSH1 0x1 PUSH1 0xA0 SHL SUB NOT DUP4 AND DUP2 OR DUP5 SSTORE PUSH1 0x40 MLOAD SWAP2 SWAP1 SWAP3 AND SWAP3 DUP4 SWAP2 PUSH32 0x8BE0079C531659141344CD1FD0A4F28419497F9722A3DAAFE3B4186F6B6457E0 SWAP2 SWAP1 LOG3 POP POP JUMP JUMPDEST PUSH1 0x0 PUSH2 0x1E30 PUSH2 0x20A2 JUMP JUMPDEST DUP10 DUP2 MSTORE PUSH1 0x20 DUP2 ADD DUP10 SWAP1 MSTORE PUSH1 0x40 DUP2 ADD DUP9 SWAP1 MSTORE CALLER PUSH1 0x60 DUP3 ADD MSTORE PUSH1 0x80 DUP2 ADD DUP8 SWAP1 MSTORE PUSH1 0xC0 DUP2 ADD DUP6 SWAP1 MSTORE PUSH1 0x1 PUSH2 0x100 DUP3 ADD MSTORE CALLVALUE PUSH2 0x120 DUP3 ADD MSTORE PUSH1 0xA0 DUP2 ADD DUP7 SWAP1 MSTORE PUSH2 0x140 DUP2 ADD DUP5 SWAP1 MSTORE PUSH2 0x160 DUP2 ADD DUP4 SWAP1 MSTORE PUSH2 0x1E83 PUSH2 0x1D5D JUMP JUMPDEST PUSH2 0x180 DUP3 ADD MSTORE PUSH1 0x0 DUP11 DUP2 MSTORE PUSH1 0x6 PUSH1 0x20 SWAP1 DUP2 MSTORE PUSH1 0x40 SWAP1 SWAP2 KECCAK256 DUP3 MLOAD DUP2 SSTORE DUP2 DUP4 ADD MLOAD DUP1 MLOAD DUP5 SWAP4 PUSH2 0x1EB7 SWAP3 PUSH1 0x1 DUP6 ADD SWAP3 SWAP2 ADD SWAP1 PUSH2 0x201E JUMP JUMPDEST POP PUSH1 0x40 DUP3 ADD MLOAD DUP1 MLOAD PUSH2 0x1ED3 SWAP2 PUSH1 0x2 DUP5 ADD SWAP2 PUSH1 0x20 SWAP1 SWAP2 ADD SWAP1 PUSH2 0x201E JUMP JUMPDEST POP PUSH1 0x60 DUP3 ADD MLOAD PUSH1 0x3 DUP3 ADD DUP1 SLOAD PUSH1 0x1 PUSH1 0x1 PUSH1 0xA0 SHL SUB NOT AND PUSH1 0x1 PUSH1 0x1 PUSH1 0xA0 SHL SUB SWAP1 SWAP3 AND SWAP2 SWAP1 SWAP2 OR SWAP1 SSTORE PUSH1 0x80 DUP3 ADD MLOAD PUSH1 0x4 DUP3 ADD SSTORE PUSH1 0xA0 DUP3 ADD MLOAD PUSH1 0x5 DUP3 ADD SSTORE PUSH1 0xC0 DUP3 ADD MLOAD PUSH1 0x6 DUP3 ADD SSTORE PUSH1 0xE0 DUP3 ADD MLOAD PUSH1 0x7 DUP3 ADD SSTORE PUSH2 0x100 DUP1 DUP4 ADD MLOAD PUSH1 0x8 DUP4 ADD SSTORE PUSH2 0x120 DUP4 ADD MLOAD PUSH1 0x9 DUP4 ADD SSTORE PUSH2 0x140 DUP4 ADD MLOAD PUSH1 0xA DUP1 DUP5 ADD SWAP2 SWAP1 SWAP2 SSTORE PUSH2 0x160 DUP5 ADD MLOAD PUSH1 0xB DUP5 ADD SSTORE PUSH2 0x180 DUP5 ADD MLOAD PUSH1 0xC DUP5 ADD SSTORE PUSH2 0x1A0 DUP5 ADD MLOAD PUSH1 0xD SWAP1 SWAP4 ADD DUP1 SLOAD PUSH2 0x1C0 SWAP1 SWAP6 ADD MLOAD PUSH2 0xFFFF NOT SWAP1 SWAP6 AND SWAP4 ISZERO ISZERO PUSH2 0xFF00 NOT AND SWAP4 SWAP1 SWAP4 OR SWAP4 ISZERO ISZERO SWAP1 SWAP2 MUL SWAP3 SWAP1 SWAP3 OR SWAP1 SSTORE PUSH1 0x0 SWAP11 DUP12 MSTORE PUSH1 0x20 MSTORE POP POP PUSH1 0x40 SWAP1 SWAP8 KECCAK256 DUP1 SLOAD PUSH1 0xFF NOT AND PUSH1 0x1 SWAP1 DUP2 OR SWAP1 SWAP2 SSTORE SWAP8 SWAP7 POP POP POP POP POP POP POP JUMP JUMPDEST PUSH1 0x0 DUP3 PUSH1 0x1 PUSH1 0x1 PUSH1 0xA0 SHL SUB AND DUP3 PUSH1 0x40 MLOAD PUSH1 0x0 PUSH1 0x40 MLOAD DUP1 DUP4 SUB DUP2 DUP6 DUP8 GAS CALL SWAP3 POP POP POP RETURNDATASIZE DUP1 PUSH1 0x0 DUP2 EQ PUSH2 0x2006 JUMPI PUSH1 0x40 MLOAD SWAP2 POP PUSH1 0x1F NOT PUSH1 0x3F RETURNDATASIZE ADD AND DUP3 ADD PUSH1 0x40 MSTORE RETURNDATASIZE DUP3 MSTORE RETURNDATASIZE PUSH1 0x0 PUSH1 0x20 DUP5 ADD RETURNDATACOPY PUSH2 0x200B JUMP JUMPDEST PUSH1 0x60 SWAP2 POP JUMPDEST POP POP SWAP1 POP DUP1 PUSH2 0x2019 JUMPI PUSH1 0x0 DUP1 REVERT JUMPDEST POP POP POP JUMP JUMPDEST DUP3 DUP1 SLOAD PUSH2 0x202A SWAP1 PUSH2 0x274C JUMP JUMPDEST SWAP1 PUSH1 0x0 MSTORE PUSH1 0x20 PUSH1 0x0 KECCAK256 SWAP1 PUSH1 0x1F ADD PUSH1 0x20 SWAP1 DIV DUP2 ADD SWAP3 DUP3 PUSH2 0x204C JUMPI PUSH1 0x0 DUP6 SSTORE PUSH2 0x2092 JUMP JUMPDEST DUP3 PUSH1 0x1F LT PUSH2 0x2065 JUMPI DUP1 MLOAD PUSH1 0xFF NOT AND DUP4 DUP1 ADD OR DUP6 SSTORE PUSH2 0x2092 JUMP JUMPDEST DUP3 DUP1 ADD PUSH1 0x1 ADD DUP6 SSTORE DUP3 ISZERO PUSH2 0x2092 JUMPI SWAP2 DUP3 ADD JUMPDEST DUP3 DUP2 GT ISZERO PUSH2 0x2092 JUMPI DUP3 MLOAD DUP3 SSTORE SWAP2 PUSH1 0x20 ADD SWAP2 SWAP1 PUSH1 0x1 ADD SWAP1 PUSH2 0x2077 JUMP JUMPDEST POP PUSH2 0x209E SWAP3 SWAP2 POP PUSH2 0x2125 JUMP JUMPDEST POP SWAP1 JUMP JUMPDEST PUSH1 0x40 MLOAD DUP1 PUSH2 0x1E0 ADD PUSH1 0x40 MSTORE DUP1 PUSH1 0x0 DUP2 MSTORE PUSH1 0x20 ADD PUSH1 0x60 DUP2 MSTORE PUSH1 0x20 ADD PUSH1 0x60 DUP2 MSTORE PUSH1 0x20 ADD PUSH1 0x0 PUSH1 0x1 PUSH1 0x1 PUSH1 0xA0 SHL SUB AND DUP2 MSTORE PUSH1 0x20 ADD PUSH1 0x0 DUP2 MSTORE PUSH1 0x20 ADD PUSH1 0x0 DUP2 MSTORE PUSH1 0x20 ADD PUSH1 0x0 DUP2 MSTORE PUSH1 0x20 ADD PUSH1 0x0 DUP2 MSTORE PUSH1 0x20 ADD PUSH1 0x0 DUP2 MSTORE PUSH1 0x20 ADD PUSH1 0x0 DUP2 MSTORE PUSH1 0x20 ADD PUSH1 0x0 DUP2 MSTORE PUSH1 0x20 ADD PUSH1 0x0 DUP2 MSTORE PUSH1 0x20 ADD PUSH1 0x0 DUP2 MSTORE PUSH1 0x20 ADD PUSH1 0x0 ISZERO ISZERO DUP2 MSTORE PUSH1 0x20 ADD PUSH1 0x0 ISZERO ISZERO DUP2 MSTORE POP SWAP1 JUMP JUMPDEST JUMPDEST DUP1 DUP3 GT ISZERO PUSH2 0x209E JUMPI PUSH1 0x0 DUP2 SSTORE PUSH1 0x1 ADD PUSH2 0x2126 JUMP JUMPDEST PUSH1 0x0 PUSH1 0x20 DUP3 DUP5 SUB SLT ISZERO PUSH2 0x214C JUMPI PUSH1 0x0 DUP1 REVERT JUMPDEST POP CALLDATALOAD SWAP2 SWAP1 POP JUMP JUMPDEST PUSH1 0x20 DUP1 DUP3 MSTORE DUP3 MLOAD DUP3 DUP3 ADD DUP2 SWAP1 MSTORE PUSH1 0x0 SWAP2 SWAP1 PUSH1 0x40 SWAP1 DUP2 DUP6 ADD SWAP1 DUP7 DUP5 ADD DUP6 JUMPDEST DUP3 DUP2 LT ISZERO PUSH2 0x21B5 JUMPI DUP2 MLOAD DUP1 MLOAD DUP6 MSTORE DUP7 DUP2 ADD MLOAD PUSH1 0x1 PUSH1 0x1 PUSH1 0xA0 SHL SUB AND DUP8 DUP7 ADD MSTORE DUP6 DUP2 ADD MLOAD DUP7 DUP7 ADD MSTORE PUSH1 0x60 SWAP1 DUP2 ADD MLOAD ISZERO ISZERO SWAP1 DUP6 ADD MSTORE PUSH1 0x80 SWAP1 SWAP4 ADD SWAP3 SWAP1 DUP6 ADD SWAP1 PUSH1 0x1 ADD PUSH2 0x2170 JUMP JUMPDEST POP SWAP2 SWAP8 SWAP7 POP POP POP POP POP POP POP JUMP JUMPDEST PUSH1 0x0 DUP2 MLOAD DUP1 DUP5 MSTORE PUSH1 0x0 JUMPDEST DUP2 DUP2 LT ISZERO PUSH2 0x21E8 JUMPI PUSH1 0x20 DUP2 DUP6 ADD DUP2 ADD MLOAD DUP7 DUP4 ADD DUP3 ADD MSTORE ADD PUSH2 0x21CC JUMP JUMPDEST DUP2 DUP2 GT ISZERO PUSH2 0x21FA JUMPI PUSH1 0x0 PUSH1 0x20 DUP4 DUP8 ADD ADD MSTORE JUMPDEST POP PUSH1 0x1F ADD PUSH1 0x1F NOT AND SWAP3 SWAP1 SWAP3 ADD PUSH1 0x20 ADD SWAP3 SWAP2 POP POP JUMP JUMPDEST PUSH1 0x0 PUSH1 0x20 DUP1 DUP4 ADD DUP2 DUP5 MSTORE DUP1 DUP6 MLOAD DUP1 DUP4 MSTORE PUSH1 0x40 SWAP3 POP DUP3 DUP7 ADD SWAP2 POP DUP3 DUP2 PUSH1 0x5 SHL DUP8 ADD ADD DUP5 DUP9 ADD PUSH1 0x0 JUMPDEST DUP4 DUP2 LT ISZERO PUSH2 0x228B JUMPI DUP9 DUP4 SUB PUSH1 0x3F NOT ADD DUP6 MSTORE DUP2 MLOAD DUP1 MLOAD PUSH1 0x1 PUSH1 0x1 PUSH1 0xA0 SHL SUB AND DUP5 MSTORE DUP8 DUP2 ADD MLOAD ISZERO ISZERO DUP9 DUP6 ADD MSTORE DUP7 ADD MLOAD PUSH1 0x60 DUP8 DUP6 ADD DUP2 SWAP1 MSTORE PUSH2 0x2277 DUP2 DUP7 ADD DUP4 PUSH2 0x21C2 JUMP JUMPDEST SWAP7 DUP10 ADD SWAP7 SWAP5 POP POP POP SWAP1 DUP7 ADD SWAP1 PUSH1 0x1 ADD PUSH2 0x2236 JUMP JUMPDEST POP SWAP1 SWAP9 SWAP8 POP POP POP POP POP POP POP POP JUMP JUMPDEST DUP1 CALLDATALOAD PUSH1 0x1 PUSH1 0x1 PUSH1 0xA0 SHL SUB DUP2 AND DUP2 EQ PUSH2 0x22B0 JUMPI PUSH1 0x0 DUP1 REVERT JUMPDEST SWAP2 SWAP1 POP JUMP JUMPDEST PUSH1 0x0 DUP1 PUSH1 0x40 DUP4 DUP6 SUB SLT ISZERO PUSH2 0x22C8 JUMPI PUSH1 0x0 DUP1 REVERT JUMPDEST PUSH2 0x22D1 DUP4 PUSH2 0x2299 JUMP JUMPDEST SWAP5 PUSH1 0x20 SWAP4 SWAP1 SWAP4 ADD CALLDATALOAD SWAP4 POP POP POP JUMP JUMPDEST PUSH1 0x0 DUP1 PUSH1 0x40 DUP4 DUP6 SUB SLT ISZERO PUSH2 0x22F2 JUMPI PUSH1 0x0 DUP1 REVERT JUMPDEST POP POP DUP1 CALLDATALOAD SWAP3 PUSH1 0x20 SWAP1 SWAP2 ADD CALLDATALOAD SWAP2 POP JUMP JUMPDEST PUSH1 0x0 PUSH2 0x1E0 DUP3 MLOAD DUP5 MSTORE PUSH1 0x20 DUP4 ADD MLOAD DUP2 PUSH1 0x20 DUP7 ADD MSTORE PUSH2 0x2321 DUP3 DUP7 ADD DUP3 PUSH2 0x21C2 JUMP JUMPDEST SWAP2 POP POP PUSH1 0x40 DUP4 ADD MLOAD DUP5 DUP3 SUB PUSH1 0x40 DUP7 ADD MSTORE PUSH2 0x233B DUP3 DUP3 PUSH2 0x21C2 JUMP JUMPDEST SWAP2 POP POP PUSH1 0x60 DUP4 ADD MLOAD PUSH2 0x2358 PUSH1 0x60 DUP7 ADD DUP3 PUSH1 0x1 PUSH1 0x1 PUSH1 0xA0 SHL SUB AND SWAP1 MSTORE JUMP JUMPDEST POP PUSH1 0x80 DUP4 DUP2 ADD MLOAD SWAP1 DUP6 ADD MSTORE PUSH1 0xA0 DUP1 DUP5 ADD MLOAD SWAP1 DUP6 ADD MSTORE PUSH1 0xC0 DUP1 DUP5 ADD MLOAD SWAP1 DUP6 ADD MSTORE PUSH1 0xE0 DUP1 DUP5 ADD MLOAD SWAP1 DUP6 ADD MSTORE PUSH2 0x100 DUP1 DUP5 ADD MLOAD SWAP1 DUP6 ADD MSTORE PUSH2 0x120 DUP1 DUP5 ADD MLOAD SWAP1 DUP6 ADD MSTORE PUSH2 0x140 DUP1 DUP5 ADD MLOAD SWAP1 DUP6 ADD MSTORE PUSH2 0x160 DUP1 DUP5 ADD MLOAD SWAP1 DUP6 ADD MSTORE PUSH2 0x180 DUP1 DUP5 ADD MLOAD SWAP1 DUP6 ADD MSTORE PUSH2 0x1A0 DUP1 DUP5 ADD MLOAD ISZERO ISZERO SWAP1 DUP6 ADD MSTORE PUSH2 0x1C0 SWAP3 DUP4 ADD MLOAD ISZERO ISZERO SWAP3 SWAP1 SWAP4 ADD SWAP2 SWAP1 SWAP2 MSTORE POP SWAP1 JUMP JUMPDEST PUSH1 0x20 DUP2 MSTORE PUSH1 0x0 PUSH2 0x23ED PUSH1 0x20 DUP4 ADD DUP5 PUSH2 0x2301 JUMP JUMPDEST SWAP4 SWAP3 POP POP POP JUMP JUMPDEST PUSH4 0x4E487B71 PUSH1 0xE0 SHL PUSH1 0x0 MSTORE PUSH1 0x41 PUSH1 0x4 MSTORE PUSH1 0x24 PUSH1 0x0 REVERT JUMPDEST PUSH1 0x40 MLOAD PUSH1 0x80 DUP2 ADD PUSH8 0xFFFFFFFFFFFFFFFF DUP2 GT DUP3 DUP3 LT OR ISZERO PUSH2 0x242D JUMPI PUSH2 0x242D PUSH2 0x23F4 JUMP JUMPDEST PUSH1 0x40 MSTORE SWAP1 JUMP JUMPDEST PUSH1 0x40 MLOAD PUSH1 0x1F DUP3 ADD PUSH1 0x1F NOT AND DUP2 ADD PUSH8 0xFFFFFFFFFFFFFFFF DUP2 GT DUP3 DUP3 LT OR ISZERO PUSH2 0x245C JUMPI PUSH2 0x245C PUSH2 0x23F4 JUMP JUMPDEST PUSH1 0x40 MSTORE SWAP2 SWAP1 POP JUMP JUMPDEST PUSH1 0x0 PUSH1 0x20 DUP1 DUP4 DUP6 SUB SLT ISZERO PUSH2 0x2477 JUMPI PUSH1 0x0 DUP1 REVERT JUMPDEST DUP3 CALLDATALOAD PUSH8 0xFFFFFFFFFFFFFFFF DUP1 DUP3 GT ISZERO PUSH2 0x248F JUMPI PUSH1 0x0 DUP1 REVERT JUMPDEST DUP2 DUP6 ADD SWAP2 POP DUP6 PUSH1 0x1F DUP4 ADD SLT PUSH2 0x24A3 JUMPI PUSH1 0x0 DUP1 REVERT JUMPDEST DUP2 CALLDATALOAD DUP2 DUP2 GT ISZERO PUSH2 0x24B5 JUMPI PUSH2 0x24B5 PUSH2 0x23F4 JUMP JUMPDEST PUSH2 0x24C3 DUP5 DUP3 PUSH1 0x5 SHL ADD PUSH2 0x2433 JUMP JUMPDEST DUP2 DUP2 MSTORE DUP5 DUP2 ADD SWAP3 POP PUSH1 0x7 SWAP2 SWAP1 SWAP2 SHL DUP4 ADD DUP5 ADD SWAP1 DUP8 DUP3 GT ISZERO PUSH2 0x24E3 JUMPI PUSH1 0x0 DUP1 REVERT JUMPDEST SWAP3 DUP5 ADD SWAP3 JUMPDEST DUP2 DUP5 LT ISZERO PUSH2 0x2551 JUMPI PUSH1 0x80 DUP5 DUP10 SUB SLT ISZERO PUSH2 0x2501 JUMPI PUSH1 0x0 DUP1 DUP2 REVERT JUMPDEST PUSH2 0x2509 PUSH2 0x240A JUMP JUMPDEST DUP5 CALLDATALOAD DUP2 MSTORE PUSH2 0x2518 DUP7 DUP7 ADD PUSH2 0x2299 JUMP JUMPDEST DUP2 DUP8 ADD MSTORE PUSH1 0x40 DUP6 DUP2 ADD CALLDATALOAD SWAP1 DUP3 ADD MSTORE PUSH1 0x60 DUP1 DUP7 ADD CALLDATALOAD DUP1 ISZERO ISZERO DUP2 EQ PUSH2 0x253B JUMPI PUSH1 0x0 DUP1 DUP2 REVERT JUMPDEST SWAP1 DUP3 ADD MSTORE DUP4 MSTORE PUSH1 0x80 SWAP4 SWAP1 SWAP4 ADD SWAP3 SWAP2 DUP5 ADD SWAP2 PUSH2 0x24E8 JUMP JUMPDEST SWAP8 SWAP7 POP POP POP POP POP POP POP JUMP JUMPDEST PUSH1 0x0 PUSH1 0x20 DUP1 DUP4 ADD DUP2 DUP5 MSTORE DUP1 DUP6 MLOAD DUP1 DUP4 MSTORE PUSH1 0x40 DUP7 ADD SWAP2 POP PUSH1 0x40 DUP2 PUSH1 0x5 SHL DUP8 ADD ADD SWAP3 POP DUP4 DUP8 ADD PUSH1 0x0 JUMPDEST DUP3 DUP2 LT ISZERO PUSH2 0x25B1 JUMPI PUSH1 0x3F NOT DUP9 DUP7 SUB ADD DUP5 MSTORE PUSH2 0x259F DUP6 DUP4 MLOAD PUSH2 0x2301 JUMP JUMPDEST SWAP5 POP SWAP3 DUP6 ADD SWAP3 SWAP1 DUP6 ADD SWAP1 PUSH1 0x1 ADD PUSH2 0x2583 JUMP JUMPDEST POP SWAP3 SWAP8 SWAP7 POP POP POP POP POP POP POP JUMP JUMPDEST PUSH1 0x0 DUP3 PUSH1 0x1F DUP4 ADD SLT PUSH2 0x25CF JUMPI PUSH1 0x0 DUP1 REVERT JUMPDEST DUP2 CALLDATALOAD PUSH8 0xFFFFFFFFFFFFFFFF DUP2 GT ISZERO PUSH2 0x25E9 JUMPI PUSH2 0x25E9 PUSH2 0x23F4 JUMP JUMPDEST PUSH2 0x25FC PUSH1 0x1F DUP3 ADD PUSH1 0x1F NOT AND PUSH1 0x20 ADD PUSH2 0x2433 JUMP JUMPDEST DUP2 DUP2 MSTORE DUP5 PUSH1 0x20 DUP4 DUP7 ADD ADD GT ISZERO PUSH2 0x2611 JUMPI PUSH1 0x0 DUP1 REVERT JUMPDEST DUP2 PUSH1 0x20 DUP6 ADD PUSH1 0x20 DUP4 ADD CALLDATACOPY PUSH1 0x0 SWAP2 DUP2 ADD PUSH1 0x20 ADD SWAP2 SWAP1 SWAP2 MSTORE SWAP4 SWAP3 POP POP POP JUMP JUMPDEST PUSH1 0x0 DUP1 PUSH1 0x0 DUP1 PUSH1 0x0 DUP1 PUSH1 0x0 PUSH1 0xE0 DUP9 DUP11 SUB SLT ISZERO PUSH2 0x2649 JUMPI PUSH1 0x0 DUP1 REVERT JUMPDEST DUP8 CALLDATALOAD PUSH8 0xFFFFFFFFFFFFFFFF DUP1 DUP3 GT ISZERO PUSH2 0x2661 JUMPI PUSH1 0x0 DUP1 REVERT JUMPDEST PUSH2 0x266D DUP12 DUP4 DUP13 ADD PUSH2 0x25BE JUMP JUMPDEST SWAP9 POP PUSH1 0x20 DUP11 ADD CALLDATALOAD SWAP2 POP DUP1 DUP3 GT ISZERO PUSH2 0x2683 JUMPI PUSH1 0x0 DUP1 REVERT JUMPDEST POP PUSH2 0x2690 DUP11 DUP3 DUP12 ADD PUSH2 0x25BE JUMP JUMPDEST SWAP8 SWAP11 SWAP8 SWAP10 POP POP POP POP PUSH1 0x40 DUP7 ADD CALLDATALOAD SWAP6 PUSH1 0x60 DUP2 ADD CALLDATALOAD SWAP6 PUSH1 0x80 DUP3 ADD CALLDATALOAD SWAP6 POP PUSH1 0xA0 DUP3 ADD CALLDATALOAD SWAP5 POP PUSH1 0xC0 SWAP1 SWAP2 ADD CALLDATALOAD SWAP3 POP SWAP1 POP JUMP JUMPDEST PUSH1 0x0 PUSH1 0x20 DUP3 DUP5 SUB SLT ISZERO PUSH2 0x26D0 JUMPI PUSH1 0x0 DUP1 REVERT JUMPDEST PUSH2 0x23ED DUP3 PUSH2 0x2299 JUMP JUMPDEST PUSH1 0x0 DUP1 PUSH1 0x40 DUP4 DUP6 SUB SLT ISZERO PUSH2 0x26EC JUMPI PUSH1 0x0 DUP1 REVERT JUMPDEST DUP3 CALLDATALOAD SWAP2 POP PUSH2 0x26FC PUSH1 0x20 DUP5 ADD PUSH2 0x2299 JUMP JUMPDEST SWAP1 POP SWAP3 POP SWAP3 SWAP1 POP JUMP JUMPDEST PUSH4 0x4E487B71 PUSH1 0xE0 SHL PUSH1 0x0 MSTORE PUSH1 0x11 PUSH1 0x4 MSTORE PUSH1 0x24 PUSH1 0x0 REVERT JUMPDEST PUSH1 0x0 PUSH1 0x0 NOT DUP3 EQ ISZERO PUSH2 0x272F JUMPI PUSH2 0x272F PUSH2 0x2705 JUMP JUMPDEST POP PUSH1 0x1 ADD SWAP1 JUMP JUMPDEST PUSH4 0x4E487B71 PUSH1 0xE0 SHL PUSH1 0x0 MSTORE PUSH1 0x32 PUSH1 0x4 MSTORE PUSH1 0x24 PUSH1 0x0 REVERT JUMPDEST PUSH1 0x1 DUP2 DUP2 SHR SWAP1 DUP3 AND DUP1 PUSH2 0x2760 JUMPI PUSH1 0x7F DUP3 AND SWAP2 POP JUMPDEST PUSH1 0x20 DUP3 LT DUP2 EQ ISZERO PUSH2 0x2781 JUMPI PUSH4 0x4E487B71 PUSH1 0xE0 SHL PUSH1 0x0 MSTORE PUSH1 0x22 PUSH1 0x4 MSTORE PUSH1 0x24 PUSH1 0x0 REVERT JUMPDEST POP SWAP2 SWAP1 POP JUMP JUMPDEST PUSH1 0x20 DUP1 DUP3 MSTORE PUSH1 0x13 SWAP1 DUP3 ADD MSTORE PUSH19 0x11D85B5948191BD95CC81B9BDD08195E1A5CDD PUSH1 0x6A SHL PUSH1 0x40 DUP3 ADD MSTORE PUSH1 0x60 ADD SWAP1 JUMP JUMPDEST PUSH1 0x0 DUP3 NOT DUP3 GT ISZERO PUSH2 0x27C7 JUMPI PUSH2 0x27C7 PUSH2 0x2705 JUMP JUMPDEST POP ADD SWAP1 JUMP JUMPDEST PUSH1 0x0 DUP3 DUP3 LT ISZERO PUSH2 0x27DE JUMPI PUSH2 0x27DE PUSH2 0x2705 JUMP JUMPDEST POP SUB SWAP1 JUMP JUMPDEST PUSH1 0x0 DUP2 PUSH1 0x0 NOT DIV DUP4 GT DUP3 ISZERO ISZERO AND ISZERO PUSH2 0x27FD JUMPI PUSH2 0x27FD PUSH2 0x2705 JUMP JUMPDEST POP MUL SWAP1 JUMP JUMPDEST PUSH1 0x0 DUP3 PUSH2 0x281F JUMPI PUSH4 0x4E487B71 PUSH1 0xE0 SHL PUSH1 0x0 MSTORE PUSH1 0x12 PUSH1 0x4 MSTORE PUSH1 0x24 PUSH1 0x0 REVERT JUMPDEST POP DIV SWAP1 JUMP INVALID LOG2 PUSH5 0x6970667358 0x22 SLT KECCAK256 0xD7 CREATE2 0x24 CODECOPY SWAP5 0xAC DUP2 0x4B RETURNDATACOPY 0x25 CREATE2 SWAP16 0xBC 0x49 SWAP15 0x5E 0xBD 0xEE SHL 0xD2 SDIV 0xA7 DUP1 BYTE SLT SWAP8 0xEB 0x5D 0xE6 RETURNDATASIZE 0xBA 0xDB PUSH5 0x736F6C6343 STOP ADDMOD SIGNEXTEND STOP CALLER "},"methodIdentifiers":{"acceptInvitation(uint256)":"464c5b6c","createGame(string,string,uint256,uint256,uint256,uint256,uint256)":"d4c33fe9","getGame(uint256)":"a2f77bcc","getGames()":"c04c5947","getInvitations()":"16845714","getScores(uint256)":"04527d90","invitePlayer(address,uint256)":"2246fe0b","isPlayerListed(uint256,address)":"f51ba29d","owner()":"8da5cb5b","payout(uint256)":"e1152343","recordScore(uint256,uint256)":"4e56799e","rejectInvitation(uint256)":"5aa6bb3b","renounceOwnership()":"715018a6","sortScores((uint256,address,uint256,bool)[])":"a4e1370d","transferOwnership(address)":"f2fde38b"}}}}}